:04000000B2EFD0F09B
:080008008BEF00F00000000086
:100010000000000000000000046ED8CF05F0E0CF23
:1000200006F00001E9CF0CF0EACF07F0E1CF08F0CD
:10003000E2CF09F0D9CF0AF0DACF0BF0F3CF12F00C
:10004000F4CF13F0FACF14F0F5CF15F0F6CF16F089
:10005000F7CF17F0F8CF18F0FBCF19F000C00EF073
:1000600001C00FF002C010F003C011F0A3AA3CEFD2
:1000700000F0A4BA09EF03F0A0A242EF00F0A1B291
:1000800071EF07F0F0A648EF00F0F0B012EF07F0C4
:10009000F2A64EEF00F0F2B08CEF07F0F0AA54EFAA
:1000A00000F0F0B426EF07F0B9AA5AEF00F0BABAA0
:1000B0006DEF03F0B9AC60EF00F0BABC12EF05F0E1
:1000C0000EC000F00FC001F010C002F011C003F02C
:1000D0000CC0E9FF07C0EAFF078E08C0E1FF09C0B6
:1000E000E2FF0AC0D9FF0BC0DAFF12C0F3FF13C052
:1000F000F4FF14C0FAFF15C0F5FF16C0F6FF17C0D5
:10010000F7FF18C0F8FF19C0FBFF045006C0E0FF5E
:1001100005C0D8FF10001C6ED8CF1DF0E0CF1EF038
:100120000001E9CF24F0EACF1FF0E1CF20F0E2CFC9
:1001300021F0D9CF22F0DACF23F0F3CF2AF0F4CF99
:100140002BF0FACF2CF0F5CF2DF0F6CF2EF0F7CF25
:100150002FF0F8CF30F0FBCF31F000C026F001C017
:1001600027F002C028F003C029F0F2A8BBEF00F08E
:10017000F2B270EF06F026C000F027C001F028C0F0
:1001800002F029C003F024C0E9FF1FC0EAFF1F8E60
:1001900020C0E1FF21C0E2FF22C0D9FF23C0DAFF67
:1001A0002AC0F3FF2BC0F4FF2CC0FAFF2DC0F5FFCF
:1001B0002EC0F6FF2FC0F7FF30C0F8FF31C0FBFFA5
:1001C0001C501EC0E0FF1DC0D8FF1000F76AE00FF2
:1001D000F66E010EF722000EF86E0900F5501200BF
:1001E000546D6F643D2020307300F76AFE0FF66E89
:1001F000010EF722000EF86E0900F5501200424978
:10020000504F4C415200F76A1A0FF66E020EF72259
:10021000000EF86E0900F55012002020202020204A
:1002200020202020202020200000F76A3E0FF66EBC
:10023000020EF722000EF86E0900F55012005472FB
:10024000656E65730000ECCFFAFFECCFFBFFED525B
:10025000ED52EFCFE8FFF96E12004275696C643A17
:1002600020256C75202D20256C75202D20307825BB
:100270004C58000054613D2532753A2530327520C6
:10028000730054643D2532753A2530327520730071
:10029000546D6F643D253375732020004E3D25322B
:1002A0007520202020202000493D25356C755B41BC
:1002B00020200000496D696E3D25356C755B41203D
:1002C0002000466D696E3D25336C75487A00466D99
:1002D00061783D25336C75487A00463D25346C7550
:1002E000487A20200000463D25346C75487A20204D
:1002F000000050576D61782025336C7525637300BD
:1003000050576D696E2025336C7525637300505707
:100310002B3D2025346C75256373000050572D3D0F
:100320002025346C752563730000496D696E3D2589
:10033000356C755B41202000463D25346C75487A4C
:1003400020200000463D25346C75487A20200000AE
:1003500050572B3D2025346C752563730000505792
:100360002D3D2025346C75256373000050573D25C5
:10037000344C55205B7300004E503D25346C7500A5
:1003800053503D253475206D73004E423D25347524
:10039000000053423D25346C75206D7300004E54AF
:1003A0003D253475000053543D25347520730000FD
:1003B00049203D25354C55205B41000054613D25C9
:1003C00032753A25303275207300202020202020FD
:1003D000204620202025334C55487A00466D696E12
:1003E000202025336C75487A20466D6178202025C1
:1003F000336C75487A0050572B2025334C552563B4
:10040000730050572D2025334C55256373005057EA
:100410006D696E2025334C552563730050576D610F
:10042000782025334C552563730025354C55206FB6
:10043000686D000025354C55206D5600546120250F
:1004400032753A25303275005464202532753A25CC
:10045000303275002020204E202532750000505784
:10046000203D20256C75205B73002020202020205B
:100470002020000049613D25356C75205B4100005E
:1004800020202020202020202020200049703D25F1
:10049000356C75205B41000020202020202020208A
:1004A0002020200049623D25356C75205B4100000D
:1004B00020202020202020202020200049633D25CE
:1004C000356C75205B41000020202020202020205A
:1004D0002020200025354C55205B410025354C550A
:1004E000206D560025354C55206F686D0000517504
:1004F0006564616E20254C7520736567756E646F49
:100500007300253275206820253275206D696E20B4
:10051000000020202020202020202020202020201B
:1005200020202020202020202020202020202020CB
:1005300020200000563A202530344C64206D56208F
:10054000493A202530344C64206D41204261743A90
:100550002025752025250000A4AAFED70F0122CF53
:1005600033F01DCF01F033A202D02299228900017D
:100570000BEF03F009017091036A6F51090FE96EE7
:10058000070E0320EA6EEF500601F45D25E024E338
:100590000501FA51050819E1FB2D17D0036A09017D
:1005A0006F51090FE96E070E0320EA6E020EEF2469
:1005B0000601F45D04E10901708103D0060109011F
:1005C00070910701089306D00501070108930901FE
:1005D0007091070116D00601036A09016F51090FD6
:1005E000E96E070E0320EA6EEF500601F45D06E2A5
:1005F000070108830901709103D006010901708188
:100600000701000E090170B1010E016E000138EF03
:1006100003F05480A1D701C0F8F60601F4530EE1AF
:10062000F85114080AE3F451F42B036AFA0FE96E47
:10063000050E0320EA6EF8C6EFFF31D0F451F42B1B
:10064000036AFA0FE96E050E0320EA6EF8C6EFFFA3
:10065000F451010824E2F8510D0802E0F7A51FD07B
:10066000F785F8510A0817E1FAC56FF9000182D73A
:10067000015205E058880601F46B0BD00001070118
:1006800008B304D00601F46B5490070108935898FE
:100690000601F79504D0F8510D0801E0F795A49AEA
:1006A000000160EF00F009016F530EE001010953F2
:1006B00002E10A5307E00C0E6E6EC66BC56BC46B8D
:1006C000C36B568608D009016E6A56960101C66B47
:1006D000C56BC46BC36B0001120056A62CD0010E73
:1006E0000101C327D8B0C42BD8B4C52BD8B4C62BAE
:1006F000CA51C65D0CE317E1C951C55D08E313E1BA
:10070000C851C45D04E30FE1C351C75D0CE3C65398
:100710000AE1C55308E1C45112080EE2FF0A03E1E1
:10072000C351880809E2C66BC56BC46BC36B090172
:100730006F6B0001B8DF010156B80FD1010E93278E
:10074000D8B0942BD8B4952BD8B4962B010E8F2704
:10075000D8B0902BD8B4912BD8B4922B010EBF27D0
:10076000D8B0C02BD8B4C12BD8B4C22B010EB3273C
:10077000D8B0B42BD8B4B52BD8B4B62BCE51B65D07
:100780002AE30BE1CD51B55D26E307E1CC51B45D21
:1007900022E303E1CB51B35D1EE3B66BB56BB46BE3
:1007A000B36B070108B10DD081BC0BD00101CE6B3A
:1007B000CD6BCC6B640ECB6FF40E986E8F760BD036
:1007C000070108A102D081AC00D00101CE6BCD6B36
:1007D000CC6B0A0ECB6FC2530AE1C15308E1C05182
:1007E0000A080AE2FF0A03E1BF51B80805E2C26B3A
:1007F000C16BC06BBF6B569200016B5179080BE067
:100800006B51830808E06B518D0805E06B51B5080A
:1008100002E0875320E0010E01019727D8B0982B02
:10082000D8B4992BD8B49A2B9A530AE1995308E17A
:1008300098510A080FE2FF0A03E19751B8080AE24B
:100840009A6B996B986B976B54AA02D056BA02D0E8
:100850005188518C000187530CE158BC0AD058BE16
:1008600008D00601F7A102D0000103D04FAA76D02C
:1008700000016453D8A402D0060170D058BE04D041
:100880000601F7A157D000014FAA07D0030E0101BE
:100890008C6FE40E8B6F3BD00001000E4FB8010E41
:1008A000006ED89000360050036A130FE96E010EF7
:1008B0000320EA6EECCF70F9ED52EFCF6FF909012A
:1008C000705320E16F5103081DE3000E4FB8010E75
:1008D000006ED89000360050036A130FE96E010EC7
:1008E0000320EA6EECCF70F9ED52EFCF6FF96F5342
:1008F00002E1705307E0030E01018C6FCA0E8B6F8B
:1009000006D00901030E01018C6FE10E8B6F92532B
:1009100009E1915307E18C51905D0AE303E18B51AA
:100920008F5D06E34E82926B916B906B8F6B518C57
:1009300014D00601010192530AE1915308E190514C
:1009400002080BE2FF0A03E18F51E00806E24E8243
:10095000926B916B906B8F6B518C0601BA9A000170
:1009600060EF00F0000E81B2010E016EDFEF04F0C7
:1009700009016FC9E9FF70C9EAFFECCF74F9ED52C4
:10098000EFCF73F9D8907335026E743570C9EAFFF2
:100990006FC9E9FFEC6EED5202C0EFFF6FC971F94C
:1009A00070C972F970C903F06FC9E9FF70C9EAFF35
:1009B000ECCF74F9ED52EFCF73F90001D3D70901F1
:1009C0007351011074C903F072C9EAFF71C9E9FFDC
:1009D00074C9ECFFED52EF6E000112000901716B5A
:1009E00070C903F06FC9E9FF70C9EAFFECCF73F972
:1009F000ED52EFCF72F9C00E72130F0E73137251D6
:100A0000C0080BE1733D09D0010E716F6FC9E9FF9A
:100A100070C9EAFFEC68ED52EF6871C901F000019E
:100A200024EF05F0692B69510F0824E3010E090139
:100A3000706F070E6F6F00019BDF010E0901706F71
:100A4000070E6F6F0001CAD74E9401B04E844EA4BA
:100A500010D04EA603D0010E6A6F02D0020E6A6F4C
:100A6000010108690769B99CF090F086F19A5180FC
:100A7000000108D0696B010108690769B99CF0861B
:100A8000F19A0001BA9C60EF00F08E0E006E79C9F9
:100A900001F078C902F0036A015209E102C001F0D5
:100AA000026A080E005E015202E1006A08D0D89086
:100AB00001BE04D0023601360006F9D7019E1200AD
:100AC00009017851D8B471D0006E7C51D8B46DD082
:100AD000002604E3810E002668E204D07F0E005E4B
:100AE00064E363E079C980F97D51801B798F7D8F44
:100AF0007B517F03F4CF82F97A517E03F4CF03F068
:100B0000F3CF81F97F03F3508227F4508123000E45
:100B100003227B517E03F3508227F4508123000E81
:100B2000026A0322022279517F03F3508127F45095
:100B30000322000E022279517E03F3500326F45063
:100B40000222000E016A01227B517D03F3508127AE
:100B5000F4500322000E022201227A517D03F35049
:100B60000326F4500222000E012279517D03F35036
:100B70000226F4500122002A01BE05D08137033637
:100B8000023601360006000E81AF0AD0032A022287
:100B90000122015005E1025003E1035001E1002A66
:100BA00080BF018E80AF019E04D0006A016A026A94
:100BB000036A000112008E0E006E09017851005E7A
:100BC00079C902F07AC901F0028E005209E0D8908A
:100BD000025202E1015204E002320132002EF7D744
:100BE00079AF05D0011E021E012AD8B4022A0001E5
:100BF00012000901755341E00101095302E10A5352
:100C00003AE00AC179F909C178F900013EDF03C071
:100C10007BF902C07AF901C079F900C078F90901BD
:100C20007F6B7E6B100E7D6F810E7C6F000148DF45
:100C300003C07BF902C07AF901C079F900C078F9E4
:100C4000BADF02C077F901C076F977C902F076C938
:100C500001F00232013202320132023201C06FFF72
:100C600002320230300B006E6E50CF0B00106E6EF1
:100C70000C0E6E6E010103D009016E6A01010001C4
:100C80001200090EEA6E790EE96EEF500EE0140EB6
:100C9000016E006A002EFED7012EFBD7BF0E006E3C
:100CA000002EFED700D0EF2EF2D712008B948B844B
:100CB0000901786B010E776F7851765D0FE303E1E0
:100CC0007751755D0BE3010E796F0001DADF8B94CC
:100CD0008B840901772BD8B4782BEED70001120052
:100CE000F298F2926B51790814E06B51830811E08D
:100CF0006B518D080EE06B51B5080BE06B517B0812
:100D000008E06B518F0805E06B51B70802E087538C
:100D10003EE0000E4FB8010E006ED8900036005035
:100D2000036A130FE96E010E0320EA6EECCF76F929
:100D3000ED52EFCF75F9090175530BE1765309E1D7
:100D400000016B517908D8B402D0090102D04FA834
:100D50000CD001017F530DE180530BE100016B5179
:100D60008308D8B402D0010104D00601F79B04D057
:100D700001010601F78B578656B207D057B405D04C
:100D8000050E00016A6F5784060142D0000181B050
:100D90003AD04EB005D0010E0901756F000129DF70
:100DA0000901766B010E756F000180DF01015B2B7D
:100DB000D8B45C2B5C51020811E2FF0A03E15B51DD
:100DC000E8080CE24EA005D04E9000016B6B03D0FA
:100DD00001014E80000117D015D001014EB011D095
:100DE000000187530FE16B6B0101AA6BA96B74C102
:100DF000A8F173C1A7F1746B736B766B756B4F8C35
:100E0000518C0001C4D70901756B0001F2DE0601A7
:100E100001015C6B5B6BF292F288F19CF292000133
:100E2000BBEF00F081A403D04E864E9802D04E96C0
:100E30004E88696B010E0901706F070E6F6F00011C
:100E400097DDF096B98CF09060EF00F0F09AF09496
:100E50000101D66BD56BD46BD36BB36AB26AA08237
:100E600085BC09D09A6B996B986B976B030E000148
:100E70006A6F34D0010185BA09D09A6B996B986B6F
:100E8000976B040E00016A6F29D001019A6B996B70
:100E9000986B976B85B605D0010E00016A6F1ED066
:100EA000010185B405D0020E00016A6F17D001015F
:100EB00085A802D084B20BD056B208D0050E00012E
:100EC0006A6F0101C26BC16BC06BBF6B06D0519ED4
:100ED000F094F08AF196A092A1920001F09460EF54
:100EE00000F0B36AB26A010E0101D327D8B0D42B47
:100EF000D8B4D52BD8B4D62BD65307E1D55305E1BA
:100F0000D45303E1D3510B0803E2518EA092A19276
:100F1000A192000160EF00F0F29681CF6EF0F290A6
:100F20006EBD0CD081A804D04EB002D04E8C05D03E
:100F300081BA02D04E8A01D0F28601D0F286F290B8
:100F400060EF00F0253033752079202530337500AF
:100F50008B948B841200FCDF0801DA6BD96BDA51B9
:100F6000D85D0CE303E1D951D75D08E3050E006EAF
:100F7000002EFED7D92BD8B4DA2BF1D700011200FE
:100F8000F2CFD7F8F29E636AD6C862FF7F9C7F9E3D
:100F90007F8061500801D7BFF28E010FD86FF250E9
:100FA000006EF29E636AD6C862FFD8C861FF7F9C5C
:100FB0007F9E7F840F01550E7E6EAA0E7E6E7F820D
:100FC0000050F2127FB2FED77F940801D86B640EF6
:100FD000D76F0001C0DF0501E6510801D625D76FA4
:100FE0000501E6510801D625D86FF2CFD9F8F29E57
:100FF000636AD8C862FF7F9C7F9E7F806150D9BFA3
:10100000F28E010FD86FF250006EF29E636AD7C85D
:1010100062FFD8C861FF7F9C7F9E7F840F01550EC1
:101020007E6EAA0E7E6E7F820050F2127FB2FED7D5
:101030007F940801D86B640ED76F00018CDF12001B
:101040000801E751070B006EE731016E01320132F2
:101050001F0E01160150E925E96E000EEA21EA6E25
:10106000016A012A002A01D00136002EFDD7E8537B
:1010700003E00150EF1203D0011E0150EF160001F2
:1010800012000801E55302E1000E01D0010EE6C88E
:10109000E7F8E86F0F0EEA6F890EE96F0001D0DF05
:1010A000E6C8E7F80801E86B0F0EEA6F920EE96FE9
:1010B0000001C6DF12000801D26BD251130812E3FF
:1010C000036AD251270FE96E070E0320EA6EEF6A1A
:1010D000036AD2513B0FE96E070E0320EA6EEF6AF6
:1010E000D22BEBD707014F6B506B516B00011200F5
:1010F000F2CFDEF8F29EDDC863FFDCC862FF7F9CA2
:101100007F9E7F8061500801DEBFF28E016E00017C
:101110001200F2CFDEF8F29EDDC863FFDCC862FF8A
:101120007F9C7F9E7F8061500801DEBFF28EDF6F63
:10113000010EDC25E06F000EDD21E16FF2CFE2F859
:10114000F29EE1C863FFE0C862FF7F9C7F9E7F80C4
:101150006150E2BFF28EE06FDFC803F0E051016E34
:101160000350026E000112000801DD6BF250006EA8
:10117000F29EDBC863FFDAC862FFDCC861FF7F9CB8
:101180007F9E7F840F01550E7E6EAA0E7E6E7F823B
:101190000050F2127FB2FED77F941B6AF2BE1B8E04
:1011A000F29E050E0901796F00016BDD1BBEF28E08
:1011B0000801DDC801F0000112000801DF6BDEC884
:1011C000E0F8F250006EF29EDCC863FFDBC862FFFD
:1011D000E0C861FF7F9C7F9E7F840F01550E7E6E6D
:1011E000AA0E7E6E7F820050F2127FB2FED77F94ED
:1011F0001B6AF2BE1B8EF29E050E0901796F00017B
:1012000040DD1BBEF28E010E0801DB25E06F000EF3
:10121000DC21E16FDDC8E2F8F250006EF29EE1C819
:1012200063FFE0C862FFE2C861FF7F9C7F9E7F840E
:101230000F01550E7E6EAA0E7E6E7F820050F21256
:101240007FB2FED77F941B6AF2BE1B8EF29E050E04
:101250000901796F000115DD1BBEF28E0801DFC8A0
:1012600001F000011200030E0801DD6FED0EDC6FCE
:1012700000013EDF01C07BF0030E0801DD6FEE0EC2
:10128000DC6F000135DF01C07CF0030E0801DD6F6B
:10129000EF0EDC6F00013DDF02C00AF101C009F171
:1012A000030E0801DD6FF10EDC6F000121DF01C0CC
:1012B0008BF07B3D2ED0280E7B6F7C6F01010A6B7B
:1012C000096B00018B6B030E0801DB6FED0EDA6F0B
:1012D0007BC0DCF8000148DF030E0801DB6FEE0E77
:1012E000DA6F7CC0DCF800013FDF030E0801DC6F21
:1012F000EF0EDB6F0AC1DEF809C1DDF800015DDF2A
:10130000030E0801DB6FF10EDA6F8BC0DCF8000111
:101310002BDF2FEFD5F0200E956E8C9E956E8C8670
:10132000956E8C8EBAEFD5F068C96BF909016D6BBB
:101330006E6B6C6B6D6B6E6B6A5068C96AFF683060
:10134000FEE367C96BF96E6B6C6B6D6B6E6B6A500D
:1013500067C96AFF6830FEE366C96AF96B6B6C6B3C
:101360006D6B6A5066C96AFF6830FEE30001CDEF1D
:1013700009F0A20E676E688C200E956E8C9E6A50E6
:10138000030E6A6E6830FEE364C969F963C968F9DF
:1013900062C967F961C966F9C7D76A506A6A683075
:1013A000FEE36ACF65F9200E956E8C8E090165C942
:1013B00001F000011200D8B204D0090EEA6E180E36
:1013C000E96E006A016A026A036A0901186B196B07
:1013D0001A6B1B6B17511611151114112CE0200EEE
:1013E0001C6FD89010371137123713371837193749
:1013F0001A371B3717511B5D08E116511A5D05E1BD
:101400001551195D02E11451185D0FE31451185F75
:101410001551D8A0153D195F1651D8A0163D1A5F79
:101420001751D8A0173D1B5FD88000360136023611
:1014300003361C2FD6D718C9EFFF19C9ECFF1AC9FC
:10144000ECFF1BC9ECFF000112000901606B616B2E
:10145000010E626FDA6AD96A090E656F580E646F01
:10146000090EEA6E5C0EE96E65C9E2FF64C9E1FF30
:1014700062C963F9D890E550EE02F3506023F4504E
:101480006123632FF7D760C9DEFF61C960F9616B23
:10149000D8B0612B642BD8B4652B622B6251050840
:1014A000DFE100011200B60E006E036A026A016AF3
:1014B0000801E851E911EA11EB1102E1006A0DD0CF
:1014C000D89001BE09D0E837E937EA37EB37033661
:1014D00002360136002EF4D7019E000112000901E8
:1014E0002351D8B4A5D02F6F2751D8B4A1D02F5FE6
:1014F00005E37F0E2F27D8B09BD006D0810E2F5F3B
:10150000D8A096D0D8B494D02FC900F0016A026A4E
:10151000036A2E6B24C92DF92D8F25C92CF926C9F4
:101520002BF9190E2F6F2A512B5F0DE2010E2C5F44
:101530000AE22D5F08E22E5F06E22E2B2D2B2C2BCC
:101540002A512B2728D029512C5F12E2010E2D5F42
:101550000FE22E5F0DE22E2B2D2B29512C272A5125
:101560002B2719E32C2B17E12D2B15E12E2B13D054
:10157000285180092D5F0EE2010E2E5F0BE22E2B0B
:10158000285180092D2729512C27E9E32D2BE7E14C
:101590002E2BE5D703802F2F01D00BD0D8902B37DF
:1015A0002C372D372E37D890033602360136303798
:1015B000BAD730A106D0D89001320232033230338C
:1015C00002D0000635E030BF1ED0D8902B372C3724
:1015D0002D372E372A512B5F07E2010E2C5F04E2D4
:1015E0002D5F02E22E5F1AE329512C5F05E2010E06
:1015F0002D5F02E22E5F12E3285180092D5F03E286
:10160000010E2E5F0BE3032A09E1022A07E1012AFA
:1016100005E1002A0DE001320232033224C92FF91C
:1016200028512F1B2FAF02D0018E06D0019E04D06F
:10163000006A016A026A036A000112000801CE53BF
:1016400016E00C0E6E6E380E6F6E6E50CF0B1009DA
:101650006E6E0101CA6BC96B070EC86FD00EC76FE3
:10166000C66BC56BC46BC36B568604D008016E6A2B
:1016700056960101000112000801CE6BCE510208FE
:1016800020E38B801B6AF2BE1B8EF29E0901766BF3
:10169000FA0E756F000156EC06F01BBEF28E8B90B1
:1016A0001B6AF2BE1B8EF29E0901766BFA0E756FF5
:1016B000000156EC06F01BBEF28E04000801CE2B92
:1016C000DDD70001120009010A510C03F3CF01F02C
:1016D000F4CF00F00D03F35000260B510C03F35030
:1016E0000020026E0001120033DCB00E676E3F0E68
:1016F00068168394090159A1839059B18380A19AF6
:10170000679E5AC96AFFA1AAFED78384000112000E
:10171000B00E676E3F0E68160901596B300E5A6F96
:101720000001E2DF0901596B750E5A6F0001DCDF21
:10173000010E0901596F100E5A6F0001D5DF010E1D
:101740000901596F9F0E5A6F0001CEDF0901596BD5
:10175000150E5A6F0001C8DF010E0901596F050E01
:101760005A6F0001C1DF010E0901596F540E5A6F03
:101770000001BADF0901596B5C0E5A6F0001B4DF3A
:10178000100E0901006F00519E081BE3050E016F4A
:101790000151530814E3010E596F5A6B0001A4DF85
:1017A000010E0901596F5A6B00019EDF010E0901FC
:1017B000596F5A6B000198DF0901012BE9D7002B03
:1017C000E2D7596B250E5A6F00018EDF5780120049
:1017D00055C964F954C963F953C962F952C961F929
:1017E000C8DD01C05AF9010E090152255D6F000ED6
:1017F00053215E6F000E54215F6F000E5521606F04
:10180000646F5FC963F95EC962F95DC961F900017E
:10181000B0DD01C05BF9020E090152255D6F000EBB
:1018200053215E6F000E54215F6F000E5521606FD3
:10183000646F5FC963F95EC962F95DC961F900014E
:1018400098DD01C05CF90901596B5AC958F95BC9A7
:1018500057F95CC956F956C900F057C901F058C983
:1018600002F059C903F000011200B00E676E3F0E7E
:1018700068160501F96BF86BF76BF66B09015851A7
:10188000000A000108E0010A32E0030A5DE0010AF3
:10189000D8B487D0B4D00901646B636B626B616BA1
:1018A000000167DD01C059F90901646B636B626B6C
:1018B000010E616F00015DDD01C05AF90901646B21
:1018C000636B626B020E616F000153DD0501F96B02
:1018D00059C9F8F55AC9F7F501C0F6F5080EEE6FCB
:1018E000030EEF6F080EEC6F020EED6FB3D009011F
:1018F000646B636B626B030E616F00013ADD01C0C4
:1019000059F90901646B636B626B040E616F00012E
:1019100030DD01C05AF90901646B636B626B050E1F
:10192000616F000126DD0501F96B59C9F8F55AC947
:10193000F7F501C0F6F5080EEE6F030EEF6F080E17
:10194000EC6F020EED6F86D00901646B636B626B06
:10195000060E616F00010DDD01C059F90901646BCC
:10196000636B626B070E616F000103DD01C05AF902
:101970000901646B636B626B080E616F0001F9DC37
:101980000501F96B59C9F8F55AC9F7F501C0F6F523
:10199000100EEE6F040EEF6F100EEC6F020EED6F77
:1019A00059D00901646B636B626B090E616F0001B2
:1019B000E0DC01C059F90901646B636B626B0A0ECC
:1019C000616F0001D6DC01C05AF90901646B636BD9
:1019D000626B0B0E616F0001CCDC0501F96B59C91C
:1019E000F8F55AC9F7F501C0F6F54B0EEE6F640E27
:1019F000EF6F180EEC6F070EED6F2CD00001090190
:101A0000646B636B626B616B0001B3DC01C059F9FD
:101A10000901646B636B626B010E616F0001A9DCED
:101A200001C05AF90901646B636B626B020E616F4E
:101A300000019FDC0501F96B59C9F8F55AC9F7F5A2
:101A400001C0F6F5080EEE6F030EEF6F080EEC6F97
:101A5000020EED6F00013AEF0DF0B00E676E3F0E13
:101A60006816050E09014F27100E502751C958F965
:101A70000001FBD609014E51C00BC00809E1600E00
:101A80004E5D0501F06FF16BF26BF36B08D009014D
:101A9000200E4E5D0501F06FF16BF26BF36B0901E7
:101AA0005151030819E1F3C55BF9F2C55AF9F1C5C3
:101AB00059F9F0C558F95F6B5E6B5D6BEEC55CF96B
:101AC0000001C3DC03C0F3F502C0F2F501C0F1F57B
:101AD00000C0F0F510D009010501EF510901586F60
:101AE00009E0D8900501F037F137F237F3370901F3
:101AF000582FF7D700010501F651F027F751F123D0
:101B0000F851F223F951F3230901596B300E5A6F42
:101B10000001EADD0901596B750E5A6F0001E4DD21
:101B2000010E0901596F50C95AF90001DDDD0501A7
:101B3000EC5109015025586F010E596F58C95AF9D7
:101B40000001D2DD0901596B150E5A6F0001CCDD81
:101B5000010E0901596F4FC95AF90001C5DD050190
:101B6000ED5109014F25586F010E596F58C95AF9A7
:101B70000001BADD0901596B5C0E5A6F0001B4DD3A
:101B80000501EE51F02502013F6F000E0501F12124
:101B90000201406F000E0501F2210201416F000EAB
:101BA0000501F3210201426FF3C557F9F2C556F959
:101BB000F1C555F9F0C554F9090157510201425DCB
:101BC000D8A06ED015E1090156510201415DD8A09F
:101BD00067D00EE1090155510201405D61E308E162
:101BE0003F510901545DD8A002D0020159D0020131
:101BF00057C964F956C963F955C962F954C961F9FD
:101C00000001B9EC09F001C0F4F50501F56BF551DF
:101C1000070829E3F451800B11E10901535307E050
:101C2000010E596F5A6900015FDD06D00901010EEE
:101C3000596F5A6B000158DD11D00501090153534A
:101C400007E0010E596F5A6B00014EDD07D0090104
:101C5000010E596F52C95AF9000146DDD8900501AD
:101C6000F437F52BD4D70901515103080FE0535332
:101C700007E0010E596F5A69000136DD06D00901EF
:101C8000010E596F5A6B00012FDD0901010E542717
:101C9000D8B0552BD8B4562BD8B4572B8ED70201B9
:101CA0000901596B250E5A6F00011EDD1200B00E9E
:101CB000676E3F0E68160901086B120E0501E825D4
:101CC00009014D6F000E0501E92109014E6F000E5B
:101CD0000501EA2109014F6F000E0501EB21090101
:101CE000506FD8900235026E0335036E02C000F0CB
:101CF000016E026A036A00504D2701504E230250C4
:101D00004F230350502302514D253B6F03514E2169
:101D10003C6F000E4F213D6F000E50213E6F3EC9BB
:101D200055F93DC954F93CC953F93BC952F9000171
:101D30004FDD03C042F902C041F901C040F900C0C3
:101D40003FF9030E09013B254D6F000E3C214E6FFC
:101D5000000E3D214F6F000E3E21506F556F4FC951
:101D600054F94EC953F94DC952F9000131DD03C090
:101D700046F902C045F901C044F900C043F9090120
:101D80003F51435D476F40514459486F42C94CF938
:101D900041C94BF940C94AF93FC949F94C51465D1F
:101DA00032E30BE14B51455D2EE307E14A51445DBF
:101DB0002AE303E14351495D26E20851082B036AF7
:101DC000090F016E090E032201C04DF903C04EF93F
:101DD0004CC964F94BC963F94AC962F949C961F947
:101DE0000001B9EC09F04EC9EAFF4DC9E9FF01C095
:101DF000EFFF010E09014927D8B04A2BD8B44B2B6D
:101E0000D8B44C2BCBD7086B485303E14751085D3E
:101E100026E20851082B036A090FE96E090E032018
:101E2000EA6EEFCF4EF904C94FF905C950F906C95A
:101E300051F9526907C953F900010FDE0901065330
:101E400003E00651030805E10501ED5109010427EE
:101E500005D0010E0501ED2509010427D5D70001A4
:101E60001200B00E676E3F0E681609010F6B0F511E
:101E70000925E96E000E0A21EA6EEF5025E00F51A8
:101E80000F2B0925E96E000E0A21EA6EEFCF4EF9FD
:101E90000BC94FF90CC950F90DC951F952690EC956
:101EA00053F90001DADD09010D5303E00D51030878
:101EB00005E10501ED5109010B2705D0010E0501D2
:101EC000ED2509010B27D3D70001120009010A51A2
:101ED000016A095D03E209C900F00CD0006A080E2E
:101EE0000B6F093700360A51005CD8B0006E01361E
:101EF0000B2FF7D700011200C1C8EAFFC0C8E9FFE5
:101F0000090110C9EFFFE92AD8B4EA2AEF6A0801EB
:101F1000C02BD8B4C12B00011200015007C909F928
:101F2000640E09010A6F0001D1DF00C007F90150FA
:101F3000300E08E1090108A30FD008B70DD008B989
:101F4000200E04D00901089708990881012601C0D4
:101F500010F90001D1DF090107C909F90A0E0A6F5A
:101F60000001B4DF00C007F90150300E08E109019B
:101F700008B70AD008A108D008B9200E0001012630
:101F800001C010F9B9DF0901300E072707C910F9A0
:101F90000001B2DF1200B00E676E3F0E6816050E2C
:101FA00009010B27100E0C27596B300E5A6F0001D8
:101FB00074EC0BF00901596B750E5A6F000174EC4B
:101FC0000BF0010E0901596F0CC95AF9000174ECAC
:101FD0000BF0100E09010C25FF0F186F010E596F41
:101FE00018C95AF9000174EC0BF00901596B150E70
:101FF0005A6F000174EC0BF0010E0901596F0BC907
:102000005AF9000174EC0BF0050E09010B25186F4D
:10201000010E596F18C95AF9000174EC0BF009014F
:10202000596B5C0E5A6F000174EC0BF00901646B84
:10203000636B626B0C0E616F0001B9EC09F001C0BB
:1020400018F90901646B636B626B0D0E616F00011F
:10205000B9EC09F001C019F90901646B636B626B9B
:102060000E0E616F0001B9EC09F00901126B18C97D
:1020700011F919C910F901C00FF91B6B1A6B196B13
:102080000A35006E1935016E1A35026E1B35036E66
:102090000036013602360336003601360236033684
:1020A0000036013602360336003601360236033674
:1020B000E00E001600500F2701501023025011238C
:1020C00003501223136B12C917F911C916F910C95D
:1020D00015F90FC914F9200E0F25006E000E1021FE
:1020E000016E000E1121026E000E1221036E1751B7
:1020F000035C54E30BE11651025C50E307E1155118
:10210000015C4CE303E10050145D48E217C964F937
:1021100016C963F915C962F914C961F90001B9EC6E
:1021200009F001C00EF90501F56BF551070819E337
:1021300009010E51800B08E1010E596F5A6B000125
:1021400074EC0BF008D00901010E596F0DC95AF952
:10215000000174EC0BF0D89009010E370501F52B46
:10216000E4D7090113A110D013530EE0010E596FEB
:102170005A6B000174EC0BF0010E0901596F5A6B98
:10218000000174EC0BF00901132B010E1427D8B0D9
:10219000152BD8B4162BD8B4172B9DD7596B250EF9
:1021A0005A6F000174EC0BF0E4EF10F0B00E676EA4
:1021B0003F0E681607C90AF908C90BF909C90CF9D5
:1021C00009010D690001E7D61200090E0901076F28
:1021D0004A0E086F5A0E096F0001E8DF1200140E54
:1021E0000901076F4A0E086F5A0E096F0001DEDF02
:1021F00022EF12F0080E0901076F4A0E086F140E45
:10220000096F0001D3DF1200140E0901076F4A0E97
:10221000086F140E096F0001C9DF1200120E0901C8
:10222000076F4A0E086F5A0E096F0001BFDF5CEF9F
:1022300012F01B6AF2BE1B8EF29E0901796B6FC011
:1022400078F9000145EC05F01BBEF28E03C00AF9D7
:1022500002C009F901C008F900C007F91B6AF2BE03
:102260001B8EF29E0901796B70C078F9000145EC74
:1022700005F01BBEF28E0AC926F909C925F908C95D
:1022800024F907C923F903C02AF902C029F901C0BA
:1022900028F900C027F96FEC0AF003C00AF902C060
:1022A00009F901C008F900C007F91B6AF2BE1B8ECC
:1022B000F29E03C07BF902C07AF901C079F900C02F
:1022C00078F909017F6B7E6B480E7D6F850E7C6F00
:1022D000000160EC05F01BBEF28E1B6AF2BE1B8E85
:1022E000F29E03C07BF902C07AF901C079F900C0FF
:1022F00078F9DBEC05F01BBEF28E01C000F9090194
:102300000051630802E2640E006F51A43ED051A652
:1023100015D0200E016F026F036F046F056F066BFF
:10232000090E0A6F010E096F450E0B6F040E0C6F3C
:102330000D6B00C90EF9000194DD090151B624D0DE
:10234000010E0801C16FDB0EC06F00C907F9130E43
:102350000901086F0001E1DD200E0901106F000185
:10236000CBDD250E0901106F0001C6DD010E09014C
:102370000A6FDB0E096F450E0B6F040E0C6F0D6BB1
:102380000E6B00016EDD090124D0010E0801C16F42
:10239000DB0EC06F00C907F9130E0901086F0001B9
:1023A000BCDD200E0901106F0001A6DD250E09011C
:1023B000106F0001A1DD010E09010A6FDB0E096F2C
:1023C000450E0B6F040E0C6F0D6B0E6B000149DD9B
:1023D0000901420E00018F6F0901005109080BE24B
:1023E000400E00018F6F09010051630804E23E0EA8
:1023F00000018F6F09010101095307E10A5305E14B
:10240000170E00018D6F0ED001010A5308E109512A
:10241000310805E3160E00018D6F04D00101150E81
:1024200000018D6F8DC007F98FC008F90901096B94
:102430000001BCDE6B5163080AE3C7DE6B510A087A
:1024400001E1CDD6D7DE6B5301E1DEDE42D06B5128
:1024500079080AE06B517B0807E06B51830804E0C0
:102460006B51850801E0C6DE6B51780825E06B51A1
:10247000790822E06B517B081FE06B5182081CE059
:102480006B51830819E06B51850816E06B518C087D
:1024900013E06B518D0810E06B518E080DE06B510D
:1024A0008F080AE06B51B40807E06B51B50804E0EF
:1024B0006B51B70801E0B2D66B518C0809E06B5143
:1024C0008D0806E06B518E0803E06B518F0801E127
:1024D0007CDE1200B00E676E3F0E68160901086BB5
:1024E000120E0501E82509014D6F000E0501E921D5
:1024F00009014E6F000E0501EA2109014F6F000E20
:102500000501EB210901506FD8900135026E0235AB
:10251000036E02C000F0016E026A036A00504D278C
:1025200001504E2302504F230350502301514D259B
:102530003B6F02514E213C6F000E4F213D6F000E4C
:1025400050213E6F3EC955F93DC954F93CC953F974
:102550003BC952F90001E8EC0BF003C042F902C09C
:1025600041F901C040F900C03FF9030E09013B25C4
:102570004D6F000E3C214E6F000E3D214F6F000E3F
:102580003E21506F556F4FC954F94EC953F94DC98B
:1025900052F90001E8EC0BF003C046F902C045F91E
:1025A00001C044F900C043F909013F51435D476F41
:1025B00040514459486F42C94CF941C94BF940C98F
:1025C0004AF93FC949F94C51465D32E30BE14B51A1
:1025D000455D2EE307E14A51445D2AE303E143519F
:1025E000495D26E20851082B036A090F016E090EA6
:1025F000032201C04DF903C04EF94CC964F94BC91F
:1026000063F94AC962F949C961F90001B9EC09F0F5
:102610004EC9EAFF4DC9E9FF01C0EFFF010E0901F4
:102620004927D8B04A2BD8B44B2BD8B44C2BCBD796
:10263000086B485303E14751085D28E20851082B15
:10264000036A090FE96E090E0320EA6EEFCF4EF917
:1026500003C94FF904C950F905C951F906C952F91E
:1026600007C953F900012DEC0DF00901055303E0F2
:102670000551030805E10501ED510901032705D0C6
:10268000010E0501ED2509010327D3D70001120032
:1026900051ACE6D06C5302E14FAC17D04F9C88ECA4
:1026A0000BF00901036B100E026F046B056B020E39
:1026B000066F076B000157EC0EF0886B826B4F9E24
:1026C000BF6B0601F46B57940001B3DD0101A75302
:1026D0000AE1A85308E1A95306E1AA5304E1AA6B51
:1026E000A96BA86BA76BAA5307E1A95305E1A853EF
:1026F00003E1A751050805E2AA6BA96BA86B050EBB
:10270000A76FA75306E1A85304E1A95302E1AA5316
:1027100002E0000E01D0010E0801D96F0901036B20
:10272000180E026F070E046F190E056F066BD9C8DD
:1027300007F9000157EC0EF00101A72D06D0A853B0
:1027400004E1A95302E1AA5302E0000E01D0010EF8
:102750000801DA6F0901026B130E016F070E036F98
:10276000270E046F056B85C006F9DAC807F900016A
:10277000B1DE0101A751020806E1A85304E1A95303
:1027800002E1AA5302E0000E01D0010E0801DA6F47
:102790000901026B140E016F070E036F350E046FF3
:1027A000056B85C006F9DAC807F9000193DE01015F
:1027B000A751030806E1A85304E1A95302E1AA5373
:1027C00002E0000E01D0010E0801D96F0901036B70
:1027D000150E026F070E046F430E056F066BD9C806
:1027E00007F9000157EC0EF00101A751040806E1BA
:1027F000A85304E1A95302E1AA5302E0000E01D05C
:10280000010E0801D96F0901036B160E026F070E46
:10281000046F510E056F066BD9C807F9000157EC1C
:102820000EF00101A751050806E1A85304E1A953E0
:1028300002E1AA5302E0000E01D0010E0801D96F97
:102840000901036B110E026F070E046F5F0E056F17
:10285000066BD9C807F9000157EC0EF06BC06CF09D
:10286000519C000E016E1200200E0801DAA9300EF4
:10287000DB6FD9C800F0D9AF08D0001E002A00C015
:10288000D9F82D0EDB6FDA8FDA810150D9C809F93A
:10289000640E09010A6F000166EC0FF000C0D9F860
:1028A000300E01240801DC6FD9C809F90A0E0901AC
:1028B0000A6F000166EC0FF0300E00240801DE6F95
:1028C000300E0124DD6FDBC800F0300EDC5D04E06B
:1028D000DA83DABFDA8512D0DBC8DCF8200EDB6FD2
:1028E000300EDD5D04E0DA81DABFDA8307D0D8A4E8
:1028F000DA8104E1DCC8DDF8200EDC6FDAB505D042
:10290000DAB308D0DAB10BD00FD0DBC810F9000170
:102910007CEC0FF0DCC810F900017CEC0FF0DDC896
:1029200010F900017CEC0FF0DEC810F900017CEC1E
:102930000FF01200EACF0EF9E9CF0DF909010739BE
:10294000F009096F0927E20F0A6F320F0C6F075168
:102950000F0B0A270A270C27E90F0B6F0B270B27F2
:1029600006390F0B0B270C270B370C370C1F0C37B6
:1029700006510F0B0C270937070E086F0A0E0B07BD
:102980000C27FDE30A070B27FDE309070A27FDE3F0
:1029900008070927FDE3090EEA6E080EE96E070E27
:1029A0000D150D9DE926000EEA22E9500C0804E100
:1029B000EA50090801E10D8DEF50006E08E10DBDF0
:1029C00006D00DB916D00DB702D0200E03D00D875A
:1029D0000D99300E0026EACF07F9E9CF06F900C0BD
:1029E00010F900017CEC0FF007C9EAFF06C9E9FF06
:1029F0000901EE500DADD9D700011200C69E9E967A
:102A0000F9C8C9FF020EC6BE05D09EA6FED7000EAD
:102A1000C5BC010E016E1200C69CC586C5B6FED7A8
:102A200000B0C59A00A0C58AC588C5B8FED7C9CF71
:102A300001F01200C580C5B0FED7AA0E0801F96FDB
:102A40000001DCDF012C01D03CD0DAC8F9F8D6DF78
:102A5000D9C8F9F8D3DF0801F96B0001CFDFC584CD
:102A6000C5B4FED7C580C5B0FED7AA0E0801F96F60
:102A70000001C4DF0801F96B0001C0DFC582C5B2E7
:102A8000FED7AB0E0801F96F0001B8DF010E006E32
:102A9000C3DF0801DC6B01C0DBF8006A0001BCDFAA
:102AA0000801DE6B01C0DDF8C584C5B4FED7DDC802
:102AB000DEF8DD6BDD51DB13DE51DC13549E07D0F5
:102AC0000001430E0801DC6F210EDB6F548EDBC862
:102AD00001F0DCC802F000011200080E0801D96FF5
:102AE000DA6B0001A7DF02502AEF17F00900F6CFDA
:102AF00007F9F7CF08F9F8CF09F9F5CF10F97CEC11
:102B00000FF007C9F6FF08C9F7FF09C9F8FF090167
:102B1000062F01D002D00001E9D700011200080100
:102B2000DCBF12D00F0E006EDB3900160A0E005CFF
:102B300003E2300E002602D0DC51002600C010F95E
:102B400000017CEC0FF008010F0EDB170A0EDB5DB5
:102B500002E2300E02D0DC9FDC51DB27DBC810F92B
:102B600000017CEC0FF01200B00E676E3F0E68168D
:102B700009010A6B0A510325E96E000E0421EA6E71
:102B8000EF5027E00A510A2B0325E96E000E0421BD
:102B9000EA6EEFCF4EF905C94FF906C950F907C9DA
:102BA00051F908C952F909C953F900012DEC0DF08A
:102BB0000901075303E00751030805E10501ED5141
:102BC0000901052705D0010E0501ED25090105279D
:102BD000D1D7000112006C510A080EE088EC0BF00E
:102BE0000901036B1A0E026F046B056B020E066F70
:102BF000076B000157EC0EF051AC83D119EC11F0CA
:102C00000101AA5307E1A95305E1A85303E1A75124
:102C1000020805E2AA6BA96BA86B030EA76F090156
:102C2000036B1B0E026F040E046F1E0E056F010E68
:102C3000066F076B000157EC0EF0010E0801C16F23
:102C4000DB0EC06F7BC0D9F8130EDA6F00010CDE0B
:102C5000250E0901106F00017CEC0FF0200E090118
:102C6000106F00017CEC0FF00101A75306E1A8539F
:102C700004E1A95302E1AA5302E0000E01D0010EC3
:102C80000801DB6F010E09010A6FDB0E096F330EBD
:102C90000B6F1E0E0C6F010E0D6FDBC80EF90001DD
:102CA00031EC0FF00901036B1E0E026F040E046F6E
:102CB0002C0E056F010E066F076B000157EC0EF02E
:102CC000010E0801C16FDB0EC06F7CC0D9F8130E76
:102CD000DA6F0001C9DD250E0901106F00017CECDF
:102CE0000FF0200E0901106F00017CEC0FF00101C4
:102CF000A72D06D0A85304E1A95302E1AA5302E08C
:102D0000000E01D0010E0801DB6F010E09010A6FF0
:102D1000DB0E096F330E0B6F2C0E0C6F010E0D6F57
:102D2000DBC80EF9000131EC0FF00901036B1C0E3A
:102D3000026F040E046F3A0E056F010E066F076BEB
:102D4000000157EC0EF0010E0801C16FDB0EC06FE1
:102D5000020EE96E0AC107F909C106F90001EADDB0
:102D6000250E0901106F00017CEC0FF0200E090107
:102D7000106F00017CEC0FF00101A751020806E181
:102D8000A85304E1A95302E1AA5302E0000E01D0C6
:102D9000010E0801DB6F010E09010A6FDB0E096FDE
:102DA000330E0B6F3A0E0C6F010E0D6FDBC80EF970
:102DB000000131EC0FF00901036B1F0E026F040ECE
:102DC000046F480E056F010E066F076B000157EC8C
:102DD0000EF0930E8C6F8B5302E1920E8C6F0101FB
:102DE000A751030806E1A85304E1A95302E1AA533D
:102DF00002E0000E01D0010E0801DA6F0901036B39
:102E00008CC002F9330E046F480E056F010E066F79
:102E1000DAC807F9000157EC0EF009010A6B3F0E02
:102E2000096F150E0B6F620E0C6F020E0D6F0E6B9D
:102E3000000131EC0FF009010A6B340E096F2B0E03
:102E40000B6F620E0C6F020E0D6F0E6B000131ECFA
:102E50000FF043D602C0DAF801C0D9F8010E08011C
:102E6000C16FDB0EC06F5A0EF66E020EF76E000ECB
:102E7000F86E070E0901066F000138DE100EE96ECC
:102E80004BC007F94AC006F955DD640EF66E020E16
:102E9000F76E000EF86E030E0901066F000126DEC4
:102EA000100EE96E4DC007F94CC006F943DD6A0EFD
:102EB000F66E020EF76E000EF86E050E0901066F33
:102EC000000114DEDAC8DBF8370E0801DC6F000100
:102ED00026DED9C8DBF8370E0801DC6F00011FDEE3
:102EE000010E0901046FDB0E036F0F0E056F780EE4
:102EF000066F076B85C008F9096B000135DE6BC0F2
:102F00006CF0519C000E016E1200016A026A006AA8
:102F1000036A0901135102E1125118E0100E146FF7
:102F2000D89010371137003603361351035C02E195
:102F30001251005C07E31251005ED8A00306135142
:102F4000035ED88001360236142FEAD70001120042
:102F50001B6AF2BE1B8EF29E05C979F904C978F985
:102F600045EC05F01BBEF28E03C026F902C025F920
:102F700001C024F900C023F909012A6B296B700EE6
:102F8000286F840E276F00016FEC0AF003C00BF965
:102F900002C00AF901C009F900C008F91B6AF2BEB3
:102FA0001B8EF29E07C979F906C978F945EC05F040
:102FB0001BBEF28E03C026F902C025F901C024F918
:102FC00000C023F909012A6B296B700E286F840E4B
:102FD000276F00016FEC0AF003C00FF902C00EF971
:102FE00001C00DF900C00CF91B6AF2BE1B8EF29EE7
:102FF0000BC97BF90AC97AF909C979F908C978F9BD
:10300000DBEC05F01BBEF28E01C077F005C911F9AB
:1030100004C910F90901136B3C0E126F000175DF32
:1030200000C078F01B6AF2BE1B8EF29E0FC97BF9BE
:103030000EC97AF90DC979F90CC978F9DBEC05F0FC
:103040001BBEF28E01C079F007C911F906C910F94B
:103050000901136B3C0E126F000157DF00C07AF0BC
:10306000120087518811F30FD8B0C4D00D0F86EF2E
:1030700019F0010E0101646FF40E636F6C6B010EA9
:103080006B6F666FF40E656F6E6B010E6D6F686F20
:10309000F40E676F706B010E6F6F6A6B960E696F3F
:1030A000726B010E716F0001A5D0010E0101666FF8
:1030B000F40E656FD0C06EF1CFC06DF1010E686F78
:1030C000F40E676FD0C070F1CFC06FF1000192D0E5
:1030D000D2C064F1D1C063F101016C6B010E6B6F62
:1030E000686FF40E676FD2C070F1D1C06FF164C128
:1030F0006AF163C169F16A5303E16951950803E21A
:103100006A6B960E696F726B010E716F000172D05F
:10311000D4C064F1D3C063F101016C6B010E6B6F1D
:10312000D4C066F1D3C065F16E6B6D6F64C16AF196
:1031300063C169F16A5303E16951950803E26A6B5F
:10314000960E696F726B010E716F000153D0010E04
:103150000101666FF40E656FD6C06EF1D5C06DF1DA
:10316000010E686FF40E676FD6C070F1D5C06FF1B5
:10317000000140D0010E0101686FF40E676FD2C0EC
:1031800070F1D1C06FF1000135D0D2C064F1D1C06F
:1031900063F101016C6B010E6B6F64C16AF163C175
:1031A00069F16A5303E16951950803E26A6B960E6F
:1031B000696F726B010E716F00011CD0D4C066F193
:1031C000D3C065F1D0C06EF1CFC06DF113D0010E48
:1031D0000101686FF40E676FD2C070F1D1C06FF15A
:1031E000000108D0D4C066F1D3C065F1D6C06EF13D
:1031F000D5C06DF10801E86BE8510308D8A083D071
:10320000D890E835036ACF0FE96E000E0320EA6E0E
:10321000ECCFEAF8ED52EFCFE9F8D890E835036A41
:10322000630FE96E010E0320EA6EECCF03F0ED525E
:10323000EFCF01F00350EA5D24E303E10150E95DC3
:1032400020E3D890E835036ACF0F016E000E032209
:1032500003C0EAF8D890E835036A630FE96E010EFF
:103260000320EA6EECCF03F0ED52EFCFEBF8EAC8A3
:10327000EAFF01C0E9FF03C0ECFFED52EBC8EFFF2E
:1032800040D0D890E835036ACF0FE96E000E0320D6
:10329000EA6EECCFEAF8ED52EFCFE9F8D890E835D6
:1032A000036A6B0FE96E010E0320EA6EECCF03F0A8
:1032B000ED52EFCF01F0EA51035C23E303E1E95162
:1032C000015C1FE3D890E835036ACF0F016E000E52
:1032D000032203C0EAF8D890E835036A6B0FE96E61
:1032E000010E0320EA6EECCF03F0ED52EFCFEBF8C6
:1032F000EAC8EAFF01C0E9FF03C0ECFFED52EBC8EA
:10330000EFFFE82B79D7000183EF1CF0E824F76A80
:10331000F7362D0FF66E330EF722000EF86EFB6EA9
:103320000A00F550FA6E0800F550F96E7230AA30B6
:10333000D03074311031BC318A31F4314E31F43136
:10334000CE31F431E43109010D51B6080D6F036A35
:103350000EC911F90E8FD8900E330F33103303328C
:103360000232013200320D2FF6D711AF0BD0001E02
:10337000011E021E031E002AD8B4012AD8B4022A54
:10338000D8B4032A00011200800ED8A202D009018D
:10339000111B0901166B176B0DC915F91151151B7E
:1033A0000C51D8B4DFD0146F006E1051D8B4E3D0F4
:1033B000145FD8B483D03EE311C91AF91A8F12C929
:1033C00019F913C918F9176BD8901A331933183330
:1033D0001733142FF8D715AF03D01681E0D016910C
:1033E00014911689090EEA6E0F0EE96EEBD016994C
:1033F00015BF0AD014A113D01A3319331833173359
:10340000002AD8B4C7D00BD01ABF0CD0D890173729
:10341000183719371A370006D8B4BCD0F5D7168D2F
:103420006DD0169D0DC915F90DAF02D01A8FABD016
:103430001A9FA9D010C914F910C900F00C51145FDB
:103440000DC91AF91A8F0EC919F90FC918F9176B96
:10345000D8901A33193318331733142FF8D715AF00
:1034600003D016839CD016931491168B090EEA6E26
:10347000130EE96EA7D0169B15BF0AD014A113D066
:103480001A33193318331733002AD8B483D00BD02A
:103490001ABF0CD0D8901737183719371A370006CB
:1034A000D8B478D0F5D7168F29D0169F11C915F941
:1034B00011AF02D01A8F67D01A9F65D011C91AF9BF
:1034C0001A8F12C919F913C918F915AF04D01A9F28
:1034D000168565D01695176B1491090EEA6E0F0EBE
:1034E000E96E70D015BF1CD00DC915F914A106D016
:1034F0001A33193318331733002A4CE017AF0BD0A7
:10350000182B09E1192B07E11A2B05E11A3319339E
:103510001833002A3FE016BD84D716BFC6D71CD08B
:10352000800E1A1B1AAF04D03AD011C915F90AD06F
:103530000DC915F91A5306E1195304E1185302E1B4
:10354000006A21D01ABF08D0D8901737183719371A
:103550001A37002EF7D71ED015AF02D01A8F13D00E
:103560001A9F11D010C900F011C91AF912C919F91E
:1035700013C918F908D00CC900F00DC91AF90EC901
:1035800019F90FC918F91AC901F019C902F018C9B7
:1035900003F034D0006A016A026A036A2FD0176B05
:1035A000181F191F1A1F171F172B05E1182B03E1EE
:1035B000192B01E11A2B16B112D716B354D716B531
:1035C00089D7B3D7EF50182705E3192B03E11A2B3E
:1035D000D8B41481ED52EF50192703E31A2BD8B455
:1035E0001481ED52EF50EFBE01D0800A1A27D8B0F7
:1035F000148116B9FCD616BB3ED774D70001120051
:1036000009010B6B0A6B096B086B07530AE1065340
:1036100008E10551020824E2FF0A03E10451E7082A
:103620001FE2D89207C913F906C912F905C911F9A1
:1036300004C910F9176B166B030E156FE80E146FA3
:103640000001DBEC09F003C00BF902C00AF901C06C
:1036500009F900C008F96D0E0201356F0CD009019F
:1036600007C90BF906C90AF905C909F904C908F916
:103670005B0E0201356F08C900F009C901F00AC9E3
:1036800002F00BC903F000011200E9500901086FB4
:103690003B0E0F6F9A0E0E6FCA0E0D6F0C6B0A0E5B
:1036A0000A6FD882090EEA6E040EE96E07C913F993
:1036B00006C912F905C911F904C910F90FC917F99A
:1036C0000EC916F90DC915F90CC914F90001DBEC86
:1036D00009F00150005213E109010A51010AD8A46E
:1036E00002D000010CD008510CE00F0B0A5D01E084
:1036F00010E208BF0ED008BD04D0200E03D009018F
:10370000086B300E002600C010F900017CEC0FF0B1
:103710000901D8920FC913F90EC912F90DC911F98F
:103720000CC910F9176B166B156B0A0E146F00019C
:10373000DBEC09F003C00FF902C00EF901C00DF96E
:1037400000C00CF909010A2FACD70001120051ACDE
:10375000F4EF2AF00801D99100016C51280802E128
:103760004FA025D06C51300805E00101326B010EED
:10377000316F000188EC0BF00901036B060E026F3C
:10378000046B056B020E066F076B000157EC0EF021
:10379000010EBF6F030ECE6F4F908251030800E100
:1037A0000101AE6BAD6BAC6B82C0ABF10001070EDB
:1037B000BF6FCD5302E1010EBF6FD8908235036A0F
:1037C000390FE96E010E0320EA6EECCFE9F8ED52F5
:1037D000EFCFE8F80801E951000814E2FF0A03E11D
:1037E000E85121080FE2D89000018235036A390FB1
:1037F000E96E010E0320EA6E010EEC6EED52220E10
:10380000EF6E08010101AA530CE1A9530AE1A85384
:1038100008E1A751010805E3AA6BA96BA86B010E8B
:10382000A76FAA5307E1A95305E1A85303E1A751E4
:103830000E0805E2AA6BA96BA86B0F0EA76F00011B
:103840008251030810E10101AA5307E1A95305E1E0
:10385000A85303E1A7510C0805E2AA6BA96BA86B5A
:103860000D0EA76F000119EC11F0010E826F82514D
:10387000FC0F0EE2040FF8EF2AF0F10E8C6F08D067
:10388000F20E8C6F05D0F30E8C6F02D0F40E8C6F9D
:103890000101A72D06D0A85304E1A95302E1AA53C0
:1038A00002E0000E01D0010E0801E96F0901036B6F
:1038B0008CC002F9040E046F120E056F010E066F24
:1038C000E9C807F9000157EC0EF0D8908235036A79
:1038D000F70FE96E000E0320EA6EECCF05F9ED520A
:1038E000EFCF04F9D8908235036AFF0FE96E000E1E
:1038F0000320EA6EECCF07F9ED52EFCF06F9A8EC02
:1039000017F031EF18F082510308D8B45AEF28F0BD
:10391000CD510608D8B482D0CD510508D8B47ED098
:10392000036A82515D0FE96E000E0320EA6EEF52CA
:1039300040E14EBE1FD00101A7510E080BE1A85374
:1039400009E1A95307E1AA5305E1AA6BA96BA86B8A
:103950000F0EA76FA7510A080BE1A85309E1A9535D
:1039600007E1AA5305E1AA6BA96BA86B0B0EA76F21
:103970001ED000010101A7510E080BE1A85309E177
:10398000A95307E1AA5305E1AA6BA96BA86B0D0E19
:10399000A76FA7510A080BE1A85309E1A95307E152
:1039A000AA5305E1AA6BA96BA86B090EA76F35D0C6
:1039B00000014EBE1AD0036A8251590FE96E000E03
:1039C0000320EA6EEF5210E00101A7510E080BE14F
:1039D000A85309E1A95307E1AA5305E1AA6BA96B12
:1039E000A86B0F0EA76F000119D0036A8251590FFF
:1039F000E96E000E0320EA6EEF5210E00101A751BC
:103A00000E080BE1A85309E1A95307E1AA5305E108
:103A1000AA6BA96BA86B0D0EA76F00010801D991C5
:103A20000001822D01D003D00801D9810001578EF9
:103A3000D60E8C6F0801D9A103D00001CD6B08010F
:103A4000D9B124D00001CD51020806E0CD510308C0
:103A500003E0CD51040801E1579ECD51F90F15E265
:103A6000070F0CEF2BF011D0D70E8C6F0ED0D80EA5
:103A70008C6F0BD0D90E8C6F08D0DA0E8C6F05D0FE
:103A8000DB0E8C6F02D0DC0E8C6F0801000ED9B1FA
:103A9000010E036A840FE96E000E0320EA6EEFCF79
:103AA000E9F80101A751020806E1A85304E1A9536E
:103AB00002E1AA5302E0000E01D0010E0801EA6FF4
:103AC0000901026B8CC001F9290E036F120E046FFD
:103AD000010E056FE9C806F9EAC807F900016AECAA
:103AE00012F0010E0801C16FDB0EC06F740EF66E8E
:103AF000020EF76E000EF86E030E0901066F00014C
:103B000076EC15F077C007F9110E0901086F000176
:103B10008DEC0FF03A0E0901106F00017CEC0FF0F4
:103B200078C007F9010E0901086F00018DEC0FF054
:103B3000200E0901106F00017CEC0FF0730E0901DB
:103B4000106F00017CEC0FF00101A751030806E1A2
:103B5000A85304E1A95302E1AA5302E0000E01D0E8
:103B6000010E0801EB6F010E0901046FDB0E036FFC
:103B7000040E056F1E0E066F010E076F84C008F954
:103B8000EBC809F90001B4EC15F0010E0801C16F92
:103B9000DB0EC06F820EF66E020EF76E000EF86E30
:103BA000030E0901066F000176EC15F079C007F9E4
:103BB000110E0901086F00018DEC0FF03A0E09019A
:103BC000106F00017CEC0FF07AC007F9010E0901BB
:103BD000086F00018DEC0FF0200E0901106F00013D
:103BE0007CEC0FF0730E0901106F00017CEC0FF0FC
:103BF0000101A751040806E1A85304E1A95302E119
:103C0000AA5302E0000E01D0010E0801EB6F010E75
:103C10000901046FDB0E036F290E056F1E0E066F80
:103C2000010E076F84C008F9EBC809F90001B4EC74
:103C300015F0CD51020805E1030E0201656F04D0B5
:103C400000010A0E0201656F6451655D02E365C201
:103C500064F25B51665D02E366C25BF2D8900001DC
:103C60008235036A390FE96E010E0320EA6EECCF4C
:103C7000E9F8ED52EFCFE8F8D8900801E931036E8A
:103C8000E831026E016E03521FE102015B51015CDB
:103C9000D8A002D0080118D0D89000018235036A5C
:103CA000390FE96E010E0320EA6EECCFE9F8ED5210
:103CB000EFCFE8F8D8900801E931E8310201676FE9
:103CC00067C25BF215D00801D89000018235036A03
:103CD000390FE96E010E0320EA6EECCFE9F8ED52E0
:103CE000EFCFE8F8D8900801E931E8310201676FB9
:103CF0000801D9910001CD5303E10801D9810001E8
:103D0000010E0801C16FDB0EC06F900EF66E020E41
:103D1000F76E000EF86E050E0901066F000176ECD5
:103D200015F064C207F9130E0901086F00018DEC4C
:103D30000FF0980EF66E020EF76E000EF86E030E80
:103D40000901066F000176EC15F0000E0801D9B1EB
:103D5000010E036A840FE96E000E0320EA6EEFCFB6
:103D6000EAF80101A751050806E1A85304E1A953A7
:103D700002E1AA5302E0000E01D0010E0801EB6F30
:103D8000010E0901046FDB0E036F040E056F2C0E8C
:103D9000066F010E076FEAC808F9EBC809F90001C0
:103DA000B4EC15F00801D991D89000018235036A6E
:103DB000FF0FE96E000E0320EA6EECCFE9F8ED523A
:103DC000EFCFE8F80801E85303E1E95301E1D981B5
:103DD000D9A12DD0036A00018251650FE96E000E52
:103DE0000320EA6E010EEF6E4EBE11D00101A75105
:103DF00006080BE1A85309E1A95307E1AA5305E11D
:103E0000AA6BA96BA86B070EA76F10D00001010168
:103E1000A75106080BE1A85309E1A95307E1AA53EA
:103E200005E1AA6BA96BA86B050EA76F0801036AD1
:103E300000018251650FE96E000E0320EA6EEFCF9C
:103E4000E8F8010E0801C16FDB0EC06F4E0E0901CC
:103E5000106F00017CEC0FF03D0E0901106F0001A6
:103E60007CEC0FF0E8C807F9110E0901086F00019A
:103E70008DEC0FF0A10EF66E020EF76E000EF86ECE
:103E8000060E0901066F000176EC15F0000E080120
:103E9000D9B1010E036A840FE96E000E0320EA6EA9
:103EA000EFCFEAF80101A751060806E1A85304E1A3
:103EB000A95302E1AA5302E0000E01D0010E08014D
:103EC000EB6F010E0901046FDB0E036F290E056F06
:103ED0002C0E066F010E076FEAC808F9EBC809F946
:103EE0000001B4EC15F0D8908235036A390FE96E01
:103EF000010E0320EA6EECCF0BF9ED52EFCF0AF979
:103F000009010D6B320E0C6F000163EC0BF002C067
:103F1000E9F801C0E8F8010E0801C16FDB0EC06FBF
:103F2000490E0901106F00017CEC0FF03D0E0901F4
:103F3000106F00017CEC0FF0000EE96EE9C807F984
:103F4000E8C806F99AEC14F0AE0EF66E020EF76EA3
:103F5000000EF86E040E0901066F000176EC15F0F4
:103F60000101A751070806E1A85304E1A95302E1A2
:103F7000AA5302E0000E01D0010E0801EB6F010E02
:103F80000901046FDB0E036F040E056F3A0E066F16
:103F9000010E076F84C008F9EBC809F90001B4EC01
:103FA00015F00801E96B5BC2E8F8E9C80BF95BC2E0
:103FB0000AF909010D6B640E0C6F000163EC0BF044
:103FC00002C0E9F801C0E8F8010E0801C16FDB0E7C
:103FD000C06FB40EF66E020EF76E000EF86E050E90
:103FE0000901066F000176EC15F0000EE96EE9C8D4
:103FF00007F9E8C806F99AEC14F0BD0EF66E020E49
:10400000F76E000EF86E040E0901066F000176ECE3
:1040100015F0000E57BE010E036A840FE96E000E04
:104020000320EA6EEFCFEAF80101A751080806E184
:10403000A85304E1A95302E1AA5302E0000E01D003
:10404000010E0801EB6F010E0901046FDB0E036F17
:10405000290E056F3A0E066F010E076FEAC808F9C0
:10406000EBC809F90001B4EC15F0036A82515D0F49
:10407000E96E000E0320EA6EEF5233E0010E8C6F02
:104080008251040DF350036AE70FE96E000E03201E
:10409000EA6EEFCFE8F8ECCFE9F8ECCFEAF8ECCF36
:1040A000EBF80801E8531BE1E95319E1EA5317E182
:1040B000EB5315E100018251040DF350036AE70F41
:1040C000E96E000E0320EA6EEE52EE52EC6AED52FB
:1040D000EF6AED52EF6AED52640EEF6E08011DD0EB
:1040E00000018C6B036A8251590FE96E000E0320A8
:1040F000EA6EEF6A8251040DF350036AE70FE96E2E
:10410000000E0320EA6EEE52EE52EC6AED52EF6AB8
:10411000ED52EF6AED52EF6A0801D9910001832D4B
:1041200005D0822D03D00801D9810001000E0801BD
:10413000D9B1010EE86F00018351020806E1822D1A
:1041400001D005D08251020802E0000E01D0010E1C
:104150000801E811D991E8B0D981000ED9B1010E5A
:10416000036A840FE96E000E0320EA6EEFCFE9F8D0
:104170000101A751090806E1A85304E1A95302E18E
:10418000AA5302E0000E01D0010E0801EA6F0901F6
:10419000026B8CC001F9040E036F480E046F010E10
:1041A000056FE9C806F9EAC807F900016AEC12F0E0
:1041B000036A8251590FE96E000E0320EA6EEF5236
:1041C00002E1CD532DE0050E8C6F8251040DF350AA
:1041D000036AE70F016E000E032201C0E8F803C076
:1041E000E9F800018251040DF350036AD70FE96E1C
:1041F000000E0320EA6EEFCF00F0ECCF01F0ECCF21
:1042000002F0ECCF03F0E9C8EAFFE8C8E9FF00C01C
:10421000EFFF01C0ECFF02C0ECFF03C0ECFF02D0D7
:10422000040E8C6FCD5304E00801D98138D0000111
:104230000801D9910001832D05D0822D03D00801FA
:10424000D9810001000E0801D9B1010EE86F00010B
:104250008351020806E1822D01D005D08251020867
:1042600002E0000E01D0010E0801E811D991E8B07A
:10427000D981000ED9B1010EE86F036A00018251A5
:104280005D0FE96E000E0320EA6EEF5202E0000EB1
:1042900001D0010E0801E811D991E8B0D981000ED2
:1042A000D9B1010E036A840FE96E000E0320EA6E95
:1042B000EFCFE9F80101A7510A0806E1A85304E18C
:1042C000A95302E1AA5302E0000E01D0010E080139
:1042D000EA6F0901026B8CC001F9290E036F480EC9
:1042E000046F010E056FE9C806F9EAC807F9000175
:1042F0006AEC12F0CD2D01D009D0CD51040806E0B2
:10430000CD51060803E0CD5102084CE10801D991D6
:10431000010EC16FDB0EC06FC20EF66E020EF76E9D
:10432000000EF86E050E0901066F000176EC15F01F
:10433000020EE96E58C207F957C206F99AEC14F05A
:10434000480E0901106F00017CEC0FF07A0E090194
:10435000106F00017CEC0FF0010E0801C16FF90E27
:10436000C06FCE0EF66E020EF76E000EF86E050EE2
:104370000901066F000176EC15F0020EE96E5AC2D3
:1043800007F959C206F99AEC14F0480E0901106FAA
:1043900000017CEC0FF07A0E0901106F00017CEC3B
:1043A0000FF067D00801D981D89000018235036AE7
:1043B000CF0FE96E000E0320EA6EECCFE9F8ED5264
:1043C000EFCFE8F8010E0801C16FDB0EC06F460E9B
:1043D0000901106F00017CEC0FF03D0E0901106F18
:1043E00000017CEC0FF0010EE96EE9C807F9E8C89E
:1043F00006F99AEC14F0E00EF66E020EF76E000E5F
:10440000F86E040E0901066F000176EC15F0D890E5
:104410008235036ACF0FE96E000E0320EA6EECCFFF
:10442000E9F8ED52EFCFE8F8010E0801C16FF90E7F
:10443000C06F460E0901106F00017CEC0FF03D0EBD
:104440000901106F00017CEC0FF0010EE96EE9C864
:1044500007F9E8C806F99AEC14F0EC0EF66E020EB5
:10446000F76E000EF86E040E0901066F000176EC7F
:1044700015F00101A7510B0806E1A85304E1A95367
:1044800002E1AA5302E0000E01D0010E0801EB6F19
:10449000010E0901046FDB0E036F040E056F560E4B
:1044A000066F010E076F84C008F9EBC809F9000117
:1044B000B4EC15F0000E0801D9B1010E036A840FA7
:1044C000E96E000E0320EA6EEFCFEAF80101A75172
:1044D0000C0806E1A85304E1A95302E1AA5302E043
:1044E000000E01D0010E0801EB6F010E0901046FEF
:1044F000F90E036F290E056F560E066F010E076F3A
:10450000EAC808F9EBC809F90001B4EC15F0CD517F
:104510000508D8B43AD2CD510608D8B436D2CD2D3C
:1045200001D006D0CD51040803E0CD51020851E17D
:104530001B6AF2BE1B8EF29E5AC279F959C278F9F3
:1045400045EC05F01BBEF28E0901266B256B246B32
:104550007F0E236F03C02AF902C029F901C028F990
:1045600000C027F900016FEC0AF003C0EBF802C0AD
:10457000EAF801C0E9F800C0E8F81B6AF2BE1B8E39
:10458000F29E03C07BF902C07AF901C079F900C03C
:1045900078F909017F6BBA0E7E6F5B0E7D6F920E0C
:1045A0007C6F000160EC05F01BBEF28E03C010F9B9
:1045B00002C00FF901C00EF900C00DF9A3EC19F00B
:1045C00003C0DDF802C0DCF801C0DBF800C0DAF897
:1045D0005DD0D8908235036ACF0FE96E000E0320BC
:1045E000EA6EECCF03F0ED52EF501B6AF2BE1B8E69
:1045F000F29E0901786F03C079F9000145EC05F0DE
:104600001BBEF28E0901266B256B246B7F0E236F78
:1046100003C02AF902C029F901C028F900C027F90E
:1046200000016FEC0AF003C0EBF802C0EAF801C029
:10463000E9F800C0E8F81B6AF2BE1B8EF29E03C0C8
:104640007BF902C07AF901C079F900C078F9090153
:104650007F6BBA0E7E6F5B0E7D6F920E7C6F0001DA
:1046600060EC05F01BBEF28E03C010F902C00FF91A
:1046700001C00EF900C00DF9A3EC19F003C0DDF87C
:1046800002C0DCF801C0DBF800C0DAF8036A82512E
:104690005D0FE96E000E0320EA6EEF5207E0D8903E
:1046A0000801DD33DC33DB33DA3300010801DD538D
:1046B0000AE1DC5308E1DB5126086AE2FF0A03E164
:1046C000DA51100865E2DDC8EBF8DCC8EAF8DBC8AF
:1046D000E9F8DAC8E8F8000153EC0AF003C026F95B
:1046E00002C025F901C024F900C023F909012A6B91
:1046F000400E296F1C0E286F8B0E276F00016FEC88
:104700000AF003C0EBF802C0EAF801C0E9F800C003
:10471000E8F8D89203C00FF902C00EF901C00DF9F4
:1047200000C00CF90901136B126B116B7E0E106F38
:104730000001C4EC19F003C010F902C00FF901C068
:104740000EF900C00DF9A3EC19F003C0EBF802C09C
:10475000EAF801C0E9F800C0E8F803C05BF902C05C
:104760005AF901C059F900C058F909015F6B5E6B35
:10477000130E5D6F880E5C6F000125EC0AF003C01C
:10478000DDF802C0DCF801C0DBF800C0DAF808018F
:10479000DD530BE1DC5309E1DB510208D8B074D0E2
:1047A000FF0A03E1DA51E8086FE2DD536DE1DC5303
:1047B0006BE1DB51270868E303E1DA51100864E399
:1047C000DDC8EBF8DCC8EAF8DBC8E9F8DAC8E8F8D5
:1047D000000153EC0AF003C026F902C025F901C01C
:1047E00024F900C023F909012A6B296B7A0E286F7E
:1047F000880E276F00016FEC0AF003C0EBF802C0CF
:10480000EAF801C0E9F800C0E8F8D89203C00FF94F
:1048100002C00EF901C00DF900C00CF90901136BBB
:10482000126B116B7E0E106F0001C4EC19F003C007
:1048300010F902C00FF901C00EF900C00DF9A3EC88
:1048400019F003C0EBF802C0EAF801C0E9F800C0B3
:10485000E8F803C05BF902C05AF901C059F900C079
:1048600058F909015F6B5E6B030E5D6FE80E5C6FBC
:10487000000125EC0AF003C0DDF802C0DCF801C03D
:10488000DBF800C0DAF8080100018251040DF35092
:10489000036AD70FE96E000E0320EA6EEFCFE8F847
:1048A000ECCFE9F8ECCFEAF8ECCFEBF80801DD51FA
:1048B000EB5D1FE30BE1DC51EA5D1BE307E1DB513C
:1048C000E95D17E303E1DA51E85D13E3000182518A
:1048D000040DF350036AD70FE96E000E0320EA6E51
:1048E000DAC8EFFFDBC8ECFFDCC8ECFFDDC8ECFF8B
:1048F000080100018251040DF350036AE70FE96ECD
:10490000000E0320EA6EEFCFE8F8ECCFE9F8ECCF29
:10491000EAF8ECCFEBF80801DD51EB5D1FE30BE1AA
:10492000DC51EA5D1BE307E1DB51E95D17E303E1DD
:10493000DA51E85D13E300018251040DF350036A7C
:10494000E70FE96E000E0320EA6EDAC8EFFFDBC85E
:10495000ECFFDCC8ECFFDDC8ECFF0801D892DDC835
:1049600013F9DCC812F9DBC811F9DAC810F909012A
:10497000176B166B156B190E146F0001DBEC09F049
:1049800001C038F100C037F1D8D1CD51050804E09D
:10499000CD510608D8A4D1D1CD51050850E11B6AEC
:1049A000F2BE1B8EF29ED2C079F9D1C078F945ECE7
:1049B00005F01BBEF28E0901266B256B246B7F0E62
:1049C000236F03C02AF902C029F901C028F900C0E9
:1049D00027F900016FEC0AF003C0EBF802C0EAF817
:1049E00001C0E9F800C0E8F81B6AF2BE1B8EF29E17
:1049F00003C07BF902C07AF901C079F900C078F9E7
:104A000009017F6BBA0E7E6F5B0E7D6F920E7C6F1D
:104A1000000160EC05F01BBEF28E03C010F902C06D
:104A20000FF901C00EF900C00DF9A3EC19F003C095
:104A3000DDF802C0DCF801C0DBF800C0DAF8CD51C7
:104A4000060850E11B6AF2BE1B8EF29E5AC279F92B
:104A500059C278F945EC05F01BBEF28E0901266BB0
:104A6000256B246B7F0E236F03C02AF902C029F93E
:104A700001C028F900C027F900016FEC0AF003C05B
:104A8000EBF802C0EAF801C0E9F800C0E8F81B6AD8
:104A9000F2BE1B8EF29E03C07BF902C07AF901C000
:104AA00079F900C078F909017F6BBA0E7E6F5B0E51
:104AB0007D6F920E7C6F000160EC05F01BBEF28EE4
:104AC00003C010F902C00FF901C00EF900C00DF9C2
:104AD000A3EC19F003C0DDF802C0DCF801C0DBF87C
:104AE00000C0DAF85E5207E0D8900801DD33DC330D
:104AF000DB33DA3300010801DD530AE1DC5308E15E
:104B0000DB5126086AE2FF0A03E1DA51100865E288
:104B1000DDC8EBF8DCC8EAF8DBC8E9F8DAC8E8F881
:104B2000000153EC0AF003C026F902C025F901C0C8
:104B300024F900C023F909012A6B400E296F1C0ECD
:104B4000286F8B0E276F00016FEC0AF003C0EBF8A3
:104B500002C0EAF801C0E9F800C0E8F8D89203C042
:104B60000FF902C00EF901C00DF900C00CF90901DE
:104B7000136B126B116B7E0E106F0001C4EC19F0F9
:104B800003C010F902C00FF901C00EF900C00DF901
:104B9000A3EC19F003C0EBF802C0EAF801C0E9F891
:104BA00000C0E8F803C05BF902C05AF901C059F926
:104BB00000C058F909015F6B5E6B130E5D6F880EC4
:104BC0005C6F000125EC0AF003C0DDF802C0DCF8E0
:104BD00001C0DBF800C0DAF80801DD530BE1DC535B
:104BE00009E1DB510208D8B074D0FF0A03E1DA51C1
:104BF000E8086FE2DD536DE1DC536BE1DB51270820
:104C000068E303E1DA51100864E3DDC8EBF8DCC8BF
:104C1000EAF8DBC8E9F8DAC8E8F8000153EC0AF072
:104C200003C026F902C025F901C024F900C023F908
:104C300009012A6B296B7A0E286F880E276F0001F5
:104C40006FEC0AF003C0EBF802C0EAF801C0E9F823
:104C500000C0E8F8D89203C00FF902C00EF901C0F5
:104C60000DF900C00CF90901136B126B116B7E0E6C
:104C7000106F0001C4EC19F003C010F902C00FF965
:104C800001C00EF900C00DF9A3EC19F003C0EBF858
:104C900002C0EAF801C0E9F800C0E8F803C05BF917
:104CA00002C05AF901C059F900C058F909015F6BF7
:104CB0005E6B030E5D6FE80E5C6F000125EC0AF081
:104CC00003C0DDF802C0DCF801C0DBF800C0DAF890
:104CD0000801DD510201635D1AE311E10801DC51B5
:104CE0000201625D14E30BE10801DB510201615D29
:104CF0000EE305E10801DA510201605D08E3DDC859
:104D000063F2DCC862F2DBC861F2DAC860F2D89202
:104D1000DDC813F9DCC812F9DBC811F9DAC810F9DB
:104D20000901176B166B156B190E146F0001DBEC84
:104D300009F001C038F100C037F10801D991000134
:104D4000832D05D0822D03D00801D9810001000EEA
:104D50000801D9B1010EE86F00018351020806E194
:104D6000822D01D005D08251020802E0000E01D050
:104D7000010E0801E811D991E8B0D9810001CD51A7
:104D8000050803E0CD51060873E163C207F962C26A
:104D900006F961C205F960C204F900EC1BF003C01A
:104DA000EBF802C0EAF801C0E9F800C0E8F8010E2B
:104DB0000801C16FDB0EC06FF20EF66E020EF76EC9
:104DC000000EF86E060E0901066F000176EC15F074
:104DD000030EE96EEBC807F9EAC806F9E9C805F958
:104DE000E8C804F945EC1BF035C210F97CEC0FF073
:104DF000730E0901106F00017CEC0FF05FC207F920
:104E00005EC206F95DC205F95CC204F900EC1BF054
:104E100003C0EBF802C0EAF801C0E9F800C0E8F806
:104E2000010E0801C16FF90EC06F000EF66E030E81
:104E3000F76E000EF86E060E0901066F000176ECA3
:104E400015F0030EE96EEBC807F9EAC806F9E9C8E0
:104E500005F9E8C804F945EC1BF035C210F97CEC03
:104E60000FF0730E0901106F00017CEC0FF084D07D
:104E70008251040DF350036AD70FE96E000E032030
:104E8000EA6EEFCF04F9ECCF05F9ECCF06F9ECCFE1
:104E900007F900EC1BF003C0EBF802C0EAF801C010
:104EA000E9F800C0E8F8010E0801C16FDB0EC06F21
:104EB0000E0EF66E030EF76E000EF86E050E09016B
:104EC000066F000176EC15F0040EE96EEBC807F9E9
:104ED000EAC806F9E9C805F9E8C804F945EC1BF089
:104EE00035C210F97CEC0FF0730E0901106F000150
:104EF0007CEC0FF08251040DF350036AE70FE96E6A
:104F0000000E0320EA6EEFCF04F9ECCF05F9ECCFE9
:104F100006F9ECCF07F900EC1BF003C0EBF802C078
:104F2000EAF801C0E9F800C0E8F8010E0801C16F15
:104F3000F90EC06F1C0EF66E030EF76E000EF86EC3
:104F4000050E0901066F000176EC15F0040EE96EFE
:104F5000EBC807F9EAC806F9E9C805F9E8C804F991
:104F600045EC1BF035C210F97CEC0FF0730E090113
:104F7000106F00017CEC0FF0000E0801D9B1010E9A
:104F8000036A840FE96E000E0320EA6EEFCFEAF8A1
:104F90000101A7510D0806E1A85304E1A95302E15C
:104FA000AA5302E0000E01D0010E0801EB6F010EC2
:104FB0000901046FDB0E036F040E056F640E066FAC
:104FC000010E076FEAC808F9EBC809F90001B4EC53
:104FD00015F0000E0801D9B1010EE86F0001CD51A6
:104FE000050815E0CD51060812E0036A82515D0FF5
:104FF000E96E000E0320EA6EEF520BE0036A825165
:10500000590FE96E000E0320EA6EEF5202E1000E26
:1050100001D0010E0801E811D991E8B0D981000E44
:10502000D9B1010E036A840FE96E000E0320EA6E07
:10503000EFCFEAF80101A7510E0806E1A85304E1F9
:10504000A95302E1AA5302E0000E01D0010E0801AB
:10505000EB6F010E0901046FF90E036F290E056F46
:10506000640E066F010E076FEAC808F9EBC809F96C
:105070000001B4EC15F00101A7510F0806E1A85397
:1050800004E1A95302E1AA5302E0000E01D0010E8F
:105090000801E86F0901036B910E026F040E046FA3
:1050A000730E056F010E066FE8C807F9000157EC93
:1050B0000EF098D20901026BD60E016F290E036F14
:1050C000120E046F010E056F85C006F9076B000113
:1050D0006AEC12F00901026BDD0E016F040E036F22
:1050E0001E0E046F010E056F85C006F9076B0001E7
:1050F0006AEC12F00901026BDE0E016F290E036FDC
:105100001E0E046F010E056F85C006F9076B0001C6
:105110006AEC12F0080EEA6EDE0EE96E0A0E016EFF
:10512000F76A000EE6EC00F00A000900F5CFEEFF8A
:10513000012EFBD7080E0901046FDE0E036F040E6B
:10514000056F2C0E066F010E076F85C008F9096BFD
:105150000001B4EC15F00901026BDF0E016F290E9E
:10516000036F2C0E046F010E056F85C006F9076BE7
:1051700000016AEC12F00901026BE00E016F040EEF
:10518000036F3A0E046F010E056F85C006F9076BB9
:1051900000016AEC12F00801E96B5BC2E8F8E9C8AB
:1051A0000BF95BC20AF909010D6B640E0C6F00016B
:1051B00063EC0BF002C0E9F801C0E8F8010E080149
:1051C000C16FDB0EC06F2A0EF66E030EF76E000E77
:1051D000F86E050E0901066F000176EC15F0000E61
:1051E000E96EE9C807F9E8C806F99AEC14F0330E3D
:1051F000F66E030EF76E000EF86E040E0901066FD0
:10520000000176EC15F0010E0901046FDB0E036F4F
:10521000290E056F3A0E066F010E076F85C008F95B
:10522000096B0001B4EC15F0080EEA6EDE0EE96EB3
:10523000080E016EF76A000EF5EC00F00A00090096
:10524000F5CFEEFF012EFBD7080E0901046FDE0E2D
:10525000036F040E056F480E066F010E076F85C0C1
:1052600008F9096B0001B4EC15F00901026B050E99
:10527000016F290E036F480E046F010E056F85C084
:1052800006F9076B00016AEC12F0D8908235036AC8
:10529000CF0FE96E000E0320EA6EECCFE9F8ED5275
:1052A000EFCFE8F8010E0801C16FF90EC06F460E8E
:1052B0000901106F00017CEC0FF03D0E0901106F29
:1052C00000017CEC0FF0010EE96EE9C807F9E8C8AF
:1052D00006F99AEC14F03E0EF66E030EF76E000E11
:1052E000F86E040E0901066F000176EC15F0010E50
:1052F0000901046FF90E036F290E056F560E066F34
:10530000010E076F85C008F9096B0001B4EC15F0B8
:10531000D8908235036A390FE96E010E0320EA6ED8
:10532000EC6AED52040EEF6ED8908235036ACF0F0F
:10533000E96E000E0320EA6EECCFE9F8ED52EFCFF4
:10534000E8F8010E0801C16FF90EC06F460E0901A1
:10535000106F00017CEC0FF03D0E0901106F000191
:105360007CEC0FF0010EE96EE9C807F9E8C806F910
:105370009AEC14F04A0EF66E030EF76E000EF86EFD
:10538000040E0901066F000176EC15F00101A7512A
:105390000B0806E1A85304E1A95302E1AA5302E075
:1053A000000E01D0010E0801EA6F010E09010A6F1B
:1053B000F90E096F040E0B6F560E0C6F010E0D6F78
:1053C000EAC80EF9000131EC0FF08251040DF350E0
:1053D000036AD70FE96E000E0320EA6EEFCF04F9DF
:1053E000ECCF05F9ECCF06F9ECCF07F900EC1BF098
:1053F00003C0EBF802C0EAF801C0E9F800C0E8F821
:10540000010E0801C16FDB0EC06F500EF66E030E69
:10541000F76E000EF86E050E0901066F000176ECBE
:1054200015F0040EE96EEBC807F9EAC806F9E9C8F9
:1054300005F9E8C804F945EC1BF035C210F97CEC1D
:105440000FF0730E0901106F00017CEC0FF00101E9
:10545000A7510D0806E1A85304E1A95302E1AA539C
:1054600002E0000E01D0010E0801EA6F010E0901F1
:105470000A6FDB0E096F040E0B6F640E0C6F010ECA
:105480000D6FEAC80EF9000131EC0FF08251040DE6
:10549000F350036AE70F016E000E032201C0E8F823
:1054A00003C0E9F800018251040DF350036AD70FDD
:1054B000E96E000E0320EA6EEFCF00F0ECCF01F0B2
:1054C000ECCF02F0ECCF03F0E9C8EAFFE8C8E9FF4F
:1054D00000C0EFFF01C0ECFF02C0ECFF03C0ECFF17
:1054E0008251040DF350036AE70FE96E000E0320AA
:1054F000EA6EEFCF04F9ECCF05F9ECCF06F9ECCF6B
:1055000007F900EC1BF003C0EBF802C0EAF801C099
:10551000E9F800C0E8F8010E0801C16FDB0EC06FAA
:105520005E0EF66E030EF76E000EF86E050E0901A4
:10553000066F000176EC15F0040EE96EEBC807F972
:10554000EAC806F9E9C805F9E8C804F945EC1BF012
:1055500035C210F97CEC0FF0730E0901106F0001D9
:105560007CEC0FF0010E0901046FDB0E036F290EB6
:10557000056F640E066F010E076F85C008F9096B91
:105580000001B4EC15F0036A82515D0FE96E000E64
:105590000320EA6E010EEF6E036A8251590FE96E25
:1055A000000E0320EA6E010EEF6ED8908235036A7A
:1055B000470FE96E010E0320EA6E0E0EEC6EED52FF
:1055C000100EEF6E0901026B910E016F040E036F56
:1055D000730E046F010E056F85C006F9076B00019D
:1055E0006AEC12F06BC06CF0519C000E016E120060
:1055F000E824F76AF736110FF66E560EF722000E02
:10560000F86EFB6E0A00F550FA6E0800F550F96E60
:105610007A38803886388C38E824F76AF736390FBC
:10562000F66E560EF722000EF86EFB6E0A00F5506D
:10563000FA6E0800F550F96E663A683A6E3A743AB6
:105640007A3A803A863AE7C8EEF80801EB51EE1B49
:10565000EEAF05D0D894D890E7BFD8802FD0E7C858
:10566000EEF8EAC8EFF8E651EF5F06E0EEAF26D0BD
:10567000D850010AD86E22D0EBC8EFF8E751EF5F9F
:1056800006E0EEAF1BD0D850010AD86E17D0ECC898
:10569000EFF8E851EF5F06E0EEAF10D0D850010A06
:1056A000D86E0CD0EDC8EFF8E951EF5F06E0EEAF31
:1056B00005D0D850010AD86E01D0D8900001120050
:1056C0001B6AF2BE1B8EF29EE7C879F9E6C878F92C
:1056D00045EC05F01BBEF28E03C026F902C025F989
:1056E00001C024F900C023F909012A6B296B480E77
:1056F000286F840E276F00016FEC0AF003C0EBF8EF
:1057000002C0EAF801C0E9F800C0E8F8D89203C086
:105710000FF902C00EF901C00DF900C00CF9090122
:10572000136B126B116B7E0E106F0001C4EC19F03D
:105730001B6AF2BE1B8EF29E03C07BF902C07AF98F
:1057400001C079F900C078F9DBEC05F01BBEF28EE0
:1057500002C0E9F801C0E8F802C00BF901C00AF97B
:1057600009010D6B320E0C6F000163EC0BF002C0EF
:1057700003F002C002F012001B6AF2BE1B8EF29E02
:10578000E7C879F9E6C878F945EC05F01BBEF28E5A
:1057900003C026F902C025F901C024F900C023F98D
:1057A00009012A6B296B200E286F820E276F0001DA
:1057B0006FEC0AF003C0EBF802C0EAF801C0E9F8A8
:1057C00000C0E8F8D89203C00FF902C00EF901C07A
:1057D0000DF900C00CF90901136B126B116B7E0EF1
:1057E000106F0001C4EC19F01B6AF2BE1B8EF29E12
:1057F00003C07BF902C07AF901C079F900C078F9D9
:10580000DBEC05F01BBEF28E02C0E9F801C0E8F83F
:1058100002C00BF901C00AF909010D6B0A0E0C6FE9
:10582000000163EC0BF002C003F002C002F01200B2
:105830001B6AF2BE1B8EF29EE7C879F9E6C878F9BA
:1058400045EC05F01BBEF28E03C026F902C025F917
:1058500001C024F900C023F909012A6B296B286BC8
:105860007F0E276F00016FEC0AF003C0EBF802C057
:10587000EAF801C0E9F800C0E8F8D89203C00FF9CF
:1058800002C00EF901C00DF900C00CF90901136B3B
:10589000126B116B7E0E106F0001C4EC19F01B6AC5
:1058A000F2BE1B8EF29E03C07BF902C07AF901C0E2
:1058B00079F900C078F9DBEC05F01BBEF28E02C06E
:1058C000E9F801C0E8F8080101C001F002C002F0E7
:1058D0000001120051AC10EF34F00801DF9100011B
:1058E0006C5150083EE00601F79B00016C515308D3
:1058F00005E00101326B010E316F000188EC0BF005
:105900000901036B070E026F046B056B020E066F35
:10591000076B000157EC0EF0050EBF6F020ECE6F45
:105920006C51B4080DE10101AE6BAD6B4FC2ACF12F
:105930004EC2ABF1AA6BA96BA86B080EA76F000152
:105940000101A75108080CE1A8530AE1A95308E195
:10595000AA5306E1AE6BAD6B4FC2ACF14EC2ABF1D8
:1059600000010101AA5307E1A95305E1A85303E18E
:10597000A7510A0805E2AA6BA96BA86B0A0EA76FCC
:10598000AA530CE1A9530AE1A85308E1A75108085A
:1059900005E3AA6BA96BA86B080EA76F000119ECB1
:1059A00011F0010E8C6F0101A75306E1A85304E129
:1059B000A95302E1AA5302E0000E01D0010E080132
:1059C000E66F0901026B8CC001F9040E036F1E0E15
:1059D000046F010E056F85C006F9E6C807F90001DE
:1059E0006AEC12F0010E0801C16FDB0EC06F6C0E85
:1059F000F66E030EF76E000EF86E030E0901066FC9
:105A0000000176EC15F0010EE96E45C207F944C2BB
:105A100006F99AEC14F0730EF66E030EF76E000E94
:105A2000F86E030E0901066F000176EC15F0010116
:105A3000A72D06D0A85304E1A95302E1AA5302E01E
:105A4000000E01D0010E0801E76F010E0901046F7D
:105A5000DB0E036F290E056F1E0E066F010E076F1A
:105A600085C008F9E7C809F90001B4EC15F0010E8A
:105A70000801C16FDB0EC06F780EF66E030EF76E75
:105A8000000EF86E030E0901066F000176EC15F0AA
:105A9000010EE96E47C207F946C206F99AEC14F006
:105AA0000101A751020806E1A85304E1A95302E14C
:105AB000AA5302E0000E01D0010E0801E76F010EAB
:105AC0000901046FDB0E036F040E056F2C0E066FC9
:105AD000010E076F85C008F9E7C809F90001B4ECA9
