:10000000B7EFCCF012001200046ED8CF05F0E0CFAD
:1000100006F00001E9CF0CF0EACF07F0E1CF08F0DD
:10002000E2CF09F0D9CF0AF0DACF0BF0F3CF12F01C
:10003000F4CF13F0FACF14F0F5CF15F0F6CF16F099
:10004000F7CF17F0F8CF18F0FBCF19F000C00EF083
:1000500001C00FF002C010F003C011F0F2AA34EF9B
:1000600000F0F2B4F7EF00F09DA03AEF00F09EB080
:100070001BEF0EF0A0A240EF00F0A1B2D3EF13F0FF
:10008000F2A846EF00F0F2B27BEF25F09DAA4CEF0C
:1000900000F09EBA1CEF1CF0B9A052EF00F0BAB00D
:1000A00043EF11F0B9A258EF00F0BAB22AEF02F014
:1000B000B9A45EEF00F0BAB4C8EF12F0B9A664EFCD
:1000C00000F0BAB673EF03F0B9A86AEF00F0BAB85F
:1000D000EFEF16F0B9AA70EF00F0BABAD6EF18F049
:1000E000B9AC76EF00F0BABC93EF22F00EC000F08E
:1000F0000FC001F010C002F011C003F00CC0E9FF06
:1001000007C0EAFF078E08C0E1FF09C0E2FF0AC08E
:10011000D9FF0BC0DAFF12C0F3FF13C0F4FF14C005
:10012000FAFF15C0F5FF16C0F6FF17C0F7FF18C09D
:10013000F8FF19C0FBFF045006C0E0FF05C0D8FF60
:100140001000256620560D0A0000256620560D0A6F
:100150000000256C752075410D0A000025662056AB
:100160000D0A0000256620560D0A0000256C75203A
:1001700075410D0A00000601AF6BAE6BB16BB06B41
:10018000C282C2B2FED7C3CFB0F6C4CFB1F6C2B2FC
:10019000FED7030144510601B05F0301455106013A
:1001A000B15BB1BF05D0B15306E1B051000803E324
:1001B000AF6BAE6B04D0B1C6AFF6B0C6AEF6AEC68E
:1001C00001F0AFC602F000011200010E0601AE5FA1
:1001D0000CE3060EEA6EAE0EE96EEF5006E0040E7A
:1001E000006E002EFED7EF2EFAD700011200040198
:1001F0004B53D8A4A1D0C1C0D7FFC0C0D6FF375041
:1002000007081BE100017A51785DD8B402D00401DF
:1002100014D07B51795DD8B402D004010ED07C514A
:100220007A5DD8B402D0040108D07D517B5DD8B48A
:1002300002D0040102D02586040125A60AD037A2E7
:1002400008D0CD90CF68FA0ECE6E45C041F044C0C4
:1002500040F025A80BD03750050808E1B190B368ED
:10026000FA0EB26E47C043F046C042F02488000E3A
:10027000956E8C90250E006E002EFED7000E966EA9
:100280008D8E4F0E006E002EFED700D0000E956EA4
:100290008C887B800001835307E1825305E1815301
:1002A00003E180517C0802E237B00BD08F5307E1A5
:1002B0008E5305E18D5303E18C517C0803E237A690
:1002C00001D038D02AA61BD0350E006E002EFED7E6
:1002D000180E016EC250830B0110C26E000E016E2B
:1002E000C150F80B0110C16E350E006E002EFED706
:1002F00042DF02C0D7F001C0D6F02A961BD0350EDF
:10030000006E002EFED7040E016EC250830B01104A
:10031000C26E000E016EC150F80B0110C16E350E99
:10032000006E002EFED727DF02C0D3F001C0D2F04E
:100330002A8628808CD004014B2D87D00001682BA1
:100340006951685D05E2C1C0D7FFC0C0D6FF7FD04C
:100350000401725303E01FBE01D072072B96000107
:10036000686BC1C0D7FFC0C0D6FF040172536AE0FA
:10037000000E956E8C9E250E006E002EFED7CD9041
:10038000B190C7C0CFFFC6C0CEFFCDC0B3FFCCC0B9
:10039000B2FF416A406A436A426ACD80B180000E72
:1003A000966E8D844F0E006E002EFED700D0900EFC
:1003B000946E8B840F013685300E0601AE6F0001FE
:1003C00004DF200E016EC250830B0110C26E000EBE
:1003D000016EC150F80B0110C16E250E006E002E8B
:1003E000FED7C9DE02C0E7F001C0E6F0350E006EB0
:1003F000002EFED7240E016EC250830B0110C26E78
:10040000000E016EC150F80B0110C16E250E006E7A
:10041000002EFED7B0DE02C0E3F001C0E2F0288477
:10042000E10EC56F180EC46F0F013D91C5C03FFFAF
:10043000C4C03EFFBA96B986000E966E8D9E3D8171
:1004400005D00401D59E010E6E6F0F010001F294DC
:1004500076EF00F0722B6C51725D05E2C3C07DFF38
:10046000C2C07CFF3BD1835307E1825305E1815336
:1004700003E180517C0802E237B00BD08F5307E1D3
:100480008E5305E18D5303E18C517C0831E237A690
:100490002FD0180E016EC250830B0110C26E000ED9
:1004A000016EC150F80B0110C16E250E006E002EBA
:1004B000FED761DE02C0D7F001C0D6F0350E006E67
:1004C000002EFED7040E016EC250830B0110C26EC7
:1004D000000E016EC150F80B0110C16E250E006EAA
:1004E000002EFED748DE02C0D3F001C0D2F0288033
:1004F000726B7B90C3C07DFFC2C07CFF000E956E07
:100500008C98250E006E002EFED7302C6BD037A0B5
:1005100069D0000E966E8D9EC5C03FFFC4C03EFFE1
:10052000935307E1925305E1915303E190517C0805
:100530000FE2000E956E8C804F0E006E002EFED7DF
:1005400000D0000E956E8C860F013D8149D00001D0
:10055000000E956E8C80350E006E002EFED7000EBC
:10056000956E8C860F013D812AA81DD0350E006E38
:10057000002EFED7140E016EC250830B0110C26E06
:10058000000E016EC150F80B0110C16E350E006EE9
:10059000002EFED70001EFDD02C0D9F001C0D8F077
:1005A0002A981DD00F01350E006E002EFED7040EC6
:1005B000016EC250830B0110C26E000E016EC1505D
:1005C000F80B0110C16E350E006E002EFED7000133
:1005D000D2DD02C0D5F001C0D4F02A8828800F01F6
:1005E0007ED0000137A669D0000E966E8D9EC5C0E4
:1005F0003FFFC4C03EFF9F5307E19E5305E19D535B
:1006000003E19C517C080FE2000E956E8C804F0E2A
:10061000006E002EFED700D0000E956E8C860F0166
:100620003D8149D00001000E956E8C80350E006E24
:10063000002EFED7000E956E8C860F013D812AA8F4
:100640001DD0350E006E002EFED7140E016EC25066
:10065000830B0110C26E000E016EC150F80B011029
:10066000C16E350E006E002EFED7000184DD02C083
:10067000D9F001C0D8F02A981DD00F01350E006EB8
:10068000002EFED7040E016EC250830B0110C26E05
:10069000000E016EC150F80B0110C16E350E006ED8
:1006A000002EFED7000167DD02C0D5F001C0D4F0F6
:1006B0002A8828800F0113D00001000E956E8C90BF
:1006C000249825A602D0CD80259625A805D03750A0
:1006D000050802E1B18025981F8428800F01BA9295
:1006E000000176EF00F00F013D91BA96C5C03FFFC3
:1006F000C4C03EFF000E966E8D8EBA96000176EF56
:1007000000F08E0E006EB9C601F0B8C602F0036AA2
:10071000015209E102C001F0026A080E005E0152B6
:1007200002E1006A08D0D89001BE04D0023601363A
:100730000006F9D7019E12000601B851D8B4A5D021
:10074000C46FBC51D8B4A1D0C45F05E37F0EC427E9
:10075000D8B09BD006D0810EC45FD8A096D0D8B4B4
:1007600094D0C4C600F0016A026A036AC36BB9C6BA
:10077000C2F6C28FBAC6C1F6BBC6C0F6190EC46FA8
:10078000BF51C05F0DE2010EC15F0AE2C25F08E225
:10079000C35F06E2C32BC22BC12BBF51C02728D099
:1007A000BE51C15F12E2010EC25F0FE2C35F0DE2F4
:1007B000C32BC22BBE51C127BF51C02719E3C12B88
:1007C00017E1C22B15E1C32B13D0BD518009C25FC5
:1007D0000EE2010EC35F0BE2C32BBD518009C2279D
:1007E000BE51C127E9E3C22BE7E1C32BE5D7038064
:1007F000C42F01D00BD0D890C037C137C237C33710
:10080000D890033602360136C537BAD7C5A106D00F
:10081000D890013202320332C53302D0000635E0EF
:10082000C5BF1ED0D890C037C137C237C337BF51FC
:10083000C05F07E2010EC15F04E2C25F02E2C35F74
:100840001AE3BE51C15F05E2010EC25F02E2C35F5F
:1008500012E3BD518009C25F03E2010EC35F0BE3E7
:10086000032A09E1022A07E1012A05E1002A0DE035
:10087000013202320332B9C6C4F6BD51C41BC4AF43
:1008800002D0018E06D0019E04D0006A016A026A7D
:10089000036A000112008E0E006E0601B451005E64
:1008A000B5C602F0B6C601F0028E005209E0D8903B
:1008B000025202E1015204E002320132002EF7D767
:1008C000B5AF05D0011E021E012AD8B4022A0001CC
:1008D0001200800ED8A202D00601BD1B0601C26B19
:1008E000C36BB9C6C1F6BD51C11BB851D8B4DFD076
:1008F000C06F006EBC51D8B4E3D0C05FD8B483D011
:100900003EE3BDC6C6F6C68FBEC6C5F6BFC6C4F6B4
:10091000C36BD890C633C533C433C333C02FF8D7A5
:10092000C1AF03D0C281E0D0C291C091C289060E8E
:10093000EA6EBB0EE96EEBD0C299C1BF0AD0C0A16E
:1009400013D0C633C533C433C333002AD8B4C7D099
:100950000BD0C6BF0CD0D890C337C437C537C63705
:100960000006D8B4BCD0F5D7C28D6DD0C29DB9C633
:10097000C1F6B9AF02D0C68FABD0C69FA9D0BCC656
:10098000C0F6BCC600F0B851C05FB9C6C6F6C68F87
:10099000BAC6C5F6BBC6C4F6C36BD890C633C5335A
:1009A000C433C333C02FF8D7C1AF03D0C2839CD0A8
:1009B000C293C091C28B060EEA6EBF0EE96EA7D03D
:1009C000C29BC1BF0AD0C0A113D0C633C533C43344
:1009D000C333002AD8B483D00BD0C6BF0CD0D89074
:1009E000C337C437C537C6370006D8B478D0F5D773
:1009F000C28F29D0C29FBDC6C1F6BDAF02D0C68F7F
:100A000067D0C69F65D0BDC6C6F6C68FBEC6C5F642
:100A1000BFC6C4F6C1AF04D0C69FC28565D0C2951B
:100A2000C36BC091060EEA6EBB0EE96E70D0C1BFFB
:100A30001CD0B9C6C1F6C0A106D0C633C533C43375
:100A4000C333002A4CE0C3AF0BD0C42B09E1C52B44
:100A500007E1C62B05E1C633C533C433002A3FE0A6
:100A6000C2BD84D7C2BFC6D71CD0800EC61BC6AFBE
:100A700004D03AD0BDC6C1F60AD0B9C6C1F6C65335
:100A800006E1C55304E1C45302E1006A21D0C6BFA8
:100A900008D0D890C337C437C537C637002EF7D72C
:100AA0001ED0C1AF02D0C68F13D0C69F11D0BCC616
:100AB00000F0BDC6C6F6BEC6C5F6BFC6C4F608D0B1
:100AC000B8C600F0B9C6C6F6BAC6C5F6BBC6C4F607
:100AD000C6C601F0C5C602F0C4C603F034D0006A31
:100AE000016A026A036A2FD0C36BC41FC51FC61FE9
:100AF000C31FC32B05E1C42B03E1C52B01E1C62BAA
:100B0000C2B112D7C2B354D7C2B589D7B3D7EF5049
:100B1000C42705E3C52B03E1C62BD8B4C081ED5231
:100B2000EF50C52703E3C62BD8B4C081ED52EF5078
:100B3000EFBE01D0800AC627D8B0C081C2B9FCD6AA
:100B4000C2BB3ED774D700011200B9C6C0F6060179
:100B5000BD51C01BC0AF05D0D894D890B9BFD880C4
:100B60002FD0B9C6C0F6BCC6C1F6B851C15F06E009
:100B7000C0AF26D0D850010AD86E22D0BDC6C1F66B
:100B8000B951C15F06E0C0AF1BD0D850010AD86E82
:100B900017D0BEC6C1F6BA51C15F06E0C0AF10D0D3
:100BA000D850010AD86E0CD0BFC6C1F6BB51C15F88
:100BB00006E0C0AF05D0D850010AD86E01D0D89059
:100BC000000112000601B851B608B86F036AB9C631
:100BD000BCF6B98FD890B933BA33BB330332023283
:100BE00001320032B82FF6D7BCAF0BD0001E011E69
:100BF000021E031E002AD8B4012AD8B4022AD8B48F
:100C0000032A000112000601B851D8B471D0006E59
:100C1000BC51D8B46DD0002604E3810E002668E2F2
:100C200004D07F0E005E64E363E0B9C6C0F6BD5138
:100C3000C01BB98FBD8FBB51BF03F4CFC2F6BA51F1
:100C4000BE03F4CF03F0F3CFC1F6BF03F350C227C6
:100C5000F450C123000E0322BB51BE03F350C22740
:100C6000F450C123000E026A03220222B951BF03CD
:100C7000F350C127F4500322000E0222B951BE03E3
:100C8000F3500326F4500222000E016A0122BB51E8
:100C9000BD03F350C127F4500322000E02220122AB
:100CA000BA51BD03F3500326F4500222000E012274
:100CB000B951BD03F3500226F4500122002A01BEAF
:100CC00005D0C1370336023601360006000EC1AF2B
:100CD0000AD0032A02220122015005E1025003E159
:100CE000035001E1002AC0BF018EC0AF019E04D0B5
:100CF000006A016A026A036A000112000601BB6B06
:100D0000BA6B780EB96F830EB86FB7C6BFF6B6C6AA
:100D1000BEF6B5C6BDF6B4C6BCF6000116DF31E3BB
:100D2000456A446A0601BB6B240EBA6F740EB96F34
:100D3000930EB86FB7C6BFF6B6C6BEF6B5C6BDF65B
:100D4000B4C6BCF60001F8DC03C0BBF602C0BAF6BC
:100D500001C0B9F600C0B8F635DF03C0DFF102C04C
:100D6000DEF101C0DDF100C0DCF1000ED880010130
:100D7000DC550001C66F000E0101DD550001C76F93
:100D8000C9D1B7C6BBF6B6C6BAF6B5C6B9F6B4C6CB
:100D9000B8F60601BF6BBE6BBD6B800EBC6F000169
:100DA000D4DE01E248E1456A280E446E45C0B9F63A
:100DB00044C0B8F6A6DCB7C6BBF6B6C6BAF6B5C62A
:100DC000B9F6B4C6B8F603C0BFF602C0BEF601C09D
:100DD000BDF600C0BCF617DF0601BB6B240EBA6F70
:100DE000740EB96F930EB86F03C0BFF602C0BEF6A3
:100DF00001C0BDF600C0BCF600019EDC03C0BBF61E
:100E000002C0BAF601C0B9F600C0B8F6DBDE03C016
:100E1000DFF102C0DEF101C0DDF100C0DCF1000E47
:100E2000D8800101DC550001C66F000E0101DD55BF
:100E30000001C76F6FD1B7C6BBF6B6C6BAF6B5C666
:100E4000B9F6B4C6B8F60601BF6BBE6BBD6B810EBA
:100E5000BC6F00017ADE01E248E1456A140E446E7F
:100E600045C0B9F644C0B8F64CDCB7C6BBF6B6C64A
:100E7000BAF6B5C6B9F6B4C6B8F603C0BFF602C036
:100E8000BEF601C0BDF600C0BCF6BDDE0601BB6B00
:100E9000240EBA6F740EB96F930EB86F03C0BFF60D
:100EA00002C0BEF601C0BDF600C0BCF6000144DCC5
:100EB00003C0BBF602C0BAF601C0B9F600C0B8F66E
:100EC00081DE03C0DFF102C0DEF101C0DDF100C050
:100ED000DCF1000ED8800101DC550001C66F000E68
:100EE0000101DD550001C76F15D1B7C6BBF6B6C607
:100EF000BAF6B5C6B9F6B4C6B8F60601BF6BBE6B96
:100F0000BD6B820EBC6F000120DE01E24AE1456A42
:100F10000A0E446E45C0B9F644C0B8F681EC03F041
:100F2000B7C6BBF6B6C6BAF6B5C6B9F6B4C6B8F615
:100F300003C0BFF602C0BEF601C0BDF600C0BCF6DD
:100F400062DE0601BB6B240EBA6F740EB96F930E8E
:100F5000B86F03C0BFF602C0BEF601C0BDF600C048
:100F6000BCF600019CEC03F003C0BBF602C0BAF66D
:100F700001C0B9F600C0B8F625DE03C0DFF102C03B
:100F8000DEF101C0DDF100C0DCF1000ED88001010E
:100F9000DC550001C66F000E0101DD550001C76F71
:100FA000B9D0B7C6BBF6B6C6BAF6B5C6B9F6B4C6BA
:100FB000B8F60601BF6BBE6B200EBD6F830EBC6F13
:100FC0000001C3DD01E24AE1456A050E446E45C0F9
:100FD000B9F644C0B8F681EC03F0B7C6BBF6B6C6A6
:100FE000BAF6B5C6B9F6B4C6B8F603C0BFF602C0C5
:100FF000BEF601C0BDF600C0BCF605DE0601BB6B47
:10100000240EBA6F740EB96F930EB86F03C0BFF69B
:1010100002C0BEF601C0BDF600C0BCF600019CECEB
:1010200003F003C0BBF602C0BAF601C0B9F600C0B7
:10103000B8F6C8DD03C0DFF102C0DEF101C0DDF1AA
:1010400000C0DCF1000ED8800101DC550001C66F44
:10105000000E0101DD550001C76F5CD0B7C6BBF6BD
:10106000B6C6BAF6B5C6B9F6B4C6B8F60601BF6BD1
:10107000BE6B780EBD6F830EBC6F000166DD01E2B2
:1010800049E1456A020E446E45C0B9F644C0B8F65F
:1010900081EC03F0B7C6BBF6B6C6BAF6B5C6B9F66C
:1010A000B4C6B8F603C0BFF602C0BEF601C0BDF6B6
:1010B00000C0BCF6A8DD0601BB6B240EBA6F740E2F
:1010C000B96F930EB86F03C0BFF602C0BEF601C081
:1010D000BDF600C0BCF600019CEC03F003C0BBF6FB
:1010E00002C0BAF601C0B9F600C0B8F66BDD03C0A5
:1010F000DFF102C0DEF101C0DDF100C0DCF1000E65
:10110000D8800101DC550001C66F000E0101DD55DC
:101110000001C76FC7C0CFFFC6C0CEFF12000201DB
:10112000E6A35FD0CDC2B9F6CCC2B8F6000181EC1F
:1011300003F003C0F2F202C0F1F201C0F0F200C00D
:10114000EFF203012EAB4BD025C3FEF224C3FDF218
:1011500023C3FCF222C3FBF2FEC2B7F6FDC2B6F611
:10116000FCC2B5F6FBC2B4F600014BEC04F002C0C1
:10117000B5F601C0B4F60601B533B433B533B433B4
:10118000B533B4C644FFB533B531300B006E0F0133
:101190004351CF0B0010436F315220E0FEC2B7F62F
:1011A000FDC2B6F6FCC2B5F6FBC2B4F600014BECCC
:1011B00004F002C0B5F601C0B4F60601B533B4338D
:1011C000B533B433B533B4C647FFB533B531300B9F
:1011D000006E0F014651CF0B0010466F030115D171
:1011E0000201E6A511D0CFC2B9F6CEC2B8F6000111
:1011F00081EC03F003C0F2F202C0F1F201C0F0F2A0
:1012000000C0EFF203D1020103012EBB40D02BAE90
:101210001ED0D892F2C2BBF6F1C2BAF6F0C2B9F64D
:10122000EFC2B8F6EEC2BFF6EDC2BEF6ECC2BDF636
:10123000EBC2BCF6000169EC04F003C0F2F202C09C
:10124000F1F201C0F0F200C0EFF21FD003012BBE9B
:101250001DD0D882F2C2BBF6F1C2BAF6F0C2B9F61E
:10126000EFC2B8F6EEC2BFF6EDC2BEF6ECC2BDF6F6
:10127000EBC2BCF6000169EC04F003C0F2F202C05C
:10128000F1F201C0F0F200C0EFF20301BED02BAECC
:1012900061D00201E6A704D0E6B502D003015AD01E
:1012A000CDC2B9F6CCC2B8F6000181EC03F003C0A0
:1012B000F2F202C0F1F201C0F0F200C0EFF225C379
:1012C000FEF224C3FDF223C3FCF222C3FBF2FEC2F2
:1012D000B7F6FDC2B6F6FCC2B5F6FBC2B4F64BECEF
:1012E00004F002C0B5F601C0B4F60601B533B4335C
:1012F000B533B433B533B4C644FFB533B531300B71
:10130000006E0F014351CF0B0010436F315220E0AC
:10131000FEC2B7F6FDC2B6F6FCC2B5F6FBC2B4F625
:1013200000014BEC04F002C0B5F601C0B4F60601B2
:10133000B533B433B533B433B533B4C647FFB5337F
:10134000B531300B006E0F014651CF0B0010466FC8
:101350005BD003012BBE59D0CFC2B9F6CEC2B8F6CE
:10136000000181EC03F003C0F2F202C0F1F201C00F
:10137000F0F200C0EFF2FAC2FEF2F9C2FDF2F8C2DA
:10138000FCF2F7C2FBF2FEC2B7F6FDC2B6F6FCC233
:10139000B5F6FBC2B4F64BEC04F002C0B5F601C0E2
:1013A000B4F60601B533B433B533B433B533B4C68C
:1013B00044FFB533B531300B006E0F014351CF0BF5
:1013C0000010436F315220E0FEC2B7F6FDC2B6F600
:1013D000FCC2B5F6FBC2B4F600014BEC04F002C04F
:1013E000B5F601C0B4F60601B533B433B533B43342
:1013F000B533B4C647FFB533B531300B006E0F01BE
:101400004651CF0B0010466F030100010601BB6B74
:10141000BA6BB96B7F0EB86FF2C2BFF6F1C2BEF6FF
:10142000F0C2BDF6EFC2BCF600019CEC03F003C0B5
:10143000B7F602C0B6F601C0B5F600C0B4F6D88261
:1014400003C0BBF602C0BAF601C0B9F600C0B8F6D8
:10145000EAC2BFF6E9C2BEF6E8C2BDF6E7C2BCF614
:1014600069EC04F003C0B3F602C0B2F601C0B1F6F5
:1014700000C0B0F60601BB6BBA6BB96B7F0EB86FDC
:10148000B3C6BFF6B2C6BEF6B1C6BDF6B0C6BCF6B0
:1014900000019CEC03F003C0E5F202C0E4F201C0DD
:1014A000E3F200C0E2F2E5C2BBF6E4C2BAF6E3C280
:1014B000B9F6E2C2B8F60601BF6BBE6BBD6BBC6B82
:1014C0000001A5EC05F001E20AE10601B76BB66B7D
:1014D0007A0EB56F880EB46F000110DC09D0E5C23A
:1014E000B7F6E4C2B6F6E3C2B5F6E2C2B4F606DC7D
:1014F0001200D2C2B9F6D1C2B8F681EC03F003C033
:10150000B3F602C0B2F601C0B1F600C0B0F6D882A0
:1015100003C0BBF602C0BAF601C0B9F600C0B8F607
:1015200002C3BFF601C3BEF600C3BDF6FFC2BCF6E0
:1015300069EC04F003C0B3F602C0B2F601C0B1F624
:1015400000C0B0F603C0BBF602C0BAF601C0B9F6DF
:1015500000C0B8F638C3BFF637C3BEF636C3BDF613
:1015600035C3BCF603EC06F003C0BBF602C0BAF606
:1015700001C0B9F600C0B8F6E2EC05F003C0B3F65E
:1015800002C0B2F601C0B1F600C0B0F60201D351FC
:1015900006010024006E0201D45106010120016EF3
:1015A0000201D55106010220026E0201D651060148
:1015B0000320E8CF3CF302C03BF301C03AF300C084
:1015C00039F33CC387F03BC386F03AC385F039C397
:1015D00084F03CC397F03BC396F03AC395F039C30F
:1015E00094F000011200D8B204D0060EEA6EBC0ED0
:1015F000E96E006A016A026A036A0601BC6BBD6B90
:10160000BE6BBF6BBB51BA11B911B8112CE0200EE3
:10161000C06FD890B437B537B637B737BC37BD379A
:10162000BE37BF37BB51BF5D08E1BA51BE5D05E1B2
:10163000B951BD5D02E1B851BC5D0FE3B851BC5F6B
:10164000B951D8A0B93DBD5FBA51D8A0BA3DBE5F6F
:10165000BB51D8A0BB3DBF5FD880003601360236F3
:101660000336C02FD6D7BCC6EFFFBDC6ECFFBEC643
:10167000ECFFBFC6ECFF00011200B60E006E036A5D
:10168000026A016A0601B851B911BA11BB1102E12F
:10169000006A0DD0D89001BE09D0B837B937BA3733
:1016A000BB37033602360136002EF4D7019E000107
:1016B000120003013C5346E13B5344E13A51040814
:1016C00041E303E13951FA083DE339350601B06FD2
:1016D00003013A350601B16F03013B350601B26FD4
:1016E00003013C350601B36FB037B137B237B337BA
:1016F000B037B137B237B337B037B137B237B337A6
:10170000B037B137B237B337B037B137B237B33795
:10171000C00EB017D892B3C6B7F6B2C6B6F6B1C609
:10172000B5F6B0C6B4F6BB6BBA6B010EB96F040E5A
:10173000B86F000158DF01C0C9F000C0C8F06E6B7F
:101740000FD103013CC3BBF63BC3BAF63AC3B9F6AB
:1017500039C3B8F6000191DF03C0B3F602C0B2F698
:1017600001C0B1F600C0B0F603C0BBF602C0BAF6C5
:1017700001C0B9F600C0B8F60601BF6B600EBE6FBF
:101780001F0EBD6F890EBC6F00019CEC03F003C0FF
:10179000A3F202C0A2F201C0A1F200C0A0F2A3C253
:1017A000B7F6A2C2B6F6A1C2B5F6A0C2B4F64BEC2B
:1017B00004F00601B96B01C0B8F6000181EC03F03A
:1017C000D882A3C2BBF6A2C2BAF6A1C2B9F6A0C221
:1017D000B8F603C0BFF602C0BEF601C0BDF600C039
:1017E000BCF669EC04F003C0B3F602C0B2F601C067
:1017F000B1F600C0B0F603C0BBF602C0BAF601C035
:10180000B9F600C0B8F60601BF6BBE6BBD6BBC6B12
:101810000001A5EC05F00DE1A3C2B7F6A2C2B6F631
:10182000A1C2B5F6A0C2B4F64BEC04F001C06EF054
:101830000DD0A3C2B7F6A2C2B6F6A1C2B5F6A0C239
:10184000B4F64BEC04F0010E01246E6F0601B96B87
:101850006EC0B8F6000181EC03F0A3C2BBF6A2C2D1
:10186000BAF6A1C2B9F6A0C2B8F603C0BFF602C06C
:10187000BEF601C0BDF600C0BCF69CEC03F003C090
:101880008BF202C08AF201C089F200C088F2060120
:10189000BB6BBA6B7F0EB96F860EB86F8BC2BFF68B
:1018A0008AC2BEF689C2BDF688C2BCF6000103EC4E
:1018B00006F003C0B7F602C0B6F601C0B5F600C028
:1018C000B4F64BEC04F002C0C9F001C0C8F0060148
:1018D000B96B6EC0B8F6000181EC03F003C0BBF633
:1018E00002C0BAF601C0B9F600C0B8F69A0E0601F9
:1018F000BF6F990EBE6F190EBD6F7D0EBC6F0001DC
:1019000003EC06F003C0B3F602C0B2F601C0B1F6B4
:1019100000C0B0F60601B96B6EC0B8F6000181ECEC
:1019200003F0D89203C0BBF602C0BAF601C0B9F604
:1019300000C0B8F6B3C6BFF6B2C6BEF6B1C6BDF6B5
:10194000B0C6BCF669EC04F003C0B7F602C0B6F648
:1019500001C0B5F600C0B4F64BEC04F001C06EF067
:10196000200E06096B6EC8C06CFF6B94746B312C33
:1019700061D103013C5346E13B5344E13A51040831
:1019800041E303E13951FA083DE339350601B06F0F
:1019900003013A350601B16F03013B350601B26F11
:1019A00003013C350601B36FB037B137B237B337F7
:1019B000B037B137B237B337B037B137B237B337E3
:1019C000B037B137B237B337B037B137B237B337D3
:1019D000C00EB017D892B3C6B7F6B2C6B6F6B1C647
:1019E000B5F6B0C6B4F6BB6BBA6B010EB96F040E98
:1019F000B86F0001F8DD01C0CBF000C0CAF06F6B1A
:101A00000FD103013CC3BBF63BC3BAF63AC3B9F6E8
:101A100039C3B8F6000131DE03C0B3F602C0B2F636
:101A200001C0B1F600C0B0F603C0BBF602C0BAF602
:101A300001C0B9F600C0B8F60601BF6B600EBE6FFC
:101A40001F0EBD6F890EBC6F00019CEC03F003C03C
:101A5000A7F202C0A6F201C0A5F200C0A4F2A7C27C
:101A6000B7F6A6C2B6F6A5C2B5F6A4C2B4F64BEC5C
:101A700004F00601B96B01C0B8F6000181EC03F077
:101A8000D882A7C2BBF6A6C2BAF6A5C2B9F6A4C24E
:101A9000B8F603C0BFF602C0BEF601C0BDF600C076
:101AA000BCF669EC04F003C0B3F602C0B2F601C0A4
:101AB000B1F600C0B0F603C0BBF602C0BAF601C072
:101AC000B9F600C0B8F60601BF6BBE6BBD6BBC6B50
:101AD0000001A5EC05F00DE1A7C2B7F6A6C2B6F667
:101AE000A5C2B5F6A4C2B4F64BEC04F001C06FF089
:101AF0000DD0A7C2B7F6A6C2B6F6A5C2B5F6A4C267
:101B0000B4F64BEC04F0010E01246F6F0601B96BC3
:101B10006FC0B8F6000181EC03F0A7C2BBF6A6C205
:101B2000BAF6A5C2B9F6A4C2B8F603C0BFF602C0A1
:101B3000BEF601C0BDF600C0BCF69CEC03F003C0CD
:101B40008FF202C08EF201C08DF200C08CF206014D
:101B5000BB6BBA6B7F0EB96F860EB86F8FC2BFF6C4
:101B60008EC2BEF68DC2BDF68CC2BCF6000103EC7F
:101B700006F003C0B7F602C0B6F601C0B5F600C065
:101B8000B4F64BEC04F002C0CBF001C0CAF0060181
:101B9000B96B6FC0B8F6000181EC03F003C0BBF66F
:101BA00002C0BAF601C0B9F600C0B8F69A0E060136
:101BB000BF6F990EBE6F190EBD6F7D0EBC6F000119
:101BC00003EC06F003C0B3F602C0B2F601C0B1F6F2
:101BD00000C0B0F60601B96B6FC0B8F6000181EC29
:101BE00003F0D89203C0BBF602C0BAF601C0B9F642
:101BF00000C0B8F6B3C6BFF6B2C6BEF6B1C6BDF6F3
:101C0000B0C6BCF669EC04F003C0B7F602C0B6F685
:101C100001C0B5F600C0B4F64BEC04F001C06FF0A3
:101C2000200E06090F01396FCAC03AFF0F0139951E
:101C30000001756B1200402AD8B4412A4150455C1E
:101C400009E303E14450405C05E2C7C0CFFFC6C0D2
:101C5000CEFF16D3CD90416A406A04014B53D8A4FD
:101C60002ED137500208D8A42AD12AB028D143BB9C
:101C700026D12BAC1ED10201E6A364D00301302B88
:101C80003051030838E10F013095060E326F030121
:101C9000116B106BBA9C306B0201E693CDC2B9F6A2
:101CA000CCC2B8F6000181EC03F00601BB6BBA6B45
:101CB000B96B7F0EB86F03C0BFF602C0BEF601C09D
:101CC000BDF600C0BCF600019CEC03F003C002F3BB
:101CD00002C001F301C000F300C0FFF20201EA6B91
:101CE000E96BE86BE76B2B8E00018FEC08F0B98C89
:101CF0000F01308503013051020802E0302D0DD074
:101D0000026B016B006B0201FF6BEA6BE96BE86B26
:101D1000E76B00018FEC08F003012BAA0DD0026BDA
:101D2000016B006B0201FF6B03012EB705D00001B0
:101D300079EC0AF0BEDC03010201EA6BE96BE86BA7
:101D4000E76BB5D0E6A59BD003012F2B2F510308DD
:101D50005AE10F013095060E326F0301116B106BC3
:101D6000BA9C00018FEC08F0CFC2B9F6CEC2B8F62B
:101D700081EC03F00601BB6BBA6BB96B7F0EB86FD9
:101D800003C0BFF602C0BEF601C0BDF600C0BCF67F
:101D900000019CEC03F003C0B1F602C0B0F601C034
:101DA000AFF600C0AEF6D2C2B9F6D1C2B8F681EC39
:101DB00003F0D88203C0BBF602C0BAF601C0B9F680
:101DC00000C0B8F6B1C6BFF6B0C6BEF6AFC6BDF627
:101DD000AEC6BCF669EC04F003C002F302C001F326
:101DE00001C000F300C0FFF20201EA6BE96BE86B8F
:101DF000E76B2B9EE69503012F6B060E0F01326FEA
:101E0000B98C308503012F51020802E02F2D18D024
:101E1000D2C2B9F6D1C2B8F6000181EC03F003C01A
:101E200002F302C001F301C000F300C0FFF202019F
:101E3000EA6BE96BE86BE76B00018FEC08F00301DC
:101E40002BAA17D0D2C2B9F6D1C2B8F6000181ECE4
:101E500003F003C002F302C001F301C000F300C0AD
:101E6000FFF203012EB705D0000179EC0AF021DC66
:101E700003010201EA6BE96BE86BE76B18D0EA6BD0
:101E8000E96BE86BE76BE6AB0ED0E69BF2C2B7F608
:101E9000F1C2B6F6F0C2B5F6EFC2B4F600017EECC0
:101EA00006F006D00201C7C0CFFFC6C0CEFF0001BA
:101EB00004012BAA03D003012E85040104D0C7C05E
:101EC000CFFFC6C0CEFFCD80C7C0CFFFC6C0CEFFFC
:101ED0004B53D8A43CD1B9860F013D91BA96C5C0E9
:101EE0003FFFC4C03EFF000E966E8D9E3D810301F4
:101EF0003D6B375007081BE100017A51785DD8B47B
:101F000002D0030114D07B51795DD8B402D0030113
:101F10000ED07C517A5DD8B402D0030108D07D5137
:101F20007B5DD8B402D0030102D02588030125A827
:101F30000AD037A408D0B190B368FA0EB26E47C089
:101F400043F046C042F037B002D037A6A5D0D650F5
:101F50000101866FD7CF87F124B89AD024BE3CD038
:101F6000865303E18753D8B493D08635026E873504
:101F7000036E023603360236033602360336F00E9F
:101F800002160250FF0A0601AE6FFF0E0318AF6F74
:101F9000280E01015A25006E000E5B21016E000E15
:101FA0005C21026E000E5D21036E0352D8A470D036
:101FB00002526EE101500601AF5DD8B002D00101BE
:101FC00067D0D8B402D0010107D0AE51005CD8A0D0
:101FD00002D001015DD00101248A249E000E956E7D
:101FE0008C94250E006E002EFED7000E956E8C820E
:101FF0004F0E006E002EFED700D0000E956E8C8C1A
:102000006B840001875307E1865305E1855303E1A3
:1020100084517C0801E23AD02AAA1CD0350E006E09
:10202000002EFED71C0E016EC250830B0110C26E33
:10203000000E016EC150F80B0110C16E350E006E1E
:10204000002EFED7BBEC00F002C0DFF001C0DEF0D6
:102050002A9A1CD0350E006E002EFED7080E016E97
:10206000C250830B0110C26E000E016EC150F80BFE
:102070000110C16E350E006E002EFED7BBEC00F0D5
:1020800002C0DBF001C0DAF02A8A288203D0010105
:10209000258600015AD00301248A000E956E8C9487
:1020A000250E006E002EFED7000E956E8C824F0E10
:1020B000006E002EFED700D0000E956E8C8C6B84C7
:1020C0000001875307E1865305E1855303E18451FD
:1020D0007C0801E23AD02AAA1CD0350E006E002EF0
:1020E000FED71C0E016EC250830B0110C26E000E93
:1020F000016EC150F80B0110C16E350E006E002E3E
:10210000FED7BBEC00F002C0DFF001C0DEF02A9A7F
:102110001CD0350E006E002EFED7080E016EC25088
:10212000830B0110C26E000E016EC150F80B01103E
:10213000C16E350E006E002EFED7BBEC00F002C063
:10214000DBF001C0DAF02A8A28829AD004014B51D0
:10215000030827E16C5314E1000E956E8C94250E54
:10216000006E002EFED7000E956E8C824F0E006E14
:10217000002EFED700D0000E956E8C8C6B8410D094
:10218000000E956E8C92956E8C844F0E006E002E14
:10219000FED700D0000E956E8C8A0F0139850401A0
:1021A0006ED04B2D6CD0715301E07107715364E018
:1021B000E10E0001C56F180EC46F0F013D91C5C03F
:1021C0003FFFC4C03EFFBA96B986000E966E8D9E44
:1021D0003D81956E8C9E250E006E002EFED7B1902F
:1021E000CDC0B3FFCCC0B2FF436A426AB180000EDB
:1021F000966E8D844F0E006E002EFED700D0900E8E
:10220000946E8B843685300E0601AE6F0001E5ECCE
:1022100000F0200E016EC250830B0110C26E000E42
:10222000016EC150F80B0110C16E250E006E002E1C
:10223000FED7BBEC00F002C0E7F001C0E6F0350EBF
:10224000006E002EFED7240E016EC250830B0110CB
:10225000C26E000E016EC150F80B0110C16E250E4A
:10226000006E002EFED7BBEC00F002C0E3F001C010
:10227000E2F0288405D00401CD90BEC271F40001C3
:102280009E9076EF00F0742B6E51745D03E2C8C02F
:102290006DFF78D1746B6B94C8C06DFF04014B5314
:1022A000D8A4CED00001875307E1865305E18553BA
:1022B00003E184517C0831E21C0E016EC250830B95
:1022C0000110C26E000E016EC150F80B0110C16EFC
:1022D000250E006E002EFED7BBEC00F002C0DFF032
:1022E00001C0DEF0350E006E002EFED7080E016E26
:1022F000C250830B0110C26E000E016EC150F80B6C
:102300000110C16E250E006E002EFED7BBEC00F052
:1023100002C0DBF001C0DAF02882000E956E8C9CC2
:10232000250E006E002EFED7000E956E8C92312C7D
:1023300064D0975307E1965305E1955303E1945117
:102340007C080FE2000E956E8C844F0E006E002EFE
:10235000FED700D0000E956E8C8A0F0139854BD0C8
:102360000001000E956E8C84350E006E002EFED797
:10237000000E956E8C8A0F0139852AAC1ED0350E61
:10238000006E002EFED72C0E016EC250830B011082
:10239000C26E000E016EC150F80B0110C16E350EF9
:1023A000006E002EFED70001BBEC00F002C0E1F091
:1023B00001C0E0F02A9C1ED00F01350E006E002EE9
:1023C000FED7080E016EC250830B0110C26E000EC4
:1023D000016EC150F80B0110C16E350E006E002E5B
:1023E000FED70001BBEC00F002C0DDF001C0DCF064
:1023F0002A8C28820F0122D00001000E956E8C924B
:10240000956E8C94249A25A802D02598B180040159
:102410004B5303E128821F8602D028821F862BAAF5
:102420000CD003012E950201E6B506D0E6B304D028
:10243000000159EC0BF0020104010F01A4D00401CA
:102440004B510308D8A4A0D06C5334E11C0E016E8C
:10245000C250830B0110C26E000E016EC150F80B0A
:102460000110C16E250E006E002EFED70001BBECE0
:1024700000F002C0DFF001C0DEF0350E006E002E6D
:10248000FED7080E016EC250830B0110C26E000E03
:10249000016EC150F80B0110C16E250E006E002EAA
:1024A000FED7BBEC00F002C0DBF001C0DAF02882FE
:1024B0003FD004012C0E016EC250830B0110C26E7E
:1024C000000E016EC150F80B0110C16E250E006E9A
:1024D000002EFED7AE0E926E898A0001BBEC00F092
:1024E00002C0E1F001C0E0F0AE0E926E899A350EA6
:1024F000006E002EFED7080E016EC250830B011035
:10250000C26E000E016EC150F80B0110C16E250E97
:10251000006E002EFED7AE0E926E898ABBEC00F0E4
:1025200002C0DDF001C0DCF0AE0E926E899A288206
:10253000000E956E8C9C250E006E002EFED7345238
:1025400011E0000E956E8C92956E8C844F0E006E8D
:10255000002EFED700D0000E956E8C8A0F013985B3
:1025600012D00001000E956E8C9C956E8C9A250EF3
:10257000006E002EFED7000E956E8C92956E8C9498
:102580001F8628820F010401BA90000176EF00F047
:10259000752B6F51755D03E2CAC03BFFEED0756BC2
:1025A00004014B533FE1346A312C3CD00001975376
:1025B00007E1965305E1955303E194517C0831E21C
:1025C0002C0E016EC250830B0110C26E000E016E04
:1025D000C150F80B0110C16E250E006E002EFED703
:1025E000BBEC00F002C0E1F001C0E0F0350E006E7F
:1025F000002EFED7080E016EC250830B0110C26E72
:10260000000E016EC150F80B0110C16E250E006E58
:10261000002EFED7BBEC00F002C0DDF001C0DCF004
:1026200028820401345233E02C0E016EC250830B19
:102630000110C26E000E016EC150F80B0110C16E88
:10264000250E006E002EFED70001BBEC00F002C08C
:10265000E1F001C0E0F0350E006E002EFED7080E4E
:10266000016EC250830B0110C26E000E016EC1508C
:10267000F80B0110C16E250E006E002EFED7BBECCC
:1026800000F002C0DDF001C0DCF0288204016C2DF6
:102690003FD02C0E016EC250830B0110C26E000E93
:1026A000016EC150F80B0110C16E250E006E002E98
:1026B000FED7AE0E926E898A0001BBEC00F002C01C
:1026C000E1F001C0E0F0AE0E926E899A350E006E18
:1026D000002EFED7080E016EC250830B0110C26E91
:1026E000000E016EC150F80B0110C16E250E006E78
:1026F000002EFED7AE0E926E898ABBEC00F002C0AF
:10270000DDF001C0DCF0AE0E926E899A28820401E1
:102710000F013995CAC03BFF000E956E8C9C956EDB
:102720008C9A956E8C92956E8C94249A25A802D0E2
:102730002598B18004014B5312E10001875307E152
:10274000865305E1855303E184517C0802E21F862C
:1027500004D02AAC01D001D01F8603D004011F860B
:1027600000012BAA0AD003012E950201E6B506D07E
:10277000E6B304D0000159EC0BF00201BA94000159
:1027800076EF00F00601B051B203F3CF01F0F4CFC1
:1027900000F0B303F3500026B151B203F350002010
:1027A000026E00011200422AD8B4432A4350475C0B
:1027B00009E303E14650425C05E2CDC0B3FFCCC063
:1027C000B2FF0AD3436A426ACDC0B3FFCCC0B2FFA6
:1027D00004014B53D8A498D224B895D224BA93D2EA
:1027E00037B002D037A67CD1375007081BE1000173
:1027F0007A51785DD8B402D0040114D07B51795D50
:10280000D8B402D004010ED07C517A5DD8B402D085
:10281000040108D07D517B5DD8B402D0040102D000
:1028200025800401D6500101866FD7CF87F12B9206
:1028300025B03AD0865302E1875337E08635026EE1
:102840008735036E02360336023603360236033608
:10285000F00E02160250FF0A0601AE6FFF0E0318BB
:10286000AF6F500E01015E25006E000E5F21016EFC
:10287000000E6021026E000E6121036E035215E10D
:10288000025213E101500601AF5DD8B002D0010140
:102890000CD0D8B402D0010107D0AE51005CD8A052
:1028A00002D0010102D001012B822BA215D137A247
:1028B000B6D0CE50886FCFCF89F12B9225B04BD0B8
:1028C000885302E1895348E04050445C0601AE6FF2
:1028D00041504558AF6FB16FAEC6B0F663C1B3F6A5
:1028E00062C1B2F600014EDF02C0AFF601C0AEF623
:1028F00088C1B0F60601B01F89C1B1F60601B11F4B
:10290000D890B131036EB031026EAE270350AF23C1
:10291000280E01015E25006E000E5F21016E000E83
:102920006021026E000E6121036E035215E1025216
:1029300013E101500601AF5DD8B002D001010CD007
:10294000D8B402D0010107D0AE51005CD8A002D0AB
:10295000010102D001012B822BA25DD02590248C95
:10296000000E956E8C9E250E006E002EFED7000E7A
:10297000966E8D844F0E006E002EFED700D0900E06
:10298000946E8B840F01368500018B5307E18A53C7
:1029900005E1895303E188517C0801E23AD02AAE6F
:1029A0001CD0350E006E002EFED7200E016EC250D8
:1029B000830B0110C26E000E016EC150F80B0110A6
:1029C000C16E350E006E002EFED7BBEC00F002C0CB
:1029D000E7F001C0E6F02A9E1CD0350E006E002EF6
:1029E000FED7240E016EC250830B0110C26E000E82
:1029F000016EC150F80B0110C16E350E006E002E35
:102A0000FED7BBEC00F002C0E3F001C0E2F02A8E7A
:102A1000288403D00101258800015CD001012590A4
:102A2000248C000E956E8C9E250E006E002EFED717
:102A3000000E966E8D844F0E006E002EFED700D0D5
:102A4000900E946E8B840F01368500018B5307E145
:102A50008A5305E1895303E188517C0801E23AD0A9
:102A60002AAE1CD0350E006E002EFED7200E016E51
:102A7000C250830B0110C26E000E016EC150F80BE4
:102A80000110C16E350E006E002EFED7BBEC00F0BB
:102A900002C0E7F001C0E6F02A9E1CD0350E006EA1
:102AA000002EFED7240E016EC250830B0110C26EA1
:102AB000000E016EC150F80B0110C16E350E006E94
:102AC000002EFED7BBEC00F002C0E3F001C0E2F044
:102AD0002A8E288403D001012588000113D1040126
:102AE00037A2B6D0CE500101886FCFCF89F125B083
:102AF0004ED0885303E18953D8B4A6D04050445CEB
:102B00000601AE6F41504558AF6FB16FAEC6B0F61B
:102B100063C1B3F662C1B2F6000134DE02C0AFF6A3
:102B200001C0AEF688C1B0F60601B01F89C1B1F68A
:102B30000601B11FD890B131036EB031026EAE27DD
:102B40000350AF23280E01015E25006E000E5F21A9
:102B5000016E000E6021026E000E6121036E0352B1
:102B6000D8A472D00252D8A46FD001500601AF5D34
:102B7000D8B002D0010168D0D8B402D0010107D08A
:102B8000AE51005CD8A002D001015ED001012590B9
:102B9000248C000E956E8C9E250E006E002EFED7A6
:102BA000000E966E8D844F0E006E002EFED700D064
:102BB000900E946E8B840F01368500018B5307E1D4
:102BC0008A5305E1895303E188517C0801E23AD038
:102BD0002AAE1CD0350E006E002EFED7200E016EE0
:102BE000C250830B0110C26E000E016EC150F80B73
:102BF0000110C16E350E006E002EFED7BBEC00F04A
:102C000002C0E7F001C0E6F02A9E1CD0350E006E2F
:102C1000002EFED7240E016EC250830B0110C26E2F
:102C2000000E016EC150F80B0110C16E350E006E22
:102C3000002EFED7BBEC00F002C0E3F001C0E2F0D2
:102C40002A8E288403D00101258800015BD004016D
:102C5000248C000E956E8C9E250E006E002EFED7E5
:102C6000000E966E8D844F0E006E002EFED700D0A3
:102C7000900E946E8B840F01368500018B5307E113
:102C80008A5305E1895303E188517C0801E23AD077
:102C90002AAE1CD0350E006E002EFED7200E016E1F
:102CA000C250830B0110C26E000E016EC150F80BB2
:102CB0000110C16E350E006E002EFED7BBEC00F089
:102CC00002C0E7F001C0E6F02A9E1CD0350E006E6F
:102CD000002EFED7240E016EC250830B0110C26E6F
:102CE000000E016EC150F80B0110C16E350E006E62
:102CF000002EFED7BBEC00F002C0E3F001C0E2F012
:102D00002A8E2884040166D04B2D64D000016B53B9
:102D100016E06B076B5313E1476ABBC246F0010E26
:102D20000201B92504016F6F000E0201BA210401EE
:102D3000706FBEC271F4D58ECD80B18000010401E8
:102D40006F5302E1705304E06F51D8B470076F07FE
:102D50006F5306E1705304E100016B5317E0040167
:102D6000000E956E8C9E250E006E002EFED7000E76
:102D7000966E8D844F0E006E002EFED700D0900E02
:102D8000946E8B840F01368526D00001B190E10E40
:102D9000C56F180EC46F0F013D91C5C03FFFC4C081
:102DA0003EFFBA96B986000E966E8D9E3D81040157
:102DB000725101080BE37151010808E3D59ECD90D3
:102DC000B1900F013695339506D00401BAC270F464
:102DD000B9C26FF40F010001A19276EF00F0762BDB
:102DE0007051765D03E2CEC038FFDDD1766B0F0106
:102DF0003695CEC038FF04014B53D8A46DD124A220
:102E0000ACD024925050FF0A3714070806E0505007
:102E1000FF0A37140E08D8A49FD0200E06090F0110
:102E2000336F54C134FF0F01000E956E8C94250E44
:102E3000006E002EFED7248AC7C0CFFFC6C0CEFFCB
:102E4000000E956E8C824F0E006E002EFED700D0C5
:102E5000000E956E8C8CCD806B843385000187537A
:102E600007E1865305E1855303E184517C0838E28C
:102E7000300E0601AE6F0001E5EC00F01C0E016E95
:102E8000C250830B0110C26E000E016EC150F80BD0
:102E90000110C16E250E006E002EFED7BBEC00F0B7
:102EA00002C0DFF001C0DEF0350E006E002EFED74E
:102EB000080E016EC250830B0110C26E000E016E2F
:102EC000C150F80B0110C16E250E006E002EFED70A
:102ED000BBEC00F002C0DBF001C0DAF028843AD08D
:102EE0002AAA1CD0350E006E002EFED71C0E016ED5
:102EF000C250830B0110C26E000E016EC150F80B60
:102F00000110C16E350E006E002EFED7BBEC00F036
:102F100002C0DFF001C0DEF02A9A1CD0350E006E30
:102F2000002EFED7080E016EC250830B0110C26E38
:102F3000000E016EC150F80B0110C16E350E006E0F
:102F4000002EFED7BBEC00F002C0DBF001C0DAF0CF
:102F50002A8A288424820401BED000018B5307E111
:102F60008A5305E1895303E188517C0831E2200E40
:102F7000016EC250830B0110C26E000E016EC15073
:102F8000F80B0110C16E250E006E002EFED7BBECB3
:102F900000F002C0E7F001C0E6F0350E006E002E32
:102FA000FED7240E016EC250830B0110C26E000EBC
:102FB000016EC150F80B0110C16E250E006E002E7F
:102FC000FED7BBEC00F002C0E3F001C0E2F02884C1
:102FD000900E946E8B94250E006E002EFED7322C30
:102FE00070D0000E966E8D94200E06090F01336F7F
:102FF000D0C034FF0F0100019B5307E19A5305E154
:10300000995303E198517C0810E2000E956E8C8E66
:103010004F0E006E002EFED700D0900E946E8B8265
:103020000F01338528844BD00001000E956E8C8EE5
:10303000350E006E002EFED7900E946E8B820F011F
:1030400033852BA01ED0350E006E002EFED7280E25
:10305000016EC250830B0110C26E000E016EC15092
:10306000F80B0110C16E350E006E002EFED7000168
:10307000BBEC00F002C0E9F001C0E8F02B901ED0DC
:103080000F01350E006E002EFED7240E016EC250C9
:10309000830B0110C26E000E016EC150F80B0110BF
:1030A000C16E350E006E002EFED70001BBEC00F0A5
:1030B00002C0E5F001C0E4F02B8028840F010AD0A3
:1030C0000001000E966E8D94956E8C9E249C1F8838
:1030D00028840F01040166D04B2D64D0200E016EB0
:1030E000C250830B0110C26E000E016EC150F80B6E
:1030F0000110C16E250E006E002EFED70001BBEC44
:1031000000F002C0E7F001C0E6F0350E006E002EC0
:10311000FED7240E016EC250830B0110C26E000E4A
:10312000016EC150F80B0110C16E250E006E002E0D
:10313000FED7BBEC00F002C0E3F001C0E2F028844F
:10314000900E946E8B94250E006E002EFED7020119
:10315000C15316E0000E966E8D94250E006E002E63
:10316000FED7000E956E8C8E4F0E006E002EFED791
:1031700000D0900E946E8B820F01338512D0020125
:10318000900E946E8B94946E8B92250E006E002E92
:10319000FED7000E966E8D94956E8C9E28841F88A7
:1031A0000F0104010001BA9876EF00F0772B7151FE
:1031B000775D03E2D0C035FFE3D2776B0F01339523
:1031C000D0C035FF04014B53D8A44AD224A2EFD17A
:1031D00024925050FF0A3714070806E05050FF0AA7
:1031E00037140E08D8A49ED0000E956E8C9E250E26
:1031F000006E002EFED7248C200E06090F01366FBC
:10320000CEC037FF0F01CDC0B3FFCCC0B2FF000E60
:10321000966E8D844F0E006E002EFED700D0900E5D
:10322000946E8B84B180368500018B5307E18A53FD
:1032300005E1895303E188517C0838E2300E06012C
:10324000AE6F0001E5EC00F0200E016EC250830B62
:103250000110C26E000E016EC150F80B0110C16E5C
:10326000250E006E002EFED7BBEC00F002C0E7F08A
:1032700001C0E6F0350E006E002EFED7240E016E62
:10328000C250830B0110C26E000E016EC150F80BCC
:103290000110C16E250E006E002EFED7BBEC00F0B3
:1032A00002C0E3F001C0E2F028843AD02AAE1CD07C
:1032B000350E006E002EFED7200E016EC250830B1D
:1032C0000110C26E000E016EC150F80B0110C16EEC
:1032D000350E006E002EFED7BBEC00F002C0E7F00A
:1032E00001C0E6F02A9E1CD0350E006E002EFED7DF
:1032F000240E016EC250830B0110C26E000E016ECF
:10330000C150F80B0110C16E350E006E002EFED7B5
:10331000BBEC00F002C0E3F001C0E2F02A8E28848A
:1033200044D104015050FF0A371406080BE05050F6
:10333000FF0A3714050806E05050FF0A37140C083E
:10334000D8A49ED0000E956E8C9E250E006E002E89
:10335000FED7248C200E06090F01366FCEC037FF32
:103360000F01CDC0B3FFCCC0B2FF000E966E8D84AE
:103370004F0E006E002EFED700D0900E946E8B8400
:10338000B180368500018B5307E18A5305E18953EB
:1033900003E188517C0838E2300E0601AE6F00016F
:1033A000E5EC00F0200E016EC250830B0110C26EDE
:1033B000000E016EC150F80B0110C16E250E006E9B
:1033C000002EFED7BBEC00F002C0E7F001C0E6F033
:1033D000350E006E002EFED7240E016EC250830BF8
:1033E0000110C26E000E016EC150F80B0110C16ECB
:1033F000250E006E002EFED7BBEC00F002C0E3F0FD
:1034000001C0E2F028843AD02AAE1CD0350E006EFE
:10341000002EFED7200E016EC250830B0110C26E2B
:10342000000E016EC150F80B0110C16E350E006E1A
:10343000002EFED7BBEC00F002C0E7F001C0E6F0C2
:103440002A9E1CD0350E006E002EFED7240E016E73
:10345000C250830B0110C26E000E016EC150F80BFA
:103460000110C16E350E006E002EFED7BBEC00F0D1
:1034700002C0E3F001C0E2F02A8E288496D0040155
:10348000000E956E8C94250E006E002EFED7248AB9
:10349000C7C0CFFFC6C0CEFF000E956E8C824F0E08
:1034A000006E002EFED700D0000E956E8C8CCD8065
:1034B0006B840001875307E1865305E1855303E1DF
:1034C00084517C0838E2300E0601AE6F0001E5EC55
:1034D00000F01C0E016EC250830B0110C26E000E74
:1034E000016EC150F80B0110C16E250E006E002E4A
:1034F000FED7BBEC00F002C0DFF001C0DEF0350EFD
:10350000006E002EFED7080E016EC250830B011014
:10351000C26E000E016EC150F80B0110C16E250E77
:10352000006E002EFED7BBEC00F002C0DBF001C045
:10353000DAF028843AD02AAA1CD0350E006E002E6C
:10354000FED71C0E016EC250830B0110C26E000E1E
:10355000016EC150F80B0110C16E350E006E002EC9
:10356000FED7BBEC00F002C0DFF001C0DEF02A9A0B
:103570001CD0350E006E002EFED7080E016EC25014
:10358000830B0110C26E000E016EC150F80B0110CA
:10359000C16E350E006E002EFED7BBEC00F002C0EF
:1035A000DBF001C0DAF02A8A288458D00401000137
:1035B0009B5307E19A5305E1995303E198517C0825
:1035C00031E2280E016EC250830B0110C26E000E54
:1035D000016EC150F80B0110C16E250E006E002E59
:1035E000FED7BBEC00F002C0E9F001C0E8F0350EF8
:1035F000006E002EFED7240E016EC250830B011008
:10360000C26E000E016EC150F80B0110C16E250E86
:10361000006E002EFED7BBEC00F002C0E5F001C04A
:10362000E4F02884900E946E8B94946E8B92000E2E
:10363000966E8D94956E8C9E249C9B530DE19A53AF
:103640000BE1995309E198517C0806E32AAE01D0B9
:1036500002D028841F8802D028841F8891D00401BA
:103660004B2D8DD00201C15333E0280E016EC250A4
:10367000830B0110C26E000E016EC150F80B0110D9
:10368000C16E250E006E002EFED70001BBEC00F0CF
:1036900002C0E9F001C0E8F0350E006E002EFED742
:1036A000240E016EC250830B0110C26E000E016E1B
:1036B000C150F80B0110C16E250E006E002EFED712
:1036C000BBEC00F002C0E5F001C0E4F02884020188
:1036D000900E946E8B94946E8B92250E006E002E3D
:1036E000FED7000E966E8D94956E8C9E04017053DD
:1036F00045E16F51010842E3715101083FE32B8618
:10370000C3C2C5F2C2C2C4F2C3C2C7F2C2C2C6F2C9
:10371000300E0601AE6F0001E5EC00F0200E016EE8
:10372000C250830B0110C26E000E016EC150F80B27
:103730000110C16E250E006E002EFED7E76BE66B02
:10374000E96BE86B350E006E002EFED7240E016E7D
:10375000C250830B0110C26E000E016EC150F80BF7
:103760000110C16E250E006E002EFED7E36BE26BDA
:10377000E56BE46B2884258A288404011F880001F6
:10378000BA9A76EF00F09EAAFED7ABCF1CF0AECF70
:1037900001F01CA202D0AB98AB881DEF1CF0060113
:1037A000AF91036AAE51550FE96E040E0320EA6E25
:1037B000EF500401405D24E023E303014651050876
:1037C00019E1472D17D0036A0601AE51550FE96E76
:1037D000040E0320EA6E020EEF240401405D04E1B2
:1037E0000601AF8103D004010601AF910401539794
:1037F00006D00301040153970601AF91040114D0D0
:10380000036A0601AE51550FE96E040E0320EA6EFD
:10381000EF500401405D05E253870601AF9103D0EC
:1038200004010601AF810401000E0601AFB1010ED3
:10383000016E00014AEF1CF0A6D701C044F4040158
:1038400040530EE1445114080AE34051402B036AEF
:10385000460FE96E030E0320EA6E44C4EFFF2AD040
:103860004051402B036A460FE96E030E0320EA6EB7
:1038700044C4EFFF405101081DE244510D0802E02D
:1038800043A918D0438944510A0810E146C3AEF653
:10389000000185D7015204E003012E8D03D0000101
:1038A00003012E9D04014399406B04D044510D083F
:1038B00001E043999E9A000176EF00F00601B36B98
:1038C000B26BB16BB06B03012EA3AFD0D2C2B9F60D
:1038D000D1C2B8F6000181EC03F003C0B7F602C014
:1038E000B6F601C0B5F600C0B4F6D88203C0BBF688
:1038F00002C0BAF601C0B9F600C0B8F634C3BFF6CC
:1039000033C3BEF632C3BDF631C3BCF669EC04F076
:1039100003C0B7F602C0B6F601C0B5F600C0B4F6F3
:10392000CFC2B9F6CEC2B8F681EC03F00601BB6B8C
:10393000BA6BB96B7F0EB86F03C0BFF602C0BEF69C
:1039400001C0BDF600C0BCF600019CEC03F0D882BB
:10395000B7C6BBF6B6C6BAF6B5C6B9F6B4C6B8F6BB
:1039600003C0BFF602C0BEF601C0BDF600C0BCF683
:1039700069EC04F003C0B7F602C0B6F601C0B5F6B4
:1039800000C0B4F6CDC2B9F6CCC2B8F681EC03F0F3
:103990000601BB6BBA6BB96B7F0EB86F03C0BFF685
:1039A00002C0BEF601C0BDF600C0BCF600019CEC32
:1039B00003F0D882B7C6BBF6B6C6BAF6B5C6B9F636
:1039C000B4C6B8F603C0BFF602C0BEF601C0BDF66D
:1039D00000C0BCF669EC04F003C0B7F602C0B6F64E
:1039E00001C0B5F600C0B4F603C0BBF602C0BAF61B
:1039F00001C0B9F600C0B8F60601BF6BBE6B200E61
:103A0000BD6F820EBC6F000103EC06F003C0B3F67D
:103A100002C0B2F601C0B1F600C0B0F60301346BCB
:103A2000336B326B316B2E938ED0D2C2B9F6D1C2CA
:103A3000B8F6000181EC03F003C0B7F602C0B6F699
:103A400001C0B5F600C0B4F6CFC2B9F6CEC2B8F622
:103A500081EC03F00601BB6BBA6BB96B7F0EB86FDC
:103A600003C0BFF602C0BEF601C0BDF600C0BCF682
:103A700000019CEC03F0D882B7C6BBF6B6C6BAF616
:103A8000B5C6B9F6B4C6B8F603C0BFF602C0BEF6F6
:103A900001C0BDF600C0BCF669EC04F003C0B7F687
:103AA00002C0B6F601C0B5F600C0B4F6CDC2B9F694
:103AB000CCC2B8F681EC03F00601BB6BBA6BB96BF4
:103AC0007F0EB86F03C0BFF602C0BEF601C0BDF6E0
:103AD00000C0BCF600019CEC03F0D882B7C6BBF670
:103AE000B6C6BAF6B5C6B9F6B4C6B8F603C0BFF6E0
:103AF00002C0BEF601C0BDF600C0BCF669EC04F021
:103B000003C0B7F602C0B6F601C0B5F600C0B4F601
:103B100003C0BBF602C0BAF601C0B9F600C0B8F6E1
:103B20000601BF6BBE6B200EBD6F820EBC6F000125
:103B300003EC06F003C0B3F602C0B2F601C0B1F662
:103B400000C0B0F603010201CC51CE5D006ECD5134
:103B5000CF59036E00C0B8F60601B96F000181ECC1
:103B600003F003C0B7F602C0B6F601C0B5F600C058
:103B7000B4F603C0BBF602C0BAF601C0B9F600C085
:103B8000B8F6B3C6BFF6B2C6BEF6B1C6BDF6B0C68D
:103B9000BCF69CEC03F003C0EEF202C0EDF201C0F3
:103BA000ECF200C0EBF2B3C6B7F6B2C6B6F6B1C6D9
:103BB000B5F6B0C6B4F64BEC04F002C013F301C086
:103BC00012F3B3C6B7F6B2C6B6F6B1C6B5F6B0C60E
:103BD000B4F64BEC04F002C0E0F201C0DFF2E0C248
:103BE000B9F6DFC2B8F681EC03F0D882B3C6BBF6F3
:103BF000B2C6BAF6B1C6B9F6B0C6B8F603C0BFF6DB
:103C000002C0BEF601C0BDF600C0BCF669EC04F00F
:103C100003C0DEF202C0DDF201C0DCF200C0DBF264
:103C200012002BAC3DD02BAE1ED0D89202C3BBF6F7
:103C300001C3BAF600C3B9F6FFC2B8F6CD0E06014D
:103C4000BF6FCC0EBE6F4C0EBD6F7B0EBC6F000104
:103C500069EC04F003C002F302C001F301C000F3F9
:103C600000C0FFF21DD0D88202C3BBF601C3BAF672
:103C700000C3B9F6FFC2B8F6CD0E0601BF6FCC0E79
:103C8000BE6F4C0EBD6F7B0EBC6F000169EC04F083
:103C900003C002F302C001F301C000F300C0FFF251
:103CA0002BB802D02BAAABD12BBCA9D10201E69331
:103CB000E695D2C2B9F6D1C2B8F6000181EC03F0A4
:103CC00002C3BBF601C3BAF600C3B9F6FFC2B8F629
:103CD00003C0BFF602C0BEF601C0BDF600C0BCF610
:103CE000A5EC05F0D8A0A2D00201E6B102D00001F7
:103CF0009DD0D89202C3BBF601C3BAF600C3B9F691
:103D0000FFC2B8F6CD0E0601BF6FCC0EBE6F4C0ED3
:103D1000BD6F7B0EBC6F000169EC04F003C002F3C1
:103D200002C001F301C000F300C0FFF22BAA7BD058
:103D30007BC0B9F67AC0B8F681EC03F00601BB6B24
:103D4000BA6BB96B7F0EB86F03C0BFF602C0BEF688
:103D500001C0BDF600C0BCF600019CEC03F0330EC0
:103D60000601BB6FBA6F730EB96F7F0EB86F03C0D9
:103D7000BFF602C0BEF601C0BDF600C0BCF6000131
:103D800003EC06F003C0B3F602C0B2F601C0B1F610
:103D900000C0B0F6D2C2B9F6D1C2B8F681EC03F0D9
:103DA000D88203C0BBF602C0BAF601C0B9F600C0A3
:103DB000B8F6B3C6BFF6B2C6BEF6B1C6BDF6B0C65B
:103DC000BCF669EC04F003C0BBF602C0BAF601C051
:103DD000B9F600C0B8F602C3BFF601C3BEF600C311
:103DE000BDF6FFC2BCF6A5EC05F001E21CE1030143
:103DF0002E87D6C23CF3D5C23BF3D4C23AF3D3C22A
:103E000039F33CC387F03BC386F03AC385F039C32E
:103E100084F03CC397F03BC396F03AC395F039C3A6
:103E200094F003D0000103012E97E8D00201E6A12F
:103E300031D0D2C2B9F6D1C2B8F6000181EC03F09C
:103E400003C0BBF602C0BAF601C0B9F600C0B8F6AE
:103E500002C3BFF601C3BEF600C3BDF6FFC2BCF687
:103E6000A5EC05F004E2D8B402D0020113D002019F
:103E7000E691D2C2B9F6D1C2B8F6000181EC03F0E6
:103E800003C002F302C001F301C000F300C0FFF25F
:103E9000B4D00201E6B192D00601BB6BBA6BB96B2C
:103EA000B86B02C3BFF601C3BEF600C3BDF6FFC2C6
:103EB000BCF60001A5EC05F0D8B002D002017ED01E
:103EC000D88202C3BBF601C3BAF600C3B9F6FFC27B
:103ED000B8F6CD0E0601BF6FCC0EBE6F4C0EBD6F97
:103EE0007B0EBC6F000169EC04F003C002F302C05A
:103EF00001F301C000F300C0FFF22BAA5DD07BC02C
:103F0000B9F67AC0B8F681EC03F00601BB6BBA6B68
:103F1000B96B7F0EB86F03C0BFF602C0BEF601C01A
:103F2000BDF600C0BCF600019CEC03F0330E0601A8
:103F3000BB6FBA6F730EB96F7F0EB86F03C0BFF659
:103F400002C0BEF601C0BDF600C0BCF6000103EC25
:103F500006F002C3BBF601C3BAF600C3B9F6FFC24E
:103F6000B8F603C0BFF602C0BEF601C0BDF600C081
:103F7000BCF6A5EC05F001E21CE103012E87DAC2D4
:103F80003CF3D9C23BF3D8C23AF3D7C239F33CC3AE
:103F900087F03BC386F03AC385F039C384F03CC355
:103FA00097F03BC396F03AC395F039C394F003D031
:103FB000000103012E97000120D00201E6B11DD0BF
:103FC00002C3BBF601C3BAF600C3B9F6FFC2B8F626
:103FD0000601BF6BBE6BBD6BBC6B0001A5EC05F0B1
:103FE00004E2D8B402D0020108D00201E681030144
:103FF000026B016B006B0201FF6B030100011200F9
:10400000A3C0B1F6A2C0B0F60601B36B320EB26F18
:104010000001C2EC13F002C01DF301C01CF3030148
:1040200020511C5D1E6F21511D591F6F1F5303E14D
:104030001E51640807E21D511F5D07E303E11E5195
:104040001C5D03E21F6B640E1E6F1DC3B9F61CC31B
:10405000B8F6000181EC03F0D89203C0BBF602C0B1
:10406000BAF601C0B9F600C0B8F6660E0601BF6F19
:10407000C60EBE6F7F0EBD6F880EBC6F000169EC6F
:1040800004F003C0B3F602C0B2F601C0B1F600C03E
:10409000B0F603C0BBF602C0BAF601C0B9F600C064
:1040A000B8F6CD0E0601BF6FCC0EBE6F130EBD6FFE
:1040B000830EBC6F00019CEC03F003C025F302C02B
:1040C00024F301C023F300C022F31FC3B9F61EC3BB
:1040D000B8F681EC03F0D89203C0BBF602C0BAF682
:1040E00001C0B9F600C0B8F6660E0601BF6FC60E75
:1040F000BE6F7F0EBD6F880EBC6F000169EC04F0CF
:1041000003C0B3F602C0B2F601C0B1F600C0B0F60B
:1041100003C0BBF602C0BAF601C0B9F600C0B8F6DB
:10412000CD0E0601BF6FCC0EBE6F130EBD6F830E9A
:10413000BC6F00019CEC03F003C0FAF202C0F9F27C
:1041400001C0F8F200C0F7F22BBC75D0D88225C3AD
:10415000BBF624C3BAF623C3B9F622C3B8F6FAC233
:10416000BFF6F9C2BEF6F8C2BDF6F7C2BCF669ECFE
:1041700004F003C0B3F602C0B2F601C0B1F600C04D
:10418000B0F6D2C2B9F6D1C2B8F681EC03F0B3C62C
:10419000BBF6B2C6BAF6B1C6B9F6B0C6B8F603C039
:1041A000BFF602C0BEF601C0BDF600C0BCF69CEC76
:1041B00003F003C029F302C028F301C027F300C0B5
:1041C00026F303011E511C5D0601B06F03011F5150
:1041D0001D590601B16FD2C2B9F6D1C2B8F60001BD
:1041E00081EC03F003C0B5F602C0B4F601C0B3F62B
:1041F00000C0B2F6B1C6B9F6B0C6B8F681EC03F0AD
:1042000003C0BBF602C0BAF601C0B9F600C0B8F6EA
:10421000B5C6BFF6B4C6BEF6B3C6BDF6B2C6BCF6EA
:104220009CEC03F003C02DF302C02CF301C02BF370
:1042300000C02AF374D0D88225C3BBF624C3BAF6D3
:1042400023C3B9F622C3B8F6FAC2BFF6F9C2BEF666
:10425000F8C2BDF6F7C2BCF669EC04F003C0B3F6D1
:1042600002C0B2F601C0B1F600C0B0F6D2C2B9F6D3
:10427000D1C2B8F681EC03F0B3C6BBF6B2C6BAF64B
:10428000B1C6B9F6B0C6B8F603C0BFF602C0BEF6F6
:1042900001C0BDF600C0BCF69CEC03F003C029F3DE
:1042A00002C028F301C027F300C026F303011E510A
:1042B0001C5D0601B06F03011F511D590601B16F4E
:1042C000D2C2B9F6D1C2B8F6000181EC03F003C046
:1042D000B5F602C0B4F601C0B3F600C0B2F6B1C67E
:1042E000B9F6B0C6B8F681EC03F003C0BBF602C065
:1042F000BAF601C0B9F600C0B8F6B5C6BFF6B4C686
:10430000BEF6B3C6BDF6B2C6BCF69CEC03F003C065
:104310002DF302C02CF301C02BF300C02AF3A3C07D
:104320001BF3A2C01AF3120003012EAB46D02BAE32
:1043300043D0FEC2B7F6FDC2B6F6FCC2B5F6FBC26C
:10434000B4F600014BEC04F002C0B1F601C0B0F6C7
:104350000601B133B033B133B033B133B0C644FF2B
:10436000B133B131300B006E0F014351CF0B001050
:10437000436F315220E0FEC2B7F6FDC2B6F6FCC272
:10438000B5F6FBC2B4F600014BEC04F002C0B1F686
:1043900001C0B0F60601B133B033B133B033B1333D
:1043A000B0C647FFB133B131300B006E0F0146513B
:1043B000CF0B0010466F0301B4D0D2C2B9F6D1C200
:1043C000B8F6000181EC03F0D88203C0BBF602C04E
:1043D000BAF601C0B9F600C0B8F602C3BFF601C311
:1043E000BEF600C3BDF6FFC2BCF669EC04F003C024
:1043F000B3F602C0B2F601C0B1F600C0B0F603C019
:10440000BBF602C0BAF601C0B9F600C0B8F629C3BF
:10441000BFF628C3BEF627C3BDF626C3BCF603EC21
:1044200006F003C0B3F602C0B2F601C0B1F600C098
:10443000B0F6D89203C0BBF602C0BAF601C0B9F616
:1044400000C0B8F6FAC2BFF6F9C2BEF6F8C2BDF6B1
:10445000F7C2BCF669EC04F003C0FEF202C0FDF244
:1044600001C0FCF200C0FBF2D2C2B9F6D1C2B8F66C
:1044700081EC03F0D88203C0BBF602C0BAF601C0DB
:10448000B9F600C0B8F602C3BFF601C3BEF600C35A
:10449000BDF6FFC2BCF669EC04F003C0B3F602C07F
:1044A000B2F601C0B1F600C0B0F603C0BBF602C060
:1044B000BAF601C0B9F600C0B8F62DC3BFF62CC3DA
:1044C000BEF62BC3BDF62AC3BCF603EC06F003C050
:1044D000B3F602C0B2F601C0B1F600C0B0F61FC319
:1044E000B9F61EC3B8F681EC03F0D892B3C6BBF69A
:1044F000B2C6BAF6B1C6B9F6B0C6B8F603C0BFF6D2
:1045000002C0BEF601C0BDF600C0BCF669EC04F006
:1045100003C018F302C017F301C016F300C015F36F
:1045200003010001120001012A2BD8B42B2B442BCC
:10453000D8B4452B0301102BD8B4112B01012B53F8
:1045400003E12A517C0813E237520EE1040143A132
:1045500002D0010109D043A302D0010105D024B645
:1045600002D0010104D0010124802B6B2A6B0401CD
:104570004B53D8A49FD237500208D8A49BD21FBC5B
:1045800099D243BB97D22AB095D20201E6A302D0BA
:10459000040190D2E6A502D004018CD22BBC06D037
:1045A0002BB804D02BBA02D0040184D203011153DA
:1045B00004E11451105DD8A07CD2116B106B190E60
:1045C000146F2BACE2D11251D8B4130712070201B9
:1045D000E6A708D02BAE06D0E697E68503012E832A
:1045E00009D00201E6A707D02BBE05D0E697E683E7
:1045F00003012E83020103011253D8A49DD013534B
:10460000D8A49AD0DEC2BBF6DDC2BAF6DCC2B9F6D7
:10461000DBC2B8F60601BF6BBE6B480EBD6F850EE0
:10462000BC6F000103EC06F003C0B7F602C0B6F69B
:1046300001C0B5F600C0B4F64BEC04F00601B96B4E
:1046400001C0B8F6000181EC03F003C0BBF602C064
:10465000BAF601C0B9F600C0B8F60601BF6BBE6B72
:10466000BD6B810EBC6F00019CEC03F003C0B7F67C
:1046700002C0B6F601C0B5F600C0B4F64BEC04F0CB
:1046800001C014F3010E0201DF250301126F000EB9
:104690000201E0210301136F0201E68703012EAB43
:1046A0004BD0FAC2FEF2F9C2FDF2F8C2FCF2F7C238
:1046B000FBF2FEC2B7F6FDC2B6F6FCC2B5F6FBC20F
:1046C000B4F600014BEC04F002C0B1F601C0B0F644
:1046D0000601B133B033B133B033B133B0C644FFA8
:1046E000B133B131300B006E0F014351CF0B0010CD
:1046F000436F315220E0FEC2B7F6FDC2B6F6FCC2EF
:10470000B5F6FBC2B4F600014BEC04F002C0B1F602
:1047100001C0B0F60601B133B033B133B033B133B9
:10472000B0C647FFB133B131300B006E0F014651B7
:10473000CF0B0010466F03019E90CE500601AE6F66
:10474000CFCFAFF60001C6510601AE5D006E00018D
:10475000C7510601AF59036E00C0B8F6B96F00012A
:1047600081EC03F003C0B3F602C0B2F601C0B1F6AB
:1047700000C0B0F641C0B9F640C0B8F681EC03F015
:1047800003C0B7F602C0B6F601C0B5F600C0B4F675
:10479000000ED880C655006E000EC755016E010E82
:1047A000D8A0E806026E000ED8A0E806036EE8CF97
:1047B000BBF602C0BAF601C0B9F600C0B8F63DECCF
:1047C0000BF0B7C6BBF6B6C6BAF6B5C6B9F6B4C6F0
:1047D000B8F603C0BFF602C0BEF601C0BDF600C009
:1047E000BCF603EC06F0D892B3C6BBF6B2C6BAF676
:1047F000B1C6B9F6B0C6B8F603C0BFF602C0BEF681
:1048000001C0BDF600C0BCF669EC04F003C0B3F60D
:1048100002C0B2F601C0B1F600C0B0F603C0BBF6EC
:1048200002C0BAF601C0B9F600C0B8F6BD0E060166
:10483000BF6F370EBE6F060EBD6F6A0EBC6F0001F4
:1048400003EC06F0D892EAC2BBF6E9C2BAF6E8C2B7
:10485000B9F6E7C2B8F603C0BFF602C0BEF601C0A3
:10486000BDF600C0BCF669EC04F003C0EAF202C079
:10487000E9F201C0E8F200C0E7F2416A406A0301D0
:104880002EA37DD02BAE3DD0CFC2B9F6CEC2B8F6A6
:10489000000181EC03F00601BB6BBA6BB96B7F0EB4
:1048A000B86F03C0BFF602C0BEF601C0BDF600C0BF
:1048B000BCF600019CEC03F003C0B3F602C0B2F6F4
:1048C00001C0B1F600C0B0F6D88203C0BBF602C08A
:1048D000BAF601C0B9F600C0B8F6EAC2BFF6E9C23E
:1048E000BEF6E8C2BDF6E7C2BCF669EC04F003C050
:1048F00034F302C033F301C032F300C031F33CD0D3
:104900000301CDC2B9F6CCC2B8F6000181EC03F0C8
:104910000601BB6BBA6BB96B7F0EB86F03C0BFF6F5
:1049200002C0BEF601C0BDF600C0BCF600019CECA2
:1049300003F003C0B3F602C0B2F601C0B1F600C086
:10494000B0F6D88203C0BBF602C0BAF601C0B9F611
:1049500000C0B8F6EAC2BFF6E9C2BEF6E8C2BDF6CC
:10496000E7C2BCF669EC04F003C034F302C033F3D1
:1049700001C032F300C031F35EEC1CF00301000112
:104980008FEC08F00201E68B0301000111EC1EF030
:104990002BA877D0010E03011A5D0601B06F000E3F
:1049A00003011B590601B16F0001A3510601B15D5E
:1049B00008E31FE1B0510001A25DD8B002D00601AA
:1049C00018D0010E03011A250601B06F000E030175
:1049D0001B210601B16F0001A35D0EE3D8B402D024
:1049E000060107D0A2510601B05DD8A002D0000197
:1049F00003D0000100EC20F097DC2AB042D0FEC2C8
:104A0000B7F6FDC2B6F6FCC2B5F6FBC2B4F64BEC87
:104A100004F002C0B1F601C0B0F60601B133B03304
:104A2000B133B033B133B0C644FFB133B131300B21
:104A3000006E0F014351CF0B0010436F315220E045
:104A4000FEC2B7F6FDC2B6F6FCC2B5F6FBC2B4F6BE
:104A500000014BEC04F002C0B1F601C0B0F6060153
:104A6000B133B033B133B033B133B0C647FFB13334
:104A7000B131300B006E0F014651CF0B0010466F65
:104A800000012BAA15D003012EB704D0000179EC48
:104A90000AF003012EB50DD00201E6A502D00301F4
:104AA00008D0E6A302D0030104D0000159EC0BF0BA
:104AB000030104010101455303E14451170813E2C6
:104AC00037520EE1040143A102D0010109D043A3F2
:104AD00002D0010105D024B602D0010104D00101A9
:104AE0002484456B446B5150180801E2516ABA9C0A
:104AF000000176EF00F0F29276EF00F0060194915B
:104B00009A6B996B986B976B000E0F01236F246F54
:104B1000080E256FC196C198C19AC050C00B0A09F2
:104B2000C06EC08EC2800201236B226B216B206B92
:104B30000C0E016EC250830B0110C26E000E016E8E
:104B4000C150F80B0110C16EC282C2B2FED7C4CFF1
:104B500096F60601C3CF95F6C2B2FED7966B956B5B
:104B60009B6B9B51040820E30C0E016EC250830B1B
:104B70000110C26E000E016EC150F80B0110C16E23
:104B8000C2B2FED7C282C2B2FED7C3CF95F6C4CF9F
:104B900096F6C2B2FED79551972796519823000EEC
:104BA00099239A239B2BDDD7D8921B6AF2BE1B8ECA
:104BB000F29E9AC6B7F699C6B6F698C6B5F697C6E7
:104BC000B4F6BB6BBA6BB96B050EB86F0001F3ECB2
:104BD0000AF01BBEF28E03C09AF602C099F601C01D
:104BE00098F600C097F61B6AF2BE1B8EF29E9AC61C
:104BF000BBF699C6BAF698C6B9F697C6B8F63DECB4
:104C00000BF01BBEF28E1B6AF2BE1B8EF29E03C01F
:104C1000BBF602C0BAF601C0B9F600C0B8F606018C
:104C2000BF6B400EBE6F1C0EBD6F8B0EBC6F0001C4
:104C300003EC06F01BBEF28E03C09FF602C09EF688
:104C400001C09DF600C09CF61B6AF2BE1B8EF29E50
:104C500003C0BBF602C0BAF601C0B9F600C0B8F690
:104C60000601BF6BF00EBE6F7F0EBD6F8A0EBC6F6C
:104C700000019CEC03F01BBEF28E03C023F202C0C5
:104C800022F201C021F200C020F21B6AF2BE1B8E8C
:104C9000F29E0601BB6BF00EBA6F200EB96F8B0E41
:104CA000B86F23C2BFF622C2BEF621C2BDF620C233
:104CB000BCF60001A5EC05F01BBEF28E1AE21B6AE1
:104CC000F2BE1B8EF29E23C2BBF622C2BAF621C2EE
:104CD000B9F620C2B8F60601BF6B900EBE6F170E74
:104CE000BD6F8B0EBC6F0001A5EC05F01BBEF28EF4
:104CF00004E30601949103D0000106019481000EA3
:104D00000F01236F0F0E246FF60E256FC196C18819
:104D1000C19AC050C00B1609C06EC08EC280000E72
:104D2000060194B1010E016E00011200060EEA6E3A
:104D3000820EE96EEF500EE0140E016E006A002E36
:104D4000FED7012EFBD7BF0E006E002EFED700D07F
:104D5000EF2EF2D71200060140514219800B446F2A
:104D600040AF05D03F1F401F3F2BD8B4402B42AF70
:104D700005D0411F421F412BD8B4422B016A026A61
:104D8000006A036A425102E1415118E0100E436F7C
:104D9000D8903F374037003603364251035C02E17A
:104DA0004151005C07E34151005ED8A00306425127
:104DB000035ED88001360236432FEAD744AF05D0D0
:104DC000011E021E012AD8B4022A000139EF27F081
:104DD00006013B6B3A6B3D6B3C6B100E016EC25093
:104DE000830B0110C26E000E016EC150F80B011052
:104DF000C16E250E006E002EFED7C282C2B2FED753
:104E0000C3CF3AF6C4CF3BF6C2B2FED73B6B3A6B88
:104E10003E6B3E51090824E3100E016EC250830B15
:104E20000110C26E000E016EC150F80B0110C16E70
:104E3000250E006E002EFED7C282C2B2FED7C3CFAF
:104E40003CF6C4CF3DF6C2B2FED73C513A273D51A5
:104E50003B230A0E826F000169DF06013E2BD9D782
:104E60003BC640F63AC63FF6426B0A0E416F000160
:104E700072D702C03BF601C03AF63BC645F33AC6CC
:104E800044F3BAEFCFF00601816B8151130812E3AE
:104E9000036A8151730FE96E040E0320EA6EEF6A14
:104EA000036A8151870FE96E040E0320EA6EEF6AF0
:104EB000812BEBD704019B6B9C6B9D6B0001120057
:104EC000040E0401566F576F586F080E596F050E88
:104ED0005A6F1A0E5B6F0B0E5C6F280E5D6F080E1B
:104EE0005E6F110E5F6F060E606F300E616F110EF8
:104EF000626F0E0E636F050E646F0D0E656F090E07
:104F0000666F676F040E686F0001BEEFCFF0060199
:104F10003B6B3A6B3AC6F2F40401F36B06013B6B50
:104F20003A6B3AC6F4F40401F56B06013B6B3A6B3D
:104F30003AC602F50501036B06013B6B3A6B3AC6B4
:104F400004F50501056B06013A6B3AC612F53A6B9A
:104F50003AC613F53A6B3AC61AF55A6A5B6A00010B
:104F6000626B36EF28F00601826B816B81C6F6F426
:104F70000401F76B0601826B816B81C6F8F40401B2
:104F8000F96B0601826B816B81C606F50501076B23
:104F90000601826B816B81C608F50501096B06016C
:104FA000816B81C614F5816B81C615F5816B81C655
:104FB0001BF55C6A5D6A0001636B12000601826B7F
:104FC000816B81C6FAF40401FB6B0601826B816B75
:104FD00081C6FCF40401FD6B0601826B816B81C606
:104FE0000AF505010B6B0601826B816B81C60CF51E
:104FF00005010D6B0601816B81C616F5816B81C6BB
:1050000017F5816B81C61CF55E6A5F6A0001646BEF
:10501000120006013B6B3A6B3AC6FEF40401FF6BCB
:1050200006013B6B3A6B3AC600F50501016B0601C0
:105030003B6B3A6B3AC60EF505010F6B06013B6BF5
:105040003A6B3AC610F50501116B06013A6B3AC688
:1050500018F53A6B3AC619F53A6B3AC61DF50001D8
:10506000606B616B656B39EF28F051D77CDFA6DF91
:10507000D0D7C3EFCFF09EA8FED7AD6E12000601C9
:1050800093699151050800E091510001F4DF060198
:105090009151040A000109E0060A1CE0110A25E00A
:1050A000100A2EE0060A37E05BD00601925100019B
:1050B000E2DF3750E0DF5050DEDF4F50DCDF04012D
:1050C0006D510001D8DF91C642F4DD0E0601936FE9
:1050D000000146D0060192510001CDDF91C642F495
:1050E000DD0E0601936F00013BD0060192510001D5
:1050F000C2DF91C642F4DD0E0601936F000130D08D
:10510000060192510001B7DF91C642F4DD0E06019F
:10511000936F000125D0060192510001ACDF06011A
:10512000922D17D00001EADC259C01B0258C000EE1
:1051300025BC010EA0DF1EC094F6060194510001AB
:105140009ADF1DC094F606019451000194DF04D04B
:105150000601CC0E00018FDFDD0E0601936F00010A
:1051600006019351DD0806E10D0E000184DF0A0EF1
:1051700082DF060193C601F0000112000601946B64
:10518000010E936F925304E1946B010E936F1BD049
:10519000956B9251955D17E21B6AF2BE1B8EF29ED3
:1051A00094C6B1F693C6B0F6B36B91C6B2F60001E1
:1051B000C2EC13F01BBEF28E02C094F601C093F64F
:1051C0000601952BE6D793C601F094C602F00001C4
:1051D000C0EF29F006019551FF0A010F016E000191
:1051E00012000601956B946B9551935D19E303E1F1
:1051F0009251945D15E2976B966B975103080CE3FF
:1052000003E19651830808E3050E006E002EFED7D9
:10521000962BD8B4972BF1D7942BD8B4952BE4D7F1
:10522000000112000601912D04D0010E936E8A84B4
:1052300005D0915303E1010E936E8A86936B960E0F
:10524000926F0001CEDF010E936E8A94936E8A9660
:10525000120006018269836B846B46C341F404012A
:105260004151050802E041C442F4010E415DED0FD9
:10527000D8B088EF2EF0130F0001CCEF2EF0030111
:105280004751CA0808E1050E0601916F010E926FA1
:105290000001F5DE0301DD0E0601826F040188EFD7
:1052A0002EF048C337F049C350F04AC34FF04BC308
:1052B0006DF46DC49FF56DC4BEF503014751AA0A94
:1052C00000010BE0110A32E0660A4BE0330A4FE0BE
:1052D000410A5EE0110A62E08CD004014B51FB0FE1
:1052E00021E2050F00018DEF2EF003012E8F040146
:1052F00019D004014381439F15D0040143832496B0
:1053000043AF02D05383439F0DD0040143932486BF
:10531000439F08D00401438543AF02D05383439F8A
:1053200001D00401DD0E0601826F65D004014B51EE
:10533000FB0F13E2050F0001A2EF2EF003012E9FD9
:1053400004010BD00401439108D004014393249637
:1053500004D00401439501D00401DD0E0601826FE3
:105360004AD00401438BDD0E0601826F44D0040154
:10537000439B020E0601916F4FC092F60001FED6CC
:1053800001C066F003012E8FDD0E0601826F33D05F
:105390000401438FDD0E0601826F2DD004014B51B5
:1053A000FB0F22E2050F0001B7EF2EF004011CD025
:1053B0000401438119D06A2D02D0010E356E355299
:1053C00004E10401438303D000012486040143AFB8
:1053D00002D0439F538308D00401438543AF02D0DA
:1053E000439F538301D00401DD0E0601826F03D079
:1053F0000001060182698251DD0807E1050E916F07
:10540000040E926F00013BDE0601040188EF2EF0CE
:105410000601856B8551240830E3036A8551C30F6B
:10542000016E040E032203C092F6010E8525036A65
:10543000460FE96E030E0320EA6EEFCF93F692C695
:10544000EAFF01C0E9FF93C6EFFF855124080AE097
:10545000036A8551C30FE96E040E0320EA6EEF5014
:10546000832709D0036A8551C30FE96E040E032018
:10547000EA6EEFCF84F6852BCDD783C695F6000173
:10548000A9DE01500601845D17E1040EEA6E9E0E4E
:10549000E96E040EE26EC30EE16E250E016EE6CFDC
:1054A000EEFF012EFCD7050E916F080E926F0001E2
:1054B000E6DDDD0E0601826F040188EF2EF00601A5
:1054C000866B8651040830E3036A8651ED0F016E46
:1054D000040E032203C092F6010E8625036A460FCE
:1054E000E96E030E0320EA6EEFCF93F692C6EAFF51
:1054F00001C0E9FF93C6EFFF865104080AE0036A82
:105500008651ED0FE96E040E0320EA6EEF508327FB
:1055100009D0036A8651ED0FE96E040E0320EA6E8E
:10552000EFCF84F6862BCDD783C695F6000152DEE9
:1055300001500601845D17E1040EEA6EE80EE96E83
:10554000040EE26EED0EE16E050E016EE6CFEEFF8B
:10555000012EFCD7050E916F090E926F00018FDDB1
:10556000DD0E0601826F040188EF2EF00601876BC5
:1055700087510D0830E3036A87515A0F016E050EFB
:10558000032203C092F6010E8725036A460FE96ED7
:10559000030E0320EA6EEFCF93F692C6EAFF01C036
:1055A000E9FF93C6EFFF87510D080AE0036A8751B0
:1055B0005A0FE96E050E0320EA6EEF50832709D0DB
:1055C000036A87515A0FE96E050E0320EA6EEFCF8A
:1055D00084F6872BCDD783C695F60001FBDD0150FD
:1055E0000601845D17E1050EEA6E4C0EE96E050EAC
:1055F000E26E5A0EE16E0E0E016EE6CFEEFF012E48
:10560000FCD7050E916F0A0E926F000138DDDD0E9A
:105610000601826F04017CD30601886B8851020861
:1056200030E3036A88516B0F016E050E032203C03D
:1056300092F6010E8825036A460FE96E030E0320D9
:10564000EA6EEFCF93F692C6EAFF01C0E9FF93C678
:10565000EFFF885102080AE0036A88516B0FE96E78
:10566000050E0320EA6EEF50832709D0036A8851A4
:105670006B0FE96E050E0320EA6EEFCF84F6882BE0
:10568000CDD783C695F60001A5DD01500601845DE6
:105690000FE16BC568F56CC569F56DC56AF5050E5A
:1056A000916F0B0E926F0001EADCDD0E0601826F36
:1056B00004012ED30601896B8951160830E3036A71
:1056C0008951A10F016E050E032203C092F6010E4F
:1056D0008925036A460FE96E030E0320EA6EEFCFB9
:1056E00093F692C6EAFF01C0E9FF93C6EFFF895126
:1056F00016080AE0036A8951A10FE96E050E03201E
:10570000EA6EEF50832709D0036A8951A10FE96E31
:10571000050E0320EA6EEFCF84F6892BCDD783C622
:1057200095F6000157DD01500601845D17E1050E75
:10573000EA6E8A0EE96E050EE26EA10EE16E170E9C
:10574000016EE6CFEEFF012EFCD7050E916F060E1F
:10575000926F000194DCDD0E0601826F0401D8D245
:1057600006018A6B8A51070830E3036A8A51C00F29
:10577000016E050E032203C092F6010E8A25036A0C
:10578000460FE96E030E0320EA6EEFCF93F692C642
:10579000EAFF01C0E9FF93C6EFFF8A5107080AE05C
:1057A000036A8A51C00FE96E050E0320EA6EEF50BE
:1057B000832709D0036A8A51C00FE96E050E0320C2
:1057C000EA6EEFCF84F68A2BCDD783C695F600011B
:1057D00001DD01500601845D17E1050EEA6EB80E89
:1057E000E96E050EE26EC00EE16E080E016EE6CFA8
:1057F000EEFF012EFCD7050E916F070E926F000190
:105800003EDCDD0E0601826F040182D206018B6B45
:105810008B512C0830E3036A8B511F0F016E050E6C
:10582000032203C092F6010E8B25036A460FE96E30
:10583000030E0320EA6EEFCF93F692C6EAFF01C093
:10584000E9FF93C6EFFF8B512C080AE0036A8B51E6
:105850001F0FE96E050E0320EA6EEF50832709D073
:10586000036A8B511F0FE96E050E0320EA6EEFCF1E
:1058700084F68B2BCDD783C695F60001ABDC0150A7
:105880000601845D18E1040EEA6EF20EE96E050E63
:10589000E26E1F0EE16E2D0E016EE6CFEEFF012EC1
:1058A000FCD7050E916F0C0E926F00013FEC28F0B3
:1058B000DD0E0601826F04012BD206018C6B8C5128
:1058C0000D0830E3036A8C517C0F016E050E032234
:1058D00003C092F6010E8C25036A460FE96E030E93
:1058E0000320EA6EEFCF93F692C6EAFF01C0E9FF0C
:1058F00093C6EFFF8C510D080AE0036A8C517C0FB0
:10590000E96E050E0320EA6EEF50832709D0036A83
:105910008C517C0FE96E050E0320EA6EEFCF84F602
:105920008C2BCDD783C695F6000154DC01500601BF
:10593000845D18E1050EEA6E6E0EE96E050EE26EEC
:105940007C0EE16E0E0E016EE6CFEEFF012EFCD74F
:10595000050E916F0D0E926F00013FEC28F0DD0EE9
:105960000601826F0401D4D106018D6B8D510A08A6
:1059700030E3036A8D51D30F016E050E032203C07D
:1059800092F6010E8D25036A460FE96E030E032081
:10599000EA6EEFCF93F692C6EAFF01C0E9FF93C625
:1059A000EFFF8D510A080AE0036A8D51D30FE96EAB
:1059B000050E0320EA6EEF50832709D0036A8D514C
:1059C000D30FE96E050E0320EA6EEFCF84F68D2B20
:1059D000CDD783C695F60001EAEC28F00150060108
:1059E000845D18E1050EEA6EC80EE96E050EE26EE2
:1059F000D30EE16E0B0E016EE6CFEEFF012EFCD74B
:105A0000050E916F0E0E926F00013FEC28F0DD0E37
:105A10000601826F04017CD147C346F448C345F4B4
:105A2000050E0601916F0F0E926F00013FEC28F0FA
:105A3000DD0E0601826F04016BD1040142510301A6
:105A4000475D08E14851CC0805E1DD0E0601826F93
:105A500003D003010601826904015AD10401539164
:105A6000030147A103D0040153810301050E060180
:105A7000916F030E926F00013FEC28F0DD0E0601DE
:105A8000826F040145D1030147510E0A000103E072
:105A9000010A08E00CD0010E0601916F000112EC22
:105AA00029F005D00601916B000112EC29F0050EDA
:105AB0000601916F020E926F00013FEC28F0DD0E9F
:105AC0000601826F040124D106018E6B8E510908F4
:105AD00030E3036A8E51E80F016E050E032203C006
