:10000000C8EF23F0F36ED890F734F66EF746010E82
:10001000F716000EF86E380EF626000EF7220900CD
:10002000F5500900F626F550F722F350F626000E9B
:10003000F7220900F5501200080211021A022802E4
:100040002F0238024102530263026D0275028502DB
:100050009A02AF02C402D902EA02F70213032F0385
:100060004B03670383039F03BB03D703F303FF0320
:100070000A04150431043C04470453045B0462047D
:1000800070047B0484048F049704A204AA04B204BD
:10009000BB04BF04C404C904CB04D004D504DA04EF
:1000A000EB04FF0415051F052C053A05420546051E
:1000B0004A054E0552056305740585059705AD058E
:1000C000BA05CB05D805E505F1050006140622069C
:1000D0003B064C06660678067D06820687068C0679
:1000E000910696069B069F06A306A706AB06AF06DB
:1000F000B306B706BB06C606D606E606F60606072C
:1001000016072607360746075607660772077E0753
:100110008A079607A207AE07BA07C607D207DD0708
:10012000E307F90719084F086B088308AF08D008E0
:10013000EB08060921093C09570972098D09A8092C
:10014000C309DC09F5090E0A280A450A550A650A99
:10015000750A920AAB0ABF0AD50ADE0AE70AEB0A59
:10016000EF0AF50AF60AF70AFF0A070B100B1A0B3B
:10017000260B330B4F0B620B710B800B8F0B9E0BFF
:10018000AD0BBC0BCB0BF20B180C480C510C5B0CE1
:100190006C0C710C760C7B0C7F0C830C870C9E0C0A
:1001A000B50CBB0CC30CC40CC50CC60CCF0CD80CC6
:1001B000FF0C260D4F0D760D9D0DC40DC80DCC0DF9
:1001C000D60DE00DEA0DF40DFE0D130E280E3D0EBA
:1001D000460E5B0E700E850E9A0EAF0EC40EC80E44
:1001E000CC0ED00EE50EEE0EF70E000F090F120F1B
:1001F0001B0F240F2D0F360F3F0F480F510F550FB8
:10020000590F5F0F650F6F0F790F830F8D0F9A0FC7
:10021000A10FB60FCB0FE00FF50F181021102A1009
:1002200033103C1040104A1054105E105E105D10E8
:100230005C105B105A10591058105710561055107A
:1002400054104D4F4E4F504F4C4152200042495098
:100250004F4C4152202020004D4943524F434F52B2
:100260005249454E5445530053494D455452494116
:10027000004153494D4554524943410053494D456E
:1002800054524943412000454C454354524F455335
:1002900054494D554C4143494F4E00534953542006
:1002A0004D554C544950554C534F532000544845DC
:1002B00054412D42555253540047414C56414E49EA
:1002C00043410047414C56414E494341202B204D6C
:1002D0004943524F002020202020202043616E619E
:1002E0006C204120202020202020200020202020C1
:1002F00020202043616E616C20422020202020209D
:100300002020002020202020202043616E616C20CE
:1003100043202020202020202000202020202020DA
:1003200020506F696E7465722020202020202020CC
:100330000041434345534F2054524154414D494598
:100340004E544F004D454E55205052494E43495052
:10035000414C00202020202020202020436F6E666A
:10036000696775726163696F6E20202020202020EC
:10037000002020202020202020202047616C766152
:100380006E69636120202020202020202020002072
:1003900047616C76616E696361202B206D696372C1
:1003A0006F636F727269656E746573200020202020
:1003B0002020202020205472616E736372616E656C
:1003C000616C2020202020202020002020202020C0
:1003D000456C656374726F2D457374696D756C61DE
:1003E00063696F6E202020200020202020202053D1
:1003F000697374656D61204D756C746970756C738B
:100400006F7320202020002020202020202020206A
:100410002054686574612D42757273742020202009
:1004200020202020002020202020202020202020EC
:1004300050726573657473202020202020202020B6
:1004400020200020202020202020202020202020CC
:10045000546573742020202020202020202020207C
:1004600000434F4E46494755524143494F4E00497C
:100470006C756D696E6163696F6E2000536F6E6994
:10048000646F2020202020200020202020202020F9
:100490002056657273696F6E2046572F485720208B
:1004A00020202020202000436F6E747261737465D9
:1004B000202020004964696F6D61202020202020C9
:1004C0000056455253494F4E2046572F4857004338
:1004D0004F4E545241535445004944494F4D4120D9
:1004E0002000415649534F20414355535449434FEF
:1004F0002000494C554D494E4143494F4E2000493B
:100500006C696D697461646F2000414C494D454EC2
:10051000544143494F4E00434F4E4543544144419B
:1005200000444553434F4E4543544144410020430A
:1005300041524741444F2000454E204341524741DC
:100540002000496E74656E73696461640043617272
:100550006761005469656D706F0050756C736F73DF
:10056000006F686D00496D6564203D00566D6564DF
:10057000203D00526D6564203D004552524F52208F
:10058000444520454C454354524F444F0045525238
:100590004F52204445205452414E534953544F52D8
:1005A0004553004552524F522053495354454D41F3
:1005B000204445204D4544494441002020204552D7
:1005C000524F5220444500434F4D554E49434143FD
:1005D000494F4E455300542E206573746163696F13
:1005E0006E6172696F00542E207265706F736F00B8
:1005F00020204120200020204220200020204320D5
:1006000020002020502020002020202020204341B6
:100610004E414C204120202020200020202020205E
:100620002043414E414C2042202020202000202009
:100630002020202043414E414C20432020202020D8
:10064000007061726120656C206175746F6170610A
:100650006761646F0050726573696F6E6520656CC9
:1006600020626F746F6E2053544152540070617257
:100670006120636F6E74696E7561720041706167AD
:10068000616E646F2065717569706F2E2E2E004348
:100690004152474120434F4D504C45544100434146
:1006A00052474120454E20435552534F004F52432D
:1006B0004F204120534155524F4E004163656C65B8
:1006C000726F6D6574726F204E4F4B004150414701
:1006D000414E444F2054524154414D49454E544F90
:1006E0005300202020202041435449564F532E2EA2
:1006F0002E0020202020204D4F56494D49454E5474
:100700004F2042525553434F2020202000202020CC
:1007100020202020202044455445435441444F008C
:1007200020202020204552524F5220414C494D4517
:100730004E544143494F4E202020200020202020AD
:100740002020202054524154414D49454E544F00E1
:100750004D4158204120004D4158204220004D413C
:1007600058204320004D4158204142004D4158201F
:100770004143004D4158204243004D415820202024
:1007800000434320412000434320422000434320B4
:100790004320004343204142004343204143004360
:1007A00043204243004343202020002020202020DB
:1007B00000434F4449474F204552524F5200507218
:1007C0006573657420312020202020202020200007
:1007D0005072657365742032202020202020202054
:1007E0002000507265736574203320202020202063
:1007F0002020200050726573657420342020202052
:100800002020202020005072657365742035202040
:10081000202020202020200050726573657420362F
:100820002020202020202020200050726573657435
:1008300020372020202020202020200050726573A7
:100840006574203820202020202020202000507295
:10085000657365742039202020202020202020006E
:1008600050726573657420313020202020202020B4
:10087000200020566163696F202020202020200066
:1008800020456C656374726F202020202000204773
:10089000616C762020202020202020002047616CE1
:1008A000762B4D6963726F202000207444435320DF
:1008B000202020202020200020534D5020202020C8
:1008C00020202020200020546865746142757273D6
:1008D0007420200020456C656374726F2B4D4F446B
:1008E0002000204D6963726F2020202020202000EE
:1008F0005452414E534352414E45414C0050524593
:100900005345545300524547495354524F20455282
:10091000524F52455320455054452032002A2A2A2E
:100920002A2A2A2A2A2A2A2A2A2A2A2A2A2A2A2A27
:100930002A2A2A2A2A2A2A2A2A2A2A2A2A2A002D3E
:100940002D2D2D2D2D2D2D2D2D2D2D2D2D2D2D2DD7
:100950002D2D2D2D2D2D2D2D2D2D2D2D2D2D2D2DC7
:100960002D2D2D2D2D2D2D2D2D2D2D2D2D2D2D2DB7
:100970002D2D2D2D2D2D00436F646520202020204E
:100980002047656E6572616C2020202020506172C6
:100990006369616C00494E464F524D4520494E47B0
:1009A000454E494552494120455054452032004961
:1009B0006E666F2020202020202020202020202054
:1009C00020202020202020202047656E6572616C49
:1009D00020202020205061726369616C00436963AC
:1009E0006C6F7320626174657269613A2020202007
:1009F0002020202020202020202020202020200017
:100A0000566563657320656E63656E6469646F3AED
:100A1000202020202020202020202020005472612F
:100A200074616D69656E746F73204348413A20208C
:100A30002020202020202020200054726174616D2D
:100A400069656E746F73204348423A20202020204D
:100A50002020202020200054726174616D69656E31
:100A6000746F73204348433A202020202020202008
:100A70002020200054726174616D69656E746F731B
:100A800020506F696E7465723A202020202020204B
:100A90000054726174616D69656E746F7320476193
:100AA0006C763A2020202020202020202000547224
:100AB0006174616D69656E746F73204D6963726FE7
:100AC0003A202020202020202020005472617461D0
:100AD0006D69656E746F73205472616E73637261B9
:100AE0006E65616C3A20200054726174616D6965B5
:100AF0006E746F7320534D502F54423A20202020A3
:100B000020202020005469656D706F20457374614A
:100B100063696F6E6172696F204348413A2020001B
:100B20005469656D706F204573746163696F6E61A0
:100B300072696F204348423A2020005469656D7005
:100B40006F204573746163696F6E6172696F2043D2
:100B500048433A2020004D6F646F20746573742001
:100B600045505445203220686162696C6974616443
:100B70006F004D6F646F2074657374204550544549
:100B8000203220646573686162696C697461646FA6
:100B90000050726F746F636F6C6F2043616E616C95
:100BA00020410050726F746F636F6C6F2043616EF1
:100BB000616C20420050726F746F636F6C6F2043E2
:100BC000616E616C2043004552524F523A204D6F86
:100BD000646F207465737420646573686162696C06
:100BE000697461646F004552524F523A20436F6DF1
:100BF000616E646F20646573636F6E6F6369646FA9
:100C00000054656E73696F6E20656E206C612063A1
:100C1000617267613A2000436F727269656E746534
:100C200020656E206C612063617267613A20005418
:100C3000613D496C696D69742000475541524441DA
:100C4000522050520020455350200020454E47204E
:100C50000049736574203D2000485600202000564E
:100C60006F6C746167653A200043757272656E74CB
:100C70003A200043617061636974793A20005065DD
:100C80007263656E746167653A0054656D70657274
:100C900061747572653A20004379636C6520436F17
:100CA000756E743A202000436F727269656E7465C8
:100CB000206D65646964612064656C206571756987
:100CC000706F3A200053656C656363696F6E2064D2
:100CD000652063616E616C657300202020202043D5
:100CE000616E616C204120202020002020202020E7
:100CF00043616E616C2042202020200020202020B3
:100D00002043616E616C204320202020002020437E
:100D1000616E616C657320412079204220002020A3
:100D200043616E616C65732042207920432000206E
:100D30002043616E616C657320412079204320005F
:100D400043616E616C657320412C20422079204301
:100D50000020202020202020202020202020526140
:100D60006E676F2031302E2E383025202020202035
:100D70002020202020202020200020202020202093
:100D800020202020202052616E676F203130307586
:100D9000412E2E356D412020202020202020202093
:100DA0002000205F5F5F5F5F5F5F5F5F5F5F5F5F30
:100DB0005F5F5F5F5F5F5F5F5F5F5F5F5F5F5F5F43
:100DC0005F5F5F5F5F5F5F5F5F5F5F5F5F5F5F5F33
:100DD0005F5F5F00544558544F20475249530054B9
:100DE0004558544F204E4547524F0043617267614A
:100DF00020636F6D706C65746120656E20004D41DD
:100E000058205020004D4158205042004D4158205C
:100E100050430043432050200043432050420043AE
:100E200043205043004E4956454C204352495449B3
:100E3000434F2044452042415445524941002043FC
:100E4000415247554520454C20444953504F534942
:100E50005449564F20200051756564616E20002072
:100E6000736567756E646F73005461005464005459
:100E700072004D4F4E4F504F4C41522B004D4F4E34
:100E80004F504F4C41522D00202020202020202068
:100E9000496C756D696E6163696F6E206465207061
:100EA000616E74616C6C6120202020202020202045
:100EB00000202020202020202020436F6E747261AB
:100EC0007374652064652070616E74616C6C612060
:100ED0002020202020202020200020202020202032
:100EE00020204E6976656C206465207365EFBFBD78
:100EF000616C206163757374696361202020202018
:100F000020202020002020202020202020202053CE
:100F1000656C656363696F6E206465206964696FE1
:100F20006D61202020202020202020202000202053
:100F3000202020202020202020202052616E676F5A
:100F400020302E2E3130302520202020202020203F
:100F500020202020202000202020202020202020B1
:100F60002020202052616E676F2031302E2E3130CC
:100F7000302520202020202020202020202020007C
:100F8000546175746F005466696A6F00204550544F
:100F9000452020202020200020455054452B4D493D
:100FA00043524F002054444353204D41494E2000AA
:100FB000204C54502020202020202000204C54443D
:100FC00020202020202020002020202020204761D9
:100FD0006C76616E69636120202020202020002033
:100FE0002020204D6963726F636F727269656E7441
:100FF00065732020200020202047616C76616E6997
:101000006361202B206D6963726F2020004D4F4477
:10101000554C4143494F4E002020202020202020C5
:10102000204F464620202020202020202020002065
:10103000202020202020202020464D20202020205D
:1010400020202020200020202020202020202020C0
:10105000414D202020202020202020200020202062
:1010600020202020464D202B20414D2020202020D4
:101070002020200020202020202020202050574DFC
:101080002020202020202020202000202020202080
:101090002020464D202B2050574D2020202020205E
:1010A000200020464D20200020414D2020002050CF
:1010B000574D2000202020202020202020202020EC
:1010C00020202020202020202020004D4F44204F91
:1010D0004646202020004D4F4420464D2020202011
:1010E000004D4F4420464141202020004D4F4420D8
:1010F000414D20202020004D4F4420464D2B414D96
:1011000020004D4F442050574D202020004D4F448B
:1011100020464D2B50574D0054613D36303A30300B
:1011200020730054643D20303A30302073004E3D2F
:10113000203020202020202000493D202020323057
:10114000305B410050572D3D202020305B73005410
:10115000636F6D70005466696A6F002020204A201A
:101160003D200020202047203D20004D4F4E4F5075
:101170004F4C4152202B004D4F4E4F504F4C41523F
:10118000202D004249504F4C415220202020002069
:10119000202020202020202020200020202020206F
:1011A000202020202020202020002020202020205F
:1011B00020200020202047616C76616E69636120E9
:1011C0002B206D6963726F20200020202020205486
:1011D00072616E736372616E65616C2020202020E5
:1011E000002053697374656D61204D756C746920BE
:1011F00050756C736F73200020456C656374726F5B
:10120000657374696D756C6163696F6E2020002071
:1012100020202050726F6365736F206465206361C6
:1012200072676120696E636F72726563746F2E20DE
:101230002020200043414E414C20412020200043EB
:10124000414E414C20422020200043414E414C2041
:101250004320202000504F494E544552202020006A
:1012600044554D4D59002053504F542020202020EC
:101270002000205442202020202020202000204830
:10128000494220202020202020004C0000000000A7
:101290000000000000000000F36ED890F734F66EF6
:1012A000F746010EF716000EF86ECC0EF626120E5B
:1012B000F7220900F5500900F626F550F722F35001
:1012C000F626000EF7220900F5501200080211025E
:1012D0001A0228022F0238024102530263026D02F1
:1012E000750285029A02AF02C402D902EA02F7022D
:1012F00013032F034B03670383039F03BB03D7032E
:10130000F303FF030B04170433043F044B04570497
:101310005F04660474047F0488048D049504A004AB
:10132000A804B004B804BD04C004C504C704CC04B8
:10133000D104D604E404F3040B051B05260532058D
:1013400038053C054005440548055B056E058105EB
:101350009605AB05B505C405D505DF05EC05FC050F
:101360000F061F06360646065A0666066B06700608
:1013700075067A067F06840689068D06910695060F
:1013800099069D06A106A506A906B206C206D206C2
:10139000E206F20602071207220732074207520747
:1013A0005E076A07760782078E079A07A607B207C5
:1013B000BE07C907CF07E50705083B0857086F08B0
:1013C0009B08BC08D708F2080D09280943095E09E3
:1013D00079099409AF09C809E109FA09140A310A1F
:1013E000410A510A610A7E0A970AAB0AC10ACA0A6F
:1013F000D00AD40AD80ADE0ADF0AE00AE80AF00AAC
:10140000F90A030B0F0B1C0B380B490B5B0B6D0B15
:101410007F0B910BA30BB50BC70BED0B130C430C00
:101420004B0C540C650C6A0C6F0C740C780C7C0C17
:10143000800C950CA70CA60CB10CB20CB30CB40C20
:10144000BD0CC60CED0C140D3B0D620D890DB00DDD
:10145000B40DB80DC20DCC0DD60DE00DEA0DFF0D8B
:10146000140E290E320E470E5C0E710E860E9B0E68
:10147000B00EB40EB80EBC0ED10EDA0EE30EEC0EAA
:10148000F50EFE0E070F100F190F220F2B0F340F42
:101490003D0F410F450F4B0F510F5B0F650F6F0F46
:1014A000790F860F8D0FA20FB70FCC0FE10F04102D
:1014B0000D1016101F1028102C10361040104A1056
:1014C0004A10491048104710461045104410431068
:1014D0004210411040104D4F4E4F504F4C41522042
:1014E000004249504F4C4152202020004D49435268
:1014F0004F43555252454E545320200053594D4DA1
:1015000045545259004153594D4D45545249430099
:1015100053594D4D45545249432000454C45435481
:10152000524F2D5354494D554C4154494F4E004D47
:10153000554C544950554C53452053595354454DDF
:101540000054484554412D42555253540047414C94
:1015500056414E4943200047414C56414E49432095
:101560002B204D4943524F20002020202020204393
:1015700068616E6E656C20412020202020202000B4
:101580002020202020204368616E6E656C20422060
:1015900020202020202000202020202020436861BF
:1015A0006E6E656C2043202020202020200020200B
:1015B0002020202020506F696E746572202020202A
:1015C000202020200041434345535320545245419D
:1015D000544D454E542020004D41494E204D454E1E
:1015E00055202020202000202020202020202020E6
:1015F000436F6E66696775726174696F6E20202033
:1016000020202020002020202020202020202047D3
:10161000616C76616E6963202020202020202020CC
:1016200020200020202047616C76616E6963202BAA
:10163000206D6963726F63757272656E74732020BA
:10164000002020202020202020205472616E73630F
:1016500072616E69616C20202020202020200020F3
:101660002020202020456C656374726F2D537469AF
:101670006D756C6174696F6E202020200020202021
:10168000202020204D756C746950756C7365205353
:10169000797374656D2020202020002020202020D8
:1016A000202020202054686574612D427572737467
:1016B000202020202020202000202020202020204A
:1016C0002020202050726573657473202020202014
:1016D000202020202020002020202020202020202A
:1016E00020202020546573742020202020202020DA
:1016F0002020202000434F4E46494755524154492F
:101700004F4E00496C6C756D696E6174696F6E2027
:1017100000536F756E6420202020202020200020A0
:101720002020202020202046572F48572056657221
:1017300073696F6E202020202020202000436F6ED0
:1017400074726173742020202020004C616E6775D4
:1017500061676520202020200046572F48572056DB
:10176000455253494F4E00434F4E5452415354201B
:10177000004C414E47554147450041434F55535456
:101780004943205349474E414C00494C4C554D4923
:101790004E4154494F4E00556E6C696D69746564D5
:1017A0002000535550504C5900434F4E4E45435422
:1017B000454400444953434F4E4E4543544544002D
:1017C000204348415247454420004348415247493D
:1017D0004E472000496E74656E73697479004368E2
:1017E000617267650054696D650050756C7365734F
:1017F000006F686D00496D6564203D00566D65643D
:10180000203D00526D6564203D00454C45435452D7
:101810004F4445204552524F52005452414E534975
:1018200053544F52204552524F52004D454153554B
:1018300052454D454E542053595354454D4D204526
:1018400052524F52002020434F4D4D554E49434177
:1018500054494F4E532000202020204552524F52D1
:101860002020200053746174696F6E617279205476
:101870002E005265737420542E0020204120200039
:101880002020422020002020432020002020502023
:1018900020002020202020204348414E4E454C204F
:1018A00041202020202000202020202020434841CB
:1018B0004E4E454C20422020202020002020202079
:1018C00020204348414E4E454C20432020202020DC
:1018D00000666F7220746865206175746F20706F88
:1018E000776572206F666600507265737320746846
:1018F0006520737461727420627574746F6E007405
:101900006F20636F6E74696E7565005368757474CB
:10191000696E6720646F776E2E2E2E0042415454FC
:1019200045525920495320434841524745440043BA
:1019300048415247494E472E2E2E004F52434F20CA
:10194000544F20534155524F4E00416363656C65BF
:10195000726F6D65746572204E4F4B00534855543D
:1019600054494E4720444F574E2041435449564511
:10197000002020202054524541544D454E54532EB2
:101980002E2E002020202020414252555054204D20
:101990004F56454D454E5420202020002020202029
:1019A0002020202020444554454354454400202015
:1019B000202020504F57455220535550504C59200D
:1019C0002020200020202020202020204552524F7F
:1019D00052004D4158204120004D415820422000E6
:1019E0004D4158204320004D4158204142004D4177
:1019F00058204143004D4158204243004D4158205A
:101A00002020004343204120004343204220004344
:101A100043204320004343204142004343204143AD
:101A20000043432042430043432020200020202045
:101A30002020004552524F5220434F4445005072DF
:101A40006573657420312020202020202020200074
:101A500050726573657420322020202020202020C1
:101A600020005072657365742033202020202020D0
:101A700020202000507265736574203420202020BF
:101A800020202020200050726573657420352020AE
:101A9000202020202020200050726573657420369D
:101AA00020202020202020202000507265736574A3
:101AB0002037202020202020202020005072657315
:101AC0006574203820202020202020202000507203
:101AD00065736574203920202020202020202000DC
:101AE0005072657365742031302020202020202022
:101AF000200020456D7074792020202020202000B7
:101B000020456C656374726F2020202020002047E0
:101B1000616C762020202020202020002047616C4E
:101B2000762B4D6963726F2020002074444353204C
:101B30002020202020202000204D50532020202035
:101B40002020202020002054686574614275727343
:101B50007420200020456C656374726F2B4D4F44D8
:101B60002000204D6963726F20202020202020005B
:101B70005452414E534352414E49414C00505245FC
:101B80005345545300524547495354524F204552F0
:101B9000524F52455320455054452032002A2A2A9C
:101BA0002A2A2A2A2A2A2A2A2A2A2A2A2A2A2A2A95
:101BB0002A2A2A2A2A2A2A2A2A2A2A2A2A2A002DAC
:101BC0002D2D2D2D2D2D2D2D2D2D2D2D2D2D2D2D45
:101BD0002D2D2D2D2D2D2D2D2D2D2D2D2D2D2D2D35
:101BE0002D2D2D2D2D2D2D2D2D2D2D2D2D2D2D2D25
:101BF0002D2D2D2D2D2D00436F64652020202020BC
:101C00002047656E6572616C202020202050617233
:101C10006369616C00494E464F524D4520494E471D
:101C2000454E4945524941204550544520320049CE
:101C30006E666F20202020202020202020202020C1
:101C400020202020202020202047656E6572616CB6
:101C500020202020205061726369616C0043696319
:101C60006C6F7320626174657269613A2020202074
:101C70002020202020202020202020202020200084
:101C8000566563657320656E63656E6469646F3A5B
:101C9000202020202020202020202020005472619D
:101CA00074616D69656E746F73204348413A2020FA
:101CB0002020202020202020200054726174616D9B
:101CC00069656E746F73204348423A2020202020BB
:101CD0002020202020200054726174616D69656E9F
:101CE000746F73204348433A202020202020202076
:101CF0002020200054726174616D69656E746F7389
:101D000020506F696E7465723A20202020202020B8
:101D10000054726174616D69656E746F7320476100
:101D20006C763A2020202020202020202000547291
:101D30006174616D69656E746F73204D6963726F54
:101D40003A2020202020202020200054726174613D
:101D50006D69656E746F73205472616E7363726126
:101D60006E65616C3A20200054726174616D696522
:101D70006E746F7320534D502F54423A2020202010
:101D800020202020005469656D706F2045737461B8
:101D900063696F6E6172696F204348413A20200089
:101DA0005469656D706F204573746163696F6E610E
:101DB00072696F204348423A2020005469656D7073
:101DC0006F204573746163696F6E6172696F204340
:101DD00048433A2020004D6F646F2074657374206F
:101DE00045505445203220686162696C69746164B1
:101DF0006F004D6F646F20746573742045505445B7
:101E0000203220646573686162696C697461646F13
:101E10000050726F746F636F6C6F2043616E616C02
:101E200020410050726F746F636F6C6F2043616E5E
:101E3000616C20420050726F746F636F6C6F20434F
:101E4000616E616C2043004552524F523A204D6FF3
:101E5000646F207465737420646573686162696C73
:101E6000697461646F004552524F523A20436F6D5E
:101E7000616E646F20646573636F6E6F6369646F16
:101E80000054656E73696F6E20656E206C6120630F
:101E9000617267613A2000436F727269656E7465A2
:101EA00020656E206C612063617267613A20005486
:101EB000613D496C696D697420005341564520505D
:101EC000520020455350200020454E4720004973C2
:101ED0006574203D2000485600202000566F6C7429
:101EE0006167653A200043757272656E743A20002E
:101EF00043617061636974793A200050657263656B
:101F00006E746167653A0054656D706572617475D1
:101F100072653A20004379636C6520436F756E7477
:101F20003A202000436F727269656E7465206D659A
:101F3000646964612064656C2065717569706F3ACD
:101F400020004368616E6E656C732053656C656339
:101F500074696F6E0020202020204368616E6E65DA
:101F60006C204120202020200020202020204368B9
:101F7000616E6E656C2042202020202000202020F1
:101F800020204368616E6E656C2043202020202055
:101F90000020204368616E6E656C73204120616E85
:101FA000642042200020204368616E6E656C7320BF
:101FB0004220616E642043200020204368616E6EE1
:101FC000656C73204120616E64204320004368618A
:101FD0006E6E656C7320412C204220616E6420433C
:101FE000002020202020202020202020202052619E
:101FF0006E67652031302E2E38302520202020209D
:1020000020202020202020200020202020202020F0
:10201000202020202052616E6765203130307541CC
:102020002E2E356D41202020202020202020202011
:1020300000205F5F5F5F5F5F5F5F5F5F5F5F5F5F4E
:102040005F5F5F5F5F5F5F5F5F5F5F5F5F5F5F5FA0
:102050005F5F5F5F5F5F5F5F5F5F5F5F5F5F5F5F90
:102060005F5F0047524159205445585400424C414B
:10207000434B2054455854002046756C6C792063BE
:1020800068617267656420696E20004D4158205078
:1020900020004D4158205042004D415820504300EF
:1020A00043432050200043432050420043432050EC
:1020B0004300435249544943414C20424154544502
:1020C0005259204C4556454C002043484152474503
:1020D0002054484520444556494345200000736537
:1020E000636F6E6473206C65667400547300547182
:1020F000005472004D4F4E4F504F4C41522B004DEB
:102100004F4E4F504F4C41522D0020202020202078
:10211000202020202053637265656E20696C6C75E9
:102120006D696E6174696F6E202020202020202050
:1021300020200020202020202020202020202020BF
:1021400053637265656E20636F6E74726173742081
:10215000202020202020202020202000202020209F
:1021600020202020202041636F75737469632073E1
:1021700069676E616C206C6576656C20202020207C
:10218000202020200020202020202020202020206F
:102190004C616E67756167652073656C6563746912
:1021A0006F6E2020202020202020202020002020B2
:1021B000202020202020202020202052616E6765D2
:1021C00020302E2E313030252020202020202020AD
:1021D000202020202020002020202020202020201F
:1021E0002020202052616E67652031302E2E313044
:1021F00030252020202020202020202020202000EA
:10220000546175746F00547065726D0020455054B0
:10221000452020202020200020455054452B4D49AA
:1022200043524F002054444353204D41494E200017
:10223000204C54502020202020202000204C5444AA
:102240002020202020202000202020202020476146
:102250006C76616E696320202020202020200020E1
:10226000202020204D6963726F63757272656E74F1
:1022700020202020200020202047616C76616E699C
:1022800063202B206D6963726F202020004D4F4426
:10229000554C4154494F4E00202020202020202022
:1022A000204F4646202020202020202020200020D3
:1022B000202020202020202020464D2020202020CB
:1022C000202020202000202020202020202020202E
:1022D000414D2020202020202020202000202020D0
:1022E00020202020464D202B20414D202020202042
:1022F0002020200020202020202020202050574D6A
:1023000020202020202020202020002020202020ED
:102310002020464D202B2050574D202020202020CB
:10232000200020464D20200020414D20200020503C
:10233000574D200020202020202020202020202059
:1023400020202020202020202020004D4F44204FFE
:102350004646202020004D4F4420464D202020207E
:10236000004D4F4420464141202020004D4F442045
:10237000414D20202020004D4F4420464D2B414D03
:1023800020004D4F442050574D202020004D4F44F9
:1023900020464D2B50574D0054613D36303A303079
:1023A00020730054643D20303A30302073004E3D9D
:1023B000203020202020202000493D2020203230C5
:1023C000305B410050572D3D202020305B7300547E
:1023D000636F6D70005466697820002020204A20C9
:1023E0003D200020202047203D20004D4F4E4F50E3
:1023F0004F4C4152202B004D4F4E4F504F4C4152AD
:10240000202D004249504F4C4152202020200020D6
:1024100020202020202020202020002020202020DC
:1024200020202020202020202000202020202020CC
:1024300020200020202047616C76616E6963202B8C
:10244000206D6963726F20202000202020202054FE
:1024500072616E736372616E69616C20202020204E
:102460000020204D756C74692050756C7365205385
:10247000797374656D2020002020456C656374724B
:102480006F7374696D756C6174696F6E20200020C4
:10249000202020496E636F7272656374206C6F61D7
:1024A00064696E672070726F636573732E202020DD
:1024B000202020004348414E4E454C2041200043FF
:1024C00048414E4E454C204220004348414E4E4527
:1024D0004C20432000504F494E54455220202000AC
:1024E00044554D4D59002053504F5420202020205A
:1024F000200020544220202020202020200020489E
:10250000494220202020202020004C000000000014
:102510000000000000000000F76A2C0FF66E250E88
:10252000F722000EF86E0900F5501200494E49439B
:1025300049414C495A414E444F205052455345540D
:1025400053004341524741204445204441544F5396
:102550000000454E204D454D4F5249410000465523
:10256000454E5445205320256C7500004655454E78
:102570005445204D20256C7500004655454E544568
:10258000204C20256C7500004655454E544520587A
:102590004C20256C750049434F4E4F5320256C75D8
:1025A0000000494D4147454E20256C7500004944C7
:1025B000494F4D412043415354454C4C414E4F20CF
:1025C000256C75004F4B20256C7500004944494F20
:1025D0004D4120494E474C455320256C75004F4BCB
:1025E00020256C7500005472616E73666572656EAD
:1025F00063696120636F6D706C6574616461000074
:10260000DF51070B006EDF31016E013201321F0E08
:1026100001160150E125E96E000EE221EA6E016A21
:10262000012A002A01D00136002EFDD7E05303E035
:102630000150EF1203D0011E0150EF161200DD53BE
:1026400002E1000E01D0010EDEC0DFF0E06F0F0EE0
:10265000E26F890EE16FD4DFDEC0DFF0E06B0F0EBA
:10266000E26F920EE16FCCDFDE51050803E10590C9
:10267000DDB105801200EA6AE80EE96EEF500EE067
:10268000140E016E006A002EFED7012EFBD7BF0E7E
:10269000006E002EFED700D0EF2EF2D712008E0E65
:1026A000006EDEC001F0DDC002F0036A015209E1F4
:1026B00002C001F0026A080E005E015202E1006AE7
:1026C00008D0D89001BE04D0023601360006F9D7F2
:1026D000019E60EF24F0DD51D8B471D0006EE1515D
:1026E000D8B46DD0002604E3810E002668E204D041
:1026F0007F0E005E64E363E0DEC0E5F0E251E51BBF
:10270000DE8FE28FE051E403F4CFE7F0DF51E30323
:10271000F4CF03F0F3CFE6F0E403F350E727F450EF
:10272000E623000E0322E051E303F350E727F450C1
:10273000E623000E026A03220222DE51E403F35074
:10274000E627F4500322000E0222DE51E303F35089
:102750000326F4500222000E016A0122E051E20336
:10276000F350E627F4500322000E02220122DF512B
:10277000E203F3500326F4500222000E0122DE5140
:10278000E203F3500226F4500122002A01BE05D0D4
:10279000E6370336023601360006000EE6AF0AD0F1
:1027A000032A02220122015005E1025003E10350F5
:1027B00001E1002AE5BF018EE5AF019E04D0006A69
:1027C000016A026A036A70EF24F08E0E006EDD511A
:1027D000005EDEC002F0DFC001F0028E005209E0B0
:1027E000D890025202E1015204E002320132002E7E
:1027F000F7D7DEAF05D0011E021E012AD8B4022A87
:102800007AEF24F0F551F703F3CF01F0F4CF00F0A5
:10281000F803F3500026F651F703F3500020026E40
:102820001200200E956E8C92640EE86F24DF200E4D
:10283000956E8C82020EDF6F960EE86F1CDFDF2F25
:10284000FBD766EF14F0F85308E0200E956E8C84E9
:10285000006E016A026A036A03D0200E956E8C94A2
:102860001200F85308E0200E956E8C80006E016A0D
:10287000026A036A03D0200E956E8C9045EF14F027
:10288000F86BE1DFF6C0F8F0ECD7A19A679EF7C0CD
:102890006AFFA1AAFED7010EF86FD5DF1200F66B12
:1028A000300EF76FEDDFF66BAF0EF76FE9DF020E5C
:1028B000DF6F960EE86FDFDEDF2FFBD7CBEF15F073
:1028C000679A686A900E676E678AABD7F66B300EB0
:1028D000F76FD6DFF66B940EF76FD2DFF66BD10E83
:1028E000F76FCEDFF66B200EF76FCADF010EF66FC3
:1028F000080EF76FC5DF050EE86FBDDEF66B200E24
:10290000F76FBEDF010EF66F0B0EF76FB9DF0752E0
:1029100002E11C0E076EF66B810EF76FB1DF010E40
:10292000F66F07C0F7F0ACDF010EF66F040EF76F1D
:10293000A7DFF66BCA0EF76FA3DF010EF66FF76B1A
:102940009FDF010EF66F230EF76F9ADF010EF66F11
:10295000F76B96DFF66BA70EF76F92DFF66BBB0E89
:10296000F76F8EDF010EF66F020EF76F89DFF66BE1
:10297000BC0EF76F85DF010EF66F030EF76F80DF79
:10298000010EF66FF76F7CDF010EF66F020EF76F28
:1029900077DFF66B750EF76F73DF010EF66F100EB3
:1029A000F76F6EDF010EF66F9F0EF76F69DFF66B44
:1029B000150EF76F65DF010EF66F050EF76F60DF1E
:1029C000010EF66F540EF76F5BDFF66B5C0EF76F60
:1029D00057DF100EDD6FDD519E0815E3050EDE6F2B
:1029E000DE5153080EE3010EF66FF76B49DF010E5F
:1029F000F66FF76B45DF010EF66FF76B41DFDE2BED
:102A0000EFD7DD2BE8D7F66B250EF76F39DFF66BC6
:102A1000A90EF76F35DFF66B310EF76F31DFF66B0E
:102A2000320EF76F2DDF010EF66FF76F29DF010E03
:102A3000F66FF76B25DF010EF66F020EF76F20DFE2
:102A4000F66B340EF76F1CDFF66B200EF76F18DF96
:102A5000010EF66FF76B14DF010EF66F020EF76FC3
:102A60000FDF010EF66F040EF76F0ADF010EF66F2F
:102A7000060EF76F05DF010EF66F080EF76F00DF29
:102A8000010EF66F0A0EF76FFBDE010EF66F0C0EED
:102A9000F76FF6DE010EF66F0E0EF76FF1DE010E28
:102AA000F66F100EF76FECDE010EF66F120EF76F79
:102AB000E7DE010EF66F140EF76FE2DE010EF66F21
:102AC000160EF76FDDDE010EF66F180EF76FD8DE0B
:102AD000010EF66F1A0EF76FD3DE010EF66F1C0EA5
:102AE000F76FCEDE010EF66F1F0EF76FC9DEF66BC5
:102AF000210EF76FC5DE010EF66FF76BC1DE010E1A
:102B0000F66F020EF76FBCDE010EF66F040EF76F64
:102B1000B7DE010EF66F060EF76FB2DE010EF66F2E
:102B2000080EF76FADDE010EF66F0A0EF76FA8DE26
:102B3000010EF66F0C0EF76FA3DE010EF66F0E0E90
:102B4000F76F9EDE010EF66F100EF76F99DE010E25
:102B5000F66F120EF76F94DE010EF66F140EF76F1C
:102B60008FDE010EF66F160EF76F8ADE010EF66F1E
:102B7000180EF76F85DE010EF66F1A0EF76F80DE06
:102B8000010EF66F1C0EF76F7BDE010EF66F1F0E47
:102B9000F76F76DE84D6F7EF24F0200E956E8C9ECC
:102BA000956E8C86956E8C8EF9EF24F042C0EAFF0C
:102BB00041C0E9FFEDC0EFFFE92AD8B4EA2AEF6A85
:102BC000412AD8B4422A12000900F55210E0F6CF8B
:102BD000DDF0F7CFDEF0F8CFDFF0F5CFEDF0E6DF98
:102BE000DDC0F6FFDEC0F7FFDFC0F8FFEDD7120053
:102BF000F551000A07E0010A11E0030A1BE0010A8F
:102C000025E032D0376A010E366EFB0E356E346A1F
:102C1000080E3A6E386E020E396E31D0376A010EE8
:102C2000366EF80E356E346A080E3A6E386E020E45
:102C3000396E25D0376A010E366EEE0E356E346A67
:102C4000100E3A6E386E020E396E19D0376A010EC8
:102C5000366ED20E356E2A0E346E4B0E3A6E180E4C
:102C6000386E070E396E0BD0376A010E366EF80ECD
:102C7000356E346A080E3A6E386E020E396E57EFB2
:102C800016F0F7C001F0F6C000F0F667012A09005F
:102C9000F5CFEEFF002EFBD7012EF9D7F86A120010
:102CA000050EEA27100EEB27ECC0F5F0A1D7200E99
:102CB000E95DEF6FF06BF0C0F6F0EFC0F5F0F86B88
:102CC0003AC0F7F09FDD02C0F0F001C0EFF0F66B04
:102CD000300EF76FD5DDF66B750EF76FD1DD010E97
:102CE000F66FEBC0F7F0CCDD3850EB25F56F010E39
:102CF000F66FF5C0F7F0C4DDF66B150EF76FC0DDAB
:102D0000010EF66FEAC0F7F0BBDD3950EA25F56F2A
:102D1000010EF66FF5C0F7F0B3DDF66B5C0EF76FE2
:102D2000AFDDF0C0F3F0EFC0F2F03A50EF25016EE6
:102D3000000EF021036EF351035C54E303E10150F4
:102D4000F25D50E2F2513424006EF3513520016EF1
:102D5000000E3620026E000E3720036E02C0F8FF10
:102D600001C0F7FF00C0F6FFEA6AF50EE96EF76BE7
:102D7000010EF66F86DFF5C0F1F0F46BF451070831
:102D80001FE3F151800B0CE1EE5305E0010EF66FED
:102D9000F76976DD04D0010EF66FF76B71DD0CD0AC
:102DA000EE5305E0010EF66FF76B6ADD05D0010EFC
:102DB000F66FEDC0F7F064DDD890F137F42BDED775
:102DC000EC5103080BE0EE5305E0010EF66FF769D6
:102DD00057DD04D0010EF66FF76B52DDF22BD8B43D
:102DE000F32BA3D7F66B250EF76F4ADD14EF17F020
:102DF000E76BE751E125E96E000EE221EA6EEF5044
:102E000020E0E751E72BE125E96E000EE221EA6EB2
:102E1000EFCFE9F0E3C0EAF0E4C0EBF0E5C0ECF09E
:102E2000ED69E6C0EEF03CD7E553D8B403D0E551E8
:102E3000030803E13950E32703D0010E3924E327C7
:102E4000D8D71200F66B300EF76F1ADDF66B750EE1
:102E5000F76F16DD010EF66F100EF76F11DD010E24
:102E6000F66F9F0EF76F0CDDF66B150EF76F08DD32
:102E7000010EF66F050EF76F03DD010EF66F540EAF
:102E8000F76FFEDCF66B5C0EF76FFADC100EDD6F91
:102E9000DD519E0815E3050EDE6FDE5153080EE38B
:102EA000010EF66FF76BECDC010EF66FF76BE8DCEA
:102EB000010EF66FF76BE4DCDE2BEFD7DD2BE8D7E6
:102EC000F66B250EF76FDCDC1200E46BF250006E3F
:102ED000F29EE2C063FFE1C062FFE3C061FF7F9C3E
:102EE0007F9E7F840F01550E7E6EAA0E7E6E7F82BE
:102EF0007FB2FED77F940050F212050E0001E86FFA
:102F00003BEC13F0E4C001F01200E56BE4C0E6F026
:102F1000F250006EF29EE2C063FFE1C062FFE6C0C5
:102F200061FF7F9C7F9E7F840F01550E7E6EAA0EEF
:102F30007E6E7F827FB2FED77F940050F212050E24
:102F40000001E86F3BEC13F0010EE125E66F000E87
:102F5000E221E76FE3C0E8F0F250006EF29EE7C0B6
:102F600063FFE6C062FFE8C061FF7F9C7F9E7F84B5
:102F70000F01550E7E6EAA0E7E6E7F827FB2FED747
:102F80007F940050F212050E0001E86F3BEC13F045
:102F9000E5C001F012000900F6CFDEF0F7CFDFF058
:102FA000F8CFE0F0F5CFEDF001DEDEC0F6FFDFC0D8
:102FB000F7FFE0C0F8FFDD2FEED71200D8B203D044
:102FC000EA6AF50EE96E006A016A026A036AF56B45
:102FD000F66BF76BF86BF451F311F211F1112CE071
:102FE000200EF96FD890ED37EE37EF37F037F53721
:102FF000F637F737F837F451F85D08E1F351F75D2C
:1030000005E1F251F65D02E1F151F55D0FE3F15199
:10301000F55FF251D8A0F23DF65FF351D8A0F33D31
:10302000F75FF451D8A0F43DF85FD8800036013640
:1030300002360336F92FD6D7F5C0EFFFF6C0ECFF06
:10304000F7C0ECFFF8C0ECFF1200E950E56F3B0E53
:10305000EC6F9A0EEB6FCA0EEA6FE96B0A0EE76F20
:10306000D882EA6AE10EE96EE4C0F0F0E3C0EFF066
:10307000E2C0EEF0E1C0EDF0ECC0F4F0EBC0F3F034
:10308000EAC0F2F0E9C0F1F099DF015000520FE11F
:10309000E751010A0CE0E5510BE00F0BE75D01E0A1
:1030A0000CE2E5BF0AD0E5BD03D0200E02D0E56BEF
:1030B000300E002600C0EDF079DDD892ECC0F0F0C3
:1030C000EBC0EFF0EAC0EEF0E9C0EDF0F46BF36BAB
:1030D000F26B0A0EF16F72DF03C0ECF002C0EBF08E
:1030E00001C0EAF000C0E9F0E72FBAD71200EEC045
:1030F000F1F0F36BF46BF26BF36BF46B6A50EEC0B0
:103100006AFF6830FEE3EDC0F1F0F46BF26BF36B35
:10311000F46B6A50EDC06AFF6830FEE3ECC0F0F07B
:10312000F16BF26BF36B6A50ECC06AFF6830FEE340
:103130001200A20E676E688C200E956E8C9E6A50EF
:10314000030E6A6E6830FEE3EAC0EFF0E9C0EEF00D
:10315000E8C0EDF0E7C0ECF0CADF6A506A6A683098
:10316000FEE36ACFEBF0200E956E8C8EEBC001F083
:10317000EDEF18F0A20E676E688C200E956E8C9E97
:103180006A50060E6A6E6830FEE3200E956E8C8ED5
:10319000956E8C9E6A50020E6A6E6830FEE3E5C042
:1031A000EFF0E4C0EEF0E3C0EDF0E2C0ECF09FDF42
:1031B0006A50E6C06AFF6830FEE3200E956E8C8E82
:1031C000080EE86F3BEC13F0E5C0EAF0E4C0E9F06C
:1031D000E3C0E8F0E2C0E7F0ACD7E651015CCDE136
:1031E0001200E96BEA6B010EEB6FDA6AD96AEE6BDB
:1031F000E10EED6FEA6AE50EE96EEEC0E2FFEDC0AA
:10320000E1FFEBC0ECF0D890E550EE02F350E9237B
:10321000F450EA23EC2FF7D7E9C0DEFFEAC0E9F06B
:10322000EA6BD8B0EA2BED2BD8B4EE2BEB2BEB519D
:103230000508E0E11200E451016AE35D03E2E3C046
:1032400000F00CD0006A080EE56FE3370036E45159
:10325000005CD8B0006E0136E52FF7D712000150A0
:10326000E1C0E3F0640EE46FE6DF00C0E1F001507E
:10327000300E07E1E2A30CD0E2B70AD0E2B9200E8B
:1032800003D0E297E299E281012601C0EDF08EDCE5
:10329000E1C0E3F00A0EE46FCEDF00C0E1F00150C0
:1032A000300E06E1E2B708D0E2A106D0E2B9200E66
:1032B000012601C0EDF07ADC300EE127E1C0EDF02F
:1032C00075DCA4EF19F0E46BE36BE26B640EE16F65
:1032D000E0C0E8F0DFC0E7F0DEC0E6F0DDC0E5F01A
:1032E00080DF03C0E4F002C0E3F001C0E2F000C000
:1032F000E1F0D890036A026AE431016EE331006EB6
:10330000095C32E2E46BE36BE26B640EE16FE0C0F8
:10331000E8F0DFC0E7F0DEC0E6F0DDC0E5F061DF39
:1033200003C0E4F002C0E3F001C0E2F000C0E1F04D
:10333000D890E431E331096E426A0C0E416E09C047
:10334000E1F01B0EE26F8BD7200EED6F2FDC250E08
:10335000ED6F2CDCE26B0C0EE16F320EE36F780E3A
:10336000E46FE56BE66B44DD1200DEC0E0F0DDC02B
:10337000DFF0E0C003F0DFC0E9FFE0C0EAFFEF529A
:1033800004E0DF2BD8B4E02BF4D7DD51DF5D006E15
:10339000DE51E059036E00C001F0026E1200EACF68
:1033A000E9F0E9CFE8F0E239F009E46FE427E20F51
:1033B000E56F320FE76FE2510F0BE527E527E727AF
:1033C000E90FE66FE627E627E1390F0BE627E72747
:1033D000E637E737E71FE737E1510F0BE727E43719
:1033E000070EE36F0A0EE607E727FDE3E507E6278A
:1033F000FDE3E407E527FDE3E307E427FDE3EA6AED
:10340000E30EE96E070EE815E89DE926000EEA22B4
:10341000E950E70803E1EA5201E1E88DEF50006E60
:1034200008E1E8BD06D0E8B914D0E8B702D0200E14
:1034300003D0E887E899300E0026EACFE2F0E9CF22
:10344000E1F000C0EDF0D6EC15F0E2C0EAFFE1C01B
:10345000E9FFEE50E8ADDCD71200E76BE6C0E8F01C
:10346000F250006EF29EE2C063FFE1C062FFE8C06E
:1034700061FF7F9C7F9E7F840F01550E7E6EAA0E9A
:103480007E6E7F827FB2FED77F940050F212050ECF
:103490000001E86F3BEC13F0010EE125E86F000E30
:1034A000E221E96FE5C0EAF0F250006EF29EE9C059
:1034B00063FFE8C062FFEAC061FF7F9C7F9E7F845C
:1034C0000F01550E7E6EAA0E7E6E7F827FB2FED7F2
:1034D0007F940050F212050E0001E86F3BEC13F0F0
:1034E000020EE125E86F000EE221E96FE4C0EAF088
:1034F000F250006EF29EE9C063FFE8C062FFEAC0CE
:1035000061FF7F9C7F9E7F840F01550E7E6EAA0E09
:103510007E6E7F827FB2FED77F940050F212050E3E
:103520000001E86F3BEC13F0030EE125E86F000E9D
:10353000E221E96FE3C0EAF0F250006EF29EE9C0CA
:1035400063FFE8C062FFEAC061FF7F9C7F9E7F84CB
:103550000F01550E7E6EAA0E7E6E7F827FB2FED761
:103560007F940050F212050E0001E86F3BEC13F05F
:10357000E7C001F01200DE6BDD6BDE6B810EDD6FEC
:10358000DEC0E2F0DDC0E1F0E46B070EE36FBDDC0E
:10359000020EDD25DF6F000EDE21E06FE26FDFC07F
:1035A000E1F0E46B500EE36FB0DC020EDD25DF6F5F
:1035B000000EDE21E06F020EDF27000EE023E0C0E8
:1035C000E2F0DFC0E1F00A0EE36F7FDC020EDD25E2
:1035D000DF6F000EDE21E06F020EDF27000EE0231A
:1035E000010EDF27000EE023E0C0E2F0DFC0E1F0D3
:1035F000010EE36F6ADC030EDE6FB60EDD6FDEC018
:10360000E2F0DDC0E1F0020EE36F5FDCDE6B950EF1
:10361000DD6FDEC0E2F0DDC0E1F0E46B070EE36FCA
:1036200074DC020EDD25DF6F000EDE21E06FE26F3D
:10363000DFC0E1F0E46B500EE36F67DC020EDD25C6
:10364000DF6F000EDE21E06F020EDF27000EE023A9
:10365000E0C0E2F0DFC0E1F00A0EE36F36DC020EFC
:10366000DD25DF6F000EDE21E06F020EDF27000E8A
:10367000E023010EDF27000EE023E0C0E2F0DFC010
:10368000E1F0010EE36F21DC020EDD25DF6F000E9D
:10369000DE21E06F020EDF27000EE023010EDF27A0
:1036A000000EE023010EDF27000EE023E0C0E2F071
:1036B000DFC0E1F0E46B0A0EE36F27DC020EDD25CC
:1036C000DF6F000EDE21E06F020EDF27000EE02329
:1036D000010EDF27000EE023010EDF27000EE0239E
:1036E000020EDF27000EE023E0C0E2F0DFC0E1F0D1
:1036F000010EE46FE00EE36F08DC020EDD25DF6FE4
:10370000000EDE21E06F020EDF27000EE023010E27
:10371000DF27000EE023010EDF27000EE023020E5C
:10372000DF27000EE023020EDF27000EE023E0C0BB
:10373000E2F0DFC0E1F0010EE36F65EC17F0020E7E
:10374000DD25DF6F000EDE21E06F020EDF27000EA9
:10375000E023010EDF27000EE023010EDF27000E1D
:10376000E023020EDF27000EE023020EDF27000E0B
:10377000E023010EDF27000EE023E0C0E2F0DFC00F
:10378000E1F0030EE46F200EE36F85EC17F0020EFC
:10379000DD25DF6F000EDE21E06F020EDF27000E59
:1037A000E023010EDF27000EE023010EDF27000ECD
:1037B000E023020EDF27000EE023020EDF27000EBB
:1037C000E023010EDF27000EE023020EDF27000EAC
:1037D000E023E0C0E2F0DFC0E1F0E46B960EE36FBF
:1037E00085EC17F0030EDE6FB70EDD6FDEC0E2F082
:1037F000DDC0E1F0030EE36F65EC17F0DE6BF90E50
:10380000DD6FDEC0E2F0DDC0E1F0E46B280EE36FB7
:1038100085EC17F0020EDD25DF6F000EDE21E06F74
:10382000E26FDFC0E1F0040EE46FB00EE36F85ECF1
:1038300017F0020EDD25DF6F000EDE21E06F020EB5
:10384000DF27000EE023E0C0E2F0DFC0E1F0E46B30
:103850001E0EE36F85EC17F0020EDD25DF6F000E04
:10386000DE21E06F020EDF27000EE023020EDF27CD
:10387000000EE023E0C0E2F0DFC0E1F0E66BE56BB4
:10388000010EE46F5E0EE36FE8DD020EDD25DF6FF3
:10389000000EDE21E06F020EDF27000EE023020E95
:1038A000DF27000EE023040EDF27000EE023E0C038
:1038B000E2F0DFC0E1F0E36B65EC17F0020EDD250E
:1038C000DF6F000EDE21E06F020EDF27000EE02327
:1038D000020EDF27000EE023040EDF27000EE02398
:1038E000010EDF27000EE023E0C0E2F0DFC0E1F0D0
:1038F0000A0EE36F65EC17F0030EDE6FBC0EDD6F92
:10390000DEC0E2F0DDC0E1F0040EE36F65EC17F01D
:10391000010EDE6F710EDD6FDEC0E2F0DDC0E1F0A2
:10392000010EE36F65EC17F0010EDD25DF6F000E71
:10393000DE21E06FE26FDFC0E1F0010EE46FF40E14
:10394000E36F85EC17F0010EDD25DF6F000EDE2141
:10395000E06F020EDF27000EE023E0C0E2F0DFC0E0
:10396000E1F0E46B040EE36F85EC17F0010EDD254A
:10397000DF6F000EDE21E06F020EDF27000EE02376
:10398000020EDF27000EE023E0C0E2F0DFC0E1F02E
:103990000A0EE36F65EC17F0010EDD25DF6F000EF8
:1039A000DE21E06F020EDF27000EE023020EDF278C
:1039B000000EE023010EDF27000EE023E0C0E2F05E
:1039C000DFC0E1F00A0EE36F65EC17F0010EDD25B4
:1039D000DF6F000EDE21E06F020EDF27000EE02316
:1039E000020EDF27000EE023010EDF27000EE0238A
:1039F000010EDF27000EE023E0C0E2F0DFC0E1F0BF
:103A0000E46BC80EE36F85EC17F0010EDD25DF6F68
:103A1000000EDE21E06F020EDF27000EE023020E13
:103A2000DF27000EE023010EDF27000EE023010E4A
:103A3000DF27000EE023020EDF27000EE023E0C0A8
:103A4000E2F0DFC0E1F0280EE36F65EC17F0010E45
:103A5000DD25DF6F000EDE21E06F020EDF27000E96
:103A6000E023020EDF27000EE023010EDF27000E09
:103A7000E023010EDF27000EE023020EDF27000EF9
:103A8000E023010EDF27000EE023E0C0E2F0DFC0FC
:103A9000E1F00A0EE36F65EC17F0010EDD25DF6F34
:103AA000000EDE21E06F020EDF27000EE023020E83
:103AB000DF27000EE023010EDF27000EE023010EBA
:103AC000DF27000EE023020EDF27000EE023010EA9
:103AD000DF27000EE023010EDF27000EE023E0C009
:103AE000E2F0DFC0E1F0E46B020EE36F85EC17F06B
:103AF000030EDE6FC20EDD6FDEC0E2F0DDC0E1F06E
:103B0000050EE36F65EC17F0010EDE6F850EDD6FBD
:103B1000DEC0E2F0DDC0E1F0010EE36F65EC17F00E
:103B2000010EDD25DF6F000EDE21E06FE26FDFC0EA
:103B3000E1F0E46BFA0EE36F85EC17F0010EDD2582
:103B4000DF6F000EDE21E06F020EDF27000EE023A4
:103B5000E0C0E2F0DFC0E1F0E46BC80EE36F85EC9B
:103B600017F0010EDD25DF6F000EDE21E06F020E83
:103B7000DF27000EE023020EDF27000EE023E0C067
:103B8000E2F0DFC0E1F0050EE36F65EC17F0010E27
:103B9000DD25DF6F000EDE21E06F020EDF27000E55
:103BA000E023020EDF27000EE023010EDF27000EC8
:103BB000E023E0C0E2F0DFC0E1F0010EE36F65EC6E
:103BC00017F0010EDD25DF6F000EDE21E06F020E23
:103BD000DF27000EE023020EDF27000EE023010E98
:103BE000DF27000EE023010EDF27000EE023E0C0F8
:103BF000E2F0DFC0E1F0E46B320EE36F85EC17F02A
:103C0000010EDD25DF6F000EDE21E06F020EDF27E3
:103C1000000EE023020EDF27000EE023010EDF2757
:103C2000000EE023010EDF27000EE023020EDF2747
:103C3000000EE023E0C0E2F0DFC0E1F0010EE36F30
:103C400065EC17F0010EDD25DF6F000EDE21E06F61
:103C5000020EDF27000EE023020EDF27000EE02316
:103C6000010EDF27000EE023010EDF27000EE02308
:103C7000020EDF27000EE023010EDF27000EE023F7
:103C8000E0C0E2F0DFC0E1F0010EE36F65EC17F099
:103C9000010EDD25DF6F000EDE21E06F020EDF2753
:103CA000000EE023020EDF27000EE023010EDF27C7
:103CB000000EE023010EDF27000EE023020EDF27B7
:103CC000000EE023010EDF27000EE023010EDF27A8
:103CD000000EE023E0C0E2F0DFC0E1F0E46B910E03
:103CE000E36F85EC17F0030EDE6FC30EDD6FDEC0F1
:103CF000E2F0DDC0E1F0050EE36F65EC17F0010EB8
:103D0000DE6FE90EDD6FDEC0E2F0DDC0E1F0E46BF6
:103D1000050EE36F85EC17F0020EDD25DF6F000E58
:103D2000DE21E06FE26FDFC0E1F0E46B370EE36F9E
:103D300085EC17F0020EDD25DF6F000EDE21E06F4F
:103D4000020EDF27000EE023E0C0E2F0DFC0E1F06A
:103D5000050EE36F65EC17F0020EDD25DF6F000E38
:103D6000DE21E06F020EDF27000EE023010EDF27C9
:103D7000000EE023E0C0E2F0DFC0E1F0E46B0A0EE9
:103D8000E36F85EC17F0020EDD25DF6F000EDE21FC
:103D9000E06F020EDF27000EE023010EDF27000E8A
:103DA000E023020EDF27000EE023E0C0E2F0DFC0D8
:103DB000E1F0E46B640EE36F85EC17F0020EDD2595
:103DC000DF6F000EDE21E06F020EDF27000EE02322
:103DD000010EDF27000EE023020EDF27000EE02396
:103DE000020EDF27000EE023E0C0E2F0DFC0E1F0CA
:103DF000010EE36F65EC17F0020EDD25DF6F000E9C
:103E0000DE21E06F020EDF27000EE023010EDF2728
:103E1000000EE023020EDF27000EE023020EDF2754
:103E2000000EE023010EDF27000EE023E0C0E2F0E9
:103E3000DFC0E1F0010EE36F65EC17F0020EDD2547
:103E4000DF6F000EDE21E06F020EDF27000EE023A1
:103E5000010EDF27000EE023020EDF27000EE02315
:103E6000020EDF27000EE023010EDF27000EE02305
:103E7000010EDF27000EE023E0C0E2F0DFC0E1F03A
:103E8000E66BE56BE46BFA0EE36F2DEC1AF0020EB5
:103E9000DD25DF6F000EDE21E06F020EDF27000E52
:103EA000E023010EDF27000EE023020EDF27000EC5
:103EB000E023020EDF27000EE023010EDF27000EB5
:103EC000E023010EDF27000EE023040EDF27000EA3
:103ED000E023E0C0E2F0DFC0E1F0E66BE56BE46B0D
:103EE000FA0EE36F2DEC1AF0020EDD25DF6F000EE7
:103EF000DE21E06F020EDF27000EE023010EDF2738
:103F0000000EE023020EDF27000EE023020EDF2763
:103F1000000EE023010EDF27000EE023010EDF2755
:103F2000000EE023040EDF27000EE023040EDF273F
:103F3000000EE023E0C0E2F0DFC0E1F0E36B65ECEF
:103F400017F0020EDD25DF6F000EDE21E06F020E9E
:103F5000DF27000EE023010EDF27000EE023020E14
:103F6000DF27000EE023020EDF27000EE023010E04
:103F7000DF27000EE023010EDF27000EE023040EF2
:103F8000DF27000EE023040EDF27000EE023010EE2
:103F9000DF27000EE023E0C0E2F0DFC0E1F0E46BD9
:103FA000E36B85EC17F0020EDD25DF6F000EDE21DE
:103FB000E06F020EDF27000EE023010EDF27000E68
:103FC000E023020EDF27000EE023020EDF27000EA3
:103FD000E023010EDF27000EE023010EDF27000E95
:103FE000E023040EDF27000EE023040EDF27000E7F
:103FF000E023010EDF27000EE023020EDF27000E74
:10400000E023E0C0E2F0DFC0E1F0E46BE36B85ECBD
:1040100017F0020EDD25DF6F000EDE21E06F020ECD
:10402000DF27000EE023010EDF27000EE023020E43
:10403000DF27000EE023020EDF27000EE023010E33
:10404000DF27000EE023010EDF27000EE023040E21
:10405000DF27000EE023040EDF27000EE023010E11
:10406000DF27000EE023020EDF27000EE023020E02
:10407000DF27000EE023E0C0E2F0DFC0E1F0E36BF9
:1040800065EC17F0020EDD25DF6F000EDE21E06F1C
:10409000020EDF27000EE023010EDF27000EE023D3
:1040A000020EDF27000EE023020EDF27000EE023C2
:1040B000010EDF27000EE023010EDF27000EE023B4
:1040C000040EDF27000EE023040EDF27000EE0239E
:1040D000010EDF27000EE023020EDF27000EE02393
:1040E000020EDF27000EE023010EDF27000EE02383
:1040F000E0C0E2F0DFC0E1F0E66BE56BE46BE36BA0
:104100002DEC1AF0020EDD25DF6F000EDE21E06FD0
:10411000020EDF27000EE023010EDF27000EE02352
:10412000020EDF27000EE023020EDF27000EE02341
:10413000010EDF27000EE023010EDF27000EE02333
:10414000040EDF27000EE023040EDF27000EE0231D
:10415000010EDF27000EE023020EDF27000EE02312
:10416000020EDF27000EE023010EDF27000EE02302
:10417000040EDF27000EE023E0C0E2F0DFC0E1F034
:10418000E66BE56BE46BE36B2DEC1AF0020EDD25BC
:10419000DF6F000EDE21E06F020EDF27000EE0234E
:1041A000010EDF27000EE023020EDF27000EE023C2
:1041B000020EDF27000EE023010EDF27000EE023B2
:1041C000010EDF27000EE023040EDF27000EE023A0
:1041D000040EDF27000EE023010EDF27000EE02390
:1041E000020EDF27000EE023020EDF27000EE02381
:1041F000010EDF27000EE023040EDF27000EE02370
:10420000040EDF27000EE023E0C0E2F0DFC0E1F0A3
:10421000E36B65EC17F0030EDE6FC80EDD6FDEC0DA
:10422000E2F0DDC0E1F0010EE36F65EC17F0020E85
:10423000DE6F110EDD6FDEC0E2F0DDC0E1F0030ED7
:10424000E46FC00EE36F85EC17F0020EDD25DF6F23
:10425000000EDE21E06FE26FDFC0E1F0E46BE36BA4
:1042600085EC17F0020EDD25DF6F000EDE21E06F1A
:10427000020EDF27000EE023E0C0E2F0DFC0E1F035
:10428000010EE36F65EC17F0020EDD25DF6F000E07
:10429000DE21E06F020EDF27000EE023010EDF2794
:1042A000000EE023E0C0E2F0DFC0E1F0E46B0A0EB4
:1042B000E36F85EC17F0020EDD25DF6F000EDE21C7
:1042C000E06F020EDF27000EE023010EDF27000E55
:1042D000E023020EDF27000EE023E0C0E2F0DFC0A3
:1042E000E1F0E46B020EE36F85EC17F0020EDD25C2
:1042F000DF6F000EDE21E06F020EDF27000EE023ED
:10430000010EDF27000EE023020EDF27000EE02360
:10431000020EDF27000EE023E0C0E2F0DFC0E1F094
:10432000010EE36F65EC17F0020EDD25DF6F000E66
:10433000DE21E06F020EDF27000EE023010EDF27F3
:10434000000EE023020EDF27000EE023020EDF271F
:10435000000EE023010EDF27000EE023E0C0E2F0B4
:10436000DFC0E1F0010EE36F65EC17F0020EDD2512
:10437000DF6F000EDE21E06F020EDF27000EE0236C
:10438000010EDF27000EE023020EDF27000EE023E0
:10439000020EDF27000EE023010EDF27000EE023D0
:1043A000010EDF27000EE023E0C0E2F0DFC0E1F005
:1043B000E66BE56BE46BFA0EE36F2DEC1AF0020E80
:1043C000DD25DF6F000EDE21E06F020EDF27000E1D
:1043D000E023010EDF27000EE023020EDF27000E90
:1043E000E023020EDF27000EE023010EDF27000E80
:1043F000E023010EDF27000EE023040EDF27000E6E
:10440000E023E0C0E2F0DFC0E1F0E66BE56BE46BD7
:10441000FA0EE36F2DEC1AF0020EDD25DF6F000EB1
:10442000DE21E06F020EDF27000EE023010EDF2702
:10443000000EE023020EDF27000EE023020EDF272E
:10444000000EE023010EDF27000EE023010EDF2720
:10445000000EE023040EDF27000EE023040EDF270A
:10446000000EE023E0C0E2F0DFC0E1F0E36B65ECBA
:1044700017F0020EDD25DF6F000EDE21E06F020E69
:10448000DF27000EE023010EDF27000EE023020EDF
:10449000DF27000EE023020EDF27000EE023010ECF
:1044A000DF27000EE023010EDF27000EE023040EBD
:1044B000DF27000EE023040EDF27000EE023010EAD
:1044C000DF27000EE023E0C0E2F0DFC0E1F0E46BA4
:1044D000E36B85EC17F0020EDD25DF6F000EDE21A9
:1044E000E06F020EDF27000EE023010EDF27000E33
:1044F000E023020EDF27000EE023020EDF27000E6E
:10450000E023010EDF27000EE023010EDF27000E5F
:10451000E023040EDF27000EE023040EDF27000E49
:10452000E023010EDF27000EE023020EDF27000E3E
:10453000E023E0C0E2F0DFC0E1F0E46BE36B85EC88
:1045400017F0020EDD25DF6F000EDE21E06F020E98
:10455000DF27000EE023010EDF27000EE023020E0E
:10456000DF27000EE023020EDF27000EE023010EFE
:10457000DF27000EE023010EDF27000EE023040EEC
:10458000DF27000EE023040EDF27000EE023010EDC
:10459000DF27000EE023020EDF27000EE023020ECD
:1045A000DF27000EE023E0C0E2F0DFC0E1F0E36BC4
:1045B00065EC17F0020EDD25DF6F000EDE21E06FE7
:1045C000020EDF27000EE023010EDF27000EE0239E
:1045D000020EDF27000EE023020EDF27000EE0238D
:1045E000010EDF27000EE023010EDF27000EE0237F
:1045F000040EDF27000EE023040EDF27000EE02369
:10460000010EDF27000EE023020EDF27000EE0235D
:10461000020EDF27000EE023010EDF27000EE0234D
:10462000E0C0E2F0DFC0E1F0E66BE56BE46BE36B6A
:104630002DEC1AF0020EDD25DF6F000EDE21E06F9B
:10464000020EDF27000EE023010EDF27000EE0231D
:10465000020EDF27000EE023020EDF27000EE0230C
:10466000010EDF27000EE023010EDF27000EE023FE
:10467000040EDF27000EE023040EDF27000EE023E8
:10468000010EDF27000EE023020EDF27000EE023DD
:10469000020EDF27000EE023010EDF27000EE023CD
:1046A000040EDF27000EE023E0C0E2F0DFC0E1F0FF
:1046B000E66BE56BE46BE36B2DEC1AF0020EDD2587
:1046C000DF6F000EDE21E06F020EDF27000EE02319
:1046D000010EDF27000EE023020EDF27000EE0238D
:1046E000020EDF27000EE023010EDF27000EE0237D
:1046F000010EDF27000EE023040EDF27000EE0236B
:10470000040EDF27000EE023010EDF27000EE0235A
:10471000020EDF27000EE023020EDF27000EE0234B
:10472000010EDF27000EE023040EDF27000EE0233A
:10473000040EDF27000EE023E0C0E2F0DFC0E1F06E
:10474000E36B65EC17F0030EDE6FC90EDD6FDEC0A4
:10475000E2F0DDC0E1F0010EE36F65EC17F0020E50
:10476000DE6F390EDD6F030EDE6FCA0EDD6FDEC049
:10477000E2F0DDC0E1F0010EE36F65EC17F0030E2F
:10478000E26FF30EE16FE36965EC17F078EF2CF060
:10479000F86AD09E700ED36E400E9B6E646A046AF7
:1047A0006586820EAF6E060ED46EA60EAC6E900EAF
:1047B000AB6E0F012087150E1E6F010E1F6FA60E28
:1047C000216F900E226F05900F0E066E076A096A20
:1047D0000B6A0A6A336A326A316A306A3C6A490E85
:1047E0003B6E3E6A570E3D6E170E3F6E1E0E406EBC
:1047F000426A416A000E236F246F256FC196C198EB
:10480000C19A2E6B2F6B546B2A6A2B6A256B246B13
:10481000236B050E926E896A7F0E936E8A6A8B6A8D
:10482000200E956E8C6A830E966E8D6A7D0E976E45
:104830008E6AF40E986E8F6A0001DD6B110EDE6FCA
:104840001FEC13F0DD6B040EDE6F1FEC13F0DD6B5D
:10485000050EDE6F1FEC13F0C69AAB9E0F01229F70
:10486000F40E986E8F80D80E9412DE0E94169882F5
:10487000AB8E228F2669010E0001DD6F110EDE6FF7
:104880001FEC13F0020EDD6FFA0EE86F3BEC13F035
:10489000DD2FFAD7000E0609CA6EF90ECB6E830E15
:1048A000966E8D9A0C0E6E6E3F0E0F012C17000E39
:1048B0002C130BC0DEF00AC0DDF000014FEF13F047
:1048C00003C0E0F002C0DFF001C0DEF000C0DDF0A8
:1048D000E46BE36B100EE26F810EE16F6BEF13F090
:1048E00003C0E0F002C0DFF001C0DEF000C0DDF088
:1048F000E5EF13F002C0DEF001C0DDF0DE33DD33A2
:10490000DE33DD33DE33DDC06FFFDE33DE31300B0F
:10491000006E6E50CF0B00106E6E436A435002085B
:104920000CE38B8A7D0EE86F3BEC13F08B9A7D0EC7
:10493000E86F3BEC13F0432AF1D7010EDD6F040E54
:10494000DE6F1FEC13F0020EDD6FFA0EE86F3BEC2A
:1049500013F0DD2FFAD7010EDD6F050EDE6F1FECB1
:1049600013F0020EDD6FFA0EE86F3BEC13F0DD2F53
:10497000FAD7C68A7F0EC86E280EC66EC78EC79C31
:10498000678A830E966E8D980C0E0F01466FFC0E93
:104990002B17000E2B13040E2E6F2F6F546F6F6AA0
:1049A0006E50CF0B6E6E0001DE6B06C0DDF0DEC018
:1049B000F6F006C0F5F0F86B0A0EF76F02EC14F093
:1049C00002C0DEF001C0DDF0DE33DD33DE33DD3387
:1049D000DE33DDC047FFDE33DE31300B006E0F010A
:1049E0004651CF0B0010466F000160EF14F0CDEF81
:1049F00015F0426A0C0E416E420EF66E250EF76EF1
:104A0000000EF86EE4EC15F0E26B0C0EE16FE36B58
:104A1000E46B020EE56FE66BF8EC16F0426A0C0EE2
:104A2000416E520EF66E250EF76E000EF86EE4EC37
:104A300015F0E26B0C0EE16FE36B140EE46F020EE7
:104A4000E56FE66BF8EC16F0040EDD6FFA0EE86F1A
:104A50003BEC13F0DD2FFAD722EC17F0476A466AD9
:104A60000C0E456E600E446E516A506A4F6A4E6A73
:104A7000516A506A4F6A4E6A515219E1505217E119
:104A80004F50030814E34FC0DEF04EC0DDF04FC0BE
:104A9000E2F04EC0E1F0E36B65EC17F0010E4E263C
:104AA000D8B04F2AD8B4502AD8B4512AE5D7030E2B
:104AB000E26FED0EE16F280EE36F65EC17F0030E69
:104AC000E26FEE0EE16F280EE36F65EC17F0030E58
:104AD000E26FEF0EE16FE46BE36B85EC17F0030E12
:104AE000E26FF10EE16FE36B65EC17F0426A0C0EBA
:104AF000416E5E0EF66E250EF76E000EF86E090E14
:104B0000DD6FCBEC17F0410EE96E47C0E4F046C014
:104B1000E3F045C0E2F044C0E1F025EC18F0E26BB0
:104B20000C0EE16FE36BE46B020EE56FE66BF8ECE5
:104B300016F046C0DDF0E56BE46BE36BE26B46C05C
:104B4000E6F0BAEC18F045C0DDF0E56BE46BE36B22
:104B5000010EE26F45C0E6F0BAEC18F044C0DDF09B
:104B6000E56BE46BE36B020EE26F44C0E6F0BAEC77
:104B700018F0516A506A4F6A4E6A51524DE15052D4
:104B80004BE14F50040848E34E50DD6FFB0E4F24BD
:104B9000DE6F010E5020DF6F000E5120E06FDFC08E
:104BA000F8FFDEC0F7FFDDC0F6FFEA6AE10EE96E4E
:104BB000F76B010EF66F41EC16F047C0E5F046C00A
:104BC000E4F045C0E3F044C0E2F0E1C0E6F0BAEC46
:104BD00018F047C0E0F046C0DFF045C0DEF044C04A
:104BE000DDF063EC19F051C003F050C002F04FC08B
:104BF00001F04EC000F0010E4E26D8B04F2AD8B4B6
:104C0000502AD8B4512A010E4426D8B0452AD8B427
:104C1000462AD8B4472AB1D7426A0C0E416E4F0ECD
:104C2000ED6FD6EC15F04B0EED6FD6EC15F0E26B98
:104C30000C0EE16F320EE36FE46B020EE56FE66B74
:104C4000F8EC16F0426A0C0E416E6C0EF66E250EF4
:104C5000F76E000EF86E090EDD6FCBEC17F0410E0B
:104C6000E96E47C0E4F046C0E3F045C0E2F044C05E
:104C7000E1F025EC18F0E26B0C0EE16FE36B140E23
:104C8000E46F020EE56FE66BF8EC16F046C0DDF05F
:104C9000E56BE46BE36B030EE26F46C0E6F0BAEC43
:104CA00018F045C0DDF0E56BE46BE36B040EE26FDA
:104CB00045C0E6F0BAEC18F044C0DDF0E56BE46BFB
:104CC000E36B050EE26F44C0E6F0BAEC18F0516AEF
:104CD000506A4F6A4E6A51524DE150524BE14F506B
:104CE000020848E34E50DD6FF80E4F24DE6F010ED0
:104CF0005020DF6F000E5120E06FDFC0F8FFDEC0F4
:104D0000F7FFDDC0F6FFEA6AE10EE96EF76B010E10
:104D1000F66F41EC16F047C0E5F046C0E4F045C040
:104D2000E3F044C0E2F0E1C0E6F0BAEC18F047C0AE
:104D3000E0F046C0DFF045C0DEF044C0DDF063ECDB
:104D400019F051C003F050C002F04FC001F04EC046
:104D500000F0010E4E26D8B04F2AD8B4502AD8B44D
:104D6000512A010E4426D8B0452AD8B4462AD8B4D0
:104D7000472AB1D7426A0C0E416E4F0EED6FD6EC4A
:104D800015F04B0EED6FD6EC15F0E26B0C0EE16FEB
:104D9000320EE36F140EE46F020EE56FE66BF8EC73
:104DA00016F0426A0C0E416E7A0EF66E250EF76E04
:104DB000000EF86E090EDD6FCBEC17F0410EE96EB8
:104DC00047C0E4F046C0E3F045C0E2F044C0E1F083
:104DD00025EC18F0E26B0C0EE16FE36B280EE46F2C
:104DE000020EE56FE66BF8EC16F046C0DDF0E56B01
:104DF000E46BE36B060EE26F46C0E6F0BAEC18F027
:104E000045C0DDF0E56BE46BE36B070EE26F45C078
:104E1000E6F0BAEC18F044C0DDF0E56BE46BE36B50
:104E2000080EE26F44C0E6F0BAEC18F0516A506A1E
:104E30004F6A4E6A51524DE150524BE14F500908B2
:104E400048E34E50DD6FEE0E4F24DE6F010E502012
:104E5000DF6F000E5120E06FDFC0F8FFDEC0F7FF0C
:104E6000DDC0F6FFEA6AE10EE96EF76B010EF66F40
:104E700041EC16F047C0E5F046C0E4F045C0E3F071
:104E800044C0E2F0E1C0E6F0BAEC18F047C0E0F050
:104E900046C0DFF045C0DEF044C0DDF063EC19F041
:104EA00051C003F050C002F04FC001F04EC000F0FE
:104EB000010E4E26D8B04F2AD8B4502AD8B4512A61
:104EC000010E4426D8B0452AD8B4462AD8B4472A79
:104ED000B1D7426A0C0E416E4F0EED6FD6EC15F055
:104EE0004B0EED6FD6EC15F0E26B0C0EE16F320E4F
:104EF000E36F280EE46F020EE56FE66BF8EC16F038
:104F0000426A0C0E416E880EF66E250EF76E000E8C
:104F1000F86E0A0EDD6FCBEC17F0410EE96E47C05C
:104F2000E4F046C0E3F045C0E2F044C0E1F025EC17
:104F300018F0E26B0C0EE16FE36B3C0EE46F020EB7
:104F4000E56FE66BF8EC16F046C0DDF0E56BE46B60
:104F5000E36B090EE26F46C0E6F0BAEC18F045C00C
:104F6000DDF0E56BE46BE36B0A0EE26F45C0E6F043
:104F7000BAEC18F044C0DDF0E56BE46BE36B0B0EAC
:104F8000E26F44C0E6F0BAEC18F0516A506A4F6A1A
:104F90004E6A515252E1505250E14F501B084DE3BE
:104FA00003E14E50D40849E32A0E4E24DD6FD20EA1
:104FB0004F20DE6F010E5020DF6F000E5120E06F9A
:104FC000DFC0F8FFDEC0F7FFDDC0F6FFEA6AE10EE2
:104FD000E96EF76B010EF66F41EC16F047C0E5F095
:104FE00046C0E4F045C0E3F044C0E2F0E1C0E6F0C2
:104FF000BAEC18F047C0E0F046C0DFF045C0DEF084
:1050000044C0DDF063EC19F051C003F050C002F071
:105010004FC001F04EC000F0010E4E26D8B04F2A0E
:10502000D8B4502AD8B4512A010E4426D8B0452A03
:10503000D8B4462AD8B4472AACD7426A0C0E416E7F
:105040004F0EED6FD6EC15F04B0EED6FD6EC15F064
:10505000E26B0C0EE16F320EE36F3C0EE46F020E5A
:10506000E56FE66BF8EC16F0426A0C0E416E960E98
:10507000F66E250EF76E000EF86E070EDD6FCBECA8
:1050800017F0410EE96E47C0E4F046C0E3F045C0BA
:10509000E2F044C0E1F025EC18F0E26B0C0EE16F99
:1050A000E36B500EE46F020EE56FE66BF8EC16F062
:1050B00046C0DDF0E56BE46BE36B0C0EE26F46C0BF
:1050C000E6F0BAEC18F045C0DDF0E56BE46BE36B9D
:1050D0000D0EE26F45C0E6F0BAEC18F044C0DDF00A
:1050E000E56BE46BE36B0E0EE26F44C0E6F0BAECE6
:1050F00018F0516A506A4F6A4E6A515252E150524A
:1051000050E14F5003084DE303E14E505F0849E37F
:10511000CA0E4E24DD6FCE0E4F20DE6F010E5020E2
:10512000DF6F000E5120E06FDFC0F8FFDEC0F7FF39
:10513000DDC0F6FFEA6AE10EE96EF76B010EF66F6D
:1051400041EC16F047C0E5F046C0E4F045C0E3F09E
:1051500044C0E2F0E1C0E6F0BAEC18F047C0E0F07D
:1051600046C0DFF045C0DEF044C0DDF063EC19F06E
:1051700051C003F050C002F04FC001F04EC000F02B
:10518000010E4E26D8B04F2AD8B4502AD8B4512A8E
:10519000010E4426D8B0452AD8B4462AD8B4472AA6
:1051A000ACD7426A0C0E416E4F0EED6FD6EC15F087
:1051B0004B0EED6FD6EC15F0E26B0C0EE16F320E7C
:1051C000E36F500EE46F020EE56FE66BF8EC16F03D
:1051D000426A0C0E416EA20EF66E250EF76E000EA0
:1051E000F86E070EDD6FCBEC17F0410EE96E47C08D
:1051F000E4F046C0E3F045C0E2F044C0E1F025EC45
:1052000018F0E26B0C0EE16FE36B640EE46F020EBC
:10521000E56FE66BF8EC16F046C0DDF0E56BE46B8D
:10522000E36B0F0EE26F46C0E6F0BAEC18F045C033
:10523000DDF0E56BE46BE36B100EE26F45C0E6F06A
:10524000BAEC18F044C0DDF0E56BE46BE36B110ED3
:10525000E26F44C0E6F0BAEC18F0516A506A4F6A47
:105260004E6A515252E1505250E14F5019084DE3ED
:1052700003E14E50170849E3B20E4E24DD6FB50E20
:105280004F20DE6F010E5020DF6F000E5120E06FC7
:10529000DFC0F8FFDEC0F7FFDDC0F6FFEA6AE10E0F
:1052A000E96EF76B010EF66F41EC16F047C0E5F0C2
:1052B00046C0E4F045C0E3F044C0E2F0E1C0E6F0EF
:1052C000BAEC18F047C0E0F046C0DFF045C0DEF0B1
:1052D00044C0DDF063EC19F051C003F050C002F09F
:1052E0004FC001F04EC000F0010E4E26D8B04F2A3C
:1052F000D8B4502AD8B4512A010E4426D8B0452A31
:10530000D8B4462AD8B4472AACD7426A0C0E416EAC
:105310004F0EED6FD6EC15F04B0EED6FD6EC15F091
:10532000E26B0C0EE16F320EE36F640EE46F020E5F
:10533000E56FE66BF8EC16F022EC17F0426A0C0E03
:10534000416EAE0EF66E250EF76E000EF86E120E62
:10535000DD6FCBEC17F0410EE96E47C0E4F046C0BC
:10536000E3F045C0E2F044C0E1F025EC18F0E26B58
:105370000C0EE16FE36BE46B020EE56FE66BF8EC8D
:1053800016F0B66BBA6BB96BB86B120EB76FBE6B1B
:10539000BD6BBC6BBB6BBA53D8A43AD1B953D8A47C
:1053A00037D1B8510308D8A033D104E1B751200850
:1053B000D8A02ED146C0DDF0BAC0E5F0B9C0E4F007
:1053C000B8C0E3F0B7C0E2F046C0E6F0BAEC18F0BF
:1053D000010EB725DD6F000EB821DE6F000EB9217A
:1053E000DF6F000EBA21E06F45C0E1F0E56FDFC06E
:1053F000E4F0DEC0E3F0DDC0E2F045C0E6F0BAEC78
:1054000018F0020EB725DD6F000EB821DE6F000E1A
:10541000B921DF6F000EBA21E06F44C0E1F0E56F03
:10542000DFC0E4F0DEC0E3F0DDC0E2F044C0E6F04F
:10543000BAEC18F0BDC003F0BCC002F0BBC001F074
:10544000006ABBC0DEF000C0DDF0EA6A520EE96E11
:10545000BBC0F7FF005002EC00F00A000900F55055
:10546000EE6E0009FBE1DE6B520EDD6FB5EC19F05C
:1054700001C0B6F0516A506A4F6A4E6A51524EE10D
:1054800050524CE14F524AE1B6514E5C47E2BDC02A
:10549000E0F0BCC0DFF0BBC0DEF0DD6B4E50DD25C0
:1054A000006E4F50BB21016E5050BC21026E515016
:1054B000BD21036E01C0F7FF005002EC00F0DD6F6C
:1054C00047C0E5F046C0E4F045C0E3F044C0E2F078
:1054D000E66FBAEC18F047C0E0F046C0DFF045C018
:1054E000DEF044C0DDF063EC19F051C003F050C0B1
:1054F00002F04FC001F04EC000F0010E4E26D8B0B1
:105500004F2AD8B4502AD8B4512A010E4426D8B014
:10551000452AD8B4462AD8B4472AB0D7010EBB25AD
:10552000DD6F000EBC21DE6F000EBD21DF6F000EAF
:10553000BE21E06F426A0C0E416E030EE96EE0C0C0
:10554000E4F0DFC0E3F0DEC0E2F0DDC0E1F025EC26
:1055500018F02F0EED6FD6EC15F0020EE96E010E6D
:10556000E26F040EE16FCFEC19F0E26B0C0EE16F0D
:10557000E36B140EE46F020EE56FE66BF8EC16F0C9
:10558000010EBB25DD6F000EBC21DE6F000EBD21BC
:10559000DF6F000EBE21E06FDD5104082AE1DE2D31
:1055A00028D0DF5326E1E05324E1426A0C0E416E1D
:1055B000C40EF66E250EF76E000EF86E030EDD6F4C
:1055C000CBEC17F0410EE96EBAC0E4F0B9C0E3F0DD
:1055D000B8C0E2F0B7C0E1F025EC18F0E26B0C0EB9
:1055E000E16F370EE36FE46B020EE56FE66BF8ECEC
:1055F00016F0030EB727000EB823B923BA23010E05
:10560000BB27D8B0BC2BD8B4BD2BD8B4BE2BC3D6C7
:10561000426A0C0E416ECC0EF66E250EF76E000E31
:10562000F86E0E0EDD6FCBEC17F0410EE96E47C041
:10563000E4F046C0E3F045C0E2F044C0E1F025EC00
:1056400018F0E26B0C0EE16FE36B280EE46F020EB4
:10565000E56FE66BF8EC16F0C26BC16B040EC06F21
:105660002C0EBF6FC66BC56BC46BC36BC253D8A483
:1056700023D1C153D8A420D1C0510708D8A01CD130
:1056800004E1BF513A08D8A017D146C0DDF0C2C02E
:10569000E5F0C1C0E4F0C0C0E3F0BFC0E2F046C036
:1056A000E6F0BAEC18F0010EBF25DD6F000EC02148
:1056B000DE6F000EC121DF6F000EC221E06F45C01A
:1056C000E1F0E56FDFC0E4F0DEC0E3F0DDC0E2F062
:1056D00045C0E6F0BAEC18F0020EBF25DD6F000EF3
:1056E000C021DE6F000EC121DF6F000EC221E06F0E
:1056F00044C0E1F0E56FDFC0E4F0DEC0E3F0DDC000
:10570000E2F044C0E6F0BAEC18F0C5C003F0C4C043
:1057100002F0C3C001F0006AC3C0DEF000C0DDF0DB
:10572000EA6A520EE96EC3C0F7FF00504CEC09F074
:105730000A000900F550EE6E0009FBE1DE6B520E27
:10574000DD6FB5EC19F001C0B6F0516A506A4F6ACE
:105750004E6A51524EE150524CE14F524AE1B6511D
:105760004E5C47E2C5C0E0F0C4C0DFF0C3C0DEF06D
:10577000DD6B4E50DD25006E4F50C321016E505041
:10578000C421026E5150C521036E01C0F7FF0050C5
:105790004CEC09F0DD6F47C0E5F046C0E4F045C0D1
:1057A000E3F044C0E2F0E66FBAEC18F047C0E0F076
:1057B00046C0DFF045C0DEF044C0DDF063EC19F018
:1057C00051C003F050C002F04FC001F04EC000F0D5
:1057D000010E4E26D8B04F2AD8B4502AD8B4512A38
:1057E000010E4426D8B0452AD8B4462AD8B4472A50
:1057F000B0D7426A0C0E416E030EE96EC6C0E4F0EB
:10580000C5C0E3F0C4C0E2F0C3C0E1F025EC18F07D
:105810002F0EED6FD6EC15F0020EE96E010EE26F61
:10582000040EE16FCFEC19F0E26B0C0EE16FE36B4D
:105830003C0EE46F020EE56FE66BF8EC16F0C35118
:1058400004082BE1C42D29D0C55327E1C65325E117
:10585000426A0C0E416EDE0EF66E250EF76E000EDD
:10586000F86E030EDD6FCBEC17F0410EE96EC2C08F
:10587000E4F0C1C0E3F0C0C0E2F0BFC0E1F025EC4D
:1058800018F0E26B0C0EE16F370EE36F280EE46F39
:10589000020EE56FE66BF8EC16F0030EBF27000E64
:1058A000C023C123C223010EC327D8B0C42BD8B450
:1058B000C52BD8B4C62BDAD6EA6AC70EE96E160E27
:1058C000016EF76A000E8CEC12F00A000900F5CFA9
:1058D000EEFF012EFBD7E26BC70EE16FE36B500EBC
:1058E000E46F020EE56FE66BF8EC16F0BBEF1AF012
:1058F000426A0C0E416EE60EF66E250EF76E000E35
:10590000F86EE4EC15F0E26B0C0EE16FE36B780ED1
:0E591000E46FE56BE66BF8EC16F0EAD70300E7
:020000040001F9
:0EB5B20011111111111111111111111111119D
:10B5C000111111111111111111111111111111116B
:10B5D000111111111111111111111111111111115B
:10B5E0001111111111111111254111111111111107
:10B5F000111111111111111111111111111111113B
:10B60000111111111111111111111111111111112A
:10B61000111111111111111111111111111111111A
:10B62000111111111111111111111111111111110A
:10B6300011111111111111111111111111111111FA
:10B640004A9411111111111111111111111111112E
:10B6500011111111111111111111111111111111DA
:10B6600011111111111111111111111111111111CA
:10B6700011111111111111111111111111111111BA
:10B6800011111111111111111111111111111111AA
:10B6900011111111111111117994111111111111AF
:10B6A000111111111111111111111111111111118A
:10B6B000111111111111111111111111111111117A
:10B6C000111111111111111111111111111111116A
:10B6D000111111111111111111111111111111115A
:10B6E0001111111111111111111111111111111249
:10B6F0008982111111111111111111111111111151
:10B700001111111111111111111111111111111129
:10B710001111111111111111111111111111111119
:10B720001111111111111111111111111111111109
:10B7300011111111111111111111111111111111F9
:10B74000111111111111111399611111111111110F
:10B7500011111111111111111111111111111111D9
:10B7600011111111111111111111111111111111C9
