:1000000005EFD5F0120012008BEF00F000000000A9
:100010000000000000000000046ED8CF05F0E0CF23
:1000200006F00001E9CF0CF0EACF07F0E1CF08F0CD
:10003000E2CF09F0D9CF0AF0DACF0BF0F3CF12F00C
:10004000F4CF13F0FACF14F0F5CF15F0F6CF16F089
:10005000F7CF17F0F8CF18F0FBCF19F000C00EF073
:1000600001C00FF002C010F003C011F0A3AA3CEFD2
:1000700000F0A4BA0CEF03F0A0A242EF00F0A1B28E
:1000800074EF07F0F0A648EF00F0F0B015EF07F0BE
:10009000F2A64EEF00F0F2B08FEF07F0F0AA54EFA7
:1000A00000F0F0B429EF07F0B9AA5AEF00F0BABA9D
:1000B00070EF03F0B9AC60EF00F0BABC15EF05F0DB
:1000C0000EC000F00FC001F010C002F011C003F02C
:1000D0000CC0E9FF07C0EAFF078E08C0E1FF09C0B6
:1000E000E2FF0AC0D9FF0BC0DAFF12C0F3FF13C052
:1000F000F4FF14C0FAFF15C0F5FF16C0F6FF17C0D5
:10010000F7FF18C0F8FF19C0FBFF045006C0E0FF5E
:1001100005C0D8FF10001C6ED8CF1DF0E0CF1EF038
:100120000001E9CF24F0EACF1FF0E1CF20F0E2CFC9
:1001300021F0D9CF22F0DACF23F0F3CF2AF0F4CF99
:100140002BF0FACF2CF0F5CF2DF0F6CF2EF0F7CF25
:100150002FF0F8CF30F0FBCF31F000C026F001C017
:1001600027F002C028F003C029F0F2A8BBEF00F08E
:10017000F2B273EF06F026C000F027C001F028C0ED
:1001800002F029C003F024C0E9FF1FC0EAFF1F8E60
:1001900020C0E1FF21C0E2FF22C0D9FF23C0DAFF67
:1001A0002AC0F3FF2BC0F4FF2CC0FAFF2DC0F5FFCF
:1001B0002EC0F6FF2FC0F7FF30C0F8FF31C0FBFFA5
:1001C0001C501EC0E0FF1DC0D8FF1000F76AE00FF2
:1001D000F66E010EF722000EF86E0900F5501200BF
:1001E000202020202020202020202000F76A000F3F
:1001F000F66E020EF722000EF86E0900F55012009E
:100200002020202020202000F76A1C0FF66E020E0E
:10021000F722000EF86E0900F55012002020202071
:10022000202020202020202020200000F76A400FDE
:10023000F66E020EF722000EF86E0900F55012005D
:100240005472656E65730000ECCFFAFFECCFFBFFD4
:10025000ED52ED52EFCFE8FFF96E12004275696C76
:10026000643A20256C75202D20256C75202D2030BA
:1002700078254C58000049673D25356C755B410079
:1002800020203D2532753A25303275207300547296
:100290003D25327520730000496D3D25356C755B39
:1002A000410020203D2532753A25303275207300FB
:1002B00050573D25346C75205B730000513D253748
:1002C0006C75205B4300493D25356C75205B410012
:1002D00054613D2532753A253032752073005472D1
:1002E000653D25356C75207300005472733D2532D1
:1002F0007520730020202020202020636D5D0000E9
:100300006A3D25336C75205B412F636D5D0050574E
:100310003D25344C55205B7300004E503D25346C18
:10032000750053503D253475206D73004E423D25B8
:100330003475000053423D25346C75206D73000008
:100340004E543D253475000053543D2534752073BB
:10035000000049203D25354C55205B41000054618B
:100360003D2532753A2530327520730050573A20BA
:1003700025346C75205B5300463A2025356C75207A
:10038000487A000025354C55205B410025354C55F9
:10039000206D560025354C55206F686D00002535C1
:1003A0004C55206D4A0025354C55205B41002535C4
:1003B0004C55206D560025354C55206F686D00005A
:1003C0006A203D2025336C75205B412F636D5D00F5
:1003D000202020202020204620202025334C554856
:1003E0007A00466D696E202025336C75487A204668
:1003F0006D6178202025336C75487A0050572B208A
:1004000025334C552563730050572D2025334C550B
:100410002563730050576D696E2025334C55256355
:10042000730050576D61782025334C552563730058
:1004300025354C55206F686D000025354C55206DD5
:1004400056005461202532753A25303275005464C7
:10045000202532753A25303275002020204E202587
:10046000327500005057203D20256C75205B7300CD
:100470002020202020202020000049613D25356CCF
:1004800075205B41000020202020202020202020FB
:10049000200049703D25356C75205B41000020200F
:1004A0002020202020202020200049623D25356C7E
:1004B00075205B41000020202020202020202020CB
:1004C000200049633D25356C75205B4100002020EC
:1004D0002020202020202020200025354C55205B86
:1004E000410025354C55206D560025354C55206F63
:1004F000686D000051756564616E20254C75207330
:100500006567756E646F730025327520682025322B
:1005100075206D696E2000002020202020202020E2
:1005200020202020202020202020202020202020CB
:1005300020202020202020200000563A2025303482
:100540004C64206D5620493A202530344C64206D8F
:1005500041204261743A2025752025250000A4AA77
:10056000FED70F0122CF33F01DCF01F033A202D00E
:100570002299228900010EEF03F009017091036AAC
:100580006F51090FE96E070E0320EA6EEF50060166
:10059000F45D25E024E30501FA51050819E1FB2D7E
:1005A00017D0036A09016F51090FE96E070E032086
:1005B000EA6E020EEF240601F45D04E10901708188
:1005C00003D00601090170910701089306D00501C7
:1005D0000701089309017091070116D00601036A0B
:1005E00009016F51090FE96E070E0320EA6EEF5003
:1005F0000601F45D06E2070108830901709103D04A
:100600000601090170810701000E090170B1010E98
:10061000016E00013BEF03F05480A1D701C0F8F652
:100620000601F4530EE1F85114080AE3F451F42BD7
:10063000036AFA0FE96E050E0320EA6EF8C6EFFFB3
:1006400031D0F451F42B036AFA0FE96E050E032042
:10065000EA6EF8C6EFFFF451010824E2F8510D08E4
:1006600002E0F7A51FD0F785F8510A0817E1FAC58F
:100670006FF9000182D7015205E058880601F46B3A
:100680000BD00001070108B304D00601F46B5490AD
:100690000701089358980601F79504D0F8510D0802
:1006A00001E0F795A49A000160EF00F009016F5393
:1006B0000EE00101095302E10A5307E00C0E6E6ED1
:1006C000C66BC56BC46BC36B568608D009016E6AD6
:1006D00056960101C66BC56BC46BC36B000112005B
:1006E00056A62CD0010E0101C327D8B0C42BD8B414
:1006F000C52BD8B4C62BCA51C65D0CE317E1C9514E
:10070000C55D08E313E1C851C45D04E30FE1C351C3
:10071000C75D0CE3C6530AE1C55308E1C451120892
:100720000EE2FF0A03E1C351880809E2C66BC56BFC
:10073000C46BC36B09016F6B0001B8DF010156B8D0
:100740000FD1010E9327D8B0942BD8B4952BD8B4E1
:10075000962B010E8F27D8B0902BD8B4912BD8B4FC
:10076000922B010EBF27D8B0C02BD8B4C12BD8B460
:10077000C22B010EB327D8B0B42BD8B4B52BD8B444
:10078000B62BCE51B65D2AE30BE1CD51B55D26E324
:1007900007E1CC51B45D22E303E1CB51B35D1EE32D
:1007A000B66BB56BB46BB36B070108B10DD081BCF0
:1007B0000BD00101CE6BCD6BCC6B640ECB6FF40E06
:1007C000986E8F760BD0070108A102D081AC00D0C3
:1007D0000101CE6BCD6BCC6B0A0ECB6FC2530AE11D
:1007E000C15308E1C0510A080AE2FF0A03E1BF5100
:1007F000B80805E2C26BC16BC06BBF6B56920001BB
:100800006B5179080BE06B51830808E06B518D0840
:1008100005E06B51B50802E0875320E0010E0101AD
:100820009727D8B0982BD8B4992BD8B49A2B9A5331
:100830000AE1995308E198510A080FE2FF0A03E11F
:100840009751B8080AE29A6B996B986B976B54AA08
:1008500002D056BA02D05188518C000187530CE166
:1008600058BC0AD058BE08D00601F7A102D000013A
:1008700003D04FAA76D000016453D8A402D0060159
:1008800070D058BE04D00601F7A157D000014FAA7E
:1008900007D0030E01018C6FE40E8B6F3BD000017B
:1008A000000E4FB8010E006ED89000360050036A5B
:1008B000130FE96E010E0320EA6EECCF70F9ED52D2
:1008C000EFCF6FF90901705320E16F5103081DE369
:1008D000000E4FB8010E006ED89000360050036A2B
:1008E000130FE96E010E0320EA6EECCF70F9ED52A2
:1008F000EFCF6FF96F5302E1705307E0030E010170
:100900008C6FCA0E8B6F06D00901030E01018C6F2C
:10091000E10E8B6F925309E1915307E18C51905D89
:100920000AE303E18B518F5D06E34E82926B916B7C
:10093000906B8F6B518C14D00601010192530AE128
:10094000915308E1905102080BE2FF0A03E18F5135
:10095000E00806E24E82926B916B906B8F6B518C2C
:100960000601BA9A000160EF00F0000E81B2010E9C
:10097000016EE2EF04F009016FC9E9FF70C9EAFFF7
:10098000ECCF74F9ED52EFCF73F9D8907335026E56
:10099000743570C9EAFF6FC9E9FFEC6EED5202C011
:1009A000EFFF6FC971F970C972F970C903F06FC9AF
:1009B000E9FF70C9EAFFECCF74F9ED52EFCF73F99C
:1009C0000001D3D709017351011074C903F072C932
:1009D000EAFF71C9E9FF74C9ECFFED52EF6E000147
:1009E00012000901716B70C903F06FC9E9FF70C98A
:1009F000EAFFECCF73F9ED52EFCF72F9C00E72132C
:100A00000F0E73137251C0080BE1733D09D0010E34
:100A1000716F6FC9E9FF70C9EAFFEC68ED52EF68CA
:100A200071C901F0000127EF05F0692B69510F082A
:100A300024E3010E0901706F070E6F6F00019BDF49
:100A4000010E0901706F070E6F6F0001CAD74E9437
:100A500001B04E844EA410D04EA603D0010E6A6F92
:100A600002D0020E6A6F010108690769B99CF09013
:100A7000F086F19A5180000108D0696B0101086984
:100A80000769B99CF086F19A0001BA9C60EF00F00A
:100A90008E0E006E79C901F078C902F0036A015226
:100AA00009E102C001F0026A080E005E015202E193
:100AB000006A08D0D89001BE04D002360136000684
:100AC000F9D7019E120009017851D8B471D0006E97
:100AD0007C51D8B46DD0002604E3810E002668E274
:100AE00004D07F0E005E64E363E079C980F97D5134
:100AF000801B798F7D8F7B517F03F4CF82F97A51F0
:100B00007E03F4CF03F0F3CF81F97F03F350822704
:100B1000F4508123000E03227B517E03F350822781
:100B2000F4508123000E026A0322022279517F03CE
:100B3000F3508127F4500322000E022279517E03E4
:100B4000F3500326F4500222000E016A01227B5169
:100B50007D03F3508127F4500322000E022201226C
:100B60007A517D03F3500326F4500222000E012235
:100B700079517D03F3500226F4500122002A01BE70
:100B800005D081370336023601360006000E81AFEC
:100B90000AD0032A02220122015005E1025003E19A
:100BA000035001E1002A80BF018E80AF019E04D076
:100BB000006A016A026A036A000112008E0E006E6A
:100BC00009017851005E79C902F07AC901F0028EFC
:100BD000005209E0D890025202E1015204E00232D0
:100BE0000132002EF7D779AF05D0011E021E012A6F
:100BF000D8B4022A000112000901755341E0010135
:100C0000095302E10A533AE00AC179F909C178F9B6
:100C100000013EDF03C07BF902C07AF901C079F917
:100C200000C078F909017F6B7E6B100E7D6F810E1D
:100C30007C6F000148DF03C07BF902C07AF901C074
:100C400079F900C078F9BADF02C077F901C076F906
:100C500077C902F076C901F0023201320232013264
:100C6000023201C06FFF02320230300B006E6E5054
:100C7000CF0B00106E6E0C0E6E6E010103D00901D9
:100C80006E6A010100011200090EEA6E790EE96E2A
:100C9000EF500EE0140E016E006A002EFED7012EFA
:100CA000FBD7BF0E006E002EFED700D0EF2EF2D77E
:100CB00012008B948B840901786B010E776F785149
:100CC000765D0FE303E17751755D0BE3010E796FFC
:100CD0000001DADF8B948B840901772BD8B4782B51
:100CE000EED700011200F298F2926B51790814E0ED
:100CF0006B51830811E06B518D080EE06B51B50804
:100D00000BE06B517B0808E06B518F0805E06B51DD
:100D1000B70802E087533EE0000E4FB8010E006EA8
:100D2000D89000360050036A130FE96E010E0320BD
:100D3000EA6EECCF76F9ED52EFCF75F909017553F4
:100D40000BE1765309E100016B517908D8B402D068
:100D5000090102D04FA80CD001017F530DE180534F
:100D60000BE100016B518308D8B402D0010104D01B
:100D70000601F79B04D001010601F78B578656B296
:100D800007D057B405D0050E00016A6F57840601DD
:100D900042D0000181B03AD04EB005D0010E090119
:100DA000756F000129DF0901766B010E756F000177
:100DB00080DF01015B2BD8B45C2B5C51020811E28F
:100DC000FF0A03E15B51E8080CE24EA005D04E900B
:100DD00000016B6B03D001014E80000117D015D0CC
:100DE00001014EB011D0000187530FE16B6B01017F
:100DF000AA6BA96B74C1A8F173C1A7F1746B736B73
:100E0000766B756B4F8C518C0001C4D70901756BE3
:100E10000001F2DE060101015C6B5B6BF292F2886D
:100E2000F19CF2920001BBEF00F081A403D04E864A
:100E30004E9802D04E964E88696B010E0901706F74
:100E4000070E6F6F000197DDF096B98CF09060EFA0
:100E500000F0F09AF0940101D66BD56BD46BD36B94
:100E6000B36AB26AA08285BC09D09A6B996B986B01
:100E7000976B030E00016A6F34D0010185BA09D067
:100E80009A6B996B986B976B040E00016A6F29D06F
:100E900001019A6B996B986B976B85B605D0010E23
:100EA00000016A6F1ED0010185B405D0020E000159
:100EB0006A6F17D0010185A802D084B20BD056B258
:100EC00008D0050E00016A6F0101C26BC16BC06BD7
:100ED000BF6B06D0519EF094F08AF196A092A19239
:100EE0000001F09460EF00F0B36AB26A010E0101F4
:100EF000D327D8B0D42BD8B4D52BD8B4D62BD6532F
:100F000007E1D55305E1D45303E1D3510B0803E2C4
:100F1000518EA092A192A192000160EF00F0F29692
:100F200081CF6EF0F2906EBD0CD081A804D04EB08F
:100F300002D04E8C05D081BA02D04E8A01D0F28602
:100F400001D0F286F29060EF00F025303375207901
:100F50002025303375008B948B841200FCDF080150
:100F6000DA6BD96BDA51D85D0CE303E1D951D75D67
:100F700008E3050E006E002EFED7D92BD8B4DA2B6D
:100F8000F1D700011200F2CFD7F8F29E636AD6C8FB
:100F900062FF7F9C7F9E7F8061500801D7BFF28EE9
:100FA000010FD86FF250006EF29E636AD6C862FFDE
:100FB000D8C861FF7F9C7F9E7F840F01550E7E6E97
:100FC000AA0E7E6E7F820050F2127FB2FED77F940F
:100FD0000801D86B640ED76F0001C0DF0501E65130
:100FE0000801D625D76F0501E6510801D625D86F2F
:100FF000F2CFD9F8F29E636AD8C862FF7F9C7F9EC9
:101000007F806150D9BFF28E010FD86FF250006E11
:10101000F29E636AD7C862FFD8C861FF7F9C7F9E3B
:101020007F840F01550E7E6EAA0E7E6E7F82005069
:10103000F2127FB2FED77F940801D86B640ED76F8F
:1010400000018CDF12000801E951070B006EE93145
:10105000016E013201321F0E01160150EB25E96EBF
:10106000000EEC21EA6E016A012A002A01D0013645
:10107000002EFDD7EA5303E00150EF1203D0011E0A
:101080000150EF16000112000801E75302E1000EC3
:1010900001D0010EE8C8E9F8EA6F0F0EEC6F890E77
:1010A000EB6F0001D0DFE8C8E9F80801EA6B0F0E2A
:1010B000EC6F920EEB6F0001C6DF12000801D26BDD
:1010C000D251130812E3036AD251270FE96E070EBB
:1010D0000320EA6EEF6A036AD2513B0FE96E070EF6
:1010E0000320EA6EEF6AD22BEBD707014F6B506BF0
:1010F000516B00011200F2CFDEF8F29EDDC863FFF3
:10110000DCC862FF7F9C7F9E7F8061500801DEBF4C
:10111000F28E016E00011200F2CFDEF8F29EDDC801
:1011200063FFDCC862FF7F9C7F9E7F806150080167
:10113000DEBFF28EDF6F010EDC25E06F000EDD21D9
:10114000E16FF2CFE2F8F29EE1C863FFE0C862FF10
:101150007F9C7F9E7F806150E2BFF28EE06FDFC890
:1011600003F0E051016E0350026E0001120008010D
:10117000DD6BF250006EF29EDBC863FFDAC862FFDF
:10118000DCC861FF7F9C7F9E7F840F01550E7E6EC1
:10119000AA0E7E6E7F820050F2127FB2FED77F943D
:1011A0001B6AF2BE1B8EF29E050E0901796F0001CB
:1011B0006BDD1BBEF28E0801DDC801F000011200DC
:1011C0000801DF6BDEC8E0F8F250006EF29EDCC86A
:1011D00063FFDBC862FFE0C861FF7F9C7F9E7F8466
:1011E0000F01550E7E6EAA0E7E6E7F820050F212A7
:1011F0007FB2FED77F941B6AF2BE1B8EF29E050E55
:101200000901796F000140DD1BBEF28E010E08015D
:10121000DB25E06F000EDC21E16FDDC8E2F8F25063
:10122000006EF29EE1C863FFE0C862FFE2C861FFA2
:101230007F9C7F9E7F840F01550E7E6EAA0E7E6E70
:101240007F820050F2127FB2FED77F941B6AF2BEFB
:101250001B8EF29E050E0901796F000115DD1BBE84
:10126000F28E0801DFC801F000011200030E080130
:10127000DD6FED0EDC6F00013EDF01C07BF0030E81
:101280000801DD6FEE0EDC6F000135DF01C07CF080
:10129000030E0801DD6FEF0EDC6F00013DDF02C0C1
:1012A0000AF101C009F1030E0801DD6FF10EDC6FD8
:1012B000000121DF01C08BF07B3D2ED0280E7B6F1B
:1012C0007C6F01010A6B096B00018B6B030E080137
:1012D000DB6FED0EDA6F7BC0DCF8000148DF030E38
:1012E0000801DB6FEE0EDA6F7CC0DCF800013FDF37
:1012F000030E0801DC6FEF0EDB6F0AC1DEF809C1D7
:10130000DDF800015DDF030E0801DB6FF10EDA6F1F
:101310008BC0DCF800012BDF0AEFDAF0200E956EAF
:101320008C9E956E8C86956E8C8E95EFDAF068C9E2
:101330006BF909016D6B6E6B6C6B6D6B6E6B6A504C
:1013400068C96AFF6830FEE367C96BF96E6B6C6B46
:101350006D6B6E6B6A5067C96AFF6830FEE366C9E1
:101360006AF96B6B6C6B6D6B6A5066C96AFF6830AB
:10137000FEE30001D0EF09F0A20E676E688C200E2C
:10138000956E8C9E6A50030E6A6E6830FEE364C9E7
:1013900069F963C968F962C967F961C966F9C7D7AC
:1013A0006A506A6A6830FEE36ACF65F9200E956E6E
:1013B0008C8E090165C901F000011200D8B204D079
:1013C000090EEA6E180EE96E006A016A026A036A83
:1013D0000901186B196B1A6B1B6B1751161115113C
:1013E00014112CE0200E1C6FD890103711371237D3
:1013F0001337183719371A371B3717511B5D08E198
:1014000016511A5D05E11551195D02E11451185D7F
:101410000FE31451185F1551D8A0153D195F1651EF
:10142000D8A0163D1A5F1751D8A0173D1B5FD88072
:1014300000360136023603361C2FD6D718C9EFFF07
:1014400019C9ECFF1AC9ECFF1BC9ECFF000112001F
:101450000901606B616B010E626FDA6AD96A090E6D
:10146000656F580E646F090EEA6E5C0EE96E65C911
:10147000E2FF64C9E1FF62C963F9D890E550EE026A
:10148000F3506023F4506123632FF7D760C9DEFF68
:1014900061C960F9616BD8B0612B642BD8B4652B3E
:1014A000622B62510508DFE100011200B60E006EEA
:1014B000036A026A016A0801F851F911FA11FB1175
:1014C00002E1006A0DD0D89001BE09D0F837F93793
:1014D000FA37FB37033602360136002EF4D7019E69
:1014E0000001120009012351D8B4A5D02F6F275154
:1014F000D8B4A1D02F5F05E37F0E2F27D8B09BD0A3
:1015000006D0810E2F5FD8A096D0D8B494D02FC922
:1015100000F0016A026A036A2E6B24C92DF92D8F2F
:1015200025C92CF926C92BF9190E2F6F2A512B5FCB
:101530000DE2010E2C5F0AE22D5F08E22E5F06E24B
:101540002E2B2D2B2C2B2A512B2728D029512C5FC9
:1015500012E2010E2D5F0FE22E5F0DE22E2B2D2BDE
:1015600029512C272A512B2719E32C2B17E12D2B3E
:1015700015E12E2B13D0285180092D5F0EE2010EAC
:101580002E5F0BE22E2B285180092D2729512C2765
:10159000E9E32D2BE7E12E2BE5D703802F2F01D098
:1015A0000BD0D8902B372C372D372E37D8900336C9
:1015B000023601363037BAD730A106D0D890013282
:1015C00002320332303302D0000635E030BF1ED085
:1015D000D8902B372C372D372E372A512B5F07E227
:1015E000010E2C5F04E22D5F02E22E5F1AE3295107
:1015F0002C5F05E2010E2D5F02E22E5F12E32851FF
:1016000080092D5F03E2010E2E5F0BE3032A09E13F
:10161000022A07E1012A05E1002A0DE00132023227
:10162000033224C92FF928512F1B2FAF02D0018E6E
:1016300006D0019E04D0006A016A026A036A0001B2
:1016400012000801CE5316E00C0E6E6E380E6F6E4F
:101650006E50CF0B10096E6E0101CA6BC96B070E7D
:10166000C86FD00EC76FC66BC56BC46BC36B568695
:1016700004D008016E6A56960101000112000801AB
:10168000CE6BCE51020820E38B801B6AF2BE1B8E0C
:10169000F29E0901766BFA0E756F000159EC06F0A7
:1016A0001BBEF28E8B901B6AF2BE1B8EF29E09014E
:1016B000766BFA0E756F000159EC06F01BBEF28EC8
:1016C00004000801CE2BDDD70001120009010A51E8
:1016D0000C03F3CF01F0F4CF00F00D03F35000261C
:1016E0000B510C03F3500020026E0001120033DC9A
:1016F000B00E676E3F0E68168394090159A183905E
:1017000059B18380A19A679E5AC96AFFA1AAFED7E0
:10171000838400011200B00E676E3F0E6816090147
:10172000596B300E5A6F0001E2DF0901596B750EDB
:101730005A6F0001DCDF010E0901596F100E5A6F5C
:101740000001D5DF010E0901596F9F0E5A6F00018C
:10175000CEDF0901596B150E5A6F0001C8DF010E6B
:101760000901596F050E5A6F0001C1DF010E090111
:10177000596F540E5A6F0001BADF0901596B5C0EA4
:101780005A6F0001B4DF100E0901006F00519E086E
:101790001BE3050E016F0151530814E3010E596F4D
:1017A0005A6B0001A4DF010E0901596F5A6B000149
:1017B0009EDF010E0901596F5A6B000198DF090184
:1017C000012BE9D7002BE2D7596B250E5A6F000188
:1017D0008EDF5780120055C964F954C963F953C9A3
:1017E00062F952C961F9C8DD01C05AF9010E090157
:1017F00052255D6F000E53215E6F000E54215F6F06
:10180000000E5521606F646F5FC963F95EC962F9AC
:101810005DC961F90001B0DD01C05BF9020E09018B
:1018200052255D6F000E53215E6F000E54215F6FD5
:10183000000E5521606F646F5FC963F95EC962F97C
:101840005DC961F9000198DD01C05CF90901596BBE
:101850005AC958F95BC957F95CC956F956C900F01D
:1018600057C901F058C902F059C903F0000112002C
:10187000B00E676E3F0E68160501F96BF86BF76BDB
:10188000F66B09015851000A000108E0010A32E034
:10189000030A5DE0010AD8B487D0B4D00901646BB3
:1018A000636B626B616B000167DD01C059F909016F
:1018B000646B636B626B010E616F00015DDD01C0E3
:1018C0005AF90901646B636B626B020E616F000170
:1018D00053DD0501F96B59C9F8F55AC9F7F501C08F
:1018E000F6F5080EEE6F030EEF6F080EEC6F020EAA
:1018F000ED6FB3D00901646B636B626B030E616FB4
:1019000000013ADD01C059F90901646B636B626B38
:10191000040E616F000130DD01C05AF90901646BEA
:10192000636B626B050E616F000126DD0501F96BCB
:1019300059C9F8F55AC9F7F501C0F6F5080EEE6F6A
:10194000030EEF6F080EEC6F020EED6F86D00901EB
:10195000646B636B626B060E616F00010DDD01C08D
:1019600059F90901646B636B626B070E616F0001CB
:1019700003DD01C05AF90901646B636B626B080EE9
:10198000616F0001F9DC0501F96B59C9F8F55AC915
:10199000F7F501C0F6F5100EEE6F040EEF6F100EA6
:1019A000EC6F020EED6F59D00901646B636B626BD3
:1019B000090E616F0001E0DC01C059F90901646B97
:1019C000636B626B0A0E616F0001D6DC01C05AF9CD
:1019D0000901646B636B626B0B0E616F0001CCDC01
:1019E0000501F96B59C9F8F55AC9F7F501C0F6F5C3
:1019F0004B0EEE6F640EEF6F180EEC6F070EED6F6F
:101A00002CD000010901646B636B626B616B000198
:101A1000B3DC01C059F90901646B636B626B010EA1
:101A2000616F0001A9DC01C05AF90901646B636BA5
:101A3000626B020E616F00019FDC0501F96B59C9F1
:101A4000F8F55AC9F7F501C0F6F5080EEE6F030E6A
:101A5000EF6F080EEC6F020EED6F00013DEF0DF021
:101A6000B00E676E3F0E6816050E09014F27100E67
:101A7000502751C958F90001FBD609014E51C00B3E
:101A8000C00809E1600E4E5D0501F06FF16BF26B6D
:101A9000F36B08D00901200E4E5D0501F06FF16B6C
:101AA000F26BF36B09015151030819E1F3C55BF9BE
:101AB000F2C55AF9F1C559F9F0C558F95F6B5E6B7B
:101AC0005D6BEEC55CF90001C3DC03C0F3F502C039
:101AD000F2F501C0F1F500C0F0F510D009010501E3
:101AE000EF510901586F09E0D8900501F037F1373F
:101AF000F237F3370901582FF7D700010501F651E6
:101B0000F027F751F123F851F223F951F32309019A
:101B1000596B300E5A6F0001EADD0901596B750EE1
:101B20005A6F0001E4DD010E0901596F50C95AF9DD
:101B30000001DDDD0501EC5109015025586F010E52
:101B4000596F58C95AF90001D2DD0901596B150EB8
:101B50005A6F0001CCDD010E0901596F4FC95AF9C6
:101B60000001C5DD0501ED5109014F25586F010E3A
:101B7000596F58C95AF90001BADD0901596B5C0E59
:101B80005A6F0001B4DD0501EE51F02502013F6FEF
:101B9000000E0501F1210201406F000E0501F22146
:101BA0000201416F000E0501F3210201426FF3C5EE
:101BB00057F9F2C556F9F1C555F9F0C554F90901BF
:101BC00057510201425DD8A06ED015E1090156516E
:101BD0000201415DD8A067D00EE109015551020113
:101BE000405D61E308E13F510901545DD8A002D096
:101BF000020159D0020157C964F956C963F955C9A0
:101C000062F954C961F90001BCEC09F001C0F4F5B6
:101C10000501F56BF551070829E3F451800B11E13B
:101C20000901535307E0010E596F5A6900015FDD46
:101C300006D00901010E596F5A6B000158DD11D011
:101C400005010901535307E0010E596F5A6B00015A
:101C50004EDD07D00901010E596F52C95AF9000132
:101C600046DDD8900501F437F52BD4D70901515141
:101C700003080FE0535307E0010E596F5A69000142
:101C800036DD06D00901010E596F5A6B00012FDDB8
:101C90000901010E5427D8B0552BD8B4562BD8B40F
:101CA000572B8ED702010901596B250E5A6F00017F
:101CB0001EDD1200B00E676E3F0E68160901086B3C
:101CC000120E0501E82509014D6F000E0501E921FD
:101CD00009014E6F000E0501EA2109014F6F000E48
:101CE0000501EB210901506FD8900235026E0335D2
:101CF000036E02C000F0016E026A036A00504D27B5
:101D000001504E2302504F230350502302514D25C2
:101D10003B6F03514E213C6F000E4F213D6F000E73
:101D200050213E6F3EC955F93DC954F93CC953F99C
:101D30003BC952F900014FDD03C042F902C041F92D
:101D400001C040F900C03FF9030E09013B254D6F6A
:101D5000000E3C214E6F000E3D214F6F000E3E21C4
:101D6000506F556F4FC954F94EC953F94DC952F9C7
:101D7000000131DD03C046F902C045F901C044F954
:101D800000C043F909013F51435D476F4051445939
:101D9000486F42C94CF941C94BF940C94AF93FC99A
:101DA00049F94C51465D32E30BE14B51455D2EE361
:101DB00007E14A51445D2AE303E14351495D26E2CC
:101DC0000851082B036A090F016E090E032201C096
:101DD0004DF903C04EF94CC964F94BC963F94AC9BE
:101DE00062F949C961F90001BCEC09F04EC9EAFF8A
:101DF0004DC9E9FF01C0EFFF010E09014927D8B025
:101E00004A2BD8B44B2BD8B44C2BCBD7086B4853A8
:101E100003E14751085D26E20851082B036A090FC8
:101E2000E96E090E0320EA6EEFCF4EF904C94FF9AF
:101E300005C950F906C951F9526907C953F900019A
:101E40000FDE0901065303E00651030805E1050111
:101E5000ED510901042705D0010E0501ED25090109
:101E60000427D5D700011200B00E676E3F0E68162A
:101E700009010F6B0F510925E96E000E0A21EA6E68
:101E8000EF5025E00F510F2B0925E96E000E0A21B6
:101E9000EA6EEFCF4EF90BC94FF90CC950F90DC9D5
:101EA00051F952690EC953F90001DADD09010D53E8
:101EB00003E00D51030805E10501ED5109010B2770
:101EC00005D0010E0501ED2509010B27D3D700012F
:101ED000120009010A51016A095D03E209C900F013
:101EE0000CD0006A080E0B6F093700360A51005CEF
:101EF000D8B0006E01360B2FF7D700011200C1C811
:101F0000EAFFC0C8E9FF090110C9EFFFE92AD8B408
:101F1000EA2AEF6A0801C02BD8B4C12B00011200D5
:101F2000015007C909F9640E09010A6F0001D1DFE8
:101F300000C007F90150300E08E1090108A30FD0D5
:101F400008B70DD008B9200E04D0090108970899E8
:101F50000881012601C010F90001D1DF090107C97C
:101F600009F90A0E0A6F0001B4DF00C007F9015039
:101F7000300E08E1090108B70AD008A108D008B955
:101F8000200E0001012601C010F9B9DF0901300E51
:101F9000072707C910F90001B2DF1200B00E676E03
:101FA0003F0E6816050E09010B27100E0C27596B02
:101FB000300E5A6F000177EC0BF00901596B750E6A
:101FC0005A6F000177EC0BF0010E0901596F0CC933
:101FD0005AF9000177EC0BF0100E09010C25FF0FE8
:101FE000186F010E596F18C95AF9000177EC0BF000
:101FF0000901596B150E5A6F000177EC0BF0010EB9
:102000000901596F0BC95AF9000177EC0BF0050E65
:1020100009010B25186F010E596F18C95AF90001F3
:1020200077EC0BF00901596B5C0E5A6F000177ECED
:102030000BF00901646B636B626B0C0E616F000146
:10204000BCEC09F001C018F90901646B636B626BA9
:102050000D0E616F0001BCEC09F001C019F9090116
:10206000646B636B626B0E0E616F0001BCEC09F078
:102070000901126B18C911F919C910F901C00FF93A
:102080001B6B1A6B196B0A35006E1935016E1A3508
:10209000026E1B35036E00360136023603360036FB
:1020A0000136023603360036013602360336003674
:1020B000013602360336E00E001600500F2701509D
:1020C00010230250112303501223136B12C917F966
:1020D00011C916F910C915F90FC914F9200E0F25E9
:1020E000006E000E1021016E000E1121026E000E16
:1020F0001221036E1751035C54E30BE11651025C8D
:1021000050E307E11551015C4CE303E10050145D1D
:1021100048E217C964F916C963F915C962F914C907
:1021200061F90001BCEC09F001C00EF90501F56B85
:10213000F551070819E309010E51800B08E1010E62
:10214000596F5A6B000177EC0BF008D00901010EB2
:10215000596F0DC95AF9000177EC0BF0D8900901BD
:102160000E370501F52BE4D7090113A110D0135345
:102170000EE0010E596F5A6B000177EC0BF0010E67
:102180000901596F5A6B000177EC0BF00901132B11
:10219000010E1427D8B0152BD8B4162BD8B4172B92
:1021A0009DD7596B250E5A6F000177EC0BF0E7EFC6
:1021B00010F0B00E676E3F0E681607C90AF908C91D
:1021C0000BF909C90CF909010D690001E7D61200E4
:1021D000090E0901076F4A0E086F5A0E096F0001B8
:1021E000E8DF1200140E0901076F4A0E086F5A0E3D
:1021F000096F0001DEDF25EF12F0080E0901076FFD
:102200004A0E086F140E096F0001D3DF1200140E7E
:102210000901076F4A0E086F140E096F0001C9DF2C
:102220001200120E0901076F4A0E086F5A0E096F4D
:102230000001BFDF5FEF12F01B6AF2BE1B8EF29E41
:102240000901796B6FC078F9000148EC05F01BBEFD
:10225000F28E03C00AF902C009F901C008F900C0F2
:1022600007F91B6AF2BE1B8EF29E0901796B70C0E2
:1022700078F9000148EC05F01BBEF28E0AC926F978
:1022800009C925F908C924F907C923F903C02AF99E
:1022900002C029F901C028F900C027F972EC0AF040
:1022A00003C00AF902C009F901C008F900C007F922
:1022B0001B6AF2BE1B8EF29E03C07BF902C07AF944
:1022C00001C079F900C078F909017F6B7E6B480E77
:1022D0007D6F850E7C6F000163EC05F01BBEF28EF6
:1022E0001B6AF2BE1B8EF29E03C07BF902C07AF914
:1022F00001C079F900C078F9DEEC05F01BBEF28E62
:1023000001C000F909010051630802E2640E006F88
:1023100051A43ED051A615D0200E016F026F036F5D
:10232000046F056F066B090E0A6F010E096F450EEB
:102330000B6F040E0C6F0D6B00C90EF9000194DDDC
:10234000090151B624D0010E0801C16FDB0EC06F28
:1023500000C907F9130E0901086F0001E1DD200E25
:102360000901106F0001CBDD250E0901106F00017E
:10237000C6DD010E09010A6FDB0E096F450E0B6FFA
:10238000040E0C6F0D6B0E6B00016EDD090124D085
:10239000010E0801C16FDB0EC06F00C907F9130EF3
:1023A0000901086F0001BCDD200E0901106F00015A
:1023B000A6DD250E0901106F0001A1DD010E090146
:1023C0000A6FDB0E096F450E0B6F040E0C6F0D6B61
:1023D0000E6B000149DD0901420E00018F6F0901FA
:1023E000005109080BE2400E00018F6F09010051F6
:1023F000630804E23E0E00018F6F090101010953D9
:1024000007E10A5305E1170E00018D6F0ED001019F
:102410000A5308E10951310805E3160E00018D6FDA
:1024200004D00101150E00018D6F8DC007F98FC01A
:1024300008F90901096B0001BCDE6B5163080AE36E
:10244000C7DE6B510A0801E1CDD6D7DE6B5301E13F
:10245000DEDE42D06B5179080AE06B517B0807E061
:102460006B51830804E06B51850801E0C6DE6B51B7
:10247000780825E06B51790822E06B517B081FE05A
:102480006B5182081CE06B51830819E06B51850881
:1024900016E06B518C0813E06B518D0810E06B5106
:1024A0008E080DE06B518F080AE06B51B40807E00D
:1024B0006B51B50804E06B51B70801E0B2D66B511F
:1024C0008C0809E06B518D0806E06B518E0803E023
:1024D0006B518F0801E17CDE1200B00E676E3F0E7B
:1024E00068160901086B120E0501E82509014D6FF8
:1024F000000E0501E92109014E6F000E0501EA21D8
:1025000009014F6F000E0501EB210901506FD890B2
:102510000135026E0235036E02C000F0016E026AE0
:10252000036A00504D2701504E2302504F230350A1
:10253000502301514D253B6F02514E213C6F000E3F
:102540004F213D6F000E50213E6F3EC955F93DC9E8
:1025500054F93CC953F93BC952F90001EBEC0BF0BB
:1025600003C042F902C041F901C040F900C03FF97F
:10257000030E09013B254D6F000E3C214E6F000EEE
:102580003D214F6F000E3E21506F556F4FC954F9DA
:102590004EC953F94DC952F90001EBEC0BF003C0E1
:1025A00046F902C045F901C044F900C043F90901E8
:1025B0003F51435D476F40514459486F42C94CF900
:1025C00041C94BF940C94AF93FC949F94C51465DE7
:1025D00032E30BE14B51455D2EE307E14A51445D87
:1025E0002AE303E14351495D26E20851082B036ABF
:1025F000090F016E090E032201C04DF903C04EF907
:102600004CC964F94BC963F94AC962F949C961F90E
:102610000001BCEC09F04EC9EAFF4DC9E9FF01C059
:10262000EFFF010E09014927D8B04A2BD8B44B2B34
:10263000D8B44C2BCBD7086B485303E14751085D06
:1026400028E20851082B036A090FE96E090E0320DE
:10265000EA6EEFCF4EF903C94FF904C950F905C925
:1026600051F906C952F907C953F9000130EC0DF0D0
:102670000901055303E00551030805E10501ED518A
:102680000901032705D0010E0501ED2509010327E6
:10269000D3D70001120051ACE7D06C5302E14FAC2C
:1026A00017D04F9C8BEC0BF00901036B100E026FDF
:1026B000046B056B020E066F076B00015AEC0EF0FF
:1026C000886B826B4F9EBF6B0601F46B57940001C1
:1026D000B3DD0101A7530AE1A85308E1A95306E1BC
:1026E000AA5304E1AA6BA96BA86BA76BAA5307E1D5
:1026F000A95305E1A85303E1A751050805E2AA6B18
:10270000A96BA86B050EA76FA75306E1A85304E1B8
:10271000A95302E1AA5302E0000E01D0010E080104
:10272000D96F0901036B180E026F070E046F190EA3
:10273000056F066BD9C807F900015AEC0EF00101CC
:10274000A72D06D0A85304E1A95302E1AA5302E041
:10275000000E01D0010E0801DA6F0901026B130EA1
:10276000016F070E036F270E046F056B85C006F916
:10277000DAC807F90001B1DE0101A751020806E13C
:10278000A85304E1A95302E1AA5302E0000E01D0CC
:10279000010E0801D96F0901036B140E026F070EB9
:1027A000046F350E056F066BD9C807F900015AECA6
:1027B0000EF00101A751030806E1A85304E1A95353
:1027C00002E1AA5302E0000E01D0010E0801DA6F07
:1027D0000901026B150E016F070E036F430E046FA4
:1027E000056B85C006F9DAC807F9000176DE01013C
:1027F000A751040806E1A85304E1A95302E1AA5332
:1028000002E0000E01D0010E0801DA6F0901026B2F
:10281000160E016F070E036F510E046F056B85C016
:1028200006F9DAC807F9000158DE0101A7510508C9
:1028300006E1A85304E1A95302E1AA5302E0000E05
:1028400001D0010E0801D96F0901036B110E026F4F
:10285000070E046F5F0E056F066BD9C807F90001FC
:102860005AEC0EF06BC06CF0519C000E016E120021
:10287000200E0801DAA9300EDB6FD9C800F0D9AFFD
:1028800008D0001E002A00C0D9F82D0EDB6FDA8FA9
:10289000DA810150D9C809F9640E09010A6F0001F3
:1028A00069EC0FF000C0D9F8300E01240801DC6F8C
:1028B000D9C809F90A0E09010A6F000169EC0FF085
:1028C000300E00240801DE6F300E0124DD6FDBC8FE
:1028D00000F0300EDC5D04E0DA83DABFDA8512D076
:1028E000DBC8DCF8200EDB6F300EDD5D04E0DA8142
:1028F000DABFDA8307D0D8A4DA8104E1DCC8DDF8D6
:10290000200EDC6FDAB505D0DAB308D0DAB10BD01F
:102910000FD0DBC810F900017FEC0FF0DCC810F914
:1029200000017FEC0FF0DDC810F900017FEC0FF023
:10293000DEC810F900017FEC0FF01200EACF0EF9AB
:10294000E9CF0DF909010739F009096F0927E20FED
:102950000A6F320F0C6F07510F0B0A270A270C273B
:10296000E90F0B6F0B270B2706390F0B0B270C27D3
:102970000B370C370C1F0C3706510F0B0C27093780
:10298000070E086F0A0E0B070C27FDE30A070B273B
:10299000FDE309070A27FDE308070927FDE3090E00
:1029A000EA6E080EE96E070E0D150D9DE926000E64
:1029B000EA22E9500C0804E1EA50090801E10D8D12
:1029C000EF50006E08E10DBD06D00DB916D00DB761
:1029D00002D0200E03D00D870D99300E0026EACFCD
:1029E00007F9E9CF06F900C010F900017FEC0FF0FC
:1029F00007C9EAFF06C9E9FF0901EE500DADD9D7B5
:102A000000011200C69E9E96FBC8C9FF020EC6BEFC
:102A100005D09EA6FED7000EC5BC010E016E1200A9
:102A2000C69CC586C5B6FED700B0C59A00A0C58AAB
:102A3000C588C5B8FED7C9CF01F01200C580C5B0A2
:102A4000FED7AA0E0801FB6F0001DCDF012C01D0CC
:102A50003CD0DAC8FBF8D6DFD9C8FBF8D3DF0801D1
:102A6000FB6B0001CFDFC584C5B4FED7C580C5B000
:102A7000FED7AA0E0801FB6F0001C4DF0801FB6B43
:102A80000001C0DFC582C5B2FED7AB0E0801FB6FE7
:102A90000001B8DF010E006EC3DF0801DC6B01C06E
:102AA000DBF8006A0001BCDF0801DE6B01C0DDF865
:102AB000C584C5B4FED7DDC8DEF8DD6BDD51DB13A0
:102AC000DE51DC13549E07D00001430E0801DC6F79
:102AD000210EDB6F548EDBC801F0DCC802F0000170
:102AE0001200080E0801D96FDA6B0001A7DF02504F
:102AF0002EEF17F00900F6CF07F9F7CF08F9F8CF56
:102B000009F9F5CF10F97FEC0FF007C9F6FF08C9F6
:102B1000F7FF09C9F8FF0901062F01D002D0000113
:102B2000E9D7000112000801DCBF12D00F0E006EC1
:102B3000DB3900160A0E005C03E2300E002602D0DC
:102B4000DC51002600C010F900017FEC0FF00801F5
:102B50000F0EDB170A0EDB5D02E2300E02D0DC9FA7
:102B6000DC51DB27DBC810F900017FEC0FF012000D
:102B7000B00E676E3F0E681609010A6B0A510325F5
:102B8000E96E000E0421EA6EEF5027E00A510A2B8D
:102B90000325E96E000E0421EA6EEFCF4EF905C958
:102BA0004FF906C950F907C951F908C952F909C9BD
:102BB00053F9000130EC0DF00901075303E0075110
:102BC000030805E10501ED510901052705D0010EB6
:102BD0000501ED2509010527D1D7000112006C512F
:102BE0000A080EE08BEC0BF00901036B1A0E026F62
:102BF000046B056B020E066F076B00015AEC0EF0BA
:102C000051AC83D11CEC11F00101AA5307E1A95387
:102C100005E1A85303E1A751020805E2AA6BA96BDD
:102C2000A86B030EA76F0901036B1B0E026F040E46
:102C3000046F1E0E056F010E066F076B00015AEC44
:102C40000EF0010E0801C16FDB0EC06F7BC0D9F81A
:102C5000130EDA6F00010CDE250E0901106F000162
:102C60007FEC0FF0200E0901106F00017FEC0FF0D8
:102C70000101A75306E1A85304E1A95302E1AA53B5
:102C800002E0000E01D0010E0801DB6F010E090108
:102C90000A6FDB0E096F330E0B6F1E0E0C6F010EE9
:102CA0000D6FDBC80EF9000134EC0FF00901036B66
:102CB0001E0E026F040E046F2C0E056F010E066FC0
:102CC000076B00015AEC0EF0010E0801C16FDB0E1C
:102CD000C06F7CC0D9F8130EDA6F0001C9DD250E74
:102CE0000901106F00017FEC0FF0200E0901106F39
:102CF00000017FEC0FF00101A72D06D0A85304E1DD
:102D0000A95302E1AA5302E0000E01D0010E08010E
:102D1000DB6F010E09010A6FDB0E096F330E0B6FBB
:102D20002C0E0C6F010E0D6FDBC80EF9000134EC98
:102D30000FF00901036B1C0E026F040E046F3A0EB4
:102D4000056F010E066F076B00015AEC0EF0010EC5
:102D50000801C16FDB0EC06F020EE96E0AC107F9F0
:102D600009C106F90001EADD250E0901106F000115
:102D70007FEC0FF0200E0901106F00017FEC0FF0C7
:102D80000101A751020806E1A85304E1A95302E199
:102D9000AA5302E0000E01D0010E0801DB6F010E04
:102DA00009010A6FDB0E096F330E0B6F3A0E0C6FC1
:102DB000010E0D6FDBC80EF9000134EC0FF00901B4
:102DC000036B1F0E026F040E046F480E056F010E99
:102DD000066F076B00015AEC0EF0930E8C6F8B534D
:102DE00002E1920E8C6F0101A751030806E1A8537E
:102DF00004E1A95302E1AA5302E0000E01D0010E42
:102E00000801DA6F0901036B8CC002F9330E046FFD
:102E1000480E056F010E066FDAC807F900015AEC7B
:102E20000EF009010A6B3F0E096F150E0B6F620E53
:102E30000C6F020E0D6F0E6B000134EC0FF00901E8
:102E40000A6B340E096F2B0E0B6F620E0C6F020EA5
:102E50000D6F0E6B000134EC0FF043D602C0DAF8B0
:102E600001C0D9F8010E0801C16FDB0EC06F5C0E06
:102E7000F66E020EF76E000EF86E070E0901066F71
:102E8000000138DE100EE96E4BC007F94AC006F9A2
:102E900055DD660EF66E020EF76E000EF86E030E2E
:102EA0000901066F000126DE100EE96E4DC007F91C
:102EB0004CC006F943DD6C0EF66E020EF76E000E86
:102EC000F86E050E0901066F000114DEDAC8DBF8A2
:102ED000370E0801DC6F000126DED9C8DBF8370E9B
:102EE0000801DC6F00011FDE010E0901046FDB0E1B
:102EF000036F0F0E056F780E066F076B85C008F91C
:102F0000096B000135DE6BC06CF0519C000E016E48
:102F10001200016A026A006A036A0901135102E1A0
:102F2000125118E0100E146FD89010371137003678
:102F300003361351035C02E11251005C07E31251A6
:102F4000005ED8A003061351035ED8800136023616
:102F5000142FEAD70001120009010D51B6080D6FB8
:102F6000036A0EC911F90E8FD8900E330F33103348
:102F700003320232013200320D2FF6D711AF0BD0DF
:102F8000001E011E021E031E002AD8B4012AD8B456
:102F9000022AD8B4032A000112000801F16BF06B79
:102FA000EF6BEE6B01015A6B596B000E4FB8010EBF
:102FB000036A740FE96E000E0320EA6EEF52D8B474
:102FC000A8D01B6AF2BE1B8EF29EEDC879F9ECC840
:102FD00078F9000148EC05F01BBEF28E03C0F5F84D
:102FE00002C0F4F801C0F3F800C0F2F81B6AF2BEA8
:102FF0001B8EF29E03C07BF902C07AF901C079F9F9
:1030000000C078F909017F6B7E6B480E7D6F840EDE
:103010007C6F000163EC05F01BBEF28E03C0F5F877
:1030200002C0F4F801C0F3F800C0F2F8000E4FB887
:10303000010E036A740FE96E000E0320EA6EEF5072
:103040001B6AF2BE1B8EF29E0901796B786F00013C
:1030500048EC05F01BBEF28E1B6AF2BE1B8EF29E80
:10306000F5C87BF9F4C87AF9F3C879F9F2C878F9A8
:1030700003C07FF902C07EF901C07DF900C07CF970
:1030800063EC05F01BBEF28E03C0F5F802C0F4F845
:1030900001C0F3F800C0F2F803C026F902C025F918
:1030A00001C024F900C023F909012A6B296B286BA0
:1030B000800E276F000172EC0AF01B6AF2BE1B8EB5
:1030C000F29E03C07BF902C07AF901C079F900C011
:1030D00078F9DEEC05F01BBEF28E02C05AF101C099
:1030E00059F1000E4FB8010E036A740FE96E000E1D
:1030F0000320EA6EEFCF12F95AC111F959C110F944
:103100000901136B000105DF02C062F101C061F12A
:1031100001011B6AF2BE1B8EF29EEDC879F9ECC864
:1031200078F9000148EC05F01BBEF28E03C0F5F8FB
:1031300002C0F4F801C0F3F800C0F2F81B6AF2BE56
:103140001B8EF29E03C07BF902C07AF901C079F9A7
:1031500000C078F909017F6B7E6B480E7D6F840E8D
:103160007C6F000163EC05F01BBEF28E03C0F5F826
:1031700002C0F4F801C0F3F800C0F2F8000E4FB836
:10318000010E006ED89000360050036A130FE96EEE
:10319000010E0320EA6EECCF03F0ED52EF501B6AF4
:1031A000F2BE1B8EF29E0901786F03C079F900010F
:1031B00048EC05F01BBEF28E1B6AF2BE1B8EF29E1F
:1031C000F5C87BF9F4C87AF9F3C879F9F2C878F947
:1031D00003C07FF902C07EF901C07DF900C07CF90F
:1031E00063EC05F01BBEF28E03C0F1F802C0F0F8EC
:1031F00001C0EFF800C0EEF8F1C810F9F0C80FF9FF
:10320000EFC80EF9EEC80DF9A7DE1200F9C800F9F3
:103210000801FD510901001B00AF06D0D894D890D9
:103220000801F9BFD88045D0F9C800F9FCC801F9F8
:103230000801F8510901015F09E000BF02D008014F
:1032400038D0D850010AD86E080133D0FDC801F932
:103250000801F9510901015F09E000BF02D008012E
:1032600028D0D850010AD86E080123D0FEC801F931
:103270000801FA510901015F09E000BF02D008010D
:1032800018D0D850010AD86E080113D0FFC801F930
:103290000801FB510901015F0AE000BF02D00801EB
:1032A00008D0D850010AD86E080103D00901D8907F
:1032B000080100011200F1C8FBF8F0C8FAF8EFC8E5
:1032C000F9F8EEC8F8F856EC0AF003C0FBF802C0B3
:1032D000FAF801C0F9F800C0F8F8F3C80BF9F2C821
:1032E0000AF909010D6B320E0C6F000166EC0BF050
:1032F00002C003F001501B6AF2BE1B8EF29E090150
:10330000786F02C079F9000148EC05F01BBEF28E1F
:10331000FBC826F9FAC825F9F9C824F9F8C823F931
:1033200003C02AF902C029F901C028F900C027F911
:1033300072EC0AF003C0F7F802C0F6F801C0F5F825
:1033400000C0F4F8F7C8FBF8F6C8FAF8F5C8F9F8C1
:10335000F4C8F8F80801FF6BFE6BFD6BFC6B000115
:1033600055DF01E206E10801F76BF66BF56BF46BD4
:1033700000011B6AF2BE1B8EF29EF7C87BF9F6C8ED
:103380007AF9F5C879F9F4C878F9DEEC05F01BBED6
:10339000F28E02501200E9500901086F3B0E0F6FC8
:1033A0009A0E0E6FCA0E0D6F0C6B0A0E0A6FD88242
:1033B000090EEA6E040EE96E07C913F906C912F97F
:1033C00005C911F904C910F90FC917F90EC916F981
:1033D0000DC915F90CC914F90001DEEC09F0015012
:1033E000005213E109010A51010AD8A402D00001D8
:1033F0000CD008510CE00F0B0A5D01E010E208BF91
:103400000ED008BD04D0200E03D00901086B300E89
:10341000002600C010F900017FEC0FF00901D892DE
:103420000FC913F90EC912F90DC911F90CC910F918
:10343000176B166B156B0A0E146F0001DEEC09F0AA
:1034400003C00FF902C00EF901C00DF900C00CF95C
:1034500009010A2FACD7000112001B6AF2BE1B8EB5
:10346000F29E05C979F904C978F948EC05F01BBE4C
:10347000F28E03C026F902C025F901C024F900C06C
:1034800023F909012A6B296B700E286F840E276FB0
:10349000000172EC0AF003C00BF902C00AF901C086
:1034A00009F900C008F91B6AF2BE1B8EF29E07C91B
:1034B00079F906C978F948EC05F01BBEF28E03C015
:1034C00026F902C025F901C024F900C023F9090139
:1034D0002A6B296B700E286F840E276F000172EC27
:1034E0000AF003C00FF902C00EF901C00DF900C0C7
:1034F0000CF91B6AF2BE1B8EF29E0BC97BF90AC93E
:103500007AF909C979F908C978F9DEEC05F01BBE2A
:10351000F28E01C077F005C911F904C910F909014B
:10352000136B3C0E126F0001F4DC00C078F01B6AD4
:10353000F2BE1B8EF29E0FC97BF90EC97AF90DC936
:1035400079F90CC978F9DEEC05F01BBEF28E01C0EA
:1035500079F007C911F906C910F90901136B3C0E7E
:10356000126F0001D6DC00C07AF012000901196B5D
:10357000186B176B166B1D6B1C6B1B6B1A6B1E6B22
:103580000F510B5D1E6F00016B5114080CE06B5165
:10359000770803E26B51800806E26B518B0809E261
:1035A0006B51940806E30901155302E10BC91EF99A
:1035B00000011B6AF2BE1B8EF29E0901796B1EC9C7
:1035C00078F9000148EC05F01BBEF28E03C022F929
:1035D00002C021F901C020F900C01FF903C026F97B
:1035E00002C025F901C024F900C023F909012A6BA2
:1035F000240E296F740E286F920E276F000172EC53
:103600000AF003C019F902C018F901C017F900C087
:1036100016F91B6AF2BE1B8EF29E14C979F913C902
:1036200078F948EC05F01BBEF28E1B6AF2BE1B8EC9
:10363000F29E19C97BF918C97AF917C979F916C91F
:1036400078F903C07FF902C07EF901C07DF900C09E
:103650007CF963EC05F01BBEF28E03C022F902C0B8
:1036600021F901C020F900C01FF91B6AF2BE1B8EB0
:10367000F29E03C07BF902C07AF901C079F900C05B
:1036800078F909017F6B7E6B480E7D6F850E7C6F2C
:10369000000163EC05F01BBEF28E03C01DF902C0F1
:1036A0001CF901C01BF900C01AF91AC900F01BC9A6
:1036B00001F01CC902F01DC903F01200E950090114
:1036C000056F0451076F22E01B6AF2BE1B8EF29E4B
:1036D00003C97BF902C97AF901C979F900C978F9F6
:1036E0007F6B7E6B200E7D6F820E7C6F000163EC22
:1036F00005F01BBEF28E03C003F902C002F901C03F
:1037000001F900C000F90901072FDED703C910F93C
:1037100002C90FF901C90EF900C90DF900011CDC3D
:1037200003C003F902C002F901C001F900C000F9A9
:10373000090103AF0DD00507058B001F011F021FF4
:10374000031F002BD8B4012BD8B4022BD8B4032B01
:103750003B0E0C6F9A0E0B6FCA0E0A6F096B0A0EA6
:10376000076F0451D8B4052BD882090EEA6EE96AB6
:1037700003C913F902C912F901C911F900C910F9F5
:103780000CC917F90BC916F90AC915F909C914F9B1
:103790000001DEEC09F00150005213E10901042997
:1037A000075DD8A402D000010CD005510DE00F0B2D
:1037B000075D01E044E205BF42D005BD05D0200E03
:1037C00037D0200E0901051705AB0FD0059B04511A
:1037D000D8A405070050056F2D0E106F00017FEC77
:1037E0000FF009010551006E056B0451075D0DE1F5
:1037F0000050056F2E0E106F00017FEC0FF00901D5
:103800000551006E200E0517000E300E05AB10D0CE
:10381000059B0451D8A405070050056F2D0E106FAD
:1038200000017FEC0FF009010551006E056B300EB1
:10383000002600C010F900017FEC0FF00901D892BA
:103840000CC913F90BC912F90AC911F909C910F900
:10385000176B166B156B0A0E146F0001DEEC09F086
:1038600003C00CF902C00BF901C00AF900C009F944
:103870000901072F79D7000112000801D99151AC35
:103880004BEF22F000016C51140833E00101326B60
:10389000010E316F00018BEC0BF00901036B0A0E76
:1038A000026F046B056B020E066F076B00015AEC8A
:1038B0000EF0CE6B6C5178081CE0000E4FB8010E74
:1038C000006ED89000360050036A0F0FE96E010EAB
:1038D0000320EA6EECCFEDF8ED52EFCFECF8CDEC33
:1038E00017F003C0A6F102C0A5F101C0A4F100C009
:1038F000A3F16C517808D8A49DD0646B0701046BC8
:103900004F960001616BCC2D01D002D0010E616F8A
:10391000589E4F9A01019E6B9D6B9C6B9B6B000E9A
:103920004FB8010E006ED89000360050036A130F96
:10393000016E010E032201C0EAF8080103C0EBF892
:10394000000E4FB8010E006ED89000360050036A8A
:103950000F0FE96E010E0320EA6EECCFF3F8ED5283
:10396000EFCFF2F8A6C1F1F8A5C1F0F8A4C1EFF8C5
:10397000A3C1EEF800019FDCEBC8EAFFEAC8E9FF4B
:1039800002C0ECFFED5201C0EFFF000E4FB8010E78
:10399000006ED89000360050036A130FE96E010ED6
:1039A0000320EA6EECCFEBF8ED52EFCFEAF8080116
:1039B000EA5307E1EB5305E10101486B476B25D062
:1039C0000801000E4FB8010E006ED890003600506E
:1039D000036A130FE96E010E0320EA6EECCFEBF8D9
:1039E000ED52EFCFEAF8000E4FB8010E036A740FE4
:1039F000E96E000E0320EA6EEF50EA250101476FE1
:103A0000000E0801EB210101486F5951A3259B6F5E
:103A10005A51A4219C6F000EA5219D6F000EA62176
:103A20009E6F0601F79B0101AE6BAD6BAC6BCCC01A
:103A3000ABF100010101AA5307E1A95305E1A85325
:103A400003E1A751090805E2AA6BA96BA86B0A0E4E
:103A5000A76FA7530AE1A85308E1A95306E1AA53A7
:103A600004E1AA6BA96BA86BA76B00011CEC11F019
:103A7000CC5105E0010A08E0030A0BE00ED0C80EA5
:103A80008C6F020EBF6F09D0C90E8C6F080EBF6F0E
:103A900004D0CA0E8C6F030EBF6F0101A75306E15D
:103AA000A85304E1A95302E1AA5302E0000E01D099
:103AB000010E0801EB6F0901036B8CC002F9040EC3
:103AC000046F120E056F010E066FEBC807F90001B7
:103AD0005AEC0EF00801DD6BDC6BDB6BDA6BD99115
:103AE0000001CC2D03D00801D98100010801D9B112
:103AF00014D001015951A3250801DA6F01015A516F
:103B0000A4210801DB6F000E0101A5210801DC6F73
:103B1000000E0101A6210801DD6F010EC16FDB0E51
:103B2000C06F510E0901106F00017FEC0FF03D0EC8
:103B30000901106F00017FEC0FF0060EE96EDDC881
:103B400007F9DCC806F9DBC805F9DAC804F923DC93
:103B50005B0E0901106F00017FEC0FF0430E0901AD
:103B6000106F00017FEC0FF0010E0901046FDB0EF6
:103B7000036F040E056F1E0E066F010E076F85C0E2
:103B800008F9096B0001B8EC15F00801DF6BDE6B7A
:103B9000D9B11ED0000E4FB8010E006ED89000367D
:103BA0000050036A0F0FE96E010E0320EA6EECCF9E
:103BB0000BF9ED52EFCF0AF909010D6B320E0C6FC4
:103BC000000166EC0BF002C0DFF801C0DEF808016E
:103BD000010EC16FDB0EC06F760EF66E020EF76E31
:103BE000000EF86E030E0901066F00017AEC15F065
:103BF000000EE96EDFC807F9DEC806F99EEC14F086
:103C00005B0E0901106F00017FEC0FF0410E0901FE
:103C1000106F00017FEC0FF0000E0801D9B1010E0A
:103C2000036A840FE96E000E0320EA6EEFCFECF812
:103C30000101A72D06D0A85304E1A95302E1AA531C
:103C400002E0000E01D0010E0801ED6F010E090126
:103C5000046FDB0E036F290E056F1E0E066F010E3B
:103C6000076FECC808F9EDC809F90001B8EC15F0C8
:103C7000000E4FB8010E006ED89000360050036A57
:103C8000130FE96E010E0320EA6EECCF05F9ED5239
:103C9000EFCF04F90901076B066B00012DEC1AF058
:103CA0000801D9A104D00001776B786B0801010EDF
:103CB000C16FDB0EC06F800EF66E020EF76E000E47
:103CC000F86E030E0901066F00017AEC15F077C05B
:103CD00007F9110E0901086F000190EC0FF03A0E80
:103CE0000901106F00017FEC0FF078C007F9010E99
:103CF0000901086F000190EC0FF0200E0901106F10
:103D000000017FEC0FF0730E0901106F00017FECD2
:103D10000FF0000E0801D9B1010E036A840FE96E9D
:103D2000000E0320EA6EEFCFECF80101A751020864
:103D300006E1A85304E1A95302E1AA5302E0000EF0
:103D400001D0010E0801ED6F010E0901046FDB0EB9
:103D5000036F040E056F2C0E066F010E076FECC883
:103D600008F9EDC809F90001B8EC15F0000E0801DA
:103D7000D9B1010E036A840FE96E000E0320EA6ECA
:103D8000EFCFEAF80101A751020806E1A85304E1C8
:103D9000A95302E1AA5302E0000E01D0010E08016E
:103DA000EB6F0901026BB60E016F040E036F2C0E50
:103DB000046F010E056FEAC806F9EBC807F90001A8
:103DC0006DEC12F0000E4FB8010E006ED890003668
:103DD0000050036A130FE96E010E0320EA6EECCF68
:103DE000EBF8ED52EFCFEAF80801EA5323E1EB5389
:103DF00021E1D9B11FD00101A751020806E1A85362
:103E000004E1A95302E1AA5302E0000E01D0010E21
:103E10000801EA6F0901036B900E026F040E046F34
:103E20002C0E056F010E066FEAC807F900015AEC67
:103E30000EF00801000E4FB8010E036A740FE96E10
:103E4000000E0320EA6EEFCFEAF8010EC16FDB0E21
:103E5000C06F8E0EF66E020EF76E000EF86E030E39
:103E60000901066F00017AEC15F0EAC807F9110E96
:103E70000901086F000190EC0FF0200E0901106F8E
:103E800000017FEC0FF0730E0901106F00017FEC51
:103E90000FF00101A751030806E1A85304E1A9535B
:103EA00002E1AA5302E0000E01D0010E0801EC6FFE
:103EB000010E09010A6FDB0E096F290E0B6F2C0E24
:103EC0000C6F010E0D6FECC80EF9000134EC0FF011
:103ED0000801D9910001CC2D01D017D0000E4FB8A8
:103EE000010E006ED89000360050036A130FE96E81
:103EF000010E0320EA6EECCFEBF8ED52EFCFEAF8BB
:103F00000801EA5304E1EB5302E10801D981E30E11
:103F100000018C6F57AA02D0E20E8C6F000E0801D0
:103F2000D9B1010E036A840FE96E000E0320EA6E18
:103F3000EFCFEBF80101A751040806E1A85304E113
:103F4000A95302E1AA5302E0000E01D0010E0801BC
:103F5000EC6F0901026B8CC001F9040E036F3A0E7D
:103F6000046F010E056FEBC806F9ECC807F90001F4
:103F70006DEC12F00801E36BE26B480EE16F850E09
:103F8000E06FD9910001CC5303E10801D981000110
:103F90000801D9B12ED0ED6BEC6B34C1EBF833C115
:103FA000EAF8F16BF06B34C1EFF833C1EEF8EDC80D
:103FB0000EF9ECC80DF934C10CF933C10BF9F1C895
:103FC00012F9F0C811F934C110F933C10FF936C133
:103FD00014F935C113F963C015F90001B6EC1AF0F4
:103FE00003C0E3F802C0E2F801C0E1F800C0E0F865
:103FF0000801010EC16FDB0EC06F470E0901106F83
:1040000000017FEC0FF03D0E0901106F00017FEC05
:104010000FF0020EE96EE3C803F9E2C802F9E1C845
:1040200001F9E0C800F90901046F00015EEC1BF022
:10403000250E0901106F00017FEC0FF0200E090121
:10404000106F00017FEC0FF0200E0901106F0001CE
:104050007FEC0FF0010E0901046FDB0E036F290ED8
:10406000056F3A0E066F010E076F85C008F9096BE0
:104070000001B8EC15F00801E56BE46BD9B110D084
:104080000CC10BF90BC10AF909010D6B320E0C6F53
:10409000000166EC0BF002C0E5F801C0E4F808018D
:1040A000010EC16FDB0EC06F980EF66E020EF76E3A
:1040B000000EF86E030E0901066F00017AEC15F090
:1040C000000EE96EE5C807F9E4C806F99EEC14F0A5
:1040D0005B0E0901106F00017FEC0FF0410E09012A
:1040E000106F00017FEC0FF0000E0801D9B1010E36
:1040F000036A840FE96E000E0320EA6EEFCFECF83E
:104100000101A751050806E1A85304E1A95302E102
:10411000AA5302E0000E01D0010E0801ED6F010E5E
:104120000901046FDB0E036F040E056F480E066F66
:10413000010E076FECC808F9EDC809F90001B8ECE9
:1041400015F00EC105F90DC104F90901076B066BE5
:1041500000012DEC1AF00801D9A104D00001776B01
:10416000786B0801010EC16FDB0EC06FA20EF66EF8
:10417000020EF76E000EF86E030E0901066F0001C5
:104180007AEC15F077C007F9110E0901086F0001EC
:1041900090EC0FF03A0E0901106F00017FEC0FF068
:1041A00078C007F9010E0901086F000190EC0FF0CB
:1041B000200E0901106F00017FEC0FF0730E090152
:1041C000106F00017FEC0FF0000E0801D9B1010E55
:1041D000036A840FE96E000E0320EA6EEFCFECF85D
:1041E0000101A751060806E1A85304E1A95302E121
:1041F000AA5302E0000E01D0010E0801ED6F010E7E
:104200000901046FDB0E036F290E056F480E066F60
:10421000010E076FECC808F9EDC809F90001B8EC08
:1042200015F0000E0801D9B1010E036A840FE96E82
:10423000000E0320EA6EEFCFEAF80101A75106084D
:1042400006E1A85304E1A95302E1AA5302E0000EDB
:1042500001D0010E0801EB6F0901026BB60E016F70
:10426000290E036F480E046F010E056FEAC806F9A8
:10427000EBC807F900016DEC12F0010E8C6F63536F
:1042800008E1BA0E8C6F0701205304E1B90E00015A
:104290008C6F0701000E0801D9B1010E036A840F6B
:1042A000E96E000E0320EA6EEFCFEBF80101A75193
:1042B000070806E1A85304E1A95302E1AA5302E06A
:1042C000000E01D0010E0801EC6F0901026B8CC0D9
:1042D00001F9040E036F560E046F010E056FEBC853
:1042E00006F9ECC807F900016DEC12F00801E76B64
:1042F000E66BD9B104D034C1E7F833C1E6F8010E5A
:10430000C16FDB0EC06FB00EF66E020EF76E000EC0
:10431000F86E030E0901066F00017AEC15F0010E2C
:10432000E96EE7C807F9E6C806F99EEC14F0B70E87
:10433000F66E020EF76E000EF86E030E0901066FA0
:1043400000017AEC15F0000E0801D9B1010E036AE4
:10435000840FE96E000E0320EA6EEFCFECF8010146
:10436000A751080806E1A85304E1A95302E1AA53A2
:1043700002E0000E01D0010E0801ED6F010E0901EF
:10438000046FDB0E036F290E056F560E066F010ECC
:10439000076FECC808F9EDC809F90001B8EC15F091
:1043A0000801E96BE86BD9B104D036C1E9F835C131
:1043B000E8F8010EC16FDB0EC06F460E0901106FE9
:1043C00000017FEC0FF03D0E0901106F00017FEC42
:1043D0000FF0010EE96EE9C807F9E8C806F99EEC8E
:1043E00014F0480E0901106F00017FEC0FF07A0EF7
:1043F0000901106F00017FEC0FF0000E0801D9B128
:10440000010E036A840FE96E000E0320EA6EEFCFFF
:10441000ECF80101A751090806E1A85304E1A953EA
:1044200002E1AA5302E0000E01D0010E0801ED6F77
:10443000010E0901046FDB0E036F040E056F640E9D
:10444000066F010E076FECC808F9EDC809F9000105
:10445000B8EC15F00101A7510A0806E1A85304E1E0
:10446000A95302E1AA5302E0000E01D0010E080197
:10447000EA6F0901036B910E026F040E046F730E55
:10448000056F010E066FEAC807F900015AEC0EF03D
:104490006BC06CF00801519C000E016E000112000F
:1044A0000801DF6BDE6BDD6BDC6B0101846B836B02
:1044B000826B816B0001C05303E1C153D8B4AED00D
:1044C000C253D8B4ABD01B6AF2BE1B8EF29EDBC8BF
:1044D00079F9DAC878F948EC05F01BBEF28E03C012
:1044E000E3F802C0E2F801C0E1F800C0E0F81B6A9E
:1044F000F2BE1B8EF29E03C07BF902C07AF901C0A6
:1045000079F900C078F909017F6B7E6B480E7D6FE9
:10451000840E7C6F000163EC05F01BBEF28E03C0BD
:10452000E3F802C0E2F801C0E1F800C0E0F8C251CF
:10453000C025016E000EC121036E01501B6AF2BE40
:104540001B8EF29E0901786F03C079F9000148ECD7
:1045500005F01BBEF28E1B6AF2BE1B8EF29EE3C8F4
:104560007BF9E2C87AF9E1C879F9E0C878F903C0C3
:104570007FF902C07EF901C07DF900C07CF963ECCF
:1045800005F01BBEF28E03C0E3F802C0E2F801C0E2
:10459000E1F800C0E0F803C026F902C025F901C027
:1045A00024F900C023F909012A6B296B286B800EBE
:1045B000276F000172EC0AF003C010F902C00FF976
:1045C00001C00EF900C00DF9ACEC17F003C084F186
:1045D00002C083F101C082F100C081F1C251C02547
:1045E000016E000EC121036E01C0E0F80801E16F09
:1045F000D89284C113F983C112F982C111F981C122
:1046000010F90901176B166B156F01C014F9000141
:10461000DEEC09F001C086F100C085F11B6AF2BE34
:104620001B8EF29EDBC879F9DAC878F948EC05F000
:104630001BBEF28E03C0E3F802C0E2F801C0E1F84D
:1046400000C0E0F81B6AF2BE1B8EF29E03C07BF92D
:1046500002C07AF901C079F900C078F909017F6BCD
:104660007E6B480E7D6F840E7C6F000163EC05F05D
:104670001BBEF28E03C0E3F802C0E2F801C0E1F80D
:1046800000C0E0F81B6AF2BE1B8EF29E80C179F971
:104690007FC178F948EC05F01BBEF28E1B6AF2BEB2
:1046A0001B8EF29EE3C87BF9E2C87AF9E1C879F97A
:1046B000E0C878F903C07FF902C07EF901C07DF936
:1046C00000C07CF963EC05F01BBEF28E03C0DFF87E
:1046D00002C0DEF801C0DDF800C0DCF8DFC810F968
:1046E000DEC80FF9DDC80EF9DCC80DF9ACEC17F027
:1046F00012000900F55211E0F6CF00F9F7CF01F9E9
:10470000F8CF02F9F5CF10F97FEC0FF000C9F6FFF2
:1047100001C9F7FF02C9F8FFECD712000801D991CF
:1047200051AC54D300016C511E0822E08BEC0BF00D
:104730000901036B720E026F046B056B020E066FAC
:10474000076B00015AEC0EF06C5182080DE07EC13F
:10475000DBF87DC1DAF8A4DE03C0BAF102C0B9F11A
:1047600001C0B8F100C0B7F1040EBF6F010ECE6FEB
:104770001CEC11F06C51820823E1646B0701046B9F
:104780004F960601F7914F9A01017F5305E180533F
:1047900003E1486B476B0AD00001C05101017F253E
:1047A000476F0001C15101018021486F0601F79B4D
:1047B0000101AE6BAD6B7EC1ACF17DC1ABF100010F
:1047C0001CEC11F00101AA5307E1A95305E1A8531C
:1047D00003E1A751060805E2AA6BA96BA86B070EB7
:1047E000A76FAA530CE1A9530AE1A85308E1A75106
:1047F000010805E3AA6BA96BA86B010EA76F08015E
:10480000D99101017F5305E1805303E10801D9816A
:1048100001018151B7250801DA6F01018251B821E8
:104820000801DB6F01018351B9210801DC6F01012F
:104830008451BA210801DD6F010EC16FDB0EC06F1C
:10484000510E0901106F00017FEC0FF03D0E0901C0
:10485000106F00017FEC0FF0070EE96EDDC807F95D
:10486000DCC806F9DBC805F9DAC804F9CBEC19F0A5
:10487000C20EF66E020EF76E000EF86E030E090100
:10488000066F00017AEC15F0010E0901046FDB0ED2
:10489000036F040E056F1E0E066F010E076F85C0B5
:1048A00008F9096B0001B8EC15F07EC10BF97DC168
:1048B0000AF909010D6B320E0C6F000166EC0BF06A
:1048C00002C0DBF801C0DAF8010E0801C16FDB0E8F
:1048D000C06F490E0901106F00017FEC0FF03D0E13
:1048E0000901106F00017FEC0FF0000EE96EDBC8CC
:1048F00007F9DAC806F99EEC14F0CC0EF66E020E3B
:10490000F76E000EF86E030E0901066F00017AECD7
:1049100015F00101A72D06D0A85304E1A95302E127
:10492000AA5302E0000E01D0010E0801DC6F010E57
:1049300009010A6FDB0E096F290E0B6F1E0E0C6F3B
:10494000010E0D6FDCC80EF9000134EC0FF0E30E20
:104950008C6F57AC02D0E20E8C6F000E0801D9B1FB
:10496000010E036A840FE96E000E0320EA6EEFCF9A
:10497000DBF80101A751020806E1A85304E1A9539D
:1049800002E1AA5302E0000E01D0010E0801DC6F23
:104990000901026B8CC001F9040E036F2C0E046F29
:1049A000010E056FDBC806F9DCC807F900016DECE4
:1049B00012F080C105F97FC104F90901076B066B8C
:1049C00000012DEC1AF0010E0801C16FDB0EC06F63
:1049D000D00EF66E020EF76E000EF86E030E090191
:1049E000066F00017AEC15F077C007F9110E090186
:1049F000086F000190EC0FF03A0E0901106F0001F2
:104A00007FEC0FF078C007F9010E0901086F000173
:104A100090EC0FF0200E0901106F00017FEC0FF0F9
:104A2000730E0901106F00017FEC0FF00101A75117
:104A3000030806E1A85304E1A95302E1AA5302E0E6
:104A4000000E01D0010E0801DC6F010E09010A6F92
:104A5000DB0E096F290E0B6F2C0E0C6F010E0D6F04
:104A6000DCC80EF9000134EC0FF001017F5320E1A6
:104A700080531EE1A751030806E1A85304E1A9539E
:104A800002E1AA5302E0000E01D0010E0801DA6F24
:104A90000901036B900E026F290E046F2C0E056F37
:104AA000010E066FDAC807F900015AEC0EF0010199
:104AB000010E0801C16FDB0EC06FDE0EF66E020E36
:104AC000F76E000EF86E040E0901066F00017AEC15
:104AD00015F0000EE96EC1C007F9C0C006F99EECE2
:104AE00014F0200E0901106F00017FEC0FF0730E1F
:104AF0000901106F00017FEC0FF00101A7510408BC
:104B000006E1A85304E1A95302E1AA5302E0000E12
:104B100001D0010E0801DC6F010E09010A6FDB0EE6
:104B2000096F040E0B6F3A0E0C6F010E0D6FDCC88F
:104B30000EF9000134EC0FF0010E0801C16FDB0E1D
:104B4000C06FEA0EF66E020EF76E000EF86E040EDF
:104B50000901066F00017AEC15F0C2C007F9110EC9
:104B60000901086F000190EC0FF0200E0901106F91
:104B700000017FEC0FF0730E0901106F00017FEC54
:104B80000FF00101A751050806E1A85304E1A9535C
:104B900002E1AA5302E0000E01D0010E0801DC6F11
:104BA000010E09010A6FDB0E096F290E0B6F3A0E19
:104BB0000C6F010E0D6FDCC80EF9000134EC0FF024
:104BC000010E0801C16FDB0EC06F530E0901106F9B
:104BD00000017FEC0FF03D0E0901106F00017FEC2A
:104BE0000FF0020EE96EC6C003F9C5C002F9C4C0D9
:104BF00001F9C3C000F9010E0901046F00015EEC68
:104C00001BF0020E0801C16F170EC06FF40EF66E96
:104C1000020EF76E000EF86E00016BDD0101A75168
:104C2000060806E1A85304E1A95302E1AA5302E0F1
:104C3000000E01D0010E0801DC6F020E09010A6F9F
:104C4000170E096F290E0B6F480E0C6F010E0D6FBA
:104C5000DCC80EF9000134EC0FF00101A751060881
:104C600006E1A85304E1A95302E1AA5302E0000EB1
:104C700001D0010E0801DC6F010E09010A6FDB0E85
:104C8000096F290E0B6F480E0C6F010E0D6FDCC8FB
:104C90000EF9000134EC0FF07EC10BF97DC10AF969
:104CA00009010D6B320E0C6F000166EC0BF002C0B7
:104CB000DBF801C0DAF81B6AF2BE1B8EF29E02C05E
:104CC00079F901C078F948EC05F01BBEF28E03C0FB
:104CD00026F902C025F901C024F900C023F9C6C095
:104CE0002AF9C5C029F9C4C028F9C3C027F972EC54
:104CF0000AF003C010F902C00FF901C00EF900C09C
:104D00000DF9ACEC17F003C0BEF102C0BDF101C05B
:104D1000BCF100C0BBF1010E0801C16FDB0EC06F1A
:104D20006A0E0901106F00017FEC0FF03D0E0901C2
:104D3000106F00017FEC0FF0030EE96EBEC107F9A2
:104D4000BDC106F9BCC105F9BBC104F9CBEC19F032
:104D5000060EF66E030EF76E000EF86E070E0901D2
:104D6000066F00017AEC15F0010E0901046FDB0EED
:104D7000036F040E056F480E066F010E076F85C0A6
:104D800008F9096B0001B8EC15F00101A7510708FB
:104D900006E1A85304E1A95302E1AA5302E0000E80
:104DA00001D0010E0801DA6F0901036B910E026F49
:104DB000040E046F730E056F010E066FDAC807F953
:104DC00000015AEC0EF06BC06CF00801519C000E13
:104DD000016E00011200800ED8A202D00901111B41
:104DE0000901166B176B0DC915F91151151B0C51E3
:104DF000D8B4E0D0146F14C900F01051D8B4E3D087
:104E0000145FD8B483D03EE311C91AF91A8F12C9BE
:104E100019F913C918F9176BD8901A3319331833C5
:104E20001733142FF8D715AF03D01681E0D01691A1
:104E300014911689090EEA6E0F0EE96EEBD01699E1
:104E400015BF0AD014A113D01A33193318331733EE
:104E5000002AD8B4C7D00BD01ABF0CD0D8901737BF
:104E6000183719371A370006D8B4BCD0F5D7168DC5
:104E70006DD0169D0DC915F915AF02D01A8FABD0A4
:104E80001A9FA9D010C914F914C900F00C51145F6D
:104E90000DC91AF91A8F0EC919F90FC918F9176B2C
:104EA000D8901A33193318331733142FF8D715AF96
:104EB00003D016839CD016931491168B090EEA6EBC
:104EC000130EE96EA7D0169B15BF0AD014A113D0FC
:104ED0001A33193318331733002AD8B483D00BD0C0
:104EE0001ABF0CD0D8901737183719371A37000661
:104EF000D8B478D0F5D7168F29D0169F11C915F9D7
:104F000015AF02D01A8F67D01A9F65D011C91AF950
:104F10001A8F12C919F913C918F915AF04D01A9FBD
:104F2000168565D01695176B1491090EEA6E0F0E53
:104F3000E96E70D015BF1CD00DC915F914A106D0AB
:104F40001A33193318331733002A4CE017AF0BD03C
:104F5000182B09E1192B07E11A2B05E11A33193334
:104F60001833002A3FE016BD84D716BFC6D71CD021
:104F7000800E1A1B1AAF04D03AD011C915F90AD005
:104F80000DC915F91A5306E1195304E1185302E14A
:104F9000006A21D01ABF08D0D890173718371937B0
:104FA0001A37002EF7D71ED015AF02D01A8F13D0A4
:104FB0001A9F11D010C900F011C91AF912C919F9B4
:104FC00013C918F908D00CC900F00DC91AF90EC997
:104FD00019F90FC918F91AC901F019C902F018C94D
:104FE00003F034D0006A016A026A036A2FD0176B9B
:104FF000181F191F1A1F171F172B05E1182B03E184
:10500000192B01E11A2B16B112D716B354D716B5C6
:1050100089D7B3D7EF50182705E3192B03E11A2BD3
:10502000D8B41481ED52EF50192703E31A2BD8B4EA
:105030001481ED52EF50EFBE01D0800A1A27D8B08C
:10504000148116B9FCD616BB3ED774D700011200E6
:105050001B6AF2BE1B8EF29EE7C879F9E6C878F9A2
:1050600048EC05F01BBEF28E03C026F902C025F9FC
:1050700001C024F900C023F909012A6B296B480EED
:10508000286F840E276F000172EC0AF003C0EBF862
:1050900002C0EAF801C0E9F800C0E8F8D89203C0FD
:1050A0000FF902C00EF901C00DF900C00CF9090199
:1050B000136B126B116B7E0E106F00018CDE1B6A7E
:1050C000F2BE1B8EF29E03C07BF902C07AF901C0CA
:1050D00079F900C078F9DEEC05F01BBEF28E02C053
:1050E000E9F801C0E8F802C00BF901C00AF90901AA
:1050F0000D6B320E0C6F000166EC0BF002C003F07A
:1051000002C002F012001B6AF2BE1B8EF29EE7C8BC
:1051100079F9E6C878F948EC05F01BBEF28E03C0B9
:1051200026F902C025F901C024F900C023F90901BC
:105130002A6B296B200E286F820E276F000172ECFC
:105140000AF003C0EBF802C0EAF801C0E9F800C0B9
:10515000E8F8D89203C00FF902C00EF901C00DF9AA
:1051600000C00CF90901136B126B116B7E0E106FEE
:10517000000131DE1B6AF2BE1B8EF29E03C07BF97A
:1051800002C07AF901C079F900C078F9DEEC05F0C7
:105190001BBEF28E02C0E9F801C0E8F802C00BF9AC
:1051A00001C00AF909010D6B0A0E0C6F000166ECD3
:1051B0000BF002C003F002C002F012001B6AF2BE44
:1051C0001B8EF29EE7C879F9E6C878F948EC05F03D
:1051D0001BBEF28E03C026F902C025F901C024F9D6
:1051E00000C023F909012A6B296B286B7F0E276FFA
:1051F000000172EC0AF003C0EBF802C0EAF801C04B
:10520000E9F800C0E8F8D89203C00FF902C00EF91F
:1052100001C00DF900C00CF90901136B126B116B81
:105220007E0E106F0001D7DD1B6AF2BE1B8EF29E50
:1052300003C07BF902C07AF901C079F900C078F99E
:10524000DEEC05F01BBEF28E02C0E9F801C0E8F802
:10525000080101C001F002C002F00001120051ACCF
:10526000D6EF30F00801DF9100016C5150083EE0AC
:105270000601F79B00016C51530805E00101326BF8
:10528000010E316F00018BEC0BF00901036B070E6F
:10529000026F046B056B020E066F076B00015AEC80
:1052A0000EF0050EBF6F020ECE6F6C51B4080DE10B
:1052B0000101AE6BAD6B4FC2ACF14EC2ABF1AA6B4C
:1052C000A96BA86B080EA76F00010101A751080880
:1052D0000CE1A8530AE1A95308E1AA5306E1AE6B19
:1052E000AD6B4FC2ACF14EC2ABF100010101AA534C
:1052F00007E1A95305E1A85303E1A7510A0805E214
:10530000AA6BA96BA86B0A0EA76FAA530CE1A9534D
:105310000AE1A85308E1A751080805E3AA6BA96BA5
:10532000A86B080EA76F00011CEC11F0010E8C6F2A
:105330000101A75306E1A85304E1A95302E1AA53CE
:1053400002E0000E01D0010E0801E66F0901026BB8
:105350008CC001F9040E036F1E0E046F010E056F61
:1053600085C006F9E6C807F900016DEC12F0010EE0
:105370000801C16FDB0EC06F0E0EF66E030EF76EE6
:10538000000EF86E030E0901066F00017AEC15F0AD
:10539000010EE96E45C207F944C206F99EEC14F00D
:1053A000150EF66E030EF76E000EF86E030E090171
:1053B000066F00017AEC15F00101A72D06D0A85365
:1053C00004E1A95302E1AA5302E0000E01D0010E4C
:1053D0000801E76F010E0901046FDB0E036F290E50
:1053E000056F1E0E066F010E076F85C008F9E7C82E
:1053F00009F90001B8EC15F0010E0801C16FDB0ED0
:10540000C06F1A0EF66E030EF76E000EF86E030EE6
:105410000901066F00017AEC15F0010EE96E47C232
:1054200007F946C206F99EEC14F00101A7510208E3
:1054300006E1A85304E1A95302E1AA5302E0000ED9
:1054400001D0010E0801E76F010E0901046FDB0EA8
:10545000036F040E056F2C0E066F010E076F85C0DB
:1054600008F9E7C809F90001B8EC15F045C211F9CF
:1054700044C210F9030E0901136FE80E126F000108
:1054800089EC17F002C003F001501B6AF2BE1B8EBC
:10549000F29E0901786F02C079F9000148EC05F02D
:1054A0001BBEF28E03C0DEF802C0DDF801C0DCF8DE
:1054B00000C0DBF8020143532DE0D89044350801C9
:1054C000E46F020145350801E56FE8CF11F9E4C842
:1054D00010F9030E0901136FE80E126F000189EC39
:1054E00017F002C003F001501B6AF2BE1B8EF29E41
:1054F0000901786F02C079F9000148EC05F01BBE84
:10550000F28E03C0DEF802C0DDF801C0DCF800C096
:10551000DBF802011B6AF2BE1B8EF29EDEC87BF92D
:10552000DDC87AF9DCC879F9DBC878F90001DEEC6E
:1055300005F01BBEF28E010E08010124D96F000E8A
:105540000220DA6FDEC8FBF8DDC8FAF8DCC8F9F82B
:10555000DBC8F8F8FF6BFE6BFD6B7F0EFC6F000184
:1055600006EC19F005E30801DA6B010ED96F0001B2
:105570000801DA5305E1020148510801D95D02E34F
:10558000D9C848F2E06BDF910201475306E146516A
:10559000010803E30801DF8102010801DFB102D045
:1055A00048C2E0F8010EC16FDB0EC06F220EF66E2E
:1055B000030EF76E000EF86E030E0901066F000170
:1055C0007AEC15F0010E0801E46F200E0901106F4E
:1055D00000017FEC0FF00801E42FF7D7E0C807F9CE
:1055E000130E0901086F000190EC0FF0280EF66E03
:1055F000030EF76E000EF86E030E0901066F000130
:105600007AEC15F00101A751030806E1A85304E163
:10561000A95302E1AA5302E0000E01D0010E0801D5
:10562000E76F010E0901046FDB0E036F290E056F92
:105630002C0E066F010E076F85C008F9E7C809F93F
:105640000001B8EC15F0010E0801C16FDB0EC06F50
:105650002C0EF66E030EF76E000EF86E030E0901A7
:10566000066F00017AEC15F0010E0801E46F200EC0
:105670000901106F00017FEC0FF00801E42FF7D74C
:1056800049C207F9130E0901086F000190EC0FF0F1
:105690000101A751040806E1A85304E1A95302E15E
:1056A000AA5302E0000E01D0010E0801E76F010EBF
:1056B0000901046FDB0E036F040E056F3A0E066FCF
:1056C000010E076F85C008F9E7C809F90001B8ECB9
:1056D00015F0010E0201465D0801E46F000E0201A3
:1056E00047590801E56FE8CF0BF9E4C80AF9090149
:1056F0000D6B48C20CF9000166EC0BF002C0E5F836
:1057000001C0E4F845C211F944C210F9030E0901C1
:10571000136FE80E126F000189EC17F002C003F05E
:1057200001500801E425016EE551032201501B6A76
:10573000F2BE1B8EF29E0901786F03C079F9000159
:1057400048EC05F01BBEF28E03C0DEF802C0DDF8A7
:1057500001C0DCF800C0DBF8020143534CE0010E4D
:10576000465D0801E46F000E020147590801E56F2C
:10577000E8CF0BF9E4C80AF909010D6B48C20CF92E
:10578000000166EC0BF002C0E5F801C0E4F8D89027
:10579000020144350801E66F020145350801E76F53
:1057A000E8CF11F9E6C810F9030E0901136FE80EEE
:1057B000126F000189EC17F002C003F001500801DC
:1057C000E425016EE551032201501B6AF2BE1B8ED7
:1057D000F29E0901786F03C079F9000148EC05F0E9
:1057E0001BBEF28E03C0DEF802C0DDF801C0DCF89B
:1057F00000C0DBF802010801DA6B320ED96FFB6BD7
:10580000FA6B480EF96F840EF86FDEC8FFF8DDC83A
:10581000FEF8DCC8FDF8DBC8FCF8000106EC19F066
:1058200002E2D8A410D11B6AF2BE1B8EF29EDEC823
:105830007BF9DDC87AF9DCC879F9DBC878F9DEECE8
:1058400005F01BBEF28E02C0E5F801C0E4F802C00C
:10585000E7F801C0E6F828EC28F002C0DAF801C049
:10586000D9F81B6AF2BE1B8EF29EDEC87BF9DDC83A
:105870007AF9DCC879F9DBC878F9DEEC05F01BBEF3
:10588000F28E02C0E5F801C0E4F802C0E7F801C0FA
:10589000E6F828EC28F002C0E5F801C0E4F81B6A3D
:1058A000F2BE1B8EF29E02C079F901C078F948EC75
:1058B00005F01BBEF28E03C0FBF802C0FAF801C06F
:1058C000F9F800C0F8F8DEC8FFF8DDC8FEF8DCC85B
:1058D000FDF8DBC8FCF806EC19F001E222E11B6AD6
:1058E000F2BE1B8EF29EDEC87BF9DDC87AF9DCC8F9
:1058F00079F9DBC878F9DEEC05F01BBEF28E02C048
:10590000E5F801C0E4F802C0E7F801C0E6F828ECC9
:1059100028F0320E08010124D96F000E0220DA6F40
:105920000001DEC8FBF8DDC8FAF8DCC8F9F8DBC80E
:10593000F8F80801FF6BFE6B7A0EFD6F880EFC6FA6
:10594000000106EC19F0D8A07ED01B6AF2BE1B8EB7
:10595000F29EDEC87BF9DDC87AF9DCC879F9DBC8CC
:1059600078F9DEEC05F01BBEF28E02C0E5F801C04E
:10597000E4F802C0E7F801C0E6F883EC28F002C0C2
:10598000DAF801C0D9F81B6AF2BE1B8EF29EDEC89F
:105990007BF9DDC87AF9DCC879F9DBC878F9DEEC87
:1059A00005F01BBEF28E02C0E5F801C0E4F802C0AB
:1059B000E7F801C0E6F883EC28F002C0E5F801C082
:1059C000E4F81B6AF2BE1B8EF29E02C079F901C098
:1059D00078F948EC05F01BBEF28E03C0FBF802C05C
:1059E000FAF801C0F9F800C0F8F8DEC8FFF8DDC821
:1059F000FEF8DCC8FDF8DBC8FCF806EC19F001E2A3
:105A000022E11B6AF2BE1B8EF29EDEC87BF9DDC866
:105A10007AF9DCC879F9DBC878F9DEEC05F01BBE51
:105A2000F28E02C0E5F801C0E4F802C0E7F801C058
:105A3000E6F883EC28F00A0E08010124D96F000E65
:105A40000220DA6F000102014B510801DA5D0AE31E
:105A500005E102014A510801D95D04E3DAC84BF2BD
:105A6000D9C84AF2E26BE16BDF91020149510108AA
:105A700003E30801DF8102010801DFB104D04BC25A
:105A8000E2F84AC2E1F8010EC16FDB0EC06F340EBE
:105A9000F66E030EF76E000EF86E030E0901066F28
:105AA00000017AEC15F0010EE96EE2C807F9E1C8D1
:105AB00006F99EEC14F03B0EF66E030EF76E000E28
:105AC000F86E030E0901066F00017AEC15F0010172
:105AD000A751050806E1A85304E1A95302E1AA531E
