:100000003BEFCFF084EF35F0046ED8CF05F0E0CFB2
:1000100006F00001E9CF0CF0EACF07F0E1CF08F0DD
:10002000E2CF09F0D9CF0AF0DACF0BF0F3CF12F01C
:10003000F4CF13F0FACF14F0F5CF15F0F6CF16F099
:10004000F7CF17F0F8CF18F0FBCF19F000C00EF083
:1000500001C00FF002C010F003C011F0F2AA34EF9B
:1000600000F0F2B4F7EF00F09DA03AEF00F09EB080
:10007000CDEF0EF0A0A240EF00F0A1B268EF14F0B7
:10008000F2A846EF00F0F2B200EF26F09DAA4CEF86
:1000900000F09EBAA1EF1CF0B9A052EF00F0BAB088
:1000A000D8EF11F0B9A258EF00F0BAB219EF02F090
:1000B000B9A45EEF00F0BAB45DEF13F0B9A664EF37
:1000C00000F0BAB662EF03F0B9A86AEF00F0BAB870
:1000D00074EF17F0B9AA70EF00F0BABA5BEF19F03D
:1000E000B9AC76EF00F0BABC18EF23F00EC000F008
:1000F0000FC001F010C002F011C003F00CC0E9FF06
:1001000007C0EAFF078E08C0E1FF09C0E2FF0AC08E
:10011000D9FF0BC0DAFF12C0F3FF13C0F4FF14C005
:10012000FAFF15C0F5FF16C0F6FF17C0F7FF18C09D
:10013000F8FF19C0FBFF045006C0E0FF05C0D8FF60
:100140001000256620560D0A0000256620560D0A6F
:100150000000256C752075410D0A000025662056AB
:100160000D0A0000256620560D0A0000256C75203A
:1001700075410D0A00000601AE6BAD6BB06BAF6B45
:10018000C282C2B2FED7C3CFAFF6C4CFB0F6C2B2FE
:10019000FED7030143510601AF5F0301445106013D
:1001A000B05BB0BF05D0B05306E1AF51000803E328
:1001B000AE6BAD6B04D0B0C6AEF6AFC6ADF6ADC695
:1001C00001F0AEC602F000011200010E0601AD5FA3
:1001D0000CE3060EEA6EAD0EE96EEF5006E0040E7B
:1001E000006E002EFED7EF2EFAD700011200040198
:1001F0004A53D8A4A1D0C1C0D7FFC0C0D6FF375042
:1002000007081BE100017A51785DD8B402D00401DF
:1002100014D07B51795DD8B402D004010ED07C514A
:100220007A5DD8B402D0040108D07D517B5DD8B48A
:1002300002D0040102D02586040125A60AD037A2E7
:1002400008D0CD90CF68FA0ECE6E45C041F044C0C4
:1002500040F025A80BD03750050808E1B190B368ED
:10026000FA0EB26E47C043F046C042F02488000E3A
:10027000956E8C90250E006E002EFED7000E966EA9
:100280008D8E4F0E006E002EFED700D0000E956EA4
:100290008C887B800001835307E1825305E1815301
:1002A00003E180517C0802E237B00BD08F5307E1A5
:1002B0008E5305E18D5303E18C517C0803E237A690
:1002C00001D038D02AA61BD0350E006E002EFED7E6
:1002D000180E016EC250830B0110C26E000E016E2B
:1002E000C150F80B0110C16E350E006E002EFED706
:1002F00042DF02C0D7F001C0D6F02A961BD0350EDF
:10030000006E002EFED7040E016EC250830B01104A
:10031000C26E000E016EC150F80B0110C16E350E99
:10032000006E002EFED727DF02C0D3F001C0D2F04E
:100330002A8628807BD004014A2D77D00001682BC3
:100340006951685D05E2C1C0D7FFC0C0D6FF6ED05D
:100350000401715303E01FBE01D071072B96000109
:10036000686BC1C0D7FFC0C0D6FF040171535AE00B
:10037000000E956E8C9E250E006E002EFED7CD9041
:10038000B190C7C0CFFFC6C0CEFFCDC0B3FFCCC0B9
:10039000B2FF416A406A436A426ACD80B180000E72
:1003A000966E8D844F0E006E002EFED700D0900EFC
:1003B000946E8B840F013685300E0601AD6F0001FF
:1003C00004DF200E016EC250830B0110C26E000EBE
:1003D000016EC150F80B0110C16E250E006E002E8B
:1003E000FED7C9DE02C0E7F001C0E6F0350E006EB0
:1003F000002EFED7240E016EC250830B0110C26E78
:10040000000E016EC150F80B0110C16E250E006E7A
:10041000002EFED7B0DE02C0E3F001C0E2F0288477
:1004200005D00401D59E010E6D6F0001F29476EFA8
:1004300000F0722B6C51725D05E2C3C07DFFC2C03B
:100440007CFF3BD1835307E1825305E1815303E1F4
:1004500080517C0802E237B00BD08F5307E18E53F6
:1004600005E18D5303E18C517C0831E237A62FD092
:10047000180E016EC250830B0110C26E000E016E89
:10048000C150F80B0110C16E250E006E002EFED774
:1004900072DE02C0D7F001C0D6F0350E006E002E1D
:1004A000FED7040E016EC250830B0110C26E000E07
:1004B000016EC150F80B0110C16E250E006E002EAA
:1004C000FED759DE02C0D3F001C0D2F02880726B93
:1004D0007B90C3C07DFFC2C07CFF000E956E8C98E0
:1004E000250E006E002EFED7302C6BD037A069D0C1
:1004F000000E966E8D9EC5C03FFFC4C03EFF935355
:1005000007E1925305E1915303E190517C080FE21A
:10051000000E956E8C804F0E006E002EFED700D020
:10052000000E956E8C860F013D8149D00001000EB2
:10053000956E8C80350E006E002EFED7000E956EE7
:100540008C860F013D812AA81DD0350E006E002E2D
:10055000FED7140E016EC250830B0110C26E000E46
:10056000016EC150F80B0110C16E350E006E002EE9
:10057000FED7000100DE02C0D9F001C0D8F02A98F1
:100580001DD00F01350E006E002EFED7040E016E39
:10059000C250830B0110C26E000E016EC150F80BE9
:1005A0000110C16E350E006E002EFED70001E3DD96
:1005B00002C0D5F001C0D4F02A8828800F017ED077
:1005C000000137A669D0000E966E8D9EC5C03FFF14
:1005D000C4C03EFF9F5307E19E5305E19D5303E1D5
:1005E0009C517C080FE2000E956E8C804F0E006EC1
:1005F000002EFED700D0000E956E8C860F013D8137
:1006000049D00001000E956E8C80350E006E002ED4
:10061000FED7000E956E8C860F013D812AA81DD055
:10062000350E006E002EFED7140E016EC250830BE5
:100630000110C26E000E016EC150F80B0110C16EA8
:10064000350E006E002EFED7000195DD02C0D9F0F8
:1006500001C0D8F02A981DD00F01350E006E002E73
:10066000FED7040E016EC250830B0110C26E000E45
:10067000016EC150F80B0110C16E350E006E002ED8
:10068000FED7000178DD02C0D5F001C0D4F02A8881
:1006900028800F0113D00001000E956E8C902498D5
:1006A00025A602D0CD80259625A805D0375005086F
:1006B00002E1B18025981F8428800F01BA920001C1
:1006C00076EF00F0732B6D51735D05E2C5C03FFFFF
:1006D000C4C03EFFC5D0736B0F013D91C5C03FFF45
:1006E000C4C03EFF302C3CD037A03AD00001935319
:1006F00007E1925305E1915303E190517C082FE209
:10070000140E016EC250830B0110C26E000E016EFA
:10071000C150F80B0110C16E250E006E002EFED7E1
:100720002ADD02C0D9F001C0D8F0350E006E002ECF
:10073000FED7040E016EC250830B0110C26E000E74
:10074000016EC150F80B0110C16E250E006E002E17
:10075000FED711DD02C0D5F001C0D4F0288039D019
:1007600000019F5307E19E5305E19D5303E19C5116
:100770007C082FE2140E016EC250830B0110C26E72
:10078000000E016EC150F80B0110C16E250E006EF7
:10079000002EFED7F0DC02C0D9F001C0D8F0350E33
:1007A000006E002EFED7040E016EC250830B0110A6
:1007B000C26E000E016EC150F80B0110C16E250E05
:1007C000006E002EFED7D7DC02C0D5F001C0D4F0F9
:1007D0002880000E956E8C98956E8C96966E8D9EE8
:1007E000956E8C90249825A602D0CD80259625A8BC
:1007F00005D03750050802E1B1802598835307E101
:10080000825305E1815303E180517C0802E237B055
:100810000BD08F5307E18E5305E18D5303E18C51CB
:100820007C0804E237A602D01F841AD0835309E162
:10083000825307E1815305E180517C0802E337B020
:100840000BD08F530DE18E530BE18D5309E18C5189
:100850007C0806E337A604D02AA601D001D01F8465
:10086000BA9676EF00F08E0E006EB8C601F0B7C6ED
:1008700002F0036A015209E102C001F0026A080EA7
:10088000005E015202E1006A08D0D89001BE04D097
:10089000023601360006F9D7019E12000601B75153
:1008A000D8B4A5D0C36FBB51D8B4A1D0C35F05E302
:1008B0007F0EC327D8B09BD006D0810EC35FD8A0CF
:1008C00096D0D8B494D0C3C600F0016A026A036A15
:1008D000C26BB8C6C1F6C18FB9C6C0F6BAC6BFF6FC
:1008E000190EC36FBE51BF5F0DE2010EC05F0AE279
:1008F000C15F08E2C25F06E2C22BC12BC02BBE5112
:10090000BF2728D0BD51C05F12E2010EC15F0FE2C8
:10091000C25F0DE2C22BC12BBD51C027BE51BF2704
:1009200019E3C02B17E1C12B15E1C22B13D0BC5129
:100930008009C15F0EE2010EC25F0BE2C22BBC5107
:100940008009C127BD51C027E9E3C12BE7E1C22BD4
:10095000E5D70380C32F01D00BD0D890BF37C03765
:10096000C137C237D890033602360136C437BAD7FA
:10097000C4A106D0D890013202320332C43302D06F
:10098000000635E0C4BF1ED0D890BF37C037C1378E
:10099000C237BE51BF5F07E2010EC05F04E2C15F14
:1009A00002E2C25F1AE3BD51C05F05E2010EC15F02
:1009B00002E2C25F12E3BC518009C15F03E2010E93
:1009C000C25F0BE3032A09E1022A07E1012A05E1DC
:1009D000002A0DE0013202320332B8C6C3F6BC5120
:1009E000C31BC3AF02D0018E06D0019E04D0006AA3
:1009F000016A026A036A000112008E0E006E06018F
:100A0000B351005EB4C602F0B5C601F0028E0052CA
:100A100009E0D890025202E1015204E002320132B0
:100A2000002EF7D7B4AF05D0011E021E012AD8B49C
:100A3000022A00011200800ED8A202D00601BC1BBF
:100A40000601C16BC26BB8C6C0F6BC51C01BB75122
:100A5000D8B4DFD0BF6F006EBB51D8B4E3D0BF5F56
:100A6000D8B483D03EE3BCC6C5F6C58FBDC6C4F6B8
:100A7000BEC6C3F6C26BD890C533C433C333C233CA
:100A8000BF2FF8D7C0AF03D0C181E0D0C191BF91D3
:100A9000C189060EEA6EBA0EE96EEBD0C199C0BFED
:100AA0000AD0BFA113D0C533C433C333C233002A25
:100AB000D8B4C7D00BD0C5BF0CD0D890C237C3377D
:100AC000C437C5370006D8B4BCD0F5D7C18D6DD0BA
:100AD000C19DB8C6C0F6B8AF02D0C58FABD0C59F18
:100AE000A9D0BBC6BFF6BBC600F0B751BF5FB8C642
:100AF000C5F6C58FB9C6C4F6BAC6C3F6C26BD890E0
:100B0000C533C433C333C233BF2FF8D7C0AF03D00C
:100B1000C1839CD0C193BF91C18B060EEA6EBE0EFD
:100B2000E96EA7D0C19BC0BF0AD0BFA113D0C53307
:100B3000C433C333C233002AD8B483D00BD0C5BF6B
:100B40000CD0D890C237C337C437C5370006D8B4E5
:100B500078D0F5D7C18F29D0C19FBCC6C0F6BCAF35
:100B600002D0C58F67D0C59F65D0BCC6C5F6C58FFE
:100B7000BDC6C4F6BEC6C3F6C0AF04D0C59FC1850E
:100B800065D0C195C26BBF91060EEA6EBA0EE96ED2
:100B900070D0C0BF1CD0B8C6C0F6BFA106D0C53348
:100BA000C433C333C233002A4CE0C2AF0BD0C32BD3
:100BB00009E1C42B07E1C52B05E1C533C433C333B9
:100BC000002A3FE0C1BD84D7C1BFC6D71CD0800E6C
:100BD000C51BC5AF04D03AD0BCC6C0F60AD0B8C653
:100BE000C0F6C55306E1C45304E1C35302E1006AF1
:100BF00021D0C5BF08D0D890C237C337C437C53756
:100C0000002EF7D71ED0C0AF02D0C58F13D0C59F1E
:100C100011D0BBC600F0BCC6C5F6BDC6C4F6BEC684
:100C2000C3F608D0B7C600F0B8C6C5F6B9C6C4F654
:100C3000BAC6C3F6C5C601F0C4C602F0C3C603F007
:100C400034D0006A016A026A036A2FD0C26BC31FE4
:100C5000C41FC51FC21FC22B05E1C32B03E1C42B58
:100C600001E1C52BC1B112D7C1B354D7C1B589D7E2
:100C7000B3D7EF50C32705E3C42B03E1C52BD8B48A
:100C8000BF81ED52EF50C42703E3C52BD8B4BF8119
:100C9000ED52EF50EFBE01D0800AC527D8B0BF811A
:100CA000C1B9FCD6C1BB3ED774D700011200B8C68B
:100CB000BFF60601BC51BF1BBFAF05D0D894D8907A
:100CC000B8BFD8802FD0B8C6BFF6BBC6C0F6B751E4
:100CD000C05F06E0BFAF26D0D850010AD86E22D040
:100CE000BCC6C0F6B851C05F06E0BFAF1BD0D8503D
:100CF000010AD86E17D0BDC6C0F6B951C05F06E074
:100D0000BFAF10D0D850010AD86E0CD0BEC6C0F606
:100D1000BA51C05F06E0BFAF05D0D850010AD86E07
:100D200001D0D890000112000601B751B608B76F84
:100D3000036AB8C6BBF6B88FD890B833B933BA33A4
:100D40000332023201320032B72FF6D7BBAF0BD0DD
:100D5000001E011E021E031E002AD8B4012AD8B4A8
:100D6000022AD8B4032A000112000601B751D8B4F0
:100D700071D0006EBB51D8B46DD0002604E3810E53
:100D8000002668E204D07F0E005E64E363E0B8C62C
:100D9000BFF6BC51BF1BB88FBC8FBA51BE03F4CF96
:100DA000C1F6B951BD03F4CF03F0F3CFC0F6BE03D3
:100DB000F350C127F450C023000E0322BA51BD03E3
:100DC000F350C127F450C023000E026A032202220E
:100DD000B851BE03F350C027F4500322000E022284
:100DE000B851BD03F3500326F4500222000E016AED
:100DF0000122BA51BC03F350C027F4500322000E65
:100E000002220122B951BC03F3500326F4500222FE
:100E1000000E0122B851BC03F3500226F450012207
:100E2000002A01BE05D0C03703360236013600065F
:100E3000000EC0AF0AD0032A02220122015005E1B0
:100E4000025003E1035001E1002ABFBF018EBFAF92
:100E5000019E04D0006A016A026A036A000112005E
:100E60000601BA6BB96B780EB86F830EB76FB6C652
:100E7000BEF6B5C6BDF6B4C6BCF6B3C6BBF6000139
:100E800016DF31E3456A446A0601BA6B240EB96F76
:100E9000740EB86F930EB76FB6C6BEF6B5C6BDF684
:100EA000B4C6BCF6B3C6BBF60001F8DC03C0BAF6A4
:100EB00002C0B9F601C0B8F600C0B7F635DF03C00E
:100EC000DFF102C0DEF101C0DDF100C0DCF1000E97
:100ED000D8800101DC550001C66F000E0101DD550F
:100EE0000001C76FC9D1B6C6BAF6B5C6B9F6B4C661
:100EF000B8F6B3C6B7F60601BE6BBD6BBC6B800E11
:100F0000BB6F0001D4DE01E248E1456A280E446E61
:100F100045C0B8F644C0B7F6A6DCB6C6BAF6B5C644
:100F2000B9F6B4C6B8F6B3C6B7F603C0BEF602C08B
:100F3000BDF601C0BCF600C0BBF617DF0601BA6BF8
:100F4000240EB96F740EB86F930EB76F03C0BEF660
:100F500002C0BDF601C0BCF600C0BBF600019EDCBD
:100F600003C0BAF602C0B9F601C0B8F600C0B7F6C1
:100F7000DBDE03C0DFF102C0DEF101C0DDF100C045
:100F8000DCF1000ED8800101DC550001C66F000EB7
:100F90000101DD550001C76F6FD1B6C6BAF6B5C6FF
:100FA000B9F6B4C6B8F6B3C6B7F60601BE6BBD6BEC
:100FB000BC6B810EBB6F00017ADE01E248E1456A3D
:100FC000140E446E45C0B8F644C0B7F64CDCB6C645
:100FD000BAF6B5C6B9F6B4C6B8F6B3C6B7F603C026
:100FE000BEF602C0BDF601C0BCF600C0BBF6BDDE59
:100FF0000601BA6B240EB96F740EB86F930EB76FFB
:1010000003C0BEF602C0BDF601C0BCF600C0BBF610
:10101000000144DC03C0BAF602C0B9F601C0B8F65C
:1010200000C0B7F681DE03C0DFF102C0DEF101C00F
:10103000DDF100C0DCF1000ED8800101DC550001BB
:10104000C66F000E0101DD550001C76F15D1B6C690
:10105000BAF6B5C6B9F6B4C6B8F6B3C6B7F6060161
:10106000BE6BBD6BBC6B820EBB6F000120DE01E26C
:101070004AE1456A0A0E446E45C0B8F644C0B7F668
:1010800033EC04F0B6C6BAF6B5C6B9F6B4C6B8F6CF
:10109000B3C6B7F603C0BEF602C0BDF601C0BCF6CB
:1010A00000C0BBF662DE0601BA6B240EB96F740E87
:1010B000B86F930EB76F03C0BEF602C0BDF601C095
:1010C000BCF600C0BBF600014EEC04F003C0BAF65B
:1010D00002C0B9F601C0B8F600C0B7F625DE03C0FD
:1010E000DFF102C0DEF101C0DDF100C0DCF1000E75
:1010F000D8800101DC550001C66F000E0101DD55ED
:101100000001C76FB9D0B6C6BAF6B5C6B9F6B4C64F
:10111000B8F6B3C6B7F60601BE6BBD6B200EBC6F4A
:10112000830EBB6F0001C3DD01E24AE1456A050E93
:10113000446E45C0B8F644C0B7F633EC04F0B6C60A
:10114000BAF6B5C6B9F6B4C6B8F6B3C6B7F603C0B4
:10115000BEF602C0BDF601C0BCF600C0BBF605DE9F
:101160000601BA6B240EB96F740EB86F930EB76F89
:1011700003C0BEF602C0BDF601C0BCF600C0BBF69F
:1011800000014EEC04F003C0BAF602C0B9F601C08B
:10119000B8F600C0B7F6C8DD03C0DFF102C0DEF16B
:1011A00001C0DDF100C0DCF1000ED8800101DC558A
:1011B0000001C66F000E0101DD550001C76F5CD054
:1011C000B6C6BAF6B5C6B9F6B4C6B8F6B3C6B7F67B
:1011D0000601BE6BBD6B780EBC6F830EBB6F00014A
:1011E00066DD01E249E1456A020E446E45C0B8F68B
:1011F00044C0B7F633EC04F0B6C6BAF6B5C6B9F6D5
:10120000B4C6B8F6B3C6B7F603C0BEF602C0BDF6A4
:1012100001C0BCF600C0BBF6A8DD0601BA6B240E07
:10122000B96F740EB86F930EB76F03C0BEF602C0ED
:10123000BDF601C0BCF600C0BBF600014EEC04F0E8
:1012400003C0BAF602C0B9F601C0B8F600C0B7F6DE
:101250006BDD03C0DFF102C0DEF101C0DDF100C0D3
:10126000DCF1000ED8800101DC550001C66F000ED4
:101270000101DD550001C76FC7C0CFFFC6C0CEFF5B
:1012800012000201E6A35FD0CDC2B8F6CCC2B7F619
:10129000000133EC04F003C0F2F202C0F1F201C02D
:1012A000F0F200C0EFF203012EAB4BD025C3FEF2EB
:1012B00024C3FDF223C3FCF222C3FBF2FEC2B6F646
:1012C000FDC2B5F6FCC2B4F6FBC2B3F60001FDECFC
:1012D00004F002C0B4F601C0B3F60601B433B33370
:1012E000B433B333B433B3C644FFB433B431300B87
:1012F000006E0F014351CF0B0010436F315220E0BD
:10130000FEC2B6F6FDC2B5F6FCC2B4F6FBC2B3F639
:101310000001FDEC04F002C0B4F601C0B3F6060112
:10132000B433B333B433B333B433B3C647FFB43396
:10133000B431300B006E0F014651CF0B0010466FD9
:10134000030115D10201E6A511D0CFC2B8F6CEC275
:10135000B7F6000133EC04F003C0F2F202C0F1F280
:1013600001C0F0F200C0EFF203D1020103012EBB75
:1013700040D02BAE1ED0D892F2C2BAF6F1C2B9F666
:10138000F0C2B8F6EFC2B7F6EEC2BEF6EDC2BDF6D9
:10139000ECC2BCF6EBC2BBF600011BEC05F003C0CF
:1013A000F2F202C0F1F201C0F0F200C0EFF21FD081
:1013B00003012BBE1DD0D882F2C2BAF6F1C2B9F633
:1013C000F0C2B8F6EFC2B7F6EEC2BEF6EDC2BDF699
:1013D000ECC2BCF6EBC2BBF600011BEC05F003C08F
:1013E000F2F202C0F1F201C0F0F200C0EFF203012C
:1013F000BED02BAE61D00201E6A704D0E6B502D084
:1014000003015AD0CDC2B8F6CCC2B7F6000133EC16
:1014100004F003C0F2F202C0F1F201C0F0F200C029
:10142000EFF225C3FEF224C3FDF223C3FCF222C374
:10143000FBF2FEC2B6F6FDC2B5F6FCC2B4F6FBC2C4
:10144000B3F6FDEC04F002C0B4F601C0B3F6060139
:10145000B433B333B433B333B433B3C644FFB43368
:10146000B431300B006E0F014351CF0B0010436FAE
:10147000315220E0FEC2B6F6FDC2B5F6FCC2B4F6AB
:10148000FBC2B3F60001FDEC04F002C0B4F601C0EB
:10149000B3F60601B433B333B433B333B433B3C6A2
:1014A00047FFB433B431300B006E0F014651CF0B00
:1014B0000010466F5BD003012BBE59D0CFC2B8F6E7
:1014C000CEC2B7F6000133EC04F003C0F2F202C062
:1014D000F1F201C0F0F200C0EFF2FAC2FEF2F9C27E
:1014E000FDF2F8C2FCF2F7C2FBF2FEC2B6F6FDC294
:1014F000B5F6FCC2B4F6FBC2B3F6FDEC04F002C0D4
:10150000B4F601C0B3F60601B433B333B433B33326
:10151000B433B3C644FFB433B431300B006E0F01A3
:101520004351CF0B0010436F315220E0FEC2B6F69C
:10153000FDC2B5F6FCC2B4F6FBC2B3F60001FDEC89
:1015400004F002C0B4F601C0B3F60601B433B333FD
:10155000B433B333B433B3C647FFB433B431300B11
:10156000006E0F014651CF0B0010466F03010001C2
:101570000601BA6BB96BB86B7F0EB76FF2C2BEF6DD
:10158000F1C2BDF6F0C2BCF6EFC2BBF600014EECF4
:1015900004F003C0B6F602C0B5F601C0B4F600C050
:1015A000B3F6D88203C0BAF602C0B9F601C0B8F6E5
:1015B00000C0B7F6EAC2BEF6E9C2BDF6E8C2BCF6A4
:1015C000E7C2BBF61BEC05F003C0B2F602C0B1F6F1
:1015D00001C0B0F600C0AFF60601BA6BB96BB86BCC
:1015E0007F0EB76FB2C6BEF6B1C6BDF6B0C6BCF6CA
:1015F000AFC6BBF600014EEC04F003C0E5F202C03A
:10160000E4F201C0E3F200C0E2F2E5C2BAF6E4C2DD
:10161000B9F6E3C2B8F6E2C2B7F60601BE6BBD6B1F
:10162000BC6BBB6B000157EC06F001E20AE106015E
:10163000B66BB56B7A0EB46F880EB36F000110DC19
:1016400009D0E5C2B6F6E4C2B5F6E3C2B4F6E2C22A
:10165000B3F606DC1200D2C2B8F6D1C2B7F633EC4C
:1016600004F003C0B2F602C0B1F601C0B0F600C08B
:10167000AFF6D88203C0BAF602C0B9F601C0B8F618
:1016800000C0B7F602C3BEF601C3BDF600C3BCF688
:10169000FFC2BBF61BEC05F003C0B2F602C0B1F608
:1016A00001C0B0F600C0AFF603C0BAF602C0B9F68A
:1016B00001C0B8F600C0B7F638C3BEF637C3BDF6F2
:1016C00036C3BCF635C3BBF6B5EC06F003C0BAF6BC
:1016D00002C0B9F601C0B8F600C0B7F694EC06F047
:1016E00003C0B2F602C0B1F601C0B0F600C0AFF65A
:1016F0000201D35106010024006E0201D4510601FB
:101700000120016E0201D55106010220026E020184
:10171000D65106010320E8CF3CF302C03BF301C0E1
:101720003AF300C039F33CC387F03BC386F03AC3B9
:1017300085F039C384F03CC397F03BC396F03AC3BD
:1017400095F039C394F000011200D8B204D0060E0F
:10175000EA6EBB0EE96E006A016A026A036A06015C
:10176000BB6BBC6BBD6BBE6BBA51B911B811B71175
:101770002CE0200EBF6FD890B337B437B537B637EB
:10178000BB37BC37BD37BE37BA51BE5D08E1B95172
:10179000BD5D05E1B851BC5D02E1B751BB5D0FE332
:1017A000B751BB5FB851D8A0B83DBC5FB951D8A004
:1017B000B93DBD5FBA51D8A0BA3DBE5FD8800036F2
:1017C000013602360336BF2FD6D7BBC6EFFFBCC6E5
:1017D000ECFFBDC6ECFFBEC6ECFF00011200B60E6A
:1017E000006E036A026A016A0601B751B811B911A5
:1017F000BA1102E1006A0DD0D89001BE09D0B73706
:10180000B837B937BA37033602360136002EF4D767
:10181000019E0001120003013C5346E13B5344E1A9
:101820003A51040841E303E13951FA083DE33935FF
:101830000601AF6F03013A350601B06F03013B3576
:101840000601B16F03013C350601B26FAF37B03707
:10185000B137B237AF37B037B137B237AF37B0374C
:10186000B137B237AF37B037B137B237AF37B0373C
:10187000B137B237C00EAF17D892B2C6B6F6B1C6FE
:10188000B5F6B0C6B4F6AFC6B3F6BA6BB96B010E17
:10189000B86F040EB76F000158DF01C0C9F000C077
:1018A000C8F06E6B0FD103013CC3BAF63BC3B9F667
:1018B0003AC3B8F639C3B7F6000191DF03C0B2F6F8
:1018C00002C0B1F601C0B0F600C0AFF603C0BAF670
:1018D00002C0B9F601C0B8F600C0B7F60601BE6B8B
:1018E000600EBD6F1F0EBC6F890EBB6F00014EEC0A
:1018F00004F003C0A3F202C0A2F201C0A1F200C032
:10190000A0F2A3C2B6F6A2C2B5F6A1C2B4F6A0C2B6
:10191000B3F6FDEC04F00601B86B01C0B7F60001A8
:1019200033EC04F0D882A3C2BAF6A2C2B9F6A1C2BF
:10193000B8F6A0C2B7F603C0BEF602C0BDF601C03D
:10194000BCF600C0BBF61BEC05F003C0B2F602C04B
:10195000B1F601C0B0F600C0AFF603C0BAF602C0DF
:10196000B9F601C0B8F600C0B7F60601BE6BBD6B94
:10197000BC6BBB6B000157EC06F00DE1A3C2B6F6E1
:10198000A2C2B5F6A1C2B4F6A0C2B3F6FDEC04F053
:1019900001C06EF00DD0A3C2B6F6A2C2B5F6A1C2C8
:1019A000B4F6A0C2B3F6FDEC04F0010E01246E6F94
:1019B0000601B86B6EC0B7F6000133EC04F0A3C2A9
:1019C000BAF6A2C2B9F6A1C2B8F6A0C2B7F603C071
:1019D000BEF602C0BDF601C0BCF600C0BBF64EECC0
:1019E00004F003C08BF202C08AF201C089F200C089
:1019F00088F20601BA6BB96B7F0EB86F860EB76FAF
:101A00008BC2BEF68AC2BDF689C2BCF688C2BBF6DE
:101A10000001B5EC06F003C0B6F602C0B5F601C091
:101A2000B4F600C0B3F6FDEC04F002C0C9F001C08A
:101A3000C8F00601B86B6EC0B7F6000133EC04F0D5
:101A400003C0BAF602C0B9F601C0B8F600C0B7F6D6
:101A50009A0E0601BE6F990EBD6F190EBC6F7D0EFA
:101A6000BB6F0001B5EC06F003C0B2F602C0B1F6E0
:101A700001C0B0F600C0AFF60601B86B6EC0B7F695
:101A8000000133EC04F0D89203C0BAF602C0B9F6F4
:101A900001C0B8F600C0B7F6B2C6BEF6B1C6BDF614
:101AA000B0C6BCF6AFC6BBF61BEC05F003C0B6F67D
:101AB00002C0B5F601C0B4F600C0B3F6FDEC04F008
:101AC00001C06EF0200E06096B6EC8C06CFF6B94EF
:101AD000746B312C61D103013C5346E13B5344E12B
:101AE0003A51040841E303E13951FA083DE339353D
:101AF0000601AF6F03013A350601B06F03013B35B4
:101B00000601B16F03013C350601B26FAF37B03744
:101B1000B137B237AF37B037B137B237AF37B03789
:101B2000B137B237AF37B037B137B237AF37B03779
:101B3000B137B237C00EAF17D892B2C6B6F6B1C63B
:101B4000B5F6B0C6B4F6AFC6B3F6BA6BB96B010E54
:101B5000B86F040EB76F0001F8DD01C0CBF000C014
:101B6000CAF06F6B0FD103013CC3BAF63BC3B9F6A1
:101B70003AC3B8F639C3B7F6000131DE03C0B2F696
:101B800002C0B1F601C0B0F600C0AFF603C0BAF6AD
:101B900002C0B9F601C0B8F600C0B7F60601BE6BC8
:101BA000600EBD6F1F0EBC6F890EBB6F00014EEC47
:101BB00004F003C0A7F202C0A6F201C0A5F200C063
:101BC000A4F2A7C2B6F6A6C2B5F6A5C2B4F6A4C2E0
:101BD000B3F6FDEC04F00601B86B01C0B7F60001E6
:101BE00033EC04F0D882A7C2BAF6A6C2B9F6A5C2F1
:101BF000B8F6A4C2B7F603C0BEF602C0BDF601C077
:101C0000BCF600C0BBF61BEC05F003C0B2F602C088
:101C1000B1F601C0B0F600C0AFF603C0BAF602C01C
:101C2000B9F601C0B8F600C0B7F60601BE6BBD6BD1
:101C3000BC6BBB6B000157EC06F00DE1A7C2B6F61A
:101C4000A6C2B5F6A5C2B4F6A4C2B3F6FDEC04F084
:101C500001C06FF00DD0A7C2B6F6A6C2B5F6A5C2F8
:101C6000B4F6A4C2B3F6FDEC04F0010E01246F6FCC
:101C70000601B86B6FC0B7F6000133EC04F0A7C2E1
:101C8000BAF6A6C2B9F6A5C2B8F6A4C2B7F603C0A2
:101C9000BEF602C0BDF601C0BCF600C0BBF64EECFD
:101CA00004F003C08FF202C08EF201C08DF200C0BA
:101CB0008CF20601BA6BB96B7F0EB86F860EB76FE8
:101CC0008FC2BEF68EC2BDF68DC2BCF68CC2BBF60C
:101CD0000001B5EC06F003C0B6F602C0B5F601C0CF
:101CE000B4F600C0B3F6FDEC04F002C0CBF001C0C6
:101CF000CAF00601B86B6FC0B7F6000133EC04F010
:101D000003C0BAF602C0B9F601C0B8F600C0B7F613
:101D10009A0E0601BE6F990EBD6F190EBC6F7D0E37
:101D2000BB6F0001B5EC06F003C0B2F602C0B1F61D
:101D300001C0B0F600C0AFF60601B86B6FC0B7F6D1
:101D4000000133EC04F0D89203C0BAF602C0B9F631
:101D500001C0B8F600C0B7F6B2C6BEF6B1C6BDF651
:101D6000B0C6BCF6AFC6BBF61BEC05F003C0B6F6BA
:101D700002C0B5F601C0B4F600C0B3F6FDEC04F045
:101D800001C06FF0200E06090F01396FCAC03AFF7B
:101D90000F0139950001756B1200402AD8B4412A11
:101DA0004150455C09E303E14450405C05E2C7C093
:101DB000CFFFC6C0CEFFF9D2CD90416A406A040180
:101DC0004A53D8A42ED137500208D8A42AD12AB019
:101DD00028D142BB26D12BAC1ED10201E6A364D090
:101DE0000301302B3051030838E10F013095060E06
:101DF000326F0301116B106BBA9C306B0201E693DA
:101E0000CDC2B8F6CCC2B7F6000133EC04F006013F
:101E1000BA6BB96BB86B7F0EB76F03C0BEF602C06A
:101E2000BDF601C0BCF600C0BBF600014EEC04F0EC
:101E300003C002F302C001F301C000F300C0FFF2CF
:101E40000201EA6BE96BE86BE76B2B8E000141EC5A
:101E500009F0B98C0F01308503013051020802E00E
:101E6000302D0DD0026B016B006B0201FF6BEA6B32
:101E7000E96BE86BE76B000141EC09F003012BAA69
:101E80000DD0026B016B006B0201FF6B03012EB7DB
:101E900005D000012BEC0BF0BEDC03010201EA6B64
:101EA000E96BE86BE76BB5D0E6A59BD003012F2B60
:101EB0002F5103085AE10F013095060E326F0301CE
:101EC000116B106BBA9C000141EC09F0CFC2B8F65F
:101ED000CEC2B7F633EC04F00601BA6BB96BB86B3F
:101EE0007F0EB76F03C0BEF602C0BDF601C0BCF6E0
:101EF00000C0BBF600014EEC04F003C0B0F602C017
:101F0000AFF601C0AEF600C0ADF6D2C2B8F6D1C28F
:101F1000B7F633EC04F0D88203C0BAF602C0B9F6C3
:101F200001C0B8F600C0B7F6B0C6BEF6AFC6BDF683
:101F3000AEC6BCF6ADC6BBF61BEC05F003C002F3A3
:101F400002C001F301C000F300C0FFF20201EA6B1E
:101F5000E96BE86BE76B2B9EE69503012F6B060E92
:101F60000F01326FB98C308503012F51020802E056
:101F70002F2D18D0D2C2B8F6D1C2B7F6000133EC7B
:101F800004F003C002F302C001F301C000F300C07B
:101F9000FFF20201EA6BE96BE86BE76B000141ECD1
:101FA00009F003012BAA17D0D2C2B8F6D1C2B7F6F6
:101FB000000133EC04F003C002F302C001F301C0DE
:101FC00000F300C0FFF203012EB705D000012BEC97
:101FD0000BF021DC03010201EA6BE96BE86BE76BB4
:101FE00018D0EA6BE96BE86BE76BE6AB0ED0E69BCB
:101FF000F2C2B6F6F1C2B5F6F0C2B4F6EFC2B3F66D
:10200000000130EC07F006D00201C7C0CFFFC6C008
:10201000CEFF000104012BAA03D003012E85040189
:1020200004D0C7C0CFFFC6C0CEFFCD80C7C0CFFF92
:10203000C6C0CEFF4A53D8A42ED1375007081BE1A3
:1020400000017A51785DD8B402D0040114D07B51DC
:10205000795DD8B402D004010ED07C517A5DD8B439
:1020600002D0040108D07D517B5DD8B402D00401B8
:1020700002D02588040125A80AD037A408D0B19041
:10208000B368FA0EB26E47C043F046C042F037B0B4
:1020900002D037A6A5D0D6500101866FD7CF87F1E1
:1020A00024B89AD024BE3CD0865303E18753D8B4D9
:1020B00093D08635026E8735036E023603360236BC
:1020C000033602360336F00E02160250FF0A0601EE
:1020D000AD6FFF0E0318AE6F280E01015A25006E7A
:1020E000000E5B21016E000E5C21026E000E5D2170
:1020F000036E0352D8A470D002526EE10150060163
:10210000AE5DD8B002D0010167D0D8B402D00101D1
:1021100007D0AD51005CD8A002D001015DD0010113
:10212000248A249E000E956E8C94250E006E002E3F
:10213000FED7000E956E8C824F0E006E002EFED7DD
:1021400000D0000E956E8C8C6B840001875307E1E4
:10215000865305E1855303E184517C0801E23AD0BE
:102160002AAA1CD0350E006E002EFED71C0E016E62
:10217000C250830B0110C26E000E016EC150F80BED
:102180000110C16E350E006E002EFED7BBEC00F0C4
:1021900002C0DFF001C0DEF02A9A1CD0350E006EBE
:1021A000002EFED7080E016EC250830B0110C26EC6
:1021B000000E016EC150F80B0110C16E350E006E9D
:1021C000002EFED7BBEC00F002C0DBF001C0DAF05D
:1021D0002A8A288203D00101258600015AD00401F1
:1021E000248A000E956E8C94250E006E002EFED76C
:1021F000000E956E8C824F0E006E002EFED700D022
:10220000000E956E8C8C6B840001875307E186531A
:1022100005E1855303E184517C0801E23AD02AAA02
:102220001CD0350E006E002EFED71C0E016EC25063
:10223000830B0110C26E000E016EC150F80B01102D
:10224000C16E350E006E002EFED7BBEC00F002C052
:10225000DFF001C0DEF02A9A1CD0350E006E002E91
:10226000FED7080E016EC250830B0110C26E000E25
:10227000016EC150F80B0110C16E350E006E002EBC
:10228000FED7BBEC00F002C0DBF001C0DAF02A8A16
:1022900028828BD004014A51030827E16B5314E1D3
:1022A000000E956E8C94250E006E002EFED7000E4B
:1022B000956E8C824F0E006E002EFED700D0000E61
:1022C000956E8C8C6B8410D0000E956E8C92956EF2
:1022D0008C844F0E006E002EFED700D0000E956E3F
:1022E0008C8A0F01398504015FD04A2D5DD070536F
:1022F00001E07007705355E0000E956E8C9E250E20
:10230000006E002EFED7B190CDC0B3FFCCC0B2FF9F
:10231000436A426AB180000E966E8D844F0E006E45
:10232000002EFED700D0900E946E8B840F01368560
:10233000300E0601AD6F0001E5EC00F0200E016EDD
:10234000C250830B0110C26E000E016EC150F80B1B
:102350000110C16E250E006E002EFED7BBEC00F002
:1023600002C0E7F001C0E6F0350E006E002EFED789
:10237000240E016EC250830B0110C26E000E016E5E
:10238000C150F80B0110C16E250E006E002EFED755
:10239000BBEC00F002C0E3F001C0E2F0288405D0FD
:1023A0000401CD90BEC270F400019E9076EF00F063
:1023B000742B6E51745D03E2C8C06DFF78D1746BED
:1023C0006B94C8C06DFF04014A53D8A4CED000015D
:1023D000875307E1865305E1855303E184517C0867
:1023E00031E21C0E016EC250830B0110C26E000E52
:1023F000016EC150F80B0110C16E250E006E002E4B
:10240000FED7BBEC00F002C0DFF001C0DEF0350EFD
:10241000006E002EFED7080E016EC250830B011015
:10242000C26E000E016EC150F80B0110C16E250E78
:10243000006E002EFED7BBEC00F002C0DBF001C046
:10244000DAF02882000E956E8C9C250E006E002E10
:10245000FED7000E956E8C92312C64D0975307E115
:10246000965305E1955303E194517C080FE2000E69
:10247000956E8C844F0E006E002EFED700D0000E9D
:10248000956E8C8A0F0139854BD00001000E956E38
:102490008C84350E006E002EFED7000E956E8C8A51
:1024A0000F0139852AAC1ED0350E006E002EFED7E6
:1024B0002C0E016EC250830B0110C26E000E016E15
:1024C000C150F80B0110C16E350E006E002EFED704
:1024D0000001BBEC00F002C0E1F001C0E0F02A9C7A
:1024E0001ED00F01350E006E002EFED7080E016EB5
:1024F000C250830B0110C26E000E016EC150F80B6A
:102500000110C16E350E006E002EFED70001BBEC2F
:1025100000F002C0DDF001C0DCF02A8C28820F013F
:1025200022D00001000E956E8C92956E8C94249AA8
:1025300025A802D02598B18004014A5303E12882DE
:102540001F8602D028821F862BAA0CD003012E954D
:102550000201E6B506D0E6B304D000010BEC0CF0A6
:10256000020104010F01A4D004014A510308D8A4B8
:10257000A0D06B5334E11C0E016EC250830B0110CE
:10258000C26E000E016EC150F80B0110C16E250E17
:10259000006E002EFED70001BBEC00F002C0DFF0A1
:1025A00001C0DEF0350E006E002EFED7080E016E63
:1025B000C250830B0110C26E000E016EC150F80BA9
:1025C0000110C16E250E006E002EFED7BBEC00F090
:1025D00002C0DBF001C0DAF028823FD004012C0EEB
:1025E000016EC250830B0110C26E000E016EC1500D
:1025F000F80B0110C16E250E006E002EFED7AE0E38
:10260000926E898A0001BBEC00F002C0E1F001C0CB
:10261000E0F0AE0E926E899A350E006E002EFED757
:10262000080E016EC250830B0110C26E000E016EC7
:10263000C150F80B0110C16E250E006E002EFED7A2
:10264000AE0E926E898ABBEC00F002C0DDF001C0D4
:10265000DCF0AE0E926E899A2882000E956E8C9CEC
:10266000250E006E002EFED7345211E0000E956E3E
:102670008C92956E8C844F0E006E002EFED700D08B
:10268000000E956E8C8A0F01398512D00001000E64
:10269000956E8C9C956E8C9A250E006E002EFED742
:1026A000000E956E8C92956E8C941F8628820F0179
:1026B0000401BA90000176EF00F0752B6F51755D43
:1026C00003E2CAC03BFFEED0756B04014A533FE101
:1026D000346A312C3CD00001975307E1965305E151
:1026E000955303E194517C0831E22C0E016EC250E7
:1026F000830B0110C26E000E016EC150F80B011069
:10270000C16E250E006E002EFED7BBEC00F002C09D
:10271000E1F001C0E0F0350E006E002EFED7080E8D
:10272000016EC250830B0110C26E000E016EC150CB
:10273000F80B0110C16E250E006E002EFED7BBEC0B
:1027400000F002C0DDF001C0DCF028820401345248
:1027500033E02C0E016EC250830B0110C26E000ECE
:10276000016EC150F80B0110C16E250E006E002ED7
:10277000FED70001BBEC00F002C0E1F001C0E0F0C8
:10278000350E006E002EFED7080E016EC250830B70
:102790000110C26E000E016EC150F80B0110C16E27
:1027A000250E006E002EFED7BBEC00F002C0DDF05F
:1027B00001C0DCF0288204016B2D3FD02C0E016E8D
:1027C000C250830B0110C26E000E016EC150F80B97
:1027D0000110C16E250E006E002EFED7AE0E926E59
:1027E000898A0001BBEC00F002C0E1F001C0E0F01A
:1027F000AE0E926E899A350E006E002EFED7080E30
:10280000016EC250830B0110C26E000E016EC150EA
:10281000F80B0110C16E250E006E002EFED7AE0E15
:10282000926E898ABBEC00F002C0DDF001C0DCF0E2
:10283000AE0E926E899A288204010F013995CAC0A2
:102840003BFF000E956E8C9C956E8C9A956E8C92CB
:10285000956E8C94249A25A802D02598B180040105
:102860004A5312E10001875307E1865305E185537E
:1028700003E184517C0802E21F8604D02AAC01D017
:1028800001D01F8603D004011F8600012BAA0AD0A5
:1028900003012E950201E6B506D0E6B304D000018F
:1028A0000BEC0CF00201BA94000176EF00F0060187
:1028B000AF51B103F3CF01F0F4CF00F0B203F35006
:1028C0000026B051B103F3500020026E0001120047
:1028D000422AD8B4432A4350475C09E303E14650F7
:1028E000425C05E2CDC0B3FFCCC0B2FFFAD2436A6E
:1028F000426ACDC0B3FFCCC0B2FF04014A53D8A492
:1029000098D224B895D224BA93D237B002D037A641
:102910007CD1375007081BE100017A51785DD8B4AB
:1029200002D0040114D07B51795DD8B402D00401E7
:102930000ED07C517A5DD8B402D0040108D07D510C
:102940007B5DD8B402D0040102D025800401D650AA
:102950000101866FD7CF87F12B9225B03AD08653ED
:1029600002E1875337E08635026E8735036E023603
:1029700003360236033602360336F00E02160250D4
:10298000FF0A0601AD6FFF0E0318AE6F500E010176
:102990005E25006E000E5F21016E000E6021026E4A
:1029A000000E6121036E035215E1025213E1015042
:1029B0000601AE5DD8B002D001010CD0D8B402D06F
:1029C000010107D0AD51005CD8A002D0010102D0B6
:1029D00001012B822BA215D137A2B6D0CE50886F21
:1029E000CFCF89F12B9225B04BD0885302E1895388
:1029F00048E04050445C0601AD6F41504558AE6F11
:102A0000B06FADC6AFF663C1B2F662C1B1F60001F8
:102A10004EDF02C0AEF601C0ADF688C1AFF60601CA
:102A2000AF1F89C1B0F60601B01FD890B031036E58
:102A3000AF31026EAD270350AE23280E01015E2593
:102A4000006E000E5F21016E000E6021026E000E0E
:102A50006121036E035215E1025213E10150060198
:102A6000AE5DD8B002D001010CD0D8B402D00101C3
:102A700007D0AD51005CD8A002D0010102D0010105
:102A80002B822BA25DD02590248C000E956E8C9EFF
:102A9000250E006E002EFED7000E966E8D844F0E12
:102AA000006E002EFED700D0900E946E8B840F0126
:102AB000368500018B5307E18A5305E1895303E111
:102AC00088517C0801E23AD02AAE1CD0350E006E47
:102AD000002EFED7200E016EC250830B0110C26E75
:102AE000000E016EC150F80B0110C16E350E006E64
:102AF000002EFED7BBEC00F002C0E7F001C0E6F00C
:102B00002A9E1CD0350E006E002EFED7240E016EBC
:102B1000C250830B0110C26E000E016EC150F80B43
:102B20000110C16E350E006E002EFED7BBEC00F01A
:102B300002C0E3F001C0E2F02A8E288403D0010134
:102B4000258800015CD001012590248C000E956E33
:102B50008C9E250E006E002EFED7000E966E8D8484
:102B60004F0E006E002EFED700D0900E946E8B8418
:102B70000F01368500018B5307E18A5305E1895324
:102B800003E188517C0801E23AD02AAE1CD0350E10
:102B9000006E002EFED7200E016EC250830B011076
:102BA000C26E000E016EC150F80B0110C16E350EE1
:102BB000006E002EFED7BBEC00F002C0E7F001C0B3
:102BC000E6F02A9E1CD0350E006E002EFED7240E95
:102BD000016EC250830B0110C26E000E016EC15017
:102BE000F80B0110C16E350E006E002EFED7BBEC47
:102BF00000F002C0E3F001C0E2F02A8E288403D086
:102C000001012588000113D1040137A2B6D0CE50AE
:102C10000101886FCFCF89F125B04ED0885303E1F1
:102C20008953D8B4A6D04050445C0601AD6F4150E2
:102C30004558AE6FB06FADC6AFF663C1B2F662C1B4
:102C4000B1F6000134DE02C0AEF601C0ADF688C1B7
:102C5000AFF60601AF1F89C1B0F60601B01FD890CC
:102C6000B031036EAF31026EAD270350AE23280E94
:102C700001015E25006E000E5F21016E000E6021D5
:102C8000026E000E6121036E0352D8A472D002526C
:102C9000D8A46FD001500601AE5DD8B002D00101BA
:102CA00068D0D8B402D0010107D0AD51005CD8A0E3
:102CB00002D001015ED001012590248C000E956E9A
:102CC0008C9E250E006E002EFED7000E966E8D8413
:102CD0004F0E006E002EFED700D0900E946E8B84A7
:102CE0000F01368500018B5307E18A5305E18953B3
:102CF00003E188517C0801E23AD02AAE1CD0350E9F
:102D0000006E002EFED7200E016EC250830B011004
:102D1000C26E000E016EC150F80B0110C16E350E6F
:102D2000006E002EFED7BBEC00F002C0E7F001C041
:102D3000E6F02A9E1CD0350E006E002EFED7240E23
:102D4000016EC250830B0110C26E000E016EC150A5
:102D5000F80B0110C16E350E006E002EFED7BBECD5
:102D600000F002C0E3F001C0E2F02A8E288403D014
:102D70000101258800015BD00401248C000E956EB2
:102D80008C9E250E006E002EFED7000E966E8D8452
:102D90004F0E006E002EFED700D0900E946E8B84E6
:102DA0000F01368500018B5307E18A5305E18953F2
:102DB00003E188517C0801E23AD02AAE1CD0350EDE
:102DC000006E002EFED7200E016EC250830B011044
:102DD000C26E000E016EC150F80B0110C16E350EAF
:102DE000006E002EFED7BBEC00F002C0E7F001C081
:102DF000E6F02A9E1CD0350E006E002EFED7240E63
:102E0000016EC250830B0110C26E000E016EC150E4
:102E1000F80B0110C16E350E006E002EFED7BBEC14
:102E200000F002C0E3F001C0E2F02A8E2884040121
:102E300056D04A2D54D000016B5316E06B076B53EC
:102E400013E1476ABBC246F0010E0201B925040135
:102E50006E6F000E0201BA2104016F6FBEC270F4E2
:102E6000D58ECD80B180000104016E5302E16F5315
:102E700004E06E51D8B46F076E076E5306E16F53CE
:102E800004E100016B5317E00401000E956E8C9E67
:102E9000250E006E002EFED7000E966E8D844F0E0E
:102EA000006E002EFED700D0900E946E8B840F0122
:102EB000368516D00001B1900401715101080BE371
:102EC0007051010808E3D59ECD90B1900F01369561
:102ED000339506D00401BAC26FF4B9C26EF40F0183
:102EE0000001A19276EF00F0762B7051765D03E23F
:102EF000CEC038FFDDD1766B0F013695CEC038FFDE
:102F000004014A53D8A46DD124A2ACD024925050CD
:102F1000FF0A3714070806E05050FF0A37140E085E
:102F2000D8A49FD0200E06090F01336F54C134FF7F
:102F30000F01000E956E8C94250E006E002EFED7AC
:102F4000248AC7C0CFFFC6C0CEFF000E956E8C820C
:102F50004F0E006E002EFED700D0000E956E8C8CAA
:102F6000CD806B8433850001875307E1865305E1EB
:102F7000855303E184517C0838E2300E0601AD6FC1
:102F80000001E5EC00F01C0E016EC250830B011035
:102F9000C26E000E016EC150F80B0110C16E250EFD
:102FA000006E002EFED7BBEC00F002C0DFF001C0C7
:102FB000DEF0350E006E002EFED7080E016EC250F8
:102FC000830B0110C26E000E016EC150F80B011090
:102FD000C16E250E006E002EFED7BBEC00F002C0C5
:102FE000DBF001C0DAF028843AD02AAA1CD0350ED2
:102FF000006E002EFED71C0E016EC250830B011016
:10300000C26E000E016EC150F80B0110C16E350E7C
:10301000006E002EFED7BBEC00F002C0DFF001C056
:10302000DEF02A9A1CD0350E006E002EFED7080E58
:10303000016EC250830B0110C26E000E016EC150B2
:10304000F80B0110C16E350E006E002EFED7BBECE2
:1030500000F002C0DBF001C0DAF02A8A2884248262
:103060000401BED000018B5307E18A5305E1895367
:1030700003E188517C0831E2200E016EC250830BBF
:103080000110C26E000E016EC150F80B0110C16E2E
:10309000250E006E002EFED7BBEC00F002C0E7F05C
:1030A00001C0E6F0350E006E002EFED7240E016E34
:1030B000C250830B0110C26E000E016EC150F80B9E
:1030C0000110C16E250E006E002EFED7BBEC00F085
:1030D00002C0E3F001C0E2F02884900E946E8B945D
:1030E000250E006E002EFED7322C70D0000E966E8C
:1030F0008D94200E06090F01336FD0C034FF0F01ED
:1031000000019B5307E19A5305E1995303E198515C
:103110007C0810E2000E956E8C8E4F0E006E002E15
:10312000FED700D0900E946E8B820F0133852884D9
:103130004BD00001000E956E8C8E350E006E002E69
:10314000FED7900E946E8B820F0133852BA01ED07C
:10315000350E006E002EFED7280E016EC250830B76
:103160000110C26E000E016EC150F80B0110C16E4D
:10317000350E006E002EFED70001BBEC00F002C041
:10318000E9F001C0E8F02B901ED00F01350E006E63
:10319000002EFED7240E016EC250830B0110C26EAA
:1031A000000E016EC150F80B0110C16E350E006E9D
:1031B000002EFED70001BBEC00F002C0E5F001C01C
:1031C000E4F02B8028840F010AD00001000E966ED7
:1031D0008D94956E8C9E249C1F8828840F01040179
:1031E00066D04A2D64D0200E016EC250830B0110B0
:1031F000C26E000E016EC150F80B0110C16E250E9B
:10320000006E002EFED70001BBEC00F002C0E7F01C
:1032100001C0E6F0350E006E002EFED7240E016EC2
:10322000C250830B0110C26E000E016EC150F80B2C
:103230000110C16E250E006E002EFED7BBEC00F013
:1032400002C0E3F001C0E2F02884900E946E8B94EB
:10325000250E006E002EFED70201C15316E0000EAF
:10326000966E8D94250E006E002EFED7000E956E84
:103270008C8E4F0E006E002EFED700D0900E946EF6
:103280008B820F01338512D00201900E946E8B94C5
:10329000946E8B92250E006E002EFED7000E966E59
:1032A0008D94956E8C9E28841F880F010401000167
:1032B000BA9876EF00F0772B7151775D03E2D0C0BA
:1032C00035FFE3D2776B0F013395D0C035FF040192
:1032D0004A53D8A44AD224A2EFD124925050FF0AD4
:1032E0003714070806E05050FF0A37140E08D8A418
:1032F0009ED0000E956E8C9E250E006E002EFED781
:10330000248C200E06090F01366FCEC037FF0F0147
:10331000CDC0B3FFCCC0B2FF000E966E8D844F0EB1
:10332000006E002EFED700D0900E946E8B84B1807C
:10333000368500018B5307E18A5305E1895303E188
:1033400088517C0838E2300E0601AD6F0001E5ECD3
:1033500000F0200E016EC250830B0110C26E000EF1
:10336000016EC150F80B0110C16E250E006E002ECB
:10337000FED7BBEC00F002C0E7F001C0E6F0350E6E
:10338000006E002EFED7240E016EC250830B01107A
:10339000C26E000E016EC150F80B0110C16E250EF9
:1033A000006E002EFED7BBEC00F002C0E3F001C0BF
:1033B000E2F028843AD02AAE1CD0350E006E002EE2
:1033C000FED7200E016EC250830B0110C26E000E9C
:1033D000016EC150F80B0110C16E350E006E002E4B
:1033E000FED7BBEC00F002C0E7F001C0E6F02A9E79
:1033F0001CD0350E006E002EFED7240E016EC2507A
:10340000830B0110C26E000E016EC150F80B01104B
:10341000C16E350E006E002EFED7BBEC00F002C070
:10342000E3F001C0E2F02A8E288444D10401505018
:10343000FF0A371406080BE05050FF0A371405083E
:1034400006E05050FF0A37140C08D8A49ED0000E96
:10345000956E8C9E250E006E002EFED7248C200EBD
:1034600006090F01366FCEC037FF0F01CDC0B3FF85
:10347000CCC0B2FF000E966E8D844F0E006E002EF3
:10348000FED700D0900E946E8B84B18036850001FB
:103490008B5307E18A5305E1895303E188517C0886
:1034A00038E2300E0601AD6F0001E5EC00F0200EB1
:1034B000016EC250830B0110C26E000E016EC1502E
:1034C000F80B0110C16E250E006E002EFED7BBEC6E
:1034D00000F002C0E7F001C0E6F0350E006E002EED
:1034E000FED7240E016EC250830B0110C26E000E77
:1034F000016EC150F80B0110C16E250E006E002E3A
:10350000FED7BBEC00F002C0E3F001C0E2F028847B
:103510003AD02AAE1CD0350E006E002EFED7200EFB
:10352000016EC250830B0110C26E000E016EC150BD
:10353000F80B0110C16E350E006E002EFED7BBECED
:1035400000F002C0E7F001C0E6F02A9E1CD0350E64
:10355000006E002EFED7240E016EC250830B0110A8
:10356000C26E000E016EC150F80B0110C16E350E17
:10357000006E002EFED7BBEC00F002C0E3F001C0ED
:10358000E2F02A8E288496D00401000E956E8C9469
:10359000250E006E002EFED7248AC7C0CFFFC6C0FE
:1035A000CEFF000E956E8C824F0E006E002EFED761
:1035B00000D0000E956E8C8CCD806B8400018753FB
:1035C00007E1865305E1855303E184517C0838E225
:1035D000300E0601AD6F0001E5EC00F01C0E016E2F
:1035E000C250830B0110C26E000E016EC150F80B69
:1035F0000110C16E250E006E002EFED7BBEC00F050
:1036000002C0DFF001C0DEF0350E006E002EFED7E6
:10361000080E016EC250830B0110C26E000E016EC7
:10362000C150F80B0110C16E250E006E002EFED7A2
:10363000BBEC00F002C0DBF001C0DAF028843AD025
:103640002AAA1CD0350E006E002EFED71C0E016E6D
:10365000C250830B0110C26E000E016EC150F80BF8
:103660000110C16E350E006E002EFED7BBEC00F0CF
:1036700002C0DFF001C0DEF02A9A1CD0350E006EC9
:10368000002EFED7080E016EC250830B0110C26ED1
:10369000000E016EC150F80B0110C16E350E006EA8
:1036A000002EFED7BBEC00F002C0DBF001C0DAF068
:1036B0002A8A288458D0040100019B5307E19A53B9
:1036C00005E1995303E198517C0831E2280E016E1F
:1036D000C250830B0110C26E000E016EC150F80B78
:1036E0000110C16E250E006E002EFED7BBEC00F05F
:1036F00002C0E9F001C0E8F0350E006E002EFED7E2
:10370000240E016EC250830B0110C26E000E016EBA
:10371000C150F80B0110C16E250E006E002EFED7B1
:10372000BBEC00F002C0E5F001C0E4F02884900E8C
:10373000946E8B94946E8B92000E966E8D94956E13
:103740008C9E249C9B530DE19A530BE1995309E104
:1037500098517C0806E32AAE01D002D028841F8845
:1037600002D028841F8891D004014A2D8DD00201F7
:10377000C15333E0280E016EC250830B0110C26E9C
:10378000000E016EC150F80B0110C16E250E006EC7
:10379000002EFED70001BBEC00F002C0E9F001C032
:1037A000E8F0350E006E002EFED7240E016EC250DA
:1037B000830B0110C26E000E016EC150F80B011098
:1037C000C16E250E006E002EFED7BBEC00F002C0CD
:1037D000E5F001C0E4F028840201900E946E8B9411
:1037E000946E8B92250E006E002EFED7000E966E04
:1037F0008D94956E8C9E04016F5345E16E510108C6
:1038000042E3705101083FE32B86C3C2C5F2C2C236
:10381000C4F2C3C2C7F2C2C2C6F2300E0601AD6F17
:103820000001E5EC00F0200E016EC250830B011088
:10383000C26E000E016EC150F80B0110C16E250E54
:10384000006E002EFED7E76BE66BE96BE86B350E7A
:10385000006E002EFED7240E016EC250830B0110A5
:10386000C26E000E016EC150F80B0110C16E250E24
:10387000006E002EFED7E36BE26BE56BE46B2884F1
:10388000258A288404011F880001BA9A76EF00F087
:103890009EAAFED7ABCF1CF0AECF01F01CA202D087
:1038A000AB98AB88A2EF1CF00601AE91036AAD5154
:1038B000540FE96E040E0320EA6EEF5004013F5DE1
:1038C00024E023E303014551050819E1462D17D0F3
:1038D000036A0601AD51540FE96E040E0320EA6E2F
:1038E000020EEF2404013F5D04E10601AE8103D026
:1038F00004010601AE910401529706D003010401B0
:1039000052970601AE91040114D0036A0601AD512D
:10391000540FE96E040E0320EA6EEF5004013F5D80
:1039200005E252870601AE9103D004010601AE8183
:103930000401000E0601AEB1010E016E0001CFEFD1
:103940001CF0A6D701C043F404013F530EE14351DC
:1039500014080AE33F513F2B036A450FE96E030E3B
:103960000320EA6E43C4EFFF2AD03F513F2B036A86
:10397000450FE96E030E0320EA6E43C4EFFF3F518B
:1039800001081DE243510D0802E042A918D0428906
:1039900043510A0810E145C3ADF6000185D7015235
:1039A00004E003012E8D03D0000103012E9D0401CC
:1039B00042993F6B04D043510D0801E042999E9A11
:1039C000000176EF00F00601B26BB16BB06BAF6B2C
:1039D00003012EA3AFD0D2C2B8F6D1C2B7F6000110
:1039E00033EC04F003C0B6F602C0B5F601C0B4F67D
:1039F00000C0B3F6D88203C0BAF602C0B9F601C05F
:103A0000B8F600C0B7F634C3BEF633C3BDF632C352
:103A1000BCF631C3BBF61BEC05F003C0B6F602C022
:103A2000B5F601C0B4F600C0B3F6CFC2B8F6CEC248
:103A3000B7F633EC04F00601BA6BB96BB86B7F0EC6
:103A4000B76F03C0BEF602C0BDF601C0BCF600C031
:103A5000BBF600014EEC04F0D882B6C6BAF6B5C685
:103A6000B9F6B4C6B8F6B3C6B7F603C0BEF602C020
:103A7000BDF601C0BCF600C0BBF61BEC05F003C0F0
:103A8000B6F602C0B5F601C0B4F600C0B3F6CDC2BA
:103A9000B8F6CCC2B7F633EC04F00601BA6BB96BDA
:103AA000B86B7F0EB76F03C0BEF602C0BDF601C093
:103AB000BCF600C0BBF600014EEC04F0D882B6C6DE
:103AC000BAF6B5C6B9F6B4C6B8F6B3C6B7F603C00B
:103AD000BEF602C0BDF601C0BCF600C0BBF61BECD2
:103AE00005F003C0B6F602C0B5F601C0B4F600C0DA
:103AF000B3F603C0BAF602C0B9F601C0B8F600C00A
:103B0000B7F60601BE6BBD6B200EBC6F820EBB6F9D
:103B10000001B5EC06F003C0B2F602C0B1F601C078
:103B2000B0F600C0AFF60301346B336B326B316B10
:103B30002E938ED0D2C2B8F6D1C2B7F6000133ECC4
:103B400004F003C0B6F602C0B5F601C0B4F600C07A
:103B5000B3F6CFC2B8F6CEC2B7F633EC04F0060126
:103B6000BA6BB96BB86B7F0EB76F03C0BEF602C0FD
:103B7000BDF601C0BCF600C0BBF600014EEC04F07F
:103B8000D882B6C6BAF6B5C6B9F6B4C6B8F6B3C6E4
:103B9000B7F603C0BEF602C0BDF601C0BCF600C059
:103BA000BBF61BEC05F003C0B6F602C0B5F601C0CB
:103BB000B4F600C0B3F6CDC2B8F6CCC2B7F633EC5B
:103BC00004F00601BA6BB96BB86B7F0EB76F03C018
:103BD000BEF602C0BDF601C0BCF600C0BBF60001D7
:103BE0004EEC04F0D882B6C6BAF6B5C6B9F6B4C67D
:103BF000B8F6B3C6B7F603C0BEF602C0BDF601C044
:103C0000BCF600C0BBF61BEC05F003C0B6F602C064
:103C1000B5F601C0B4F600C0B3F603C0BAF602C0F0
:103C2000B9F601C0B8F600C0B7F60601BE6BBD6BB1
:103C3000200EBC6F820EBB6F0001B5EC06F003C016
:103C4000B2F602C0B1F601C0B0F600C0AFF6030193
:103C50000201CC51CE5D006ECD51CF59036E00C034
:103C6000B7F60601B86F000133EC04F003C0B6F6F6
:103C700002C0B5F601C0B4F600C0B3F603C0BAF690
:103C800002C0B9F601C0B8F600C0B7F6B2C6BEF6BB
:103C9000B1C6BDF6B0C6BCF6AFC6BBF64EEC04F07E
:103CA00003C0EEF202C0EDF201C0ECF200C0EBF294
:103CB000B2C6B6F6B1C6B5F6B0C6B4F6AFC6B3F680
:103CC000FDEC04F002C013F301C012F3B2C6B6F665
:103CD000B1C6B5F6B0C6B4F6AFC6B3F6FDEC04F0A7
:103CE00002C0E0F201C0DFF2E0C2B8F6DFC2B7F610
:103CF00033EC04F0D882B2C6BAF6B1C6B9F6B0C693
:103D0000B8F6AFC6B7F603C0BEF602C0BDF601C036
:103D1000BCF600C0BBF61BEC05F003C0DEF202C02F
:103D2000DDF201C0DCF200C0DBF212002BAC3DD0B2
:103D30002BAE1ED0D89202C3BAF601C3B9F600C3A7
:103D4000B8F6FFC2B7F6CD0E0601BE6FCC0EBD6F42
:103D50004C0EBC6F7B0EBB6F00011BEC05F003C06B
:103D600002F302C001F301C000F300C0FFF21DD056
:103D7000D88202C3BAF601C3B9F600C3B8F6FFC2CF
:103D8000B7F6CD0E0601BE6FCC0EBD6F4C0EBC6FEC
:103D90007B0EBB6F00011BEC05F003C002F302C0F9
:103DA00001F301C000F300C0FFF22BB802D02BAA30
:103DB000ABD12BBCA9D10201E693E695D2C2B8F6ED
:103DC000D1C2B7F6000133EC04F002C3BAF601C366
:103DD000B9F600C3B8F6FFC2B7F603C0BEF602C01C
:103DE000BDF601C0BCF600C0BBF657EC06F0D8A08B
:103DF000A2D00201E6B102D000019DD0D89202C348
:103E0000BAF601C3B9F600C3B8F6FFC2B7F6CD0ED5
:103E10000601BE6FCC0EBD6F4C0EBC6F7B0EBB6F30
:103E200000011BEC05F003C002F302C001F301C066
:103E300000F300C0FFF22BAA7BD07BC0B8F67AC09B
:103E4000B7F633EC04F00601BA6BB96BB86B7F0EB2
:103E5000B76F03C0BEF602C0BDF601C0BCF600C01D
:103E6000BBF600014EEC04F0330E0601BA6FB96FD9
:103E7000730EB86F7F0EB76F03C0BEF602C0BDF6FB
:103E800001C0BCF600C0BBF60001B5EC06F003C0F3
:103E9000B2F602C0B1F601C0B0F600C0AFF6D2C2B1
:103EA000B8F6D1C2B7F633EC04F0D88203C0BAF644
:103EB00002C0B9F601C0B8F600C0B7F6B2C6BEF689
:103EC000B1C6BDF6B0C6BCF6AFC6BBF61BEC05F07E
:103ED00003C0BAF602C0B9F601C0B8F600C0B7F622
:103EE00002C3BEF601C3BDF600C3BCF6FFC2BBF6FB
:103EF00057EC06F001E21CE103012E87D6C23CF329
:103F0000D5C23BF3D4C23AF3D3C239F33CC387F0F2
:103F10003BC386F03AC385F039C384F03CC397F0C5
:103F20003BC396F03AC395F039C394F003D0000137
:103F300003012E97E8D00201E6A131D0D2C2B8F633
:103F4000D1C2B7F6000133EC04F003C0BAF602C0E8
:103F5000B9F601C0B8F600C0B7F602C3BEF601C399
:103F6000BDF600C3BCF6FFC2BBF657EC06F004E298
:103F7000D8B402D0020113D00201E691D2C2B8F641
:103F8000D1C2B7F6000133EC04F003C002F302C063
:103F900001F301C000F300C0FFF2B4D00201E6B1AA
:103FA00092D00601BA6BB96BB86BB76B02C3BEF6A1
:103FB00001C3BDF600C3BCF6FFC2BBF6000157EC5F
:103FC00006F0D8B002D002017ED0D88202C3BAF681
:103FD00001C3B9F600C3B8F6FFC2B7F6CD0E0601AD
:103FE000BE6FCC0EBD6F4C0EBC6F7B0EBB6F000165
:103FF0001BEC05F003C002F302C001F301C000F3A3
:1040000000C0FFF22BAA5DD07BC0B8F67AC0B7F62D
:1040100033EC04F00601BA6BB96BB86B7F0EB76F67
:1040200003C0BEF602C0BDF601C0BCF600C0BBF6C0
:1040300000014EEC04F0330E0601BA6FB96F730E37
:10404000B86F7F0EB76F03C0BEF602C0BDF601C0E9
:10405000BCF600C0BBF60001B5EC06F002C3BAF630
:1040600001C3B9F600C3B8F6FFC2B7F603C0BEF687
:1040700002C0BDF601C0BCF600C0BBF657EC06F0AE
:1040800001E21CE103012E87DAC23CF3D9C23BF303
:10409000D8C23AF3D7C239F33CC387F03BC386F0AA
:1040A0003AC385F039C384F03CC397F03BC396F024
:1040B0003AC395F039C394F003D0000103012E9761
:1040C000000120D00201E6B11DD002C3BAF601C33F
:1040D000B9F600C3B8F6FFC2B7F60601BE6BBD6BFA
:1040E000BC6BBB6B000157EC06F004E2D8B402D005
:1040F000020108D00201E6810301026B016B006B33
:104100000201FF6B030100011200A3C0B0F6A2C0C0
:10411000AFF60601B26B320EB16F000157EC14F02E
:1041200002C01DF301C01CF3030120511C5D1E6F72
:1041300021511D591F6F1F5303E11E51640807E2EF
:104140001D511F5D07E303E11E511C5D03E21F6B60
:10415000640E1E6F1DC3B8F61CC3B7F6000133EC26
:1041600004F0D89203C0BAF602C0B9F601C0B8F69E
:1041700000C0B7F6660E0601BE6FC60EBD6F7F0E9D
:10418000BC6F880EBB6F00011BEC05F003C0B2F6DC
:1041900002C0B1F601C0B0F600C0AFF603C0BAF677
:1041A00002C0B9F601C0B8F600C0B7F6CD0E0601E0
:1041B000BE6FCC0EBD6F130EBC6F830EBB6F0001C4
:1041C0004EEC04F003C025F302C024F301C023F336
:1041D00000C022F31FC3B8F61EC3B7F633EC04F0D9
:1041E000D89203C0BAF602C0B9F601C0B8F600C052
:1041F000B7F6660E0601BE6FC60EBD6F7F0EBC6FB2
:10420000880EBB6F00011BEC05F003C0B2F602C0C4
:10421000B1F601C0B0F600C0AFF603C0BAF602C0F6
:10422000B9F601C0B8F600C0B7F6CD0E0601BE6FF4
:10423000CC0EBD6F130EBC6F830EBB6F00014EEC36
:1042400004F003C0FAF202C0F9F201C0F8F200C0B3
:10425000F7F22BBC75D0D88225C3BAF624C3B9F6C1
:1042600023C3B8F622C3B7F6FAC2BEF6F9C2BDF64A
:10427000F8C2BCF6F7C2BBF61BEC05F003C0B2F601
:1042800002C0B1F601C0B0F600C0AFF6D2C2B8F6B7
:10429000D1C2B7F633EC04F0B2C6BAF6B1C6B9F67D
:1042A000B0C6B8F6AFC6B7F603C0BEF602C0BDF6DC
:1042B00001C0BCF600C0BBF64EEC04F003C029F30D
:1042C00002C028F301C027F300C026F303011E51EA
:1042D0001C5D0601AF6F03011F511D590601B06F30
:1042E000D2C2B8F6D1C2B7F6000133EC04F003C075
:1042F000B4F602C0B3F601C0B2F600C0B1F6B0C663
:10430000B8F6AFC6B7F633EC04F003C0BAF602C095
:10431000B9F601C0B8F600C0B7F6B4C6BEF6B3C66B
:10432000BDF6B2C6BCF6B1C6BBF64EEC04F003C097
:104330002DF302C02CF301C02BF300C02AF374D07C
:10434000D88225C3BAF624C3B9F623C3B8F622C36C
:10435000B7F6FAC2BEF6F9C2BDF6F8C2BCF6F7C2AD
:10436000BBF61BEC05F003C0B2F602C0B1F601C00B
:10437000B0F600C0AFF6D2C2B8F6D1C2B7F633EC91
:1043800004F0B2C6BAF6B1C6B9F6B0C6B8F6AFC652
:10439000B7F603C0BEF602C0BDF601C0BCF600C051
:1043A000BBF64EEC04F003C029F302C028F301C0B1
:1043B00027F300C026F303011E511C5D0601AF6FF9
:1043C00003011F511D590601B06FD2C2B8F6D1C208
:1043D000B7F6000133EC04F003C0B4F602C0B3F644
:1043E00001C0B2F600C0B1F6B0C6B8F6AFC6B7F6B7
:1043F00033EC04F003C0BAF602C0B9F601C0B8F657
:1044000000C0B7F6B4C6BEF6B3C6BDF6B2C6BCF6BB
:10441000B1C6BBF64EEC04F003C02DF302C02CF382
:1044200001C02BF300C02AF3A3C01BF3A2C01AF3F0
:10443000120003012EAB46D02BAE43D0FEC2B6F61F
:10444000FDC2B5F6FCC2B4F6FBC2B3F60001FDEC4A
:1044500004F002C0B0F601C0AFF60601B033AF33CE
:10446000B033AF33B033AFC644FFB033B031300BED
:10447000006E0F014351CF0B0010436F315220E00B
:10448000FEC2B6F6FDC2B5F6FCC2B4F6FBC2B3F688
:104490000001FDEC04F002C0B0F601C0AFF6060169
:1044A000B033AF33B033AF33B033AFC647FFB03301
:1044B000B031300B006E0F014651CF0B0010466F2C
:1044C0000301B4D0D2C2B8F6D1C2B7F6000133ECC2
:1044D00004F0D88203C0BAF602C0B9F601C0B8F63B
:1044E00000C0B7F602C3BEF601C3BDF600C3BCF6FA
:1044F000FFC2BBF61BEC05F003C0B2F602C0B1F67A
:1045000001C0B0F600C0AFF603C0BAF602C0B9F6FB
:1045100001C0B8F600C0B7F629C3BEF628C3BDF681
:1045200027C3BCF626C3BBF6B5EC06F003C0B2F653
:1045300002C0B1F601C0B0F600C0AFF6D89203C019
:10454000BAF602C0B9F601C0B8F600C0B7F6FAC2B2
:10455000BEF6F9C2BDF6F8C2BCF6F7C2BBF61BEC5C
:1045600005F003C0FEF202C0FDF201C0FCF200C083
:10457000FBF2D2C2B8F6D1C2B7F633EC04F0D8825F
:1045800003C0BAF602C0B9F601C0B8F600C0B7F66B
:1045900002C3BEF601C3BDF600C3BCF6FFC2BBF644
:1045A0001BEC05F003C0B2F602C0B1F601C0B0F6D4
:1045B00000C0AFF603C0BAF602C0B9F601C0B8F643
:1045C00000C0B7F62DC3BEF62CC3BDF62BC3BCF698
:1045D0002AC3BBF6B5EC06F003C0B2F602C0B1F6D2
:1045E00001C0B0F600C0AFF61FC3B8F61EC3B7F6E1
:1045F00033EC04F0D892B2C6BAF6B1C6B9F6B0C67A
:10460000B8F6AFC6B7F603C0BEF602C0BDF601C02D
:10461000BCF600C0BBF61BEC05F003C018F302C0EB
:1046200017F301C016F300C015F3030100011200D7
:1046300001012A2BD8B42B2B442BD8B4452B0301D2
:10464000102BD8B4112B01012B5303E12A517C0804
:1046500013E237520EE1040142A102D0010109D058
:1046600042A302D0010105D024B602D0010104D03A
:10467000010124802B6B2A6B04014A53D8A49FD2DA
:1046800037500208D8A49BD21FBC99D242BB97D204
:104690002AB095D20201E6A302D0040190D2E6A589
:1046A00002D004018CD22BBC06D02BB804D02BBA7C
:1046B00002D0040184D20301115304E11451105DAE
:1046C000D8A07CD2116B106B190E146F2BACE2D1F9
:1046D0001251D8B4130712070201E6A708D02BAE77
:1046E00006D0E697E68503012E8309D00201E6A7EE
:1046F00007D02BBE05D0E697E68303012E83020187
:1047000003011253D8A49DD01353D8A49AD0DEC26B
:10471000BAF6DDC2B9F6DCC2B8F6DBC2B7F60601FE
:10472000BE6BBD6B480EBC6F850EBB6F0001B5EC58
:1047300006F003C0B6F602C0B5F601C0B4F600C07C
:10474000B3F6FDEC04F00601B86B01C0B7F600014A
:1047500033EC04F003C0BAF602C0B9F601C0B8F6F3
:1047600000C0B7F60601BE6BBD6BBC6B810EBB6FA4
:1047700000014EEC04F003C0B6F602C0B5F601C06D
:10478000B4F600C0B3F6FDEC04F001C014F3010E62
:104790000201DF250301126F000E0201E021030177
:1047A000136F0201E68703012EAB4BD0FAC2FEF273
:1047B000F9C2FDF2F8C2FCF2F7C2FBF2FEC2B6F695
:1047C000FDC2B5F6FCC2B4F6FBC2B3F60001FDECC7
:1047D00004F002C0B0F601C0AFF60601B033AF334B
:1047E000B033AF33B033AFC644FFB033B031300B6A
:1047F000006E0F014351CF0B0010436F315220E088
:10480000FEC2B6F6FDC2B5F6FCC2B4F6FBC2B3F604
:104810000001FDEC04F002C0B0F601C0AFF60601E5
:10482000B033AF33B033AF33B033AFC647FFB0337D
:10483000B031300B006E0F014651CF0B0010466FA8
:1048400003019E90CE500601AD6FCFCFAEF60001B2
:10485000C6510601AD5D006E0001C7510601AE599B
:10486000036E00C0B7F6B86F000133EC04F003C06C
:10487000B2F602C0B1F601C0B0F600C0AFF641C05A
:10488000B8F640C0B7F633EC04F003C0B6F602C089
:10489000B5F601C0B4F600C0B3F6000ED880C65518
:1048A000006E000EC755016E010ED8A0E806026E1C
:1048B000000ED8A0E806036EE8CFBAF602C0B9F63B
:1048C00001C0B8F600C0B7F6EFEC0BF0B6C6BAF60A
:1048D000B5C6B9F6B4C6B8F6B3C6B7F603C0BEF6E9
:1048E00002C0BDF601C0BCF600C0BBF6B5EC06F0D8
:1048F000D892B2C6BAF6B1C6B9F6B0C6B8F6AFC667
:10490000B7F603C0BEF602C0BDF601C0BCF600C0DB
:10491000BBF61BEC05F003C0B2F602C0B1F601C055
:10492000B0F600C0AFF603C0BAF602C0B9F601C0D7
:10493000B8F600C0B7F6BD0E0601BE6F370EBD6FEC
:10494000060EBC6F6A0EBB6F0001B5EC06F0D89284
:10495000EAC2BAF6E9C2B9F6E8C2B8F6E7C2B7F6F3
:1049600003C0BEF602C0BDF601C0BCF600C0BBF677
:104970001BEC05F003C0EAF202C0E9F201C0E8F264
:1049800000C0E7F2416A406A03012EA37DD02BAE3E
:104990003DD0CFC2B8F6CEC2B7F6000133EC04F07A
:1049A0000601BA6BB96BB86B7F0EB76F03C0BEF66A
:1049B00002C0BDF601C0BCF600C0BBF600014EEC63
:1049C00004F003C0B2F602C0B1F601C0B0F600C0F8
:1049D000AFF6D88203C0BAF602C0B9F601C0B8F685
:1049E00000C0B7F6EAC2BEF6E9C2BDF6E8C2BCF640
:1049F000E7C2BBF61BEC05F003C034F302C033F38F
:104A000001C032F300C031F33CD00301CDC2B8F68F
:104A1000CCC2B7F6000133EC04F00601BA6BB96BF7
:104A2000B86B7F0EB76F03C0BEF602C0BDF601C003
:104A3000BCF600C0BBF600014EEC04F003C0B2F6B9
:104A400002C0B1F601C0B0F600C0AFF6D88203C014
:104A5000BAF602C0B9F601C0B8F600C0B7F6EAC2AD
:104A6000BEF6E9C2BDF6E8C2BCF6E7C2BBF61BEC77
:104A700005F003C034F302C033F301C032F300C0C9
:104A800031F3E3EC1CF00301000141EC09F00201F9
:104A9000E68B0301000196EC1EF02BA877D0010EE7
:104AA00003011A5D0601AF6F000E03011B590601D9
:104AB000B06F0001A3510601B05D08E31FE1AF51E3
:104AC0000001A25DD8B002D0060118D0010E03018A
:104AD0001A250601AF6F000E03011B210601B06FFE
:104AE0000001A35D0EE3D8B402D0060107D0A251A5
:104AF0000601AF5DD8A002D0000103D0000185EC13
:104B000020F097DC2AB042D0FEC2B6F6FDC2B5F660
:104B1000FCC2B4F6FBC2B3F6FDEC04F002C0B0F682
:104B200001C0AFF60601B033AF33B033AF33B033AB
:104B3000AFC644FFB033B031300B006E0F014351AC
:104B4000CF0B0010436F315220E0FEC2B6F6FDC21B
:104B5000B5F6FCC2B4F6FBC2B3F60001FDEC04F0FE
:104B600002C0B0F601C0AFF60601B033AF33B033C8
:104B7000AF33B033AFC647FFB033B031300B006E48
:104B80000F014651CF0B0010466F00012BAA15D024
:104B900003012EB704D000012BEC0BF003012EB55E
:104BA0000DD00201E6A502D0030108D0E6A302D091
:104BB000030104D000010BEC0CF00301040101011E
:104BC000455303E14451170813E237520EE1040143
:104BD00042A102D0010109D042A302D0010105D0B7
:104BE00024B602D0010104D001012484456B446B3A
:104BF0005150180801E2516ABA9C000176EF00F0AA
:104C0000F29276EF00F006019391996B986B976B97
:104C1000966B000E0F01236F246F080E256FC1964F
:104C2000C198C19AC050C00B0A09C06EC08EC28024
:104C30000201236B226B216B206B0C0E016EC250A4
:104C4000830B0110C26E000E016EC150F80B0110F3
:104C5000C16EC282C2B2FED7C4CF95F60601C3CFE1
:104C600094F6C2B2FED7956B946B9A6B9A51040876
:104C700020E30C0E016EC250830B0110C26E000EB9
:104C8000016EC150F80B0110C16EC2B2FED7C282D4
:104C9000C2B2FED7C3CF94F6C4CF95F6C2B2FED748
:104CA0009451962795519723000E982399239A2B78
:104CB000DDD7D8921B6AF2BE1B8EF29E99C6B6F65D
:104CC00098C6B5F697C6B4F696C6B3F6BA6BB96B86
:104CD000B86B050EB76F0001A5EC0BF01BBEF28E92
:104CE00003C099F602C098F601C097F600C096F688
:104CF0001B6AF2BE1B8EF29E99C6BAF698C6B9F62A
:104D000097C6B8F696C6B7F6EFEC0BF01BBEF28E60
:104D10001B6AF2BE1B8EF29E03C0BAF602C0B9F641
:104D200001C0B8F600C0B7F60601BE6B400EBD6FFD
:104D30001C0EBC6F8B0EBB6F0001B5EC06F01BBEEA
:104D4000F28E03C09EF602C09DF601C09CF600C024
:104D50009BF61B6AF2BE1B8EF29E03C0BAF602C01F
:104D6000B9F601C0B8F600C0B7F60601BE6BF00E8A
:104D7000BD6F7F0EBC6F8A0EBB6F00014EEC04F05E
:104D80001BBEF28E03C023F202C022F201C021F248
:104D900000C020F21B6AF2BE1B8EF29E0601BA6BA7
:104DA000F00EB96F200EB86F8B0EB76F23C2BEF630
:104DB00022C2BDF621C2BCF620C2BBF6000157ECF0
:104DC00006F01BBEF28E1AE21B6AF2BE1B8EF29E2A
:104DD00023C2BAF622C2B9F621C2B8F620C2B7F68B
:104DE0000601BE6B900EBD6F170EBC6F8B0EBB6FB6
:104DF000000157EC06F01BBEF28E04E3060193910E
:104E000003D0000106019381000E0F01236F0F0EE6
:104E1000246FF60E256FC196C188C19AC050C00B91
:104E20001609C06EC08EC280000E060193B1010E3D
:104E3000016E00011200060EEA6E810EE96EEF505F
:104E40000EE0140E016E006A002EFED7012EFBD775
:104E5000BF0E006E002EFED700D0EF2EF2D712004C
:104E600006013F514119800B436F3FAF05D03E1FF4
:104E70003F1F3E2BD8B43F2B41AF05D0401F411FF1
:104E8000402BD8B4412B016A026A006A036A41517F
:104E900002E1405118E0100E426FD8903E373F3784
:104EA000003603364151035C02E14051005C07E3E8
:104EB0004051005ED8A003064151035ED880013600
:104EC0000236422FEAD743AF05D0011E021E012A47
:104ED000D8B4022A0001BEEF27F006013A6B396B05
:104EE0003C6B3B6B100E016EC250830B0110C26E07
:104EF000000E016EC150F80B0110C16E250E006E40
:104F0000002EFED7C282C2B2FED7C3CF39F6C4CFBD
:104F10003AF6C2B2FED73A6B396B3D6B3D51090888
:104F200024E3100E016EC250830B0110C26E000EFE
:104F3000016EC150F80B0110C16E250E006E002EDF
:104F4000FED7C282C2B2FED7C3CF3BF6C4CF3CF677
:104F5000C2B2FED73B5139273C513A230A0E816F2A
:104F6000000169DF06013D2BD9D73AC63FF639C6A5
:104F70003EF6416B0A0E406F000172D702C03AF64E
:104F800001C039F63AC644F339C643F33DEFD2F0D7
:104F90000601806B8051130812E3036A8051720F7F
:104FA000E96E040E0320EA6EEF6A036A8051860FF1
:104FB000E96E040E0320EA6EEF6A802BEBD7040142
:104FC0009A6B9B6B9C6B00011200040E0401556FE1
:104FD000566F576F080E586F050E596F1A0E5A6F9D
:104FE0000B0E5B6F280E5C6F080E5D6F110E5E6F0F
:104FF000060E5F6F300E606F110E616F0E0E626FE6
:10500000050E636F0D0E646F090E656F666F040EFB
:10501000676F000141EFD2F00601816B806B80C6A3
:10502000F1F40401F26B0601816B806B80C6F3F42E
:105030000401F46B0601816B806B80C601F50501EC
:10504000026B0601816B806B80C603F50501046B62
:105050000601806B80C611F5806B80C612F5806BEF
:1050600080C619F55A6A5B6A0001626B120006017C
:10507000816B806B80C6F5F40401F66B0601816BD1
:10508000806B80C6F7F40401F86B0601816B806BBE
:1050900080C605F50501066B0601816B806B80C635
:1050A00007F50501086B0601806B80C613F5806B60
:1050B00080C614F5806B80C61AF55C6A5D6A0001D3
:1050C000636B12000601816B806B80C6F9F40401EA
:1050D000FA6B0601816B806B80C6FBF40401FC6BEC
:1050E0000601816B806B80C609F505010A6B06011C
:1050F000816B806B80C60BF505010C6B0601806B24
:1051000080C615F5806B80C616F5806B80C61BF5D2
:105110005E6A5F6A0001646B12000601816B806B3E
:1051200080C6FDF40401FE6B0601816B806B80C6B6
:10513000FFF40501006B0601816B806B80C60DF5E5
:1051400005010E6B0601816B806B80C60FF50501B2
:10515000106B0601806B80C617F5806B80C618F552
:10516000806B80C61CF50001606B616B656B120083
:1051700053DF7DDFA7DFD1DF46EFD2F09EA8FED759
:10518000AD6E1200060192699051050800E0905141
:105190000001F4DF06019051040A000109E0060A4B
:1051A0001CE0110A25E0100A2EE0060A37E05BD069
:1051B000060191510001E2DF3750E0DF5050DEDFA1
:1051C0004F50DCDF04016C510001D8DF90C641F480
:1051D000DD0E0601926F000146D0060191510001DB
:1051E000CDDF90C641F4DD0E0601926F00013BD089
:1051F000060191510001C2DF90C641F4DD0E0601A7
:10520000926F000130D0060191510001B7DF90C6C6
:1052100041F4DD0E0601926F000125D00601915187
:105220000001ACDF0601912D17D00001ECDC259CBC
:1052300001B0258C000E25BC010EA0DF1EC093F628
:105240000601935100019ADF1DC093F606019351A8
:10525000000194DF04D00601CC0E00018FDFDD0ECB
:105260000601926F000106019251DD0806E10D0E64
:10527000000184DF0A0E82DF060192C601F0000100
:1052800012000601936B010E926F915304E1936B30
:10529000010E926F1BD0946B9151945D17E21B6AC3
:1052A000F2BE1B8EF29E93C6B0F692C6AFF6B26BFC
:1052B00090C6B1F6000157EC14F01BBEF28E02C08E
:1052C00093F601C092F60601942BE6D792C601F040
:1052D00093C602F0000143EF2AF006019451FF0A41
:1052E000010F016E000112000601946B936B945143
:1052F000925D19E303E19151935D15E2966B956B15
:10530000965103080CE303E19551830808E3050E69
:10531000006E002EFED7952BD8B4962BF1D7932B89
:10532000D8B4942BE4D7000112000601902D04D0CC
:10533000010E936E8A8405D0905303E1010E936EA3
:105340008A86926B960E916F0001CEDF010E936EEE
:105350008A94936E8A96120006018169826B836B30
:1053600045C340F404014051050802E040C441F443
:10537000010E405DED0FD8B00BEF2FF0130F0001C1
:105380004FEF2FF003014651CA0808E1050E060150
:10539000906F010E916F0001F5DE0301DD0E060135
:1053A000816F04010BEF2FF047C337F048C350F073
:1053B00049C34FF04AC36CF46CC49EF56CC4BDF590
:1053C00003014651AA0A00010BE0110A32E0660A05
:1053D0004BE0330A4FE0410A5EE0110A62E08CD0F4
:1053E00004014A51FB0F21E2050F000110EF2FF0DD
:1053F00003012E8F040119D004014281429F15D070
:1054000004014283249642AF02D05283429F0DD0C2
:10541000040142932486429F08D00401428542AF92
:1054200002D05283429F01D00401DD0E0601816F3C
:1054300065D004014A51FB0F13E2050F000125EF6F
:105440002FF003012E9F04010BD00401429108D0DC
:1054500004014293249604D00401429501D0040132
:10546000DD0E0601816F4AD00401428BDD0E06017C
:10547000816F44D00401429B020E0601906F4FC021
:1054800091F60001FED601C066F003012E8FDD0EFD
:105490000601816F33D00401428FDD0E0601816F5A
:1054A0002DD004014A51FB0F22E2050F00013AEF13
:1054B0002FF004011CD00401428119D06A2D02D0C2
:1054C000010E356E355204E10401428303D0000120
:1054D0002486040142AF02D0429F528308D00401C7
:1054E000428542AF02D0429F528301D00401DD0EBB
:1054F0000601816F03D00001060181698151DD0839
:1055000007E1050E906F040E916F00013BDE06016E
:1055100004010BEF2FF00601846B8451240830E363
:10552000036A8451C20F016E040E032203C091F678
:10553000010E8425036A450FE96E030E0320EA6E0F
:10554000EFCF92F691C6EAFF01C0E9FF92C6EFFFE6
:10555000845124080AE0036A8451C20FE96E040EE4
:105560000320EA6EEF50822709D0036A8451C20FEC
:10557000E96E040E0320EA6EEFCF83F6842BCDD7BD
:1055800082C694F60001A9DE01500601835D17E191
:10559000040EEA6E9D0EE96E040EE26EC20EE16E1E
:1055A000250E016EE6CFEEFF012EFCD7050E906FA3
:1055B000080E916F0001E6DDDD0E0601816F04012A
:1055C0000BEF2FF00601856B8551040830E3036A69
:1055D0008551EC0F016E040E032203C091F6010EFB
:1055E0008525036A450FE96E030E0320EA6EEFCFAF
:1055F00092F691C6EAFF01C0E9FF92C6EFFF85511E
:1056000004080AE0036A8551EC0FE96E040E0320DA
:10561000EA6EEF50822709D0036A8551EC0FE96EDC
:10562000040E0320EA6EEFCF83F6852BCDD782C61A
:1056300094F6000152DE01500601835D17E1040E6D
:10564000EA6EE70EE96E040EE26EEC0EE16E050EF8
:10565000016EE6CFEEFF012EFCD7050E906F090E0E
:10566000916F00018FDDDD0E0601816F04010BEFEC
:105670002FF00601866B86510D0830E3036A8651D0
:10568000590F016E050E032203C091F6010E862507
:10569000036A450FE96E030E0320EA6EEFCF92F620
:1056A00091C6EAFF01C0E9FF92C6EFFF86510D08DF
:1056B0000AE0036A8651590FE96E050E0320EA6E6F
:1056C000EF50822709D0036A8651590FE96E050E03
:1056D0000320EA6EEFCF83F6862BCDD782C694F6F1
:1056E0000001FBDD01500601835D17E1050EEA6E46
:1056F0004B0EE96E050EE26E590EE16E0E0E016E56
:10570000E6CFEEFF012EFCD7050E906F0A0E916FCB
:10571000000138DDDD0E0601816F04017CD3060136
:10572000876B8751020830E3036A87516A0F016E65
:10573000050E032203C091F6010E8725036A450F6B
:10574000E96E030E0320EA6EEFCF92F691C6EAFFF0
:1057500001C0E9FF92C6EFFF875102080AE0036A21
:1057600087516A0FE96E050E0320EA6EEF5082271B
:1057700009D0036A87516A0FE96E050E0320EA6EAD
:10578000EFCF83F6872BCDD782C694F60001A5DD37
:1057900001500601835D0FE16AC567F56BC568F5C9
:1057A0006CC569F5050E906F0B0E916F0001EADC78
:1057B000DD0E0601816F04012ED30601886B88512E
:1057C000160830E3036A8851A00F016E050E03220C
:1057D00003C091F6010E8825036A450FE96E030E9A
:1057E0000320EA6EEFCF92F691C6EAFF01C0E9FF0F
:1057F00092C6EFFF885116080AE0036A8851A00F8D
:10580000E96E050E0320EA6EEF50822709D0036A85
:105810008851A00FE96E050E0320EA6EEFCF83F6E4
:10582000882BCDD782C694F6000157DD01500601C2
:10583000835D17E1050EEA6E890EE96E050EE26ED4
:10584000A00EE16E170E016EE6CFEEFF012EFCD723
:10585000050E906F060E916F000194DCDD0E0601BF
:10586000816F0401D8D20601896B8951070830E3A2
:10587000036A8951BF0F016E050E032203C091F622
:10588000010E8925036A450FE96E030E0320EA6EB7
:10589000EFCF92F691C6EAFF01C0E9FF92C6EFFF93
:1058A000895107080AE0036A8951BF0FE96E050EA6
:1058B0000320EA6EEF50822709D0036A8951BF0F97
:1058C000E96E050E0320EA6EEFCF83F6892BCDD764
:1058D00082C694F6000101DD01500601835D17E1E7
:1058E000050EEA6EB70EE96E050EE26EBF0EE16EB2
:1058F000080E016EE6CFEEFF012EFCD7050E906F6D
:10590000070E916F00013EDCDD0E0601816F040180
:1059100082D206018A6B8A512C0830E3036A8A51CD
:105920001E0F016E050E032203C091F6010E8A259B
:10593000036A450FE96E030E0320EA6EEFCF92F67D
:1059400091C6EAFF01C0E9FF92C6EFFF8A512C0819
:105950000AE0036A8A511E0FE96E050E0320EA6E03
:10596000EF50822709D0036A8A511E0FE96E050E97
:105970000320EA6EEFCF83F68A2BCDD782C694F64A
:105980000001ABDC01500601835D18E1040EEA6EF4
:10599000F10EE96E050EE26E1E0EE16E2D0E016E29
:1059A000E6CFEEFF012EFCD7050E906F0C0E916F27
:1059B0000001C2EC28F0DD0E0601816F04012BD23C
:1059C00006018B6B8B510D0830E3036A8B517B0F03
:1059D000016E050E032203C091F6010E8B25036AAA
:1059E000450FE96E030E0320EA6EEFCF92F691C6E3
:1059F000EAFF01C0E9FF92C6EFFF8B510D080AE0F4
:105A0000036A8B517B0FE96E050E0320EA6EEF509F
:105A1000822709D0036A8B517B0FE96E050E0320A4
:105A2000EA6EEFCF83F68B2BCDD782C694F60001BA
:105A300054DC01500601835D18E1050EEA6E6D0E1F
:105A4000E96E050EE26E7B0EE16E0E0E016EE6CF84
:105A5000EEFF012EFCD7050E906F0D0E916F000129
:105A6000C2EC28F0DD0E0601816F0401D4D10601DD
:105A70008C6B8C510A0830E3036A8C51D20F016E93
:105A8000050E032203C091F6010E8C25036A450F13
:105A9000E96E030E0320EA6EEFCF92F691C6EAFF9D
:105AA00001C0E9FF92C6EFFF8C510A080AE0036AC1
:105AB0008C51D20FE96E050E0320EA6EEF5082275B
:105AC00009D0036A8C51D20FE96E050E0320EA6EED
:105AD000EFCF83F68C2BCDD782C694F600016DEC08
